:020000040800F2
:1000000050040024C10200085F190008911800087C
:100010005D1900082D0300087D1E00080000000087
:10002000000000000000000000000000191D000892
:100030002F030008000000007B1A00081B1D0008A9
:10004000DB020008DB020008DB020008DB0200081C
:10005000DB020008DB020008DB020008DB0200080C
:10006000DB020008DB020008DB020008DB020008FC
:10007000DB020008DB020008DB020008DB020008EC
:10008000DB020008DB020008DB020008DB020008DC
:10009000DB020008DB020008DB020008DB020008CC
:1000A000DB020008DB020008DB020008DB020008BC
:1000B000DB020008DB020008DB020008DB020008AC
:1000C000DB020008DB020008DB020008DB0200089C
:1000D000DB020008DB020008DB020008DB0200088C
:1000E000DB020008DB020008DB020008DB0200087C
:1000F000DB020008DB020008DB020008DB0200086C
:10010000DB020008DB020008DB020008DB0200085B
:10011000DB020008DB020008DB020008DB0200084B
:10012000DB020008DB020008DB020008DB0200083B
:10013000DB0200080000000000000000DB020008F5
:10014000DB020008DB020008DB020008DB0200081B
:10015000DB020008DB020008DB020008DB0200080B
:10016000DB020008DB020008DB020008DB020008FB
:10017000DB020008DB020008DB020008DB020008EB
:10018000DB020008DB020008DB020008DB020008DB
:10019000DB020008DB020008DB020008DB020008CB
:1001A000DB020008DB020008DB020008DB020008BB
:1001B000DB020008DB020008DB020008DB020008AB
:1001C000DB020008DB020008000000000000000065
:1001D0000000000000000000DB020008000000003A
:1001E000000000000000000000000000000000000F
:1001F0000000000000000000DB020008DB02000835
:10020000DB020008DB02000800000000DB0200083F
:10021000DB020008DB020008DB020008DB0200084A
:10022000DB020008DB020008DB020008000000001F
:10023000DB020008DB02000800000000DB0200080F
:10024000DB020008DB020008DB020008DB0200081A
:10025000DB020008DB020008DB020008DB0200080A
:10026000DB020008DB020008DB020008DB020008FA
:10027000DB020008DB020008DB02000800000000CF
:10028000DB020008DB02000800000000DB020008BF
:1002900000000000DB020008DB020008DB020008AF
:1002A000DB020008DB020008DB020008DFF80CD0EC
:1002B00000F02AF800480047A51E0008500400245A
:1002C0000648804706480047FEE7FEE7FEE7FEE7F0
:1002D000FEE7FEE7FEE7FEE7FEE7FEE7E11D0008BA
:1002E000AD020008D2B201E000F8012B491EFBD29A
:1002F00070470022F6E710B513460A460446194631
:10030000FFF7F0FF204610BD064C074D06E0E06801
:1003100040F0010394E8070098471034AC42F6D34C
:10032000FFF7C8FF401F0008601F0008FEE7704786
:10033000EFF3108072B6FEE7B0B5044600F0DEF8C9
:1003400005469A48611C007818BF044400F0D6F8AE
:10035000401BA042FAD3B0BD2DE9FC4F5C4A0A24F1
:100360004FF0000A4FF0000990425A4A08BF092492
:1003700002444FEAB223092B38BF4FEAB22400945B
:1003800000220E6836FA02F700F0A080012303FA7B
:1003900002F716EA070B00F09380D1F804E003237C
:1003A0000EF0030CACF10105012D13D803FA09F589
:1003B0008468CB68AC4303FA09F36FEA050823436A
:1003C0008360CEF300134468BC439340570023433B
:1003D00043600BE003FA09F3BCF1030F4F466FEAE9
:1003E000030803D14F464FF0030C20E0C3688C682C
:1003F00003EA0803BC402343C360BCF1020F16D1DB
:100400000AF01C030F2404FA03FC6FF0030404EA4F
:10041000520505442C6A24EA0C0C0C6904FA03F317
:1004200043EA0C032B62D1F804E00EF0030C0468DD
:100430000CFA07F304EA0804234303601EF4403F68
:100440003ED0834C254E236843F00203236023688B
:100450000F2403F002030193019D0AF00C0322F024
:1004600003059C40AF5927EA0404009F07FA03F3F1
:100470002343AB514FF0B04633684D6843EA0B0459
:10048000EF0258BF23EA0B043460134EAF02336807
:1004900043EA0B0458BF23EA0B043460AF03D6F8D9
:1004A000803043EA0B0458BF23EA0B04C6F88040AF
:1004B000ED03F36F43EA0B0458BF23EA0B04F46720
:1004C0000AF1040A09F1020901325AE7BDE8FC8F7A
:1004D000002402580000FEA7040000580804005839
:1004E000426902EA0103914341EA03418161704795
:1004F000002A08BF090481617047000005480068B0
:10050000704700BF2948034900780A681044086012
:10051000704700BF4C00002480B5032000F0B6F8FF
:1005200000F082FD0E490F4B0A68096801F00F01C7
:10053000C2F30322595C9A5C01F01F0102F01F0212
:10054000D0401B4A1060C840074908600F2000F0E7
:100550000DF808B1012080BD00F06CF8002080BDCE
:10056000184402582E1F00080C00002470B50F4ECE
:1005700004463078B0B14FF47A71B1FBF0F00C4919
:100580000968B1FBF0F001F06FF901250F2C0AD8D2
:1005900048B94FF0FF3021460022002500F05AF8FC
:1005A000746000E00125284670BD00BF00000024F3
:1005B000080000240278114943780B60D2B14368E7
:1005C0004B60037B42EA0372C37A42EA0362837A96
:1005D00042EAC342437B42EA8342837B42EA43428C
:1005E000C37B42EA0342437A007A42EA032242EAA8
:1005F000400001E0002048608860704798ED00E00E
:100600000B48BFF35F8F016821F480310160002146
:1006100001677047064940F001000867086840F428
:1006200080300860BFF34F8FBFF36F8F704700BFFC
:1006300024ED00E081B00648016841F0020101604C
:10064000006800F002000090009801B0704700BF01
:100650005445025870B5134B4FF0FF351B68C3F378
:100660000223DC1E83F0070338BF002405FA04F6DA
:10067000B243042B28BF042305FA03F39943A14096
:100680001143BDE8704001F0FBBB00BF05494FF6C8
:10069000FF030A681A4060F30A2203481043086007
:1006A000704700BF0CED00E00000FA05B0B50F4D3B
:1006B0002A682968520705D401F00701081A18BFF3
:1006C0000120B0BD21F00701084301F062F90446A2
:1006D00055F8080C800406D4FFF710FF01F049F923
:1006E000F6D90120B0BD0020B0BD00BF0C480258B3
:1006F0000248016841F48071016070470048025867
:100700002DE9F0470446C078A54F00071CD5A06E20
:100710004FEA3051032908D8DFE801F002090C1133
:10072000F96941F40031F96109E001260DE001F0B9
:100730004EF901E001F06CF9064630B9A06E396C53
:1007400021F440110843386400266078BA46C00797
:1007500001D1354620E0606D04280BD83546DFE82E
:1007600000F0030C0F121200F869354640F4003017
:10077000F86108E0012501270FE001F07AF901E0B6
:1007800001F016F905462F463DB9606D01F008F9F4
:1007900021F0070101F024F93746607880071ED563
:1007A000A06D4FEAB010052807D8DFE800F0030974
:1007B0000C0F0F0F01F0E5F808E0012501260FE00E
:1007C00001F057F901E001F0F3F805462E463DB976
:1007D000A06D01F0E5F821F4E07101F001F93E4669
:1007E000607840071ED5E06D4FEA7020052807D8D5
:1007F000DFE800F003090C0F0F0F01F0C2F808E06A
:10080000012501270FE001F034F901E001F0D0F8F3
:1008100005462F463DB9E06D01F0C2F821F4606154
:1008200001F0DEF83746E07880071DD5A06C4FEA6E
:100830003010032806D8DFE800F00B02080B01F0A7
:10084000A0F805E0012501260FE001F0C0F80546FB
:100850002E4655B9A06CDAF83C100025524621F01E
:1008600030010843CAF83C003E466078C0061ED5F9
:10087000206E4FEA3030042807D8DFE800F0030983
:100880000C0F0F0001F07DF808E0012501270FE0B3
:1008900001F0EFF801E001F08BF805462F463DB975
:1008A000206E01F07DF821F4E04101F099F837461F
:1008B000607880061BD5606E4FEA3040052807D867
:1008C000DFE800F00C03090C0C0C01F065F804E003
:1008D000012501260CE001F0C7F805462E463DB97A
:1008E000606E01F05DF821F4E02101F079F83E46F8
:1008F000607840061ED5D4F8AC004FEA3070062868
:1009000008D8DFE800F00D040A0D0D0D0D0001F010
:1009100043F804E0012501270DE001F0A5F80546A4
:100920002F4645B9D4F8AC0001F04CF821F0E04175
:1009300001F05DF837466078000616D5606F58B153
:10094000B0F1005F05D0B0F1805F22D101F019F85D
:1009500002E001F021F805462E463DB9606F01F036
:100960001FF821F0405101F03BF83E46E078C00707
:1009700002D1B046574622E0606C574603280BD898
:10098000DFE800F013021013F86940F40030F8615A
:100990000BE001250126E9E701254FF001080EE0F3
:1009A0001044025801F013F80546A8463DB9606CA2
:1009B000F96B0025B04621F003010843F863A078E5
:1009C000400601D4474616E0D7F8F00340F48070A3
:1009D000C7F8F003FFF792FD0646D7F8F003C0050D
:1009E00007D4FFF78BFD801B6428F6D90325032766
:1009F00001E02F4685B12078C00748D0D4F88000A8
:100A00004FEAF000052832D8DFE800F0370334372A
:100A1000373700F0C1FF2FE0DAF86010D4F8B000EB
:100A20005546414011F4407F0BD0296E2A6E42F4A6
:100A300080322A6621F440712A6E22F480322A66BE
:100A40002966B0F5807F40F0CA81FFF757FD064662
:100A500041F288390327DAF86000800700F1BC8191
:100A6000FFF74CFD801B03254845F4D9C3E701255A
:100A700001260DE000F0F8FF05462E4645B9D4F8F2
:100A8000800000F0A8FF21F0380100F0B9FF3E46D9
:100A90002078800719D5E06F052807D8DFE800F037
:100AA0000C03090C0C0C00F077FF04E00125012772
:100AB0000CE000F0D9FF05462F463DB9E06F00F08D
:100AC0008AFF21F0070100F09BFF3746207840079E
:100AD0001BD5D4F89800052807D8DFE800F00C03F0
:100AE000090C0C0C00F058FF04E0012501260DE074
:100AF00000F0BAFF05462E4645B9D4F8980000F03C
:100B000061FF21F0070100F072FF3E462078800669
:100B10001DD5D4F894004FEA3070052807D8DFE8D7
:100B200000F00C03090C0C0C00F0A3FF04E00125FD
:100B300001270DE000F06CFF05462F4645B9D4F8BB
:100B4000940000F048FF21F0E04100F059FF3746E3
:100B5000207840061DD5D4F8A0004FEAB020052823
:100B600007D8DFE800F00C03090C0C0C00F081FF43
:100B700004E0012501260DE000F04AFF05462E465F
:100B800045B9D4F8A00000F01DFF21F4E05100F0B9
:100B90002EFF3E46207800061DD5D4F8A4004FEA6B
:100BA0007030052807D8DFE800F00C03090C0C0CA6
:100BB00000F05FFF04E0012501270DE000F028FFB1
:100BC00005462F4645B9D4F8A40000F0FBFE21F4F9
:100BD000604100F00CFF37462068010714D5D4F8B7
:100BE0008810B1F5805F07D100F012FF002818BF10
:100BF00001272068D4F88810DAF84420534622F4FC
:100C000040521143CAF84410C10614D5D4F89C10C0
:100C1000B1F5807F07D100F0FBFE002818BF012747
:100C20002068D4F89C10DAF84820534622F4407229
:100C30001143CAF84810000318D5D4F8A800B0F53D
:100C4000003F09D0B0F5803F03D010BB00F011FF8A
:100C500001E000F0DDFE05462E4645B9D4F8A800B7
:100C600000F0B0FE21F4403100F0C1FE3E46A07815
:100C700040071ED5D4F88C00B0F5401F0FD0B0F55A
:100C8000001F09D0B0F5801F40F0A38000F079FE6E
:100C900005E001250126EAE700F0E6FE05462F46BD
:100CA00045B9D4F88C0000F096FE21F4401100F014
:100CB000A7FE3746A078C00701D13E4619E0E06C98
:100CC000B0F5803F03D090B900F05BFE02E000F089
:100CD0007EFE05462E4665B9E06CDAF83C1000252C
:100CE000524621F480310843CAF83C00E5E701256B
:100CF00001262068810005D500F08AFE002818BF73
:100D00000126206881031CD5D4F884106FF00102FD
:100D100002EB3122022A0AD34FEA31223AB1012AE8
:100D200006D1DAF81C2042F40032CAF81C200DB1BA
:100D3000012606E0DAF8442022F440721143CAF892
:100D40004410C10207D5A16FDAF8402022F000421A
:100D50001143CAF84010810207D5E16EDAF840204D
:100D600022F080721143CAF84010010507D5216FA7
:100D7000DAF8482022F000621143CAF84810410016
:100D80000CD5DAF8001021F40041CAF80010D4F8AC
:100D9000B410DAF800201143CAF80010B0F1FF3F98
:100DA00007DC216DDAF83C2022F040521143CAF8EA
:100DB0003C10000207D5D4F89000DAF8441021F472
:100DC000400100F01DFE002E18BF01263046BDE890
:100DD000F087012501276DE75546D4F8B0002A6851
:100DE000094900F4407322F47C5201EA1011B3F572
:100DF000407F6FF31F3008BF0A432A60296E084303
:100E000028660025DEE500BFCFFFFF002DE9F8438F
:100E1000002800F0FB807F4D04468846286800F0DB
:100E20000F0088420BD2286820F00F0040EA08002B
:100E30002860286800F00F00404540F0E7802068F7
:100E4000AE4F410709D52169BA6900F0DDFD04D92B
:100E5000BA6922F070021143B961010709D56169CD
:100E6000FA6900F0D1FD04D9FA6922F07002114349
:100E7000F961C1060AD5A169FA6902F4E0629142FA
:100E800004D9FA6922F4E0621143F961810609D5B7
:100E9000E1693A6A00F0B8FD04D93A6A22F07002BA
:100EA0001143396210F002010AD0E268BB6903F015
:100EB0000F039A4204D9BB6923F00F031A43BA61A6
:100EC000C2073AD0D4E90101BA6922F47062114331
:100ED000B961012807D0032809D002280BD139684D
:100EE00089030CD492E03968C90508D48EE03968CA
:100EF000890104D48AE03968490740F1878039695B
:100F0000A94621F0070108433861FFF7F7FA0646C2
:100F100041F288356068396901F03801B1EBC00FE2
:100F200007D0FFF7EBFA801BA842F3D90320BDE8F6
:100F3000F88320684D4600F0020151B1E168BA69BA
:100F400002F00F02914204D2BA6922F00F0211435B
:100F5000B961296801F00F0141450AD9296821F0DA
:100F60000F0141EA08012960296801F00F0141459C
:100F70004CD1410709D52169BA6900F045FD04D279
:100F8000BA6922F070021143B961010709D561699C
:100F9000FA6900F039FD04D2FA6922F070021143B7
:100FA000F961C1060AD5A169FA6902F4E0629142C9
:100FB00004D2FA6922F4E0621143F96180060AD58D
:100FC000E069396A01F07001884204D2396A21F07F
:100FD00070010843386200F027F8B9690E4A0F4BD8
:100FE000C1F30321515C01F01F01C840B9691860C9
:100FF00001F00F01515C01F01F01C8400849086071
:1010000008480068BDE8F843FFF7B0BA0120BDE822
:10101000F88300BF002000522E1F000808000024A3
:101020000C0000240400002410B534490869C0F302
:10103000C20003280FD0022804BF324810BD40B9B7
:1010400008688006334858D50968C1F3C101C84013
:1010500010BD2B4810BD8A6A886ACB6A4C6BC0F3FE
:101060000510F0B103F00103C4F3CC0402F0030255
:101070006343022A00EE103AB8EE400A13D0AAB930
:101080000A68920651BF9FED221A0A68C2F3C10294
:10109000204B42BF23FA02F201EE102AB8EE411AA9
:1010A00006E0002010BD9FED191A01E09FED161A11
:1010B0000A6B9FED193A6FF35F2202EE102AB8EE29
:1010C000422A00EE032AB7EE000A32EE000A02EED0
:1010D000100A086BC0F34620B8EE422A013081EEB8
:1010E000021A21EE000A01EE100AB8EE411A80EE53
:1010F000010ABCEEC00A10EE100A10BD00440258EE
:1011000000093D0040787D010024744A20BCBE4B9C
:101110000024744C0090D00300000039F8B500287A
:1011200000F0C58004460078DA4EC0071FD1207851
:10113000800766D5306910F03801B06A44D01829AC
:1011400001D1800740D03068E168002900F00C81AF
:1011500020F01900084300F009FC054630684007FC
:1011600048D4FFF7CBF9401B0228F7D990E130694A
:1011700000F03801B06A102905D018290AD100F012
:101180000300022806D130688003D0D560680028AB
:10119000CDD18CE06068002800F04681B0F5A81F32
:1011A00000F05981B0F5A02F00F05D81B0F5803FCF
:1011B00000F05F81306820F480303060306820F4C7
:1011C000802000F02EFC57E1E0683168490701D526
:1011D00000286CD0316821F01901084300F0C6FBEB
:1011E00005463068400705D4FFF788F900F0C5FBD5
:1011F000F7D9F8BD2069716821F0FE4141EA00602D
:1012000070602078C00618D5306900F03801B06AE7
:10121000082905D0182971D100F0030001286DD1EB
:101220003068C00502D5E069802840D1206AF168A5
:1012300021F07C5141EA0060F0602078000738D44A
:101240002078800648D4207840076AD4676A67B35C
:10125000306900F03800182840F0CA80B16A306B5D
:10126000012F24D0A26A01F0030393421FD1E26A46
:10127000C1F3051191421AD10146226B6FF35F2130
:10128000013A914213D1626BC0F34621013A914277
:101290000DD1A26BC0F30641013A914207D1E16B37
:1012A000C0F306600139884201D10020F8BD012059
:1012B000F8BD706F6169002946D040F00100706789
:1012C000FFF71CF90546706F8007B9D4FFF716F9D0
:1012D000401B0228F7D9DBE03068A169002969D0FA
:1012E00040F4805000F042FB054630688004AAD4E8
:1012F000FFF704F9401B0228F7D9C9E03068E1691B
:10130000002966D040F0800000F030FB05463068D0
:10131000C0053FF58BAFFFF7F1F800F02EFBF6D9D3
:1013200067E7D6F8000440F48070C6F80004FFF7C1
:10133000E5F80546D6F80004C00524D4FFF7DEF82A
:10134000401B6428F6D9A3E020F001007067FFF786
:10135000D5F80546706F80077FF572AFFFF7CEF8BE
:1013600000F00BFBF6D944E720F0010000F0FEFA94
:101370000546306840077FF544AFFFF7BFF800F03F
:10138000FCFAF6D935E7A068002800F085808528AA
:1013900000F09C80052800F0A180012800F0A480C6
:1013A000306F20F001003067306F20F0040000F053
:1013B00022FB9CE020F4805000F0D8FA054630680B
:1013C00080047FF540AFFFF799F800F0D6FAF6D920
:1013D0000FE720F0800000F0C9FA05463068C0052C
:1013E0007FF52BAFFFF78AF800F0C7FAF6D900E7D0
:1013F000306820F0807000F0B9FA0546022F09D15C
:101400003068800140F18480FFF778F800F0B5FA89
:10141000F6D9EEE6306880017FF547AFFFF76EF84A
:1014200000F0ABFAF6D9E4E6306820F4803000F042
:10143000F8FA3060306820F4802000F097FA054612
:10144000306880037FF573AEFFF758F8411B032027
:101450006429F5D9CDE6306840F4802030603068EA
:1014600040F4801004E0306840F4802000F0D9FAA5
:101470003060306840F4803000F078FA054630681B
:1014800080033FF554AEFFF739F8401B6428F6D9C6
:101490000320F8BD00440258306F20F0010000F036
:1014A000AAFA3067306F20F004003067FFF726F8A3
:1014B000054641F28837306F80077FF5C7AEFFF7EA
:1014C0001DF8411B0320B942F5D992E6306F40F078
:1014D00004003067306F40F0800004E0306F40F06F
:1014E000040000F088FA3067306F40F00100306788
:1014F000FFF704F8054641F28837306F80073FF563
:10150000A5AEFEF7FBFF411B0320B942F5D970E6FB
:1015100004F12805B06A40F2F33188432ECD084328
:10152000591E40EA0210B0626FF35F214FF4FE02D1
:101530004FF47E4000EB452080B20844A16B02EBE3
:1015400001414FF0FE4201F4FE010844E16B02EB61
:10155000016101F0FE41084430634FF6F871F06A12
:1015600020F00100F062706B8843A16C40EAC1007A
:101570007063206CF16A21F00C010843F062F06A9C
:10158000616C20F002000843F062F06A40F48030A1
:10159000F062F06A40F40030F062F06A40F48020BB
:1015A000F062F06A40F00100F062306840F0807054
:1015B00000F0DCF90446306880013FF576AEFEF7B6
:1015C0009DFF011B03200229F5D912E67047F8B5EB
:1015D0000446007A012801D1022543E0012020724F
:1015E000607A012808D1022060720E4620684068A7
:1015F000400605D400250DE001250420E0602FE021
:101600000820E060204600F0F9FA0546012801D1E3
:10161000012527E0FEF772FF074620684168C907E9
:101620000FD1FEF76BFFC01B0328F6D3206840687C
:10163000C007F2D100200125657220720220E0600F
:1016400010E0816821614268520601D4316005E0F2
:101650000821E160416821F00101416001206072D0
:10166000002020722846F8BDB0B500284DD00446B1
:10167000407A20B900202072204600F051F8022064
:101680006072D4E90001026822F00402026002687C
:1016900022F02002114341F0804101601E490161A6
:1016A0001E49016100F05CF90546206801684900A7
:1016B0000DD5FEF723FF401B0328F6D320680068F2
:1016C0004000F2D5012060720221E160B0BD0168E6
:1016D00041F0040101604068400614D4FEF70EFF9B
:1016E000054620684068400711D5FEF707FF401BFC
:1016F0000328F6D3206840684007F2D504206072C2
:101700000220E06001E0042060720120B0BD0120F1
:1017100060720020E060B0BDBC0A591774AA0C00CA
:1017200010B5B0B0044602A8B4210430FEF7E1FDC4
:1017300020687B49884214D1002023904FF4003068
:10174000029002A8FEF7DCFF08B1FEF7F1FD0648A3
:10175000016841F040010160006800F04000019024
:10176000019830B010BD00BF3C45025870B5B8B309
:10177000044690F8250028B9002084F8240020466B
:1017800000F038F8022084F82500CA212068416260
:1017900000F065F900BB94E80F00154E85693540EF
:1017A000856125692943A5692943856929438161A3
:1017B00043EA0241016100F0F8F868B92068D4E911
:1017C000072361691A438569114325F060458561E6
:1017D000826911438161002000F0EFF802D070BDF2
:1017E000012070BD012084F82500002070BD00BFDD
:1017F000BFFF8FFB10B5AEB004466846B42104307D
:10180000FEF777FD20685449884210D14FF480706C
:101810002C904FF4800000906846FEF771FF08B1ED
:10182000FEF786FD0348016841F4004101602EB0D7
:1018300010BD00BF70440258B0B504460068C168CE
:1018400021F0A001C160FEF759FE05462068C0687E
:10185000800606D4FEF752FE00F0DFF8F6D903202A
:10186000B0BD0020B0BD0000411E0020B0EB116FE4
:1018700001D001207047044AF023516003490B70E6
:10188000906007211160704710E000E023ED00E058
:10189000FEE70000F0B587B0174800250695174C05
:1018A000012208260127016841F01001016001684A
:1018B00001F0100101910199016841F004010160FA
:1018C000016801F0040101910199016841F0800172
:1018D00001600068082100F0800001900198204616
:1018E000FEF706FECDE90455CDE9026702A92046C0
:1018F000FEF732FD07B0F0BD404502580010025817
:1019000080B506480021064AC0E90021FFF7ACFE79
:1019100018B1BDE88040FEF70BBD80BD100000246B
:1019200000180248B0B50B4800224FF080410A4D24
:10193000FF237F24C0E90052C0E90243C0E904222A
:10194000C0E90621FFF712FF18B1BDE8B040FEF76D
:10195000EFBCB0BD2400002400400058FEE7FEE7C5
:10196000016821F080410160FEF7C8BD3060FEF7DC
:10197000C5BD001BB0F57A7F7047411B03200229CB
:101980007047DAF81C00514640F40030CAF81C00D9
:1019900070472860FEF7B2BD201D012100F06EB82F
:1019A000DAF84010002552467047204600F08AB908
:1019B00004F12400002100F0C1B8FF2221680028B2
:1019C0004A627047DAF84810002552467047201DD9
:1019D000022100F053B8DAF844100025524670474F
:1019E0000843CAF8400070473860FEF787BD0843D7
:1019F000CAF8480070473067306F20F080007047A9
:101A00000843CAF84400704702F0700291427047E0
:101A100004F12400022100F091B8401BB0F57A7F58
:101A200070473060306820F480107047B8626FF300
:101A30005F214FF47E4000EB42204FF0FE4280B227
:101A400008444FF4FE0101EB034101F4FE01084498
:101A5000296902EB016101F0FE41084470475321FE
:101A60004162204600F00BB904F12400012100F08E
:101A700065B8201D002100F001B87047F8B5F94F96
:101A80000546B86A00F00300032804BF0120F8BD32
:101A900038680C4620F08060FFF7A6FF06463868DD
:101AA000000105D5FEF72AFD801B0228F7D941E089
:101AB00095E80F00BE6A26F47C36013946EA00300C
:101AC000FFF7B4FFB8636869F96A21F0C001084301
:101AD000F862A869F96A21F020010843F8624FF61C
:101AE000F871F86A20F01000F862F86B8843E96931
:101AF000012C40EAC100F863F86A40F01000F86277
:101B00004FF4001008BF4FF48010002C08BF4FF4B2
:101B10000020F96A0843F862386840F08060FFF7F7
:101B200063FF04463868000106D4FEF7E7FC001B9B
:101B30000328F7D30320F8BD0020F8BDF8B5C94F3E
:101B40000546B86A00F00300032804BF0120F8BD71
:101B500038680C4620F08050FFF746FF064638688C
:101B6000800005D5FEF7CAFC801B0228F7D941E0AA
:101B700095E80F00BE6A26F07C76013946EA0050EF
:101B8000FFF754FF38646869F96A21F4406108433B
:101B9000F862A869F96A21F400710843F8624FF607
:101BA000F871F86A20F48070F862786C8843E9690B
:101BB000012C40EAC1007864F86A40F48070F86251
:101BC0004FF0807008BF4FF40000002C08BF4FF4A6
:101BD0008000F96A0843F862386840F08050FFF7E7
:101BE00003FF04463868800006D4FEF787FC001B1C
:101BF0000328F7D30320F8BD0020F8BD1CB5002151
:101C0000019101684A68520709D44A6822F04002EB
:101C10004A60C168002421F00801C1602DE00A6813
:101C200042F080420A600A6822F080420A60022282
:101C30000192019A013A0192019AA2B10A685200F6
:101C4000F7D44A68520603D54A6822F040024A6037
:101C500002220192019A013A0192019A1AB14A684C
:101C60005207F7D4D5E70124447200210172C168FC
:101C700041F00201C160FFF7A9FC20461CBDF8B588
:101C800004460068C168490619D4C16800260127C6
:101C900041F08001C160FEF731FC05462168F84340
:101CA000C96840EA9110C0070AD1FEF727FCFFF788
:101CB000B4FEF3D9032684F825600027EEE700265A
:101CC000F0B2F8BDB0B5134D044655F80C0C20F039
:101CD000800045F80C0C2868800607D42046FFF7E2
:101CE000ABFD78B1032084F82500B0BD286820F052
:101CF000200028602046FFF79FFD28B1032084F8CC
:101D0000250002E00020B0BD0020296841F020013C
:101D10002960B0BD184000587047FEF7F3BB0000C3
:101D200010B59CB009A818210C30FEF7E2FA01A802
:101D30002021FEF7DEFA0220FEF7B8FC264C002038
:101D40000090206840F440402060206800F440404B
:101D50000090009820688004FCD5FEF7C9FC1F485D
:101D6000215821F018012150082019900024CDE9B4
:101D70001A4402201890CDE91600CDE91200702116
:101D8000159101200F900B90052114914FF4803094
:101D90000A902520099009A8FFF7C0F918B1EFF3C0
:101DA000108072B6FEE740200890CDE905004FF4A0
:101DB00080610791CDE903440320029007213F2071
:101DC000019001A8FFF722F818B1EFF3108072B666
:101DD000FEE71CB010BD00BF1848025858FCFFFFBA
:101DE00010B51E481E4A016841F470010160106878
:101DF00000F00F00022804D81068032161F30300EB
:101E000010601848184C016841F001010160002180
:101E10000161036823400360136813F00C0F04D0C2
:101E20001368032464F303031360104A8161C161E2
:101E3000016282620E4AC2620E4A02634163826399
:101E4000C16302644164026822F480220260016678
:101E5000094843F2D201016010BD00BF88ED00E0E7
:101E600000200052004402587FEDF6EA0002020210
:101E70000000FF018002010100400052FEE7000067
:101E800010B500F00F03064CB0F1FF3F034A2344A6
:101E9000C8BF83180801187010BD00BF00E400E03F
:101EA00014ED00E084B001200090FEF7A9FB40F2A1
:101EB000011003906C4648F21F70029000200190C0
:101EC0002046FEF777FB0420FEF7A4FBFEF724FB79
:101ED000FFF726FFFFF7DEFCFFF712FDFFF722FDFD
:101EE000094D0A4E4FF4167728462146FFF76FFB3F
:101EF00030460821FEF7F4FA0098B0FBF7F101FB39
:101F00001700FEF719FAEFE710000024001002583E
:101F100002E008C8121F08C1002AFAD170477047B2
:101F2000002001E001C1121F002AFBD17047000010
:101F3000000001020304010203040607080900006F
:101F4000601F00080000002410000000101F00089F
:101F5000701F00081000002440040000201F00082B
:101F600001000000100000000090D0030090D0039A
:04000005080002AD40
:00000001FF
