:020000040800F2
:10000000600B0024C10200087F380008553000084A
:100010007D3800082D060008095100080000000086
:100020000000000000000000000000004B4C000831
:100030002F06000800000000AD3D00084D4C0008F0
:10004000DB020008DB020008DB020008DB0200081C
:10005000DB020008DB020008DB020008DB0200080C
:10006000DB020008DB020008DB020008DB020008FC
:10007000DB020008DB020008DB020008DB020008EC
:10008000DB020008DB020008DB020008DB020008DC
:10009000DB020008DB020008DB020008DB020008CC
:1000A000DB020008DB020008DB020008DB020008BC
:1000B000DB020008DB020008DB020008DB020008AC
:1000C000DB020008DB020008DB020008DB0200089C
:1000D000DB020008DB020008DB020008DB0200088C
:1000E000DB020008DB020008DB020008DB0200087C
:1000F000DB020008DB020008DB020008DB0200086C
:10010000DB020008DB020008DB020008DB0200085B
:10011000DB020008DB020008DB020008DB0200084B
:10012000DB020008DB020008DB020008DB0200083B
:10013000DB0200080000000000000000DB020008F5
:10014000DB020008DB020008DB020008DB0200081B
:10015000DB020008DB020008DB020008DB0200080B
:10016000DB020008DB020008DB020008DB020008FB
:10017000DB020008DB020008DB020008DB020008EB
:10018000DB020008DB020008DB020008DB020008DB
:10019000DB020008DB020008DB020008DB020008CB
:1001A000DB020008DB020008DB020008DB020008BB
:1001B000DB020008DB020008DB020008DB020008AB
:1001C000DB020008DB020008000000000000000065
:1001D0000000000000000000DB020008000000003A
:1001E000000000000000000000000000000000000F
:1001F0000000000000000000DB020008DB02000835
:10020000DB020008DB02000800000000DB0200083F
:10021000DB020008DB020008DB020008DB0200084A
:10022000DB020008DB020008DB020008000000001F
:10023000DB020008DB02000800000000DB0200080F
:10024000DB020008DB020008DB020008DB0200081A
:10025000DB020008DB020008DB020008DB0200080A
:10026000DB020008DB020008DB020008DB020008FA
:10027000DB020008DB020008DB02000800000000CF
:10028000DB020008DB02000800000000DB020008BF
:1002900000000000DB020008DB020008DB020008AF
:1002A000DB020008DB020008DB020008DFF80CD0EC
:1002B00000F05CF80048004775520008600B00240D
:1002C0000648804706480047FEE7FEE7FEE7FEE7F0
:1002D000FEE7FEE7FEE7FEE7FEE7FEE7114D00085A
:1002E000AD020008D2B201E000F8012B491EFBD29A
:1002F00070470022F6E710B513460A460446194631
:10030000FFF7F0FF204610BD2DE9F05F0546002005
:1003100092469B4688460646814640241BE0284676
:1003200041464746224600F042F853465A46C01A14
:10033000914110D311461846224600F029F82D1A93
:1003400067EB01084F4622460120002100F020F80B
:1003500017EB00094E41201EA4F10104DFDC4846E2
:1003600031462A464346BDE8F09F0000064C074D43
:1003700006E0E06840F0010394E807009847103475
:10038000AC42F6D3FFF796FF34C8000854C8000803
:10039000202A04DB203A00FA02F100207047914045
:1003A000C2F1200320FA03F3194390407047202A3A
:1003B00004DB203A21FA02F00021704721FA02F30F
:1003C000D040C2F120029140084319467047000016
:1003D00010B504462B48006810F4403F0DD001F0E2
:1003E00039FD6168B1F5803F05D0B1F5403F1ED0C1
:1003F000B1F5003F1CD1090C16E04FF4002000F0CD
:1004000081FF6168A1F580224FEAB2420A2A0FD823
:10041000DFE802F00606060606062E303234360005
:100420006FF0010202EA5141B0FBF1F000E08008F8
:100430001549884204D82068816821F4407107E09A
:100440001249884206D820680122816862F3092196
:10045000816010BD21680E4B98428A6804D8022042
:1004600060F309228A6010BD42F44070886010BDBC
:100470000009DDE74009DBE78009D9E7C009D7E7D4
:10048000000AD5E70823024021BCBE0041787D0167
:1004900081F0FA0270B5044600688268836802F051
:1004A000040203F00803D21846D0C26892010CD5AA
:1004B000627D012A09D1227D012A06D11F490268E5
:1004C000520607D40139FAD133E0022905D10221BD
:1004D000082610E04021016001218268520707D5FB
:1004E0008268920704D482684E4B1A4010328260B0
:1004F000042601290DD08268120707D58268920769
:1005000004D48268474B1A4020328260032908BF16
:100510000C2600F017FD05462068806830420BD09D
:1005200000F010FD401B0628F6D32068806830429A
:10053000F2D003F0B3F970BD002070BD01DC0C00F7
:10054000B0B50168044688688A6880074FF00000EB
:1005500020D412F001021DD0886800F00D0001289F
:1005600016D188682F4A1040023088600320086046
:1005700000F0E8FC054620688068C0070BD000F05A
:10058000E1FC401B0328F6D320688068C007F2D046
:1005900003F084F9B0BD0020B0BD00BF2DE9F041EB
:1005A000044600688168C90738D11E4E816806F18B
:1005B0007F02114203D003F071F9BDE8F081816838
:1005C000314041F001018160174800F58077804695
:1005D00000F0B8FC05462068B842024604BF42F26B
:1005E0000002C4F20202D8F80813824213D0C906EE
:1005F00014D110E08168C90704D18168314041F00D
:100600000101816000F09EFC411B2068032902D398
:100610000168C907CFD00168C907EBD00020BDE849
:10062000F08100BFC0FFFF7F00200240FEE770475F
:10063000EFF3108072B6FEE77CB50446002001900F
:1006400094F85000012804BF02207CBD012084F8EA
:10065000500016460D4603F0BAFA616D10B141F034
:10066000100127E041F20212914305F48032144D4B
:100670000231616506F080410A4421688B682B4095
:100680001A4402F100428A600E4A8B68B3F1FF3FC0
:100690000CDC019B01330193019B9342F5D3606D08
:1006A00040F0100020F00201012003E0616D012202
:1006B00062F30101002284F8502061657CBD00BF17
:1006C000C0FFFE3F00F8C325F8B5044600200090A7
:1006D00094F85000012804BF0220F8BD20680D46A0
:1006E000012184F850108268520700F10D81D5E98C
:1006F0000023160392FAA2F6B6FA86F608BF960E03
:10070000C2F3846206F01F06B140C6693143C1617D
:100710001F2603F01F01C3F301238E4002FA01F1EB
:1007200000EB83031F6B27EA06063143196303F0CE
:1007300088F962D12968AA6802F020FF2068C6689B
:10074000D5E90412C368042927D12A68036E9106EB
:1007500003F0F843B3EB826F03D1026E22F0004244
:100760000266426E02F0F8428A4203D1426E22F0E3
:1007700000424266826E02F0F8428A4203D1826EE3
:1007800022F000428266C26E02F0F8428A4234D100
:10079000C16E21F00041C1662FE0F6064FF0080659
:1007A00058BF0E2606EA53039A402B6803F0F8431D
:1007B0001A4300F1600353F8216006F0004632430B
:1007C00043F82120296953F821206E7E22F000424F
:1007D000012E08BF02F1004243F82120297E2A6938
:1007E00002F01F020139B1FA81F14909C9029140B1
:1007F000026922F4F042114301618168C9075BD1AB
:10080000574B2A68EE68D0F8C07002EA03019C4694
:1008100006F018032CFA03F38F4313403B43C0F850
:10082000C030504B9E4244D1E1B192FAA2F1B1FAEC
:1008300081F14A1C02F01E03092B0B461DD8013121
:1008400002F01F02012601F01F0106FA02F24FF02A
:10085000806606EB836301EB410103F0F84343EA52
:10086000015121E00121C2F3846301EB926101F0A7
:100870001E06910E5A1C0A2EE1D301313A4E02F0A7
:100880001F0201F01F0101EB410106EB01514FF086
:10089000806606EB836303F0F8431943012303FAF0
:1008A00002F211434FF000721143AA6802F066FE93
:1008B0002A68B2F1FF3F01DD00202AE09249D1F819
:1008C00000530868D1F800311843C0071CD12748ED
:1008D00005F0E073824208BF15F400001DD02448E3
:1008E000824208BF15F080702FD00020214EB24206
:1008F00008BF15F480020CD103F08FF8DCD103F0AF
:10090000ABF940F4800027E0606D40F020006065A6
:100910000120002184F85010F8BD03F07EF8CBD1FF
:1009200003F09AF940F40000C1F8000375497448D7
:100930000068B0FBF1F0022101EB4000009000984C
:100940000028B9D000980138F8E703F066F8B3D171
:1009500003F082F940F08070C1F80003ACE700BFFB
:10096000FFFF0F000000FF47000020FE000084CBC7
:100970000040C0BA0000B8CF0068006C70470000AB
:10098000F8B5044600200090A4B3606D30B920464D
:1009900000F0C4F8002084F85000A0652068816849
:1009A000890003D58168554A114081608168C9007A
:1009B00013D45249826801F180511140514A01F12A
:1009C000805181604E490968B1FBF2F1013100911B
:1009D000009911B100990139F9E78168C9000BD478
:1009E000616D012541F010016165A16D41F00101CA
:1009F000A16502E001257FE000258168626D02F0BB
:100A00001002C1F380018918616D03D041F010001C
:100A1000012570E021F48171023161658168C907A7
:100A20000ED139490A68D1F800311A43D20707D1EB
:100A30006268D1F8003323F47C131A43C1F8002311
:100A4000617D226B42EA4131A2681143227F012A73
:100A500041EA024104D1226A2C4B03EB424211438A
:100A6000626A22B102F478721143A26A1143C26829
:100A7000274B1A401143C16002F0E3FF2CD1C1683B
:100A800044F20302E36A9143227D43EA8232114336
:100A9000C160016994F83820012A11D104F13C0C9D
:100AA0001C4EA76C9CE80C1006EB02421A4E31401B
:100AB0001943114341EA0C01394341F0010101E0BE
:100AC00021F001010161616B026922F07042114362
:100AD00001612046FFF77CFC2068E268012A016B77
:100AE00021F00F0102D1A269013A114301630121F2
:100AF000606D61F3010060652846F8BDC0FFFF5FCF
:100B000008000024400D0300082002400000FEFF02
:100B100003C0F0FF0000FFFF1EF800FC10B5B0B0EE
:100B2000044602A894212430FFF7E3FB20681A4909
:100B300088422ED100202C90CDE909000C21C02044
:100B4000089002200790CDE90500CDE903014FF49C
:100B50000020029002A800F0EFFC08B1FFF768FD4A
:100B60000E48016841F020010160016801F0200198
:100B700001910199816841F00401816080684FF022
:100B8000806100F00400019001984FF0806002F055
:100B9000BBF830B010BD00BF0021024038450258FC
:100BA0002DE9F84F694A04468A46D2F8080300F056
:100BB0001F082069082804D1934608274FF001092F
:100BC00011E0B8F1090F62D8012040F2212100FAAA
:100BD00008F008425BD02068C068C0075CD193462B
:100BE00004274FF0000900F0ADF906460AF10105AF
:100BF00020680168394211D1002DF9D000F0A2F926
:100C0000801B504502D8BAF1000FF1D1206800686E
:100C10003842EDD103F0A2F8BDE8F88F616D41F4E0
:100C200000716165C16811F4406F0FD1617D69B9D0
:100C3000016809070AD5616D21F480716165616DF4
:100C4000C90403D4616D41F0010161650BF5807148
:100C5000884218BF8346014683450BD0B8F1090F7F
:100C600007D8012140F2212201FA08F11142014680
:100C700000D15946C968B9F1000F01D0082102E03E
:100C8000490401D40C2101600020BDE8F88FD2F89E
:100C9000080310F4404FA2D0606D40F02000606562
:100CA0000120BDE8F88F00BF70B5284D02F002FFAB
:100CB00003D494F85000012801D1022070BD03F044
:100CC00064F818B1002184F8501070BD02F022FFC2
:100CD00018BF0546854218BF002903D1626D22F472
:100CE00080126265626D0023D20444BFA36D23F0BD
:100CF0000603A365002284F850201C22026085426E
:100D000008D0092915D8012202FA01F140F2212266
:100D100011420ED0C168890104D5616D012262F3D0
:100D20000D31616581680A4A1140043181600020FB
:100D300070BD606D40F480106065E8688001F6D594
:100D4000606D012161F30D306065F0E70020024025
:100D5000C0FFFF7F10B502F09DFE04BF022010BD52
:100D600002F0DBFD20B902F089FE08B902F022FE94
:100D7000002184F8501010BDB0B5044600F0E2F830
:100D800005469B48611C007818BF044400F0DAF85F
:100D9000401BA042FAD3B0BD2DE9FC4F5C4A0A24A7
:100DA0004FF0000A4FF0000990425A4A08BF092448
:100DB00002444FEAB223092B38BF4FEAB224009411
:100DC00000220E6836FA02F700F0A080012303FA31
:100DD00002F716EA070B00F09380D1F804E0032332
:100DE0000EF0030CACF10105012D13D803FA09F53F
:100DF0008468CB68AC4303FA09F36FEA0508234320
:100E00008360CEF300134468BC43934057002343F0
:100E100043600BE003FA09F3BCF1030F4F466FEA9E
:100E2000030803D14F464FF0030C20E0C3688C68E1
:100E300003EA0803BC402343C360BCF1020F16D190
:100E40000AF01C030F2404FA03FC6FF0030404EA05
:100E5000520505442C6A24EA0C0C0C6904FA03F3CD
:100E600043EA0C032B62D1F804E00EF0030C046893
:100E70000CFA07F304EA0804234303601EF4403F1E
:100E80003ED0844C254E236843F002032360236840
:100E90000F2403F002030193019D0AF00C0322F0DA
:100EA00003059C40AF5927EA0404009F07FA03F3A7
:100EB0002343AB514FF0B04633684D6843EA0B040F
:100EC000EF0258BF23EA0B043460134EAF023368BD
:100ED00043EA0B0458BF23EA0B043460AF03D6F88F
:100EE000803043EA0B0458BF23EA0B04C6F8804065
:100EF000ED03F36F43EA0B0458BF23EA0B04F467D6
:100F00000AF1040A09F1020901325AE7BDE8FC8F2F
:100F1000002402580000FEA70400005808040058EE
:100F20000069084018BF01207047002A08BF090463
:100F300081617047024800686FF31F30704700BF3F
:100F40000010005C05480068704700BF284803494E
:100F500000780A6810440860704700BF58070024F2
:100F600080B5032000F0B4F800F094FF0E497A4BEE
:100F70000A68096801F00F01C2F30322595C9A5C08
:100F800001F01F0102F01F02D0401A4A1060C84051
:100F9000064908600F2000F00BF808B1012080BD61
:100FA00000F06AF8002080BD184402580C000024AC
:100FB00070B50F4E04463078B0B14FF47A71B1FB82
:100FC000F0F00C490968B1FBF0F001F0A7FE012533
:100FD0000F2C0AD848B94FF0FF30214600220025D7
:100FE00000F05AF8746000E00125284670BD00BF8B
:100FF00000000024080000240278114943780B60A7
:10100000D2B143684B60037B42EA0372C37A42EA7F
:101010000362837A42EAC342437B42EA8342837B90
:1010200042EA4342C37B42EA0342437A007A42EAFD
:10103000032242EA400001E00020486088607047D7
:1010400098ED00E00B48BFF35F8F016821F4803119
:101050000160002101677047064940F00100086700
:10106000086840F480300860BFF34F8FBFF36F8F84
:10107000704700BF24ED00E081B00648016841F0F0
:1010800002010160006800F002000090009801B0C9
:10109000704700BF5445025870B5134B4FF0FF35F1
:1010A0001B68C3F30223DC1E83F0070338BF002450
:1010B00005FA04F6B243042B28BF042305FA03F310
:1010C0009943A1401143BDE8704004F01FB800BF30
:1010D00005494FF6FF030A681A4060F30A220348E5
:1010E00010430860704700BF0CED00E00000FA05F7
:1010F000B0B50F4D2A682968520705D401F00701E1
:10110000081A18BF0120B0BD21F00701084302F002
:1011100017FC044655F8080C800406D4FFF712FFAC
:1011200002F0E0FBF6D90120B0BD0020B0BD00BF49
:101130000C4802580248016841F480710160704710
:101140000048025880B500F085FE0249024A02F0CC
:101150007FBC00BF2044025854590008B0B51D4957
:101160008B6A8A6ACC6A4D6BC2F305126AB104F0CD
:10117000010402F0C9FD0CD0012B0DD013B90B688E
:101180009B060CD49FED161A13E00021C0E9001154
:101190001DE09FED121A0CE09FED0F1A09E00B689D
:1011A000104CC3F3C10324FA03F301EE103AB8EE76
:1011B000411A0B6B9FED0C3A02F07BFD0A6B02F0BB
:1011C0007AFB0A6B02F00AFD096B02F0B6FC816043
:1011D000B0BD00BF004402580024744A20BCBE4B7E
:1011E0000024744C0090D00300000039B0B51C49B5
:1011F0008B6A8A6ACC6ACD6BC2F30532B2B1C4F392
:10120000001402F081FD15D0BBB90B689B0651BFDD
:101210009FED161A0B68C3F3C103154C42BF24FAA5
:1012200003F301EE103AB8EE411A08E00021C0E9DC
:10123000001112E09FED0C1A01E09FED0A1A8B6B72
:101240009FED0C3A02F035FD8A6B02F034FB8A6B9D
:1012500002F0C4FC896B02F070FC8160B0BD00BF7D
:10126000004402580024744A20BCBE4B0024744C35
:101270000090D00300000039B0B51C498B6A8A6A1F
:10128000CC6A4D6CC2F30552B2B1C4F3002402F033
:101290003BFD15D0BBB90B689B0651BF9FED161ADD
:1012A0000B68C3F3C103154C42BF24FA03F301EEEC
:1012B000103AB8EE411A08E00021C0E9001112E02E
:1012C0009FED0C1A01E09FED0A1A0B6C9FED0C3A92
:1012D00002F0EFFC0A6C02F0EEFA0A6C02F07EFCFF
:1012E000096C02F02AFC8160B0BD00BF00440258C6
:1012F0000024744A20BCBE4B0024744C0090D003E0
:1013000000000039F8B5B0F5002F00F05F80B0F5AF
:10131000007F21D0B0F5806F00F06780B0F5805F6E
:1013200000F07080B0F5804F23D0B0F5004F31D081
:10133000B0F5803F3ED0B0F5807F40F0CF80794956
:10134000086D00F00702042A00F2C8807748DFE841
:1013500002F065676EC676007249086DC0F38212AE
:10136000042A00F2BB807148DFE802F0585A61B9E4
:1013700069006C49886DC0F30272062A00F2AE80E3
:101380006A48DFE802F00499A0A8AEB2AC00FFF70B
:10139000D9FEA4E06348016D01F04051B1F1005F56
:1013A00000F06A80B1F1805F68D0002940F096803B
:1013B00000689BE05B48C16C0068C9035FD5000111
:1013C00040F18C8001A8FFF711FF73E05548816D53
:1013D00001F44031B1F5003F57D0B1F5803F63D003
:1013E000002940F07B8000681BE04E49086DC0F387
:1013F0004222042A00F272804C48DFE802F00F110A
:10140000187020004749086DC0F30232042A65D8DD
:101410004648DFE802F003050C64140008682EE07B
:10142000086800015AD501A8FFF7E0FE05E008684A
:10143000800053D501A8FFF71FFF01984FE0C86C4B
:101440000B6810F04052086805D113F0040302D075
:10145000C0F3C10024E0B2F1805F02D110F48070CB
:101460004FD1086810F400301CBF47F64000C0F2AE
:101470007D10B2F1005F52E000681EE0006880015C
:101480002CD501A8FFF76AFE23E0C16C036802684F
:1014900011F040512FD113F004032CD0C2F3C1003E
:1014A000244921FA00F01AE00068800016D501A84E
:1014B000FFF7E2FE039812E0086800010ED501A8CC
:1014C000FFF794FE05E00868800007D501A8FFF744
:1014D000D3FE029803E00868400714D4002004B04B
:1014E00080BD08681249C00502E0086880030E4903
:1014F00001EAE070F3E7B1F1805F06D112F4807287
:1015000003D00B48EBE70868A2E7006810F400304E
:101510001CBF47F64000C0F27D10B1F1005F18BF5C
:101520000020DCE70044025840787D010080BB00C9
:1015300000093D000090D0032DE9F0470446C07833
:10154000A54F00071CD5A06E4FEA3051032908D8DB
:10155000DFE801F002090C11F96941F40031F96189
:1015600009E001260DE002F08CFA01E002F055FBE3
:10157000064630B9A06E396C21F440110843386436
:1015800000266078BA46C00701D1354620E0606D7C
:1015900004280BD83546DFE800F0030C0F121200C8
:1015A000F869354640F40030F86108E0012501276C
:1015B0000FE002F0F0FB01E002F01CFA05462F46B6
:1015C0003DB9606D02F008FA21F0070102F079FAE6
:1015D0003746607880071ED5A06D4FEAB010052809
:1015E00007D8DFE800F003090C0F0F0F02F0A0F995
:1015F00008E0012501260FE002F0CDFB01E002F03A
:10160000F9F905462E463DB9A06D02F0E5F921F441
:10161000E07102F056FA3E46607840071ED5E06D54
:101620004FEA7020052807D8DFE800F003090C0F07
:101630000F0F02F07DF908E0012501270FE002F00D
:10164000AAFB01E002F0D6F905462F463DB9E06D50
:1016500002F0C2F921F4606102F033FA3746E07813
:1016600080071DD5A06C4FEA3010032806D8DFE8AC
:1016700000F00B02080B02F05BF905E001250126E2
:101680000FE002F0FEF905462E4655B9A06CDAF8D7
:101690003C100025524621F030010843CAF83C00B6
:1016A0003E466078C0061ED5206E4FEA30300428D2
:1016B00007D8DFE800F003090C0F0F0002F038F93B
:1016C00008E0012501270FE002F065FB01E002F0D0
:1016D00091F905462F463DB9206E02F07DF921F4BF
:1016E000E04102F0EEF93746607880061BD5606E67
:1016F0004FEA3040052807D8DFE800F00C03090C5A
:101700000C0C02F05FF904E0012501260CE002F068
:101710002EFB05462E463DB9606E02F05DF921F4C0
:10172000E02102F0CEF93E46607840061ED5D4F89E
:10173000AC004FEA3070062808D8DFE800F00D044E
:101740000A0D0D0D0D0002F03DF904E00125012701
:101750000DE002F00CFB05462F4645B9D4F8AC006D
:1017600002F060F921F0E04102F0BDF937466078FF
:10177000000616D5606F58B1B0F1005F05D0B0F12A
:10178000805F22D102F0D4F802E002F01BF9054696
:101790002E463DB9606F02F01FF921F0405102F072
:1017A00090F93E46E078C00702D1B046574622E0A5
:1017B000606C574603280BD8DFE800F013021013C3
:1017C000F86940F40030F8610BE001250126E9E7F3
:1017D00001254FF001080EE01044025802F051F9C3
:1017E0000546A8463DB9606CF96B0025B04621F06E
:1017F00003010843F863A078400601D4474616E089
:10180000D7F8F00340F48070C7F8F003FFF79AFBB5
:101810000646D7F8F003C00507D4FFF793FB801BFB
:101820006428F6D90325032701E02F4685B12078E7
:10183000C00748D0D4F880004FEAF000052832D81D
:10184000DFE800F037033437373702F0BBF82FE01A
:10185000DAF86010D4F8B0005546414011F4407FEA
:101860000BD0296E2A6E42F480322A6621F4407130
:101870002A6E22F480322A662966B0F5807F40F015
:10188000CA81FFF75FFB064641F288390327DAF881
:101890006000800700F1BC81FFF754FB801B03252B
:1018A0004845F4D9C3E7012501260DE002F05FFAAF
:1018B00005462E4645B9D4F8800002F0F0F821F034
:1018C000380102F053F93E462078800719D5E06FC1
:1018D000052807D8DFE800F00C03090C0C0C02F017
:1018E00071F804E0012501270CE002F040FA0546FA
:1018F0002F463DB9E06F02F0D2F821F0070102F067
:1019000035F93746207840071BD5D4F898000528CC
:1019100007D8DFE800F00C03090C0C0C02F052F8B9
:1019200004E0012501260DE002F021FA05462E46CD
:1019300045B9D4F8980002F075F821F0070102F0DB
:10194000D2F83E46207880061DD5D4F894004FEAA0
:101950003070052807D8DFE800F00C03090C0C0CE8
:1019600002F019FA04E0012501270DE002F055F913
:1019700005462F4645B9D4F8940002F090F821F0BE
:10198000E04102F0F3F83746207840061DD5D4F840
:10199000A0004FEAB020052807D8DFE800F00C03CC
:1019A000090C0C0C02F0F7F904E0012501260DE00A
:1019B00002F033F905462E4645B9D4F8A00002F0EE
:1019C00031F821F4E05102F08EF83E46207800060E
:1019D0001DD5D4F8A4004FEA7030052807D8DFE8F9
:1019E00000F00C03090C0C0C02F0D5F904E0012501
:1019F00001270DE002F011F905462F4645B9D4F84C
:101A0000A40002F00FF821F4604102F06CF83746B0
:101A10002068010714D5D4F88810B1F5805F07D18C
:101A200002F0FBF8002818BF01272068D4F88810BE
:101A3000DAF84420534622F440521143CAF84410C5
:101A4000C10614D5D4F89C10B1F5807F07D102F0FF
:101A5000E4F8002818BF01272068D4F89C10DAF8B1
:101A60004820534622F440721143CAF8481000033C
:101A700018D5D4F8A800B0F5003F09D0B0F5803FE4
:101A800003D010BB02F087F901E002F0C6F805466A
:101A90002E4645B9D4F8A80001F0C4FF21F4403126
:101AA00002F021F83E46A07840071ED5D4F88C00FD
:101AB000B0F5401F0FD0B0F5001F09D0B0F5801F62
:101AC00040F0A38001F034FF05E001250126EAE79C
:101AD00002F04DF905462F4645B9D4F88C0001F0C7
:101AE000DEFF21F4401102F041F83746A078C0072C
:101AF00001D13E4619E0E06CB0F5803F03D090B9CB
:101B000001F016FF02E001F0BCFF05462E4665B964
:101B1000E06CDAF83C100025524621F4803108438D
:101B2000CAF83C00E5E7012501262068810005D5BB
:101B300002F073F8002818BF0126206881031CD525
:101B4000D4F884106FF0010202EB3122022A0AD38A
:101B50004FEA31223AB1012A06D1DAF81C2042F4C8
:101B60000032CAF81C200DB1012606E0DAF8442044
:101B700022F440721143CAF84410C10207D5A16F84
:101B8000DAF8402022F000421143CAF840108102E6
:101B900007D5E16EDAF8402022F080721143CAF8CE
:101BA0004010010507D5216FDAF8482022F00062C5
:101BB0001143CAF8481041000CD5DAF8001021F49E
:101BC0000041CAF80010D4F8B410DAF8002011432C
:101BD000CAF80010B0F1FF3F07DC216DDAF83C20B5
:101BE00022F040521143CAF83C10000207D5D4F845
:101BF0009000DAF8441021F4400101F0B7FF002E04
:101C000018BF01263046BDE8F087012501276DE7A2
:101C10005546D4F8B0002A68094900F4407322F40C
:101C20007C5201EA1011B3F5407F6FF31F3008BFFB
:101C30000A432A60296E084328660025DEE500BFB6
:101C4000CFFFFF002DE9F843002800F0FB807F4D17
:101C500004468846286800F00F0088420BD22868A6
:101C600020F00F0040EA08002860286800F00F000C
:101C7000404540F0E7802068BB4F410709D5216906
:101C8000BA6901F0A7FF04D9BA6922F070021143C2
:101C9000B961010709D56169FA6901F09BFF04D9AF
:101CA000FA6922F070021143F961C1060AD5A169EF
:101CB000FA6902F4E062914204D9FA6922F4E0621E
:101CC0001143F961810609D5E1693A6A01F082FFA1
:101CD00004D93A6A22F070021143396210F002010D
:101CE0000AD0E268BB6903F00F039A4204D9BB69CA
:101CF00023F00F031A43BA61C2073AD0D4E90101B5
:101D0000BA6922F470621143B961012807D003282F
:101D100009D002280BD1396889030CD492E03968C4
:101D2000C90508D48EE03968890104D48AE039688D
:101D3000490740F187803969A94621F00701084326
:101D40003861FFF7FFF8064641F288356068396967
:101D500001F03801B1EBC00F07D0FFF7F3F8801B9B
:101D6000A842F3D90320BDE8F88320684D4600F06F
:101D7000020151B1E168BA6902F00F02914204D246
:101D8000BA6922F00F021143B961296801F00F010D
:101D900041450AD9296821F00F0141EA080129606B
:101DA000296801F00F0141454CD1410709D521694E
:101DB000BA6901F00FFF04D2BA6922F07002114330
:101DC000B961010709D56169FA6901F003FF04D21D
:101DD000FA6922F070021143F961C1060AD5A169BE
:101DE000FA6902F4E062914204D2FA6922F4E062F4
:101DF0001143F96180060AD5E069396A01F0700182
:101E0000884204D2396A21F070010843386200F038
:101E100041F8B9691C4A1D4BC1F30321515C01F023
:101E20001F01C840B969186001F00F01515C01F051
:101E30001F01C8401649086005480068BDE8F8431E
:101E4000FFF7B6B80120BDE8F88300BF00200052BC
:101E50000400002480B500F01DF80A490A4B0A6806
:101E6000096801F00F01C2F30322595C9A5C01F08A
:101E70001F0102F01F02D040044A1060C84004490C
:101E8000086080BD18440258545900080800002416
:101E90000C00002410B534490869C0F3C2000328BF
:101EA0000FD0022804BF324810BD40B90868800630
:101EB000334858D50968C1F3C101C84010BD2B484B
:101EC00010BD8A6A886ACB6A4C6BC0F30510F0B10A
:101ED00003F00103C4F3CC0402F003026343022ABB
:101EE00000EE103AB8EE400A13D0AAB90A6892067A
:101EF00051BF9FED221A0A68C2F3C102204B42BFB4
:101F000023FA02F201EE102AB8EE411A06E0002090
:101F100010BD9FED191A01E09FED161A0A6B9FED97
:101F2000193A6FF35F2202EE102AB8EE422A00EE51
:101F3000032AB7EE000A32EE000A02EE100A086B1E
:101F4000C0F34620B8EE422A013081EE021A21EE9B
:101F5000000A01EE100AB8EE411A80EE010ABCEE4A
:101F6000C00A10EE100A10BD0044025800093D00DE
:101F700040787D010024744A20BCBE4B0024744C80
:101F80000090D00300000039F8B5002800F0C580AB
:101F900004460078DA4EC0071FD12078800766D546
:101FA000306910F03801B06A44D0182901D1800797
:101FB00040D03068E168002900F00C8120F0190061
:101FC000084301F075FC05463068400748D4FEF729
:101FD000B9FF401B0228F7D990E1306900F03801C1
:101FE000B06A102905D018290AD100F00300022890
:101FF00006D130688003D0D560680028CDD18CE050
:102000006068002800F04681B0F5A81F00F05981F3
:10201000B0F5A02F00F05D81B0F5803F00F05F814A
:10202000306820F480303060306820F4802001F087
:1020300019FE57E1E0683168490701D500286CD0E6
:10204000316821F01901084301F032FC054630687F
:10205000400705D4FEF776FF01F066FCF7D9F8BD1E
:102060002069716821F0FE4141EA006070602078CB
:10207000C00618D5306900F03801B06A082905D0CB
:10208000182971D100F0030001286DD13068C00516
:1020900002D5E069802840D1206AF16821F07C51A6
:1020A00041EA0060F0602078000738D4207880068C
:1020B00048D4207840076AD4676A67B3306900F073
:1020C0003800182840F0CA80B16A306B012F24D044
:1020D000A26A01F0030393421FD1E26AC1F3051122
:1020E00091421AD10146226B6FF35F21013A91426E
:1020F00013D1626BC0F34621013A91420DD1A26B1C
:10210000C0F30641013A914207D1E16BC0F306608A
:102110000139884201D10020F8BD0120F8BD706F5F
:102120006169002946D040F001007067FEF70AFFA0
:102130000546706F8007B9D4FEF704FF401B0228E4
:10214000F7D9DBE03068A169002969D040F48050FC
:1021500001F0AEFB054630688004AAD4FEF7F2FE1B
:10216000401B0228F7D9C9E03068E169002966D030
:1021700040F0800001F09CFB05463068C0053FF54B
:102180008BAFFEF7DFFE01F0CFFBF6D967E7D6F89D
:10219000000440F48070C6F80004FEF7D3FE054644
:1021A000D6F80004C00524D4FEF7CCFE401B6428FA
:1021B000F6D9A3E020F001007067FEF7C3FE0546E4
:1021C000706F80077FF572AFFEF7BCFE01F0ACFBCD
:1021D000F6D944E720F0010001F06AFB05463068BB
:1021E00040077FF544AFFEF7ADFE01F09DFBF6D949
:1021F00035E7A068002800F08580852800F09C80E5
:10220000052800F0A180012800F0A480306F20F0A4
:1022100001003067306F20F0040001F089FC9CE081
:1022200020F4805001F044FB0546306880047FF5BF
:1022300040AFFEF787FE01F077FBF6D90FE720F0FD
:10224000800001F035FB05463068C0057FF52BAFF7
:10225000FEF778FE01F068FBF6D900E7306820F061
:10226000807001F025FB0546022F09D130688001FE
:1022700040F18480FEF766FE01F056FBF6D9EEE6EB
:10228000306880017FF547AFFEF75CFE01F04CFB44
:10229000F6D9E4E6306820F4803001F0E3FC3060E9
:1022A000306820F4802001F003FB0546306880038D
:1022B0007FF573AEFEF746FE411B03206429F5D976
:1022C000CDE6306840F480203060306840F4801003
:1022D00004E0306840F4802001F0C4FC30603068D5
:1022E00040F4803001F0E4FA0546306880033FF5A1
:1022F00054AEFEF727FE401B6428F6D90320F8BD34
:1023000000440258306F20F0010001F011FC3067EA
:10231000306F20F004003067FEF714FE054641F2EE
:102320008837306F80077FF5C7AEFEF70BFE411B85
:102330000320B942F5D992E6306F40F004003067CF
:10234000306F40F0800004E0306F40F0040001F096
:10235000EFFB3067306F40F001003067FEF7F2FDB1
:10236000054641F28837306F80073FF5A5AEFEF78E
:10237000E9FD411B0320B942F5D970E604F12805B7
:10238000B06A40F2F33188432ECD0843591E40EA2B
:102390000210B0626FF35F214FF4FE024FF47E40F3
:1023A00000EB452080B20844A16B02EB01414FF0E5
:1023B000FE4201F4FE010844E16B02EB016101F011
:1023C000FE41084430634FF6F871F06A20F00100D6
:1023D000F062706B8843A16C40EAC1007063206CAE
:1023E000F16A21F00C010843F062F06A616C20F0A0
:1023F00002000843F062F06A40F48030F062F06A54
:1024000040F40030F062F06A40F48020F062F06A3C
:1024100040F00100F062306840F0807001F048FA4E
:102420000446306880013FF576AEFEF78BFD011B58
:1024300003200229F5D912E670B5B8B3044690F826
:10244000250028B9002084F82400204600F038F840
:10245000022084F82500CA212068416201F036FC80
:1024600000BB94E80F00154E8569354085612569EC
:102470002943A569294385692943816143EA0241CA
:10248000016101F0AEFA68B92068D4E907236169F7
:102490001A438569114325F06045856182691143BE
:1024A0008161002001F0ABFA02D070BD012070BD47
:1024B000012084F82500002070BD00BFBFFF8FFB06
:1024C00010B5AEB004466846B4210430FDF711FFE4
:1024D00020680B49884210D14FF480702C904FF443
:1024E000800000906846FFF727F808B1FEF7A0F8D3
:1024F0000448016841F4004101602EB010BD00BFE6
:1025000000400058704402582DE9F04101F01BFAD8
:102510003ED084F82500012084F8240032B1687888
:10252000E978AE78000240EA014714E06E78F006E0
:1025300004D506F0EF0000F10A066E70E878DFF8C7
:10254000F480C04707463046C047000240EA0747CC
:10255000A878C04706462068CA21416253214162DB
:1025600020462D7801F0F8FC48B947EA06002168BA
:1025700020F0C00040EA4530486001F032FA01F036
:102580003EFA02D1012184F82510002184F824109C
:10259000BDE8F0812DE9F04101F0D5F947D084F88C
:1025A0002500CA21164620684162012184F82410C2
:1025B00001F08CFB90BB2768B86900F040001EB1A9
:1025C00098B90020E87012E008B90020E870287877
:1025D000DFF86080C04706466878C04701F09FFB7F
:1025E000E978304440EA815009E0E87880056A786B
:1025F0002978AB78120242EA0141194408430E4996
:1026000008403860B86920F48020B861D5E903013A
:102610000843B9690843B86101F0E3F901F0EFF943
:1026200002D1012184F82510002184F82410BDE88E
:10263000F08100BF353F00087F7F7F00B0B50446C2
:102640000068C16821F0A001C160FEF77BFC05466F
:102650002068C068800606D4FEF774FC01F0E2FA38
:10266000F6D90320B0BD0020B0BD0000F8B538B3E6
:10267000044600204749A0622068884208D0464AA4
:10268000904205D0454A904202D0E2680F2A17D8FE
:10269000E268E36B0125083205EB5313D2085A4375
:1026A00088420BD03D49884208D03B4B984218BF26
:1026B000082A05D8884218BF984203D1102A01D9A8
:1026C0000120F8BD94F8811029B901F09DF9204648
:1026D00000F066F82068022184F8811001F059FAB0
:1026E000D4F818C06168836803F4F813BCF1806FF4
:1026F00012D139B1B1F5800F0ED1A56B35B14FF4C0
:10270000800109E0A56BB5F1805F04D1056845F44F
:102710008055056000E00021E56904F10807626961
:102720002B43A56A2B43E56B2B43E0CF33438360F8
:10273000636B666A43EA0C033343A66B33433B4344
:102740001A43236A1A43D4E912360A4332432A430E
:102750001A43A36D1A43C26049B98268012363F327
:10276000CC2282600223826863F34A228260026D77
:10277000490222F00102026505D5616DC26822F0AE
:1027800000421143C1600020C4F88400012184F894
:102790008110F8BD00380040003C0040003001408E
:1027A00010B5B4B004462FA81421FDF7A2FD01A86E
:1027B000B4210430FDF79DFD2068184988422AD1D4
:1027C0004FF4005000241A94019001A8FEF7B4FEC3
:1027D00008B1FDF72DFF1248016941F40051016174
:1027E000016901F4005100910099016841F0100164
:1027F0000160006800F010000090CDE93144052030
:102800003390022030904FF4A0402F9000982FA9D1
:102810000448FEF7C1FA34B010BD00BF00340140D7
:1028200040450258001002582DE9F8430446D0E90B
:102830000050994617460E46B0F5800F02D1A068A9
:10284000002856D094F8800001284FD0012084F849
:102850008000FEF777FB804601F097F944D1002E07
:1028600054D0002F52D0042001F01EF9A4F86A7051
:10287000A4F868706666A4F86000E065C4E91C000E
:10288000A4F86200A1682068B1F5C02F03D10168E7
:1028900021F40061016001F0C9F901D101F01BFAD6
:1028A000E068102836D348F2080509F10106B4F8AB
:1028B0006A00002861D020684169294206D0006B77
:1028C000616E01C1616601F045F8F0E7FEF73AFB81
:1028D000002EECD0A0EB08004845E8D301F084F8C6
:1028E00001F004F8BDE8F88301F08EF80220BDE89D
:1028F000F883042084F88100314632463B46CDF807
:102900000090204600F00BF9BDE8F88301F0DDF8F7
:10291000BDE8F883072819D909F10106B4F86A005F
:1029200058B320684069C00708D1FEF70BFB002EA2
:10293000F4D0A0EB08004845F0D3CFE7288E616EB5
:1029400021F8020B616601F005F8E7E709F10105DE
:10295000B4F86A0088B120684169C90708D1FEF758
:10296000F1FA002DF4D0A0EB08004845F0D3B5E70C
:1029700001F0BDF800F0EEFFEAE701F035F801F0F4
:10298000EBF818BF0120BDE8F8832DE9F04701F00E
:102990004EF849D001201D4617460E4601F09DF81D
:1029A000804601F0F2F83DD1002E40D0002F3ED0FD
:1029B000032001F079F8A4F86270A4F86070E6656D
:1029C000A4F868006066C4E91C00A4F86A00A16865
:1029D0002068B1F5C02F03D1016841F400610160A6
:1029E00001F024F901D101F076F9E068102822D332
:1029F0006E1CB4F8620000287BD02068416989070A
:102A000008D4FEF79FFA002EF3D0A0EB0800A842EE
:102A1000EFD37EE001F0F1F8B4F862000138A4F8D9
:102A20006200E6E700F0F0FF0220BDE8F08701F069
:102A30004CF8BDE8F087072825D901F0BBF8B4F8B9
:102A40006200002855D020684169890708D4FEF744
:102A500079FA002EF3D0A0EB0800A842EFD358E09B
:102A6000B4F86210022905D3E16B19B101F0C5F881
:102A7000504602E001F092F83846B4F8621008447B
:102A8000A4F86200DBE701F095F8B4F8620080B3C7
:102A900020684169890708D4FEF754FA002EF4D063
:102AA000A0EB0800A842F0D333E0B4F86210042988
:102AB00007D3E16B412904D301F09FF84FF6FC7076
:102AC00011E0B4F86210022905D3E16B19B101F0ED
:102AD00065F8504607E0E16D097880F82010E06D58
:102AE0000130E0653846B4F862100844A4F862008A
:102AF000CBE7204641462A4601F0D2FA08B101F060
:102B00003DF800F071FF01F027F818BF0120BDE883
:102B1000F08700F069FF00F0E9FEBDE8F0872DE9DD
:102B2000F84F00F084FF73D001209B4615460F46F6
:102B300000F0D3FF804601F028F85ED1002F6AD064
:102B4000002D68D0BBF1000F65D094F881000428F7
:102B500002D0052084F881000021C4F88410A4F874
:102B60006AB0A4F862B04FF6FF76D4E90002436879
:102B7000B3435B4443606566A4F868B0E765C4E9A5
:102B80001C11A4F860B0B2F5800F016841F001019A
:102B9000016001D101F09FF8E068DDF828A010285D
:102BA0003DD348F208050AF101075E4656EA0B00DC
:102BB00000F0998001F026F818BF11F0020104D04E
:102BC000E16D04C9026200F04BFF416966B1294022
:102BD0000AD0006BB4F86A100139A4F86A10616E6B
:102BE00001C16166B4F86A60FEF7ACF9002FDDD070
:102BF000A0EB08005045D9D36FE06168B1F5800FB4
:102C000004D1042802D1A068002897D000F0FCFE6F
:102C10000220BDE8F88F00F058FFBDE8F88F0AF1F8
:102C20000105072828D95E4656EA0B005BD000F064
:102C3000E9FF18BF11F0020106D0E16D31F8022B57
:102C4000A9F8202000F00CFF406966B110F00100E7
:102C500009D0B9F83000616E21F8020B00F07AFE5D
:102C60006166B4F86A60FEF76DF9002DDCD0A0EB68
:102C700008005045D8D330E05F4657EA0B0032D009
:102C800000F0C0FF18BF11F002010ED0E16D09780D
:102C900080F82010B4F862000138A4F86200E16DF9
:102CA00020680131E165B4F862B041696FB111F09B
:102CB00001010AD090F83000616E087000F04AFE01
:102CC000606E01306066B4F86A70FEF73BF9002D63
:102CD000D3D0A0EB08005045CFD300F085FE00F024
:102CE00005FEBDE8F88F20464146524601F0D8F96E
:102CF00008B100F043FF00F077FE00F02DFF18BF91
:102D00000120BDE8F88F0000034A136823EA0000A1
:102D100008431060704700BF04040058411E0020A3
:102D2000B0EB116F01D001207047044AF0235160CD
:102D300003490B70906007211160704710E000E0BC
:102D400023ED00E0F0B590F83C20012A01D10221EA
:102D500040E091E83C00204E25F47C5524F470546A
:102D6000334022F477222C43684D23431A430B69E6
:102D700023F476231A434B691A430B6B22F4742213
:102D800023F470231A438B6942EA0343026842F436
:102D90008064AC4202BF23F08053CE693343AC421F
:102DA00014D1AE468D6A0D4FD1E9086C23F07C73C7
:102DB00007EA05552B4326F000752B4343EA0C0325
:102DC000744502BF23F00053C96A0B43002180F809
:102DD0003C1053640846F0BDFF87F0FF0000F0FC94
:102DE00070B590F83C300222012B2CD080F83D20A9
:102DF000464C026842F4806655689368A64202BF5A
:102E000025F470054E6835430E6825F0700535438E
:102E10005560B2F1804F0BD0374DAA421CBF374DE1
:102E2000AA4205D0364DAA421CBF364DAA420CD14B
:102E300023F08003896819439160002280F83C20C8
:102E4000012180F83D10104670BD804DAA42EFD0A0
:102E50002D4DAA4218BFA242EAD0EEE710B50446B3
:102E600041B108290ED0042914BF04F1470004F130
:102E7000450009E094F84400012812D1022084F8AA
:102E8000440012E004F146000078012809D1022034
:102E9000082908D0042914BF84F8470084F84500A5
:102EA00003E0012010BD84F846002068042201F0F0
:102EB000D7FF00F070FD0BD00F4881421CBF0F48B8
:102EC000814205D00E4881421CBF0E48814208D184
:102ED00088680F4A00F04EFE18BFB2F5803F09D156
:102EE00010BD5A488142F3D007488142F0D00748CC
:102EF0008142EDD000F018BF0004004000080040FF
:102F0000000C004000180040004001400004014057
:102F100007000100FEB500684C49884217D10D48F2
:102F2000016841F010010160006800F0100000909D
:102F3000012005900020CDE90300022002904FF40B
:102F400080600190009801A90348FDF725FF06B0B5
:102F500080BD00BF4045025800100258B0B500F0D7
:102F6000F0FE04BF0220B0BD00F0E4FE052948D801
:102F7000DFE801F0030B131B23332068294601F01F
:102F80007FFF206850F8181F1EE02068294601F0D6
:102F9000B7FF206850F8181F26E02068294601F086
:102FA000E9FF206850F81C1F0EE02068294602F057
:102FB0001DF8206850F81C1F16E02068294602F012
:102FC00045F8206850F8541F41F00801016001687D
:102FD00021F00401016029690FE02068294602F010
:102FE0005FF8206850F8541F41F4006101600168E7
:102FF00021F48061016029690902026811430160BE
:103000000020002184F83C10B0BD58B110B500F08C
:1030100047FE03D100F0C9FD00F006F800F0BFFE46
:1030200000F09EBC0120704781B0006807498842CB
:1030300009D10748016841F001010160006800F012
:1030400001000090009801B0704700BF00000140EF
:1030500050450258FEE7000070B52DED048B194E67
:103060000C463168896B814228D03CB300EE101ABF
:1030700001EE104AB8EE408A00EE100AB8EE411A8E
:10308000B8EE400A30EE480A80EE019AFDF75AFF8A
:1030900005460120FDF770FEFDF754FF401BB0EE22
:1030A000481A316800EE100AA042B8EE400A09EE54
:1030B000001ABCEEC10A81ED0E0AEAD3BDEC048B06
:1030C00070BD00BF0C0700242DE9F04F03AF91B095
:1030D000814608208A461D4616466C460C2B08BFC2
:1030E000062047F8200C5843072101EB4000934984
:1030F00020F00700B1F800B0ADEB000047F8280C55
:1031000085468F48A7F1180100F10808404601F0F4
:103110009FF9A7F11401404647F8448C01F09EF94D
:10312000A6F1200047F81CBC47F8409C47F8344CF7
:10313000C1B2B86947F82C1C00286FD07F4857F8F7
:10314000146C4FF0000854464FF0000C47F8389CC0
:10315000008800BA020C57F8180C47F83C0C794864
:1031600000EB011047F8240C10465A46A84500F021
:10317000CC80864657F82C0C57F8241C0C2D01EBFC
:10318000080300EB4001704800EB810108BF01EB30
:10319000080357F8280C28F001011B7800EB010BFD
:1031A00070464FF0000E04F1080147F8301CBEF1E4
:1031B000070F2ED859B2B1F1FF3F08DC1FFA8CF18E
:1031C00057F8202C514357F81C2C2BF811000CF108
:1031D000010C1FFA8CF1A9424FF0000128BF8C4668
:1031E00001341FFA84F94E4540F29E80A9EB0A0192
:1031F0005B000EF1010EA942D9D157F8381C57F8DF
:103200003C3C5446013147F8381C89B28B4202D805
:103210008AE057F8304C08F10108A7E79BFA9BF0C9
:1032200047F8240C57F814BC00264FF0000E47F85E
:10323000489CC148008890FA80F857F8180C47F865
:103240004C0C404800EB011047F8380C5046AE4299
:103250005BD057F82C2C57F8381C0C2D314402EB5E
:103260004203394A02EB830308BF99190C7857F8D7
:10327000282C47F8306C26F00101002302EB0109ED
:1032800000F1080147F83C1C2C490988072B34D869
:1032900061B21FFA8EF20EF1010EB1F1FF3F57F845
:1032A000241CC8BF4FEA184157F8206C724329F814
:1032B00012101FFA8EF2AA424FF0000228BF964663
:1032C00001301FFA80FCE34557F81C2C2CD9ACEBDD
:1032D0000A0201336400AA42D8D1184857F81C2CBE
:1032E000018057F8480C57F84C1C013047F8480C3F
:1032F00080B28142504604D816E01048018057F849
:103300003C0C57F8306C0136A1E782B057F8200C1E
:10331000CDE90005524657F8283C57E9110100F065
:10332000EDFF57F81C2C02B00448028057F834DC3B
:10333000A7F10C04A546BDE8F08F00BF10000024E3
:10334000A800002421C20008ADBD00082DE9F84FF7
:10335000834658180C46DDF828900B9F02EB0B01B2
:103360004FEA590886B25D461FFA81FA3A78A2F10F
:103370002000C0B25E2811D8A8B2504524BF5FFA21
:103380008BF54C44A1B2B14208D2002000904B46CC
:10339000A8B2FFF799FE45440137E7E7BDE8F88F8B
:1033A0002DE9F04F87B0634D4FF48070624C634954
:1033B00004F1080BA8810320A860584601F096FA92
:1033C0005F4E584605212A4633689847B268211D4A
:1033D00058469047DFF86CA100215B4B0022DAF8D9
:1033E0000000816358460021B46AA047FDF7AAFD9A
:1033F00006465648564D6427A0EB060900F07FFBB1
:10340000012858D00A20FDF7B7FCFDF79BFD0446C4
:10341000FDF798FDA0EB0608A01BB0F57A7F09D850
:1034200008FB07F04FF47A71B0FBF1F0DAF8001006
:103430008863E3E7FDF786FD40F6B831884531D86B
:1034400048440A2102ACB0FBF1F2204641A102F04F
:1034500027F8DFF8E080102001211023B8F80020C1
:10346000CDE90004A2F11E0080B2FFF76FFF3448DF
:103470002F46D8F80450846BFDF764FDD8F800108F
:1034800048440322009248434FF6FF724FF4FA611A
:103490000192EA1E3D466427B0FBF1F35846002135
:1034A000A047ABE7801B40F6B9318842A6D302E0C3
:1034B0000A20FDF761FC00F022FB0128F8D0002073
:1034C0004FF496710024FFF7C7FD1D48194E0021E7
:1034D0000022856BD6E90030CDE900045846A847A4
:1034E0001E480290102310241CA0D0E90112CDE93F
:1034F0000312007B32888DF814000420042100940C
:1035000002AD0195FFF722FFFDF714FD024617A15A
:10351000284601F0C5FF3288042016211023CDE98A
:103520000045FFF713FF6420C82107B0BDE8F04F46
:10353000FFF792BDE8000024A800002460000024EA
:10354000140000240C0700246459000818FCFFFF35
:1035500000080258253033640000000057654163BD
:10356000742053747564696F0000000053544D3328
:1035700032483778782030782558000010B5C1F3EC
:103580000453C1F3406107249C409A4000EB810042
:103590004169A1431143416110BD0000F0B587B0FE
:1035A000274C284800271521012504260697C4E941
:1035B000000704F1240025622577A661A782C4E9EB
:1035C00002752661FCF795FE2046FDF7D9F908B192
:1035D000FDF72EF840F2FF70039069468DF81970E0
:1035E000CDE9046706200290CDE900501448FDF7AC
:1035F0006BF808B1FDF71CF80C20019069461248E1
:1036000000900F48FDF760F808B1FDF711F812209F
:10361000019069460D4800900948FDF755F808B13A
:10362000FDF706F818200190694609480090044803
:10363000FDF74AF808B1FCF7FBFF07B0F0BD00BF8B
:10364000F8050024002102400000B8CF000084CB20
:103650000040C0BA70B586B0254800260596254CB6
:103660000022016841F010010160016801F01001C1
:1036700000910099016841F004010160016801F0C6
:10368000040100910099016841F080010160016826
:1036900001F0800100910099016841F00101016091
:1036A0000068082100F00100009000982046FDF716
:1036B0003CFC20464FF4205101220125FDF735FC4A
:1036C00042F6080001900496CDE9025601AD20466D
:1036D0002946FDF761FB0220CDE9026029464FF43F
:1036E00000500190A4F50060FDF756FB06B070BDD8
:1036F0004045025800100258B0B586B01948002461
:103700004FF08041184DFF227F23CDE90244CDE9DF
:103710000044C0E90054C0E90232C0E90444C0E9F1
:103720000641FEF789FE08B1FCF782FF1220ADF8D2
:103730000400CDE904448DF8064001A9012209489E
:10374000FEF728FF08B1FCF773FF084800906946B0
:1037500001220448FEF7D8FE08B1FCF769FF06B065
:10376000B0BD00BF5C0600240040005803060122E3
:10377000F8B5144C00204FF000514FF08062072341
:103780004FF4C0254FF480060F4F2062C4E90400B7
:10379000C4E90900E0624FF08040C4E9062160639B
:1037A0002421C4E90076C4E9025304F13800FCF78F
:1037B000A0FD2046FEF75AFF18B1BDE8F840FCF71F
:1037C00037BFF8BD8406002400340140B0B598B07E
:1037D0000EA81C21FCF78DFD01A83421FCF789FD02
:1037E0002448002440F2E7310D22234BC0E9003287
:1037F000C0E90241C0E904448461FFF706FC08B156
:10380000FCF716FF1794CDE915441A4815A9FFF7E0
:10381000E7FA08B1FCF70CFF082011900025149579
:10382000CDE91255CDE90F55042260200E900EA966
:103830001048FFF793FB08B1FCF7FAFE01AC142126
:103840002046FCF756FD4FF00070CDE909502146A7
:103850000D950B9507954FF4005006900548FFF71E
:1038600071FA08B1FCF7E4FE0248FFF753FB18B009
:10387000B0BD00BF0C07002400000140FEE7FEE7DA
:103880000D4606464FF4006100222046FDF74DBB71
:103890008DF8EF003946012230465847606D40F000
:1038A00010006065A06D40F00100A0650120704728
:1038B0003060FDF747BBC2F34622B8EE433A32EE22
:1038C000002A81EE031A21EE021A02EE102AB8EE47
:1038D000422A32EE002A81EE022ABCEEC22A80ED94
:1038E000002A7047001BB0F57A7F7047D4F8840037
:1038F00040F48070C4F88400002084F88000012027
:1039000084F88100032070474FF400610122FDF725
:103910000CBB3046394601227047012084F8500024
:1039200003212046FCF7B6BD411B03200229704746
:10393000DAF81C00514640F40030CAF81C00704709
:103940002860FDF7FFBA0D4690F8241004460220C7
:1039500001297047B4F86A000138A4F86A0070477A
:10396000012084F8480084F83E0084F83F0084F881
:10397000400084F8410084F8420084F8430084F851
:10398000440084F8450084F8460084F8470084F831
:103990003D00002010BD2168B1F1804F486C40F41B
:1039A0000040486470471321002307F120044A4671
:1039B00020462847606D41F201118843013060655F
:1039C00000207047201D012100F0F2B93846294639
:1039D00001228DF813604047DAF840100025524666
:1039E0007047204600F0DCBA204600F003BB0846D2
:1039F0001146184704F12400002100F039BAFF22D3
:103A0000216800284A627047002084F880007047CF
:103A1000204636214A460023284701F1F800226853
:103A200082427047DAF84810002552467047044633
:103A300090F88000012870473A4601238DF8EF90F6
:103A4000204781688268D20842EA9101C90770471D
:103A50000968C1F30211515C01F01F01C84080BD2B
:103A6000B4F86220013AA4F86220E165B4F862B0CB
:103A700070473A4601238DF8EF5020472046FCF767
:103A80005FBD201D022100F093B98DF8EF0039468B
:103A900001227047044690F8500001287047DAF878
:103AA000441000255246704784F881000020C4F875
:103AB000840070470446D5F80863006880684007B2
:103AC00070470843CAF840007047002084F880001F
:103AD000012070473860FDF735BAD4F8009084F8BB
:103AE0008000FDF72FBA0843CAF84800704790F8E5
:103AF0003000616E0870606E013060667047284665
:103B00004FF40051FDF70CBA3046394601228DF8CA
:103B1000EF9058472068626D40F6017306F01F0170
:103B20009A4302F58072626505F580729042704793
:103B30003067306F20F080007047C1F3066102EEFD
:103B4000101AB8EE422A32EE000A81EE000ABCEEEC
:103B5000C00A10EE101A7047012084F8810000207E
:103B600084F88000D4F88400002870470843CAF81D
:103B70004400704702400020062A7047D4F88400B1
:103B800040F02000C4F88400704794F881000128B8
:103B90007047016821F0010101607047E06D30F865
:103BA000021BA9F82010E0657047002084F83C0053
:103BB000204670474FF6FC706E1C00F1020AC71CCD
:103BC00070473046394601228DF8EF50584720465D
:103BD000FCF7B6BC02F0700291427047C2F3064295
:103BE00002EE102AB8EE422A32EE002A81EE022AB4
:103BF000BCEEC22A80ED012A7047E16D04C9026261
:103C0000E16570472068BBF1000F4169704730469D
:103C1000394601228DF8EF80584704F12400022133
:103C200000F026B9401BB0F57A7F704741684FF627
:103C3000FF72914339444160016841F00101016024
:103C40006168B1F5800F70470D188DF8032020468C
:103C50004946012201F01CBCD1F8000320F0E070BD
:103C6000184370473060306820F480107047B862A5
:103C70006FF35F214FF47E4000EB42204FF0FE4295
:103C800080B208444FF4FE0101EB034101F4FE0150
:103C90000844296902EB016101F0FE4108447047C4
:103CA000044690F83D000028704738460A2100F08D
:103CB000DDBB6FF35F2302EE103AB8EE422A00EE4E
:103CC000032A03EE102AB7EE000A7047532141621F
:103CD000204600F041B9016841F40071016070476D
:103CE0000262B042D1F800C08B68046A4568704730
:103CF0000262B842026A46680C688B68456D70477C
:103D00003A46012330462047C5F3CC0503F00303B0
:103D10006C43022B00EE104AB8EE400A70470002D6
:103D200040EA0646A8784047086840F0010008606D
:103D3000002010BD0D4601204FEAB20184F83C007E
:103D40007047044690F83C000128704730463946D9
:103D500001228DF8EF804FF02D085847002084F89D
:103D60005000606D40F0040060650320704704F16E
:103D70002400012100F07CB88A68097B03EBC202B1
:103D8000002906EB080152687047012084F85000B2
:103D90002046FCF703BC201D002100F009B80220DA
:103DA00084F83D00211D206801F000B87047000034
:103DB000F8B55F4F0546B86A00F00300032804BF5A
:103DC0000120F8BD38680C4620F08060FFF782FEC5
:103DD00006463868000105D5FDF7B4F8801B0228B7
:103DE000F7D941E095E80F00BE6A26F47C36013928
:103DF00046EA0030FFF73BFFB8636869F96A21F0D3
:103E0000C0010843F862A869F96A21F0200108435B
:103E1000F8624FF6F871F86A20F01000F862F86B5B
:103E20008843E969012C40EAC100F863F86A40F070
:103E30001000F8624FF4001008BF4FF48010002CFF
:103E400008BF4FF40020F96A0843F862386840F070
:103E50008060FFF73FFE04463868000106D4FDF796
:103E600071F8001B0328F7D30320F8BD0020F8BD2C
:103E7000F8B52F4F0546B86A00F00300032804BFC9
:103E80000120F8BD38680C4620F08050FFF722FE74
:103E900006463868800005D5FDF754F8801B0228D7
:103EA000F7D941E095E80F00BE6A26F07C7601392B
:103EB00046EA0050FFF7DBFE38646869F96A21F4CE
:103EC00040610843F862A869F96A21F40071084367
:103ED000F8624FF6F871F86A20F48070F862786C36
:103EE0008843E969012C40EAC1007864F86A40F42B
:103EF0008070F8624FF0807008BF4FF40000002C13
:103F000008BF4FF48000F96A0843F862386840F04F
:103F10008050FFF7DFFD04463868800006D4FDF7C7
:103F200011F8001B0328F7D30320F8BD0020F8BDCB
:103F3000004402580928014698BF0921CAB20A2341
:103F4000B2FBF3F202EB8203A1EB4303591A0844DC
:103F500040EA0210C0B27047F8B504460068C16874
:103F6000490619D4C1680026012741F08001C160CB
:103F7000FCF7E8FF05462168F843C96840EA91105C
:103F8000C0070AD1FCF7DEFFFFF74CFEF3D903268A
:103F900084F825600027EEE70026F0B2F8BD0000A7
:103FA000B0B5134D044655F80C0C20F0800045F8D0
:103FB0000C0C2868800607D42046FEF73FFB78B13A
:103FC000032084F82500B0BD286820F02000286078
:103FD0002046FEF733FB28B1032084F8250002E0D9
:103FE0000020B0BD0020296841F020012960B0BD4B
:103FF0001840005810B5016840F26F344A698B6967
:1040000043F008038B618B6943F010038B610B68ED
:1040100023F001030B600B69A3430B618B6823F44E
:1040200040438B6090F88130042B0BD0930609D568
:10403000D0F8843043F08003C0F884308B6943F0BB
:1040400020038B6190F88130032B0BD0530609D5E8
:10405000D0F8843043F00403C0F884308B6943F017
:1040600040038B61930509D5D0F8843043F00103F8
:10407000C0F884308B6943F400738B61D20509D595
:10408000D0F8842042F00802C0F884208A6942F403
:1040900080728A610021A0F86210A0F86A1010BD39
:1040A000F8B514460D460646571C306840690007AF
:1040B00008D4FCF747FF002FF7D0401BA042F4D3F1
:1040C0000320F8BD0020F8BD002070472DE9F8431B
:1040D000074600200DF103098DF80300234DFFF77B
:1040E00062FC8046FFF7E1FD204628214A46002376
:1040F000A8470646FFF7D9FDFFF78AFCDA495A4B75
:10410000FFF73AFE08BF42F00802FFF79DFD40426C
:10411000281A18BF4FF0FF30BDE8F8832DE9F843A7
:10412000074600200DF103098DF803000F4DFFF73E
:104130003AFC8046FFF7B9FD204629214A46002374
:10414000A8470646FFF7B1FDFFF762FCC649464B9C
:10415000FFF712FE08BF42F00802FFF775FD40426C
:10416000281A18BF4FF0FF30BDE8F88397540008B5
:104170002DE9FE4FDFF8BC9A1E4604460F46D3F8E1
:1041800002B0D3F80AA0D3F81230D9F80400D6F858
:1041900016100091801A451A204639462A4600F02A
:1041A00043FCE0B9D9F808002F4904F120080DF1CB
:1041B000090251F8300099F80C10002908BF40F0AE
:1041C00008008DF8090040463621012301F063F90B
:1041D00028B9204639462A4600F0B8FB20B14FF0F6
:1041E000FF352846BDE8FE8F5644ABEB0A07002595
:1041F0000DF10A0A705D514602228DF80B0070190C
:1042000040788DF80A00404601F042F920B90235A5
:10421000BD42EFD3002601E04FF0FF361249D9F836
:1042200008000DF1090201EBC00099F80C1040687C
:10423000002908BF40F008008DF80900362101234D
:10424000404601F028F94FF0FF350028C9D1D9E9DF
:104250000030009000210022204600F0E5FB0028FD
:1042600008BF3546BDE700BF14C80008B0B5054615
:104270001C4658187C4B1B68984203D8284600F00F
:1042800065FB10B14FF0FF30B0BD0B4904982346D9
:104290000131020A2BB101F8020B013B01F8032C9A
:1042A000F8E705F120006200034901F0F1F8002869
:1042B00018BF4FF0FF30B0BDF80000242DE9F041E9
:1042C0000E46694907469818496888420ED81C4628
:1042D0001546DDF818806CB1384631462A4643460B
:1042E00000F084FC0135013C0028F4D04FF0FF3091
:1042F000BDE8F0810020BDE8F08100BF2DE9FE4F50
:1043000007460C980E4615460144574802689142EC
:1043100002D94FF0FF393AE0DDF834B040684FF091
:10432000FF390BEB0501814231D80C981C464FF048
:1043300000084FF0000A4000029007F120000190B1
:10434000144801300090DA4520D00AEB05023846C7
:10435000314600F0FBFA10B14FF0FF3813E000983F
:104360000C9941B12278013900F8012C62780234AD
:1043700000F8022BF5E701980649029A01F088F847
:10438000002818BFC8460AF1010ADCE7C1464846C2
:10439000BDE8FE8F780300242DE9F84399461546C1
:1043A0000E460746DDE908485CB1384631462A46E4
:1043B0004B46CDF80080FFF759FF28B9013C013585
:1043C000F2E70020BDE8F8834FF0FF30BDE8F88346
:1043D0004FF0FF30704700002348806808600020DD
:1043E000704700BF2DE9FC479846064600F0AEFA3C
:1043F0000DF10507203681462E2130463A4601F060
:1044000041F88246114CFFF784FAA04707460DF1A8
:10441000070130460122A04705460DF1060130464E
:104420000122A0479DF806109DF80720404242EA6D
:104430000121C8F800100AEB090139442944081A7F
:1044400018BF4FF0FF30BDE8FC8700BF8B54000859
:104450000548006808600020704700BF02484068B7
:1044600008600020704700BFE800002470B50546D2
:10447000C0690C4680470646E8698047801BA04219
:10448000FAD370BD2DE9F04FBDB000283A923C91AF
:1044900000F0F98100210DF1EF0700F120068DF801
:1044A000EF100546FA4C00234FF000093046012179
:1044B0003A46A047284678213995FFF7D7FF30467E
:1044C00001213A4600238DF8EF90A0473890284606
:1044D0007821FFF7CBFF30461121FFF7ADFA379077
:1044E0003046B1213A460023A0473690DFF85CB64B
:1044F000FFF70FFA01258DF8EF50D84735902C20A3
:10450000FFF7C3FA4FF02C093046D84734902D20DE
:10451000FFF7BBFA4FF02D083046D84733903046AE
:10452000B2213A4601238DF8EF504FF0010AA0471F
:1045300032903046394601228DF8EF902C25D8472D
:104540003190FFF703FC30903046B3213A46012307
:104550008DF8EFA04FF00109A0472F903046394663
:1045600001228DF8EF502C25D8472E90FFF7EEFB57
:104570002D90FFF7C9FA2C90FFF723FB2B90FFF744
:1045800046FB2A9007208DF8EF00B4213A4601231C
:104590004FF007083046A0472990A2208DF8EF0081
:1045A000C021FFF7ADFB28900220FFF76EFA4FF015
:1045B00002093046D84727908420FFF769F92690F2
:1045C000C5208DF8EF00C121FFF79AFB25900A2046
:1045D0008DF8EF00C221FFF793FB24900020FFF736
:1045E00057F923903046C3213A4601238A258DF896
:1045F000EF50A04722902A20FFF74AF92190304639
:10460000C421FFF736FA2090EE20FFF741F91F9002
:104610000E208DF8EF00C521FFF772FB1E903A982F
:1046200020213A46007B002808BF21213046002384
:10463000A0471D903CAA30463A210123A0471C9078
:104640003046E021FFF7F8F91B901C20FFF720F916
:104650001A90FFF7DCFA19901220FFF719F9189059
:10466000FFF757F94FF037088DF8EF80D8471790CC
:104670003220FFF70DF91690FFF74BF94FF029099B
:104680008DF8EF90D8471590FFF743F94FF02D0ABA
:104690008DF8EFA0D8471490FFF736FA1390252035
:1046A000FFF7F6F812902B20FFF7F2F8119039205F
:1046B000FFF7EEF810900020FFF7EAF80F900120C6
:1046C000FFF7E6F80E90FFF724F903258DF8EF5079
:1046D000D8470D901020FFF7DBF80C903046E12111
:1046E000FFF7C7F90B901D20FFF7D2F80A900720BB
:1046F000FFF7CEF809900620FFF7CAF80890FFF7F9
:1047000008F92E258DF8EF50D84707902C20FFF799
:10471000BFF80690FFF7F8F90590FFF7FAF88DF863
:10472000EFA0D8470490FFF74CFA0390FFF749FA3F
:104730000290FFF76CFA01903F20FFF7A9F881463D
:10474000FFF7E7F800248DF8EF40D8470546FFF75C
:10475000E0F88DF8EF404FF00008D847824602207D
:10476000FFF796F804461020FFF792F8DDE93721AD
:1047700001238DF8EF801144369A1144359A114483
:10478000349A1144339A1144329A1144319A1144A3
:10479000309A11442F9A11442E9A11442D9A1144A3
:1047A0002C9A11442B9A11442A9A1144299A1144A3
:1047B000289A1144279A1144269A1144259A1144A3
:1047C000249A1144239A1144229A1144219A1144A3
:1047D000209A11441F9A11441E9A11441D9A1144A3
:1047E0001C9A11441B9A11441A9A1144199A1144A3
:1047F000189A1144179A1144169A1144159A1144A3
:10480000149A1144139A1144129A1144119A1144A2
:10481000109A11440F9A11440E9A11440D9A1144A2
:104820000C9A11440B9A11440A9A1144099A1144A2
:10483000089A1144079A1144069A1144059A1144A2
:10484000049A1144039A1144029A1144019A1144A2
:104850003A4649442944734D514421440C1830468A
:104860001321A8470444304629213A460123A8478A
:104870000444DDE9390100F06BF94042201A18BF09
:104880004FF0FF3001E04FF0FF303DB0BDE8F08F5A
:10489000975400087CB500F120050DF105060C4683
:1048A000DA212846324600F0EDFD58B9721C284640
:1048B000DB2100F0E7FD28B9B21C2846DC2100F01E
:1048C000E1FD10B14FF0FF307CBDBDF806009DF852
:1048D0000510000400BA40EA0140206000207CBDC1
:1048E0000369FFF784B88369FFF781B8E8B1B0B511
:1048F0000F4A4262D1E90345C0E9034500630D4A0E
:10490000C2620D4A82620D4A0262D1E90023C0E907
:1049100000230B8903814B6943618B69C9698361FA
:10492000C161BDE8B04002B110474FF0FF307047A1
:10493000E1480008E748000841490008394C0008F0
:104940004369FFF754B84FF0FF3070472DE9F84F37
:104950000C46B8498B684D7B012B0AD8022D10D02C
:10496000012D1BD1097B002912BF183401321A34E2
:1049700014E0022D0BD0012D10D1097B61B118324A
:104980000CE0097B012909D10132023406E0097BE0
:10499000012903D1023200E01A32013400F120066D
:1049A0000DF1030791461F4D2A21002330463A4658
:1049B000A8478246200A8DF80300DFF89081394627
:1049C00001223046C0478346FEF7A3FF8DF803401F
:1049D000C047044630462B213A460023A8470546E7
:1049E0004FEA19208DF80300394601223046C047AE
:1049F0000BEB0A0101228DF80390214429440C1885
:104A000030463946C047044430462C213A460023FC
:104A1000044DA8474042201A18BF4FF0FF30BDE8B0
:104A2000F88F00BF975400082DE9F04F85B00E466F
:104A300080491C4692468B684A7B012B0BD8022A80
:104A400016D0012A21D1097B002912BF18360AF19C
:104A5000010A1A3619E0022A11D0012A15D1097B60
:104A60000136002914BF0AF1180A0AF11A0A0CE0EB
:104A7000097B012909D10AF1010A023605E0097B07
:104A8000012904BF0AF1020A013600F120070DF1E5
:104A900013052A21002338462A4600F0FCFC039027
:104AA000300A8DF81300DFF8A48029460122384629
:104AB000C0470290FEF78AFF0190A0192946012203
:104AC000441E200A8DF813003846C047009038462F
:104AD000294601228DF81340C047044638462B2151
:104AE0002A46002300F0D7FC81464FEA1A208DF8B1
:104AF0001300294601223846C04756468246FEF733
:104B000065FF83460E98294601223044461E300A2E
:104B10008DF813003846C047DDE902218DF8136097
:104B20001144019A1144009A11440122214449443C
:104B3000514459440C1838462946C0474042201A6F
:104B400018BF4FF0FF3005B0BDE8F08F915400085A
:104B50007CB5044688684A7B012808D89AB1022AA5
:104B600011D0012A18D1334AA023502507E072B191
:104B7000022A0CD0012A0FD12E4A5023A025C2E9C7
:104B80000053012208E02B4BA025802602E0294B90
:104B90008025A026C3E90065264EB060087B7273AD
:104BA000002100223073D6E9003000902046FFF744
:104BB0003BFF0546B0680C490DF1070201EBC00050
:104BC000317B4068002908BF40F008008DF80700DD
:104BD0003621012304F1200000F05DFC4042281A38
:104BE00018BF4FF0FF307CBD14C80008BCB50446A8
:104BF000180240EA13200F4BADF806004FF0FF30CB
:104C00001D688D4214D95B68934211D92046FFF785
:104C10009DFE10B14FF0FF30BCBD04F120000DF13E
:104C20000601022200F034FC002818BF4FF0FF30CC
:104C3000BCBD00BFE800002410B51C46C368084690
:104C400011462246BDE8104018477047FCF77EB970
:104C5000B0B59CB009A818210C30FBF74AFB01A89D
:104C60002021FBF746FB0220FCF742FA274C0020EC
:104C70000090D4F8F00340F44040C4F8F003D4F8B6
:104C8000F00300F4404000900098D4F8F003800452
:104C9000FBD5FCF74FFAA06C0221082520F0180084
:104CA000A064206861F301002060CDE91815CDE90A
:104CB0001611CDE91211012100240B91CDE91A44FE
:104CC000702015904FF4803105201490CDE9090132
:104CD00009A8FDF759F918B1EFF3108072B6FEE795
:104CE0003F2001900594CDE90345CDE906440894A1
:104CF00003210320029001A8FCF7A4FF18B1EFF3F1
:104D0000108072B6FEE71CB0B0BD00BF2844025848
:104D100010B51E481E4A016841F470010160106818
:104D200000F00F00022804D81068032161F303008B
:104D300010601848184C016841F001010160002121
:104D40000161036823400360136813F00C0F04D063
:104D50001368032464F303031360104A8161C16183
:104D6000016282620E4AC2620E4A0263416382633A
:104D7000C16302644164026822F480220260016619
:104D8000094843F2D201016010BD00BF88ED00E088
:104D900000200052004402587FEDF6EA00020202B1
:104DA0000000FF01800201010040005270B5D04AAE
:104DB0000368904205D0B0F1804F1CBF254CA04243
:104DC00034D123F070034C68234390420ED0B0F1ED
:104DD000804F0BD01F4CA0421CBF1F4CA04205D0DF
:104DE0001E4CA0421CBFC34CA04229D1CC6823F466
:104DF000407323434E6923F080030C688D6833436E
:104E00000360C562846290420BD0BA4A904208D0D7
:104E1000B94A904205D0B94A904202D0B84A90426D
:104E200001D1096901630121416170BD0A4CA042B1
:104E3000C7D0B04CA042C4D0084CA042C1D0C6E7F5
:104E4000AD4CA042D2D0AD4CA042CFD0AC4CA04291
:104E5000CCD0CFE70004004000080040000C004028
:104E600010B501F01F010423046A8B4002FA01F11E
:104E700024EA03030362026A1143016210BD0000C9
:104E8000F0B5026A9A4E22F0010202620A688B684B
:104E9000046A456824F0020423438469B0420BD0BD
:104EA000944FB84208D0944FB84205D0934FB842BF
:104EB00002D0934FB84207D1CF6823F00C0327F0FC
:104EC00004073B43B0420BD08A4EB04208D08A4E12
:104ED000B04205D0894EB04202D0894EB04205D1D1
:104EE00025F44075D1E9056735433D4345603E4DA6
:104EF0002C4022438261496841630362F0BD00BFD8
:104F0000F0B5026A7A4E22F01002FEF7E9FE24F0B4
:104F1000200444EA0313846903D006F58067B8428D
:104F200009D1CF686FF0400223F0C00302EA0712F4
:104F30001343B0420BD06F4A904208D06E4A904261
:104F400005D06E4A904202D06D4A904207D1D1E915
:104F5000052625F4406545EA820242EA86053A4A7A
:104F60004560224042EA0C22826149688163036203
:104F7000F0BD00BFF0B5026A5D4E22F48072FEF70C
:104F8000AFFE24F4007444EA0323C46903D006F599
:104F90008067B8420AD1CF6840F2FF4223F44063F1
:104FA0003F0227EA02021343B0420BD0514A90421B
:104FB00008D0514A904205D0504A904202D0504AFF
:104FC000904207D1D1E9052625F4405545EA021261
:104FD00042EA0615044A4560224042EA0C02C261D8
:104FE0004968C1630362F0BD8CFFFEFFF0B5026A41
:104FF0003F4F22F480520262B842026A46680C684F
:105000008B68C5691CBF3B4FB84212D14F6926F46B
:10501000804646EA871646600B4E354045EA042432
:10502000C4614968016422F4005141EA033101621C
:10503000F0BD314FB842E9D0304FB842E6D0304FE2
:10504000B842E3D0E7E700BFFF8CFFFEF0B5026A8D
:10505000274F22F48032FEF74BFE1CBF254FB8428B
:1050600011D14F6926F4803646EA072646600B4E7A
:1050700035402C4344654968816522F4003141EA9A
:1050800003410162F0BD1C4FB842EAD01B4FB84249
:10509000E7D01B4FB842E4D0E8E700BF8FFFFEFF28
:1050A000F0B5026A124F22F48012FEF721FE1CBFF7
:1050B000104FB84212D14F6926F4802646EA87265F
:1050C0004660104E354045EA042444654968C16590
:1050D00022F4001141EA03510162F0BD064FB842CB
:1050E000E9D0064FB842E6D0054FB842E3D0E7E733
:1050F0000000014000040140004001400048014020
:1051000000440140FF8FFFFEFEE7000010B500F0F5
:105110000F03CA4CB0F1FF3F034A2344C8BF8318B2
:105120000801187010BD00BF00E400E0FBF70ABFE3
:1051300080B503480421FDF791FE002080BD00BF2B
:105140000C0700242DE9FC41BE4C88468DF8070071
:10515000464E4FF4006100222046B04720464FF4EF
:1051600000510022B047424D0DF107010122642396
:105170002846FDF70AFC074620464FF4005101225D
:10518000B0472846414601224FF4FA73FDF74CFB25
:10519000054620464FF400610122B0476842381AA4
:1051A00018BF4FF0FF30BDE8FC8100BF70B5A54CC3
:1051B000FEF766FBAAB22E4831464FF4FA73FDF7AC
:1051C00033FB05462046FEF79FFB002D18BF4FF02E
:1051D000FF35284670BD00BF70B59A4CFEF750FBF6
:1051E000AAB2234831466423FDF7CFFB054620468B
:1051F000FEF78AFB002D18BF4FF0FF35284670BD23
:105200002DE9FC478F4D174688468DF80700DFF8DB
:105210005CA04FF40061002200242846D0472846B5
:105220004FF400510022D04711480DF1070101222F
:105230006423FDF7AAFB064628464FF400510122DD
:10524000A946D0473FB1BAB2094841464FF4FA7374
:10525000FDF79BFB06444846FEF756FB002EC8BFF1
:105260004FF0FF342046BDE8FC8700BF2B0F00083D
:10527000840600248AB071480168890312D4BFF300
:105280004F8F0021BFF36F8FC0F83C12BFF34F8FD9
:10529000BFF36F8F016841F400310160BFF34F8F9E
:1052A000BFF36F8F0168C90326D40021016743F65D
:1052B000E07CBFF34F8FC26EC2F3C903C2F34E311D
:1052C0009A0701330CEA411516461F4646EA0504C3
:1052D00006F14046013FC0F84C42F7D14C1E002970
:1052E0002146EFD1BFF34F8F016841F48031016057
:1052F000BFF34F8FBFF36F8F01200390FBF7A2FE28
:1053000040F20110069048F21F70059000200490B2
:1053100003AC2046FBF770FE0420FBF79DFEFBF775
:105320001FFEFFF795FCFEF795F9FEF7E5F9FEF78E
:105330001FFAFEF74BFAFEF731F9FEF731F8404855
:10534000002140F2FF72FBF777F918B1EFF31080FC
:1053500072B6FEE74FF00009394E3B4F4FF00C0A92
:105360004FF6FF783046B9F1040F1DD0FBF79CFCD7
:1053700000285AD130466421FBF712FC002858D18E
:10538000304607EB490BFBF7F7FAABF8100040F695
:10539000E44207EB890009F10109BBF81010514301
:1053A000B1FBF8F18161DDE7FBF7D4FCBA69FB6979
:1053B000386A0225796AC7E90023A0F51B708900C5
:1053C00090FBF5F01E30C7E9020120A1204600F055
:1053D00067F8244D00202E211023CDE900A44FF0C2
:1053E00000092A88FDF7B2FFD7E9022320461EA153
:1053F00000F056F82A8800203E211023CDE900A4B1
:10540000FDF7A4FF0F4D082101222846FBF78DFD73
:105410000220FBF7B1FC284608210022FBF785FD9E
:1054200040F2F310FBF7A8FC9CE7EFF3108072B694
:10543000FEE7EFF3108072B6FEE700BF14ED00E068
:10544000F805002400100258800000242050433248
:105450003A202534646D5620567265663A2025340C
:10546000646D5600E800002474656D703A202533A1
:105470006420274320766261743A202534646D5697
:1054800000000000436800691847D0E9033018475E
:10549000836800691847D0F800C0006960470000C1
:1054A0000FB4084B10B504A902AA039800F01CF829
:1054B000044602A9002000F048FA204610BC5DF81E
:1054C00014FB00004B59000802E008C8121F08C175
:1054D000002AFAD170477047002001E001C1121F75
:1054E000002AFBD1704700002DE9FF4F8DB00F4619
:1054F0000546002606E025280BD0DDE90F1290476F
:105500006D1C761C28780028F5D111B03046BDE816
:10551000F08F0024A246A1460122EC4900E004439A
:1055200015F8013F203B02FA03F00842F7D1287832
:105530002A2810D06FF02F022878A0F13001092915
:1055400014D80AEB8A0102EB410144F0020400EB9B
:10555000010A6D1CF0E701CF5FEA000A03D544F4AD
:105560000054CAF1000A44F002046D1C28782E2869
:1055700017D115F8010F44F004042A280ED06FF05B
:105580002F022878A0F1300109290AD809EB8901F6
:1055900002EB410100EB01096D1CF2E757F8049B97
:1055A0006D1C28786C280FD006DC4C2817D0682892
:1055B0000DD06A2814D104E0742810D07A280FD1B5
:1055C0000DE044F400140AE044F4801401E044F4D3
:1055D00040146978814202D104F580146D1C6D1C61
:1055E0002A786E2A1FD00CDC632A31D004DC002A12
:1055F0008BD0582A11D1A3E0642A68D0692A0CD133
:1056000065E0732A2ED004DC6F2A73D0702A04D18F
:105610009BE0752A6FD0782A6ED01046DDE90F1214
:105620009047761C50E1C4F30250022806D00328AC
:1056300009D0042801CF09D0066045E101CFF11758
:10564000C0E9006140E101CF06803DE106703BE129
:1056500017F8040B8DF8000000208DF80100EB46D0
:10566000012003E057F804BB4FF0FF3061074FF013
:10567000000102D40DE008F10101884649450FDA26
:105680008045F8DB1BF808100029F4D108E008F188
:10569000010188468142FADB1BF808100029F6D187
:1056A000DDE90F23AAEB08008146214600F036F918
:1056B000304400EB080604E0DDE90F121BF8010B93
:1056C0009047B8F10108F7D221464846F7E00A2191
:1056D000C4F302534FF0000B0891022B04D001CF0A
:1056E000C117032B09D00AE0FF1D27F00707F7E8D1
:1056F000020108E032E01FE020E000B2C117042BF5
:1057000001D140B2C117031E71F1000307DA4FF057
:10571000000CD0EB0C006CEB01012D2302E0230503
:1057200004D52B238DF82430012303E0E30701D0B7
:105730002023F7E7984658E00A2110E010210EE0F8
:1057400010204FF0000B08900CE010214FF0000BE0
:1057500044F004044FF00809089103E008214FF0D9
:10576000000B0891C4F30253022B04D001CF002197
:10577000032B06D006E0FF1D27F00707F7E802011C
:1057800003E080B2042B00D1C0B24FF00008230721
:105790002BD5702A07D0DDF820C08CF0100C5CEA05
:1057A0000B0C05D00EE040238DF82430012308E0D7
:1057B00050EA010306D030238DF824308DF82520DF
:1057C00002239846DDF820C08CF0080C5CEA0B0C34
:1057D0000BD150EA010301D1630706D530238DF8C0
:1057E00024304FF00108A9F10109582A04D038A249
:1057F0000B9208AA0A920BE03AA2F9E75B46089AD4
:10580000FAF782FD0B9B9B5C0A9A521E0A92137058
:1058100050EA0102F2D10A98ADEB000000F1200B32
:10582000600702D524F4803401E04FF00109D94526
:1058300002DDA9EB0B0000E0002000EB0B0141446E
:105840000890AAEB010AE00306D4DDE90F23214604
:10585000504600F063F806444FF0000908E009A93B
:1058600011F80900DDE90F12904709F10109761CD2
:10587000C145F4DBE0030CD5DDE90F23214650469A
:1058800000F04CF8064404E0DDE90F1230209047A8
:10589000761C0899481E08900029F5DC08E00A9853
:1058A0000A990078491C0A91DDE90F129047761C8D
:1058B000BBF10001ABF1010BF1DC21465046DDE903
:1058C0000F2300F019F806446D1C1BE6092801009F
:1058D0003031323334353637383961626364656666
:1058E0000000000030313233343536373839414228
:1058F00043444546000000002DE9F04104460025E0
:105900001E461746880404D405E039462020B047D7
:105910006D1C641EF9D52846BDE8F0812DE9F041E3
:10592000044600251E469046C80301D5302700E0F6
:105930002027880404D505E041463846B0476D1C51
:10594000641EF9D52846BDE8F0810A68531C0B6037
:1059500010707047000000000102030401020304FC
:1059600006070809424D4864000000000000460098
:10597000000038000000A0000000500000000100FE
:1059800010000300000002640000120B0000120B64
:105990000000000000000000000000F80000E00728
:1059A00000001F00000000000000000000000000D8
:1059B00000000000000000000000000000000000E7
:1059C00000000000000000000000000000000000D7
:1059D00000000000000000000000000000000000C7
:1059E00000000000000000000000000000000000B7
:1069100000000000000008422D6B2D6B2D6B242120
:106920000000000000000000000000000000000067
:106930000000000000000000000000000000000057
:106940000000000000000000000000000000000047
:106950000000000000000000000000000000000037
:106960000000000000000000000000000000000027
:106970000000000000000000000000000000000017
:106980000000000000000000000000000000000007
:1069900000000000000000000000000000000000F7
:1069A00000000000000000000000000000000000E7
:1069B00000000000000000000000000000000000D7
:1069C00000000000000000000000000000000000C7
:1069D00000000000000000000000000000000000B7
:1069E00000000000000000000000000000000000A7
:1069F0000000000000000000000000000000000097
