:020000040800F2
:10000000C8420024C10200083B4C000835410008EA
:10001000394C000825040008538B0008000000003C
:10002000000000000000000000000000DD6F00087C
:100030002704000800000000A7530008DF6F000835
:10004000DB020008DB020008DB020008DB0200081C
:10005000DB020008DB020008DB020008DB0200080C
:10006000DB020008DB020008DB020008DB020008FC
:10007000DB020008DB020008DB020008DB020008EC
:10008000DB020008DB020008DB020008DB020008DC
:10009000DB020008DB020008DB020008DB020008CC
:1000A000DB020008DB020008DB020008DB020008BC
:1000B000DB020008DB020008DB020008DB020008AC
:1000C000DB020008DB020008DB020008DB0200089C
:1000D000DB020008DB020008DB020008DB0200088C
:1000E000DB020008DB020008DB020008DB0200087C
:1000F000DB020008DB020008DB020008DB0200086C
:10010000DB020008F95B0008DB020008DB020008E4
:10011000DB020008DB020008DB020008DB0200084B
:10012000DB020008DB020008DB020008DB0200083B
:10013000DB0200080000000000000000DB020008F5
:10014000DB020008DB020008DB020008DB0200081B
:10015000DB020008DB020008DB020008DB0200080B
:10016000DB020008DB020008DB020008DB020008FB
:10017000DB0200083D4C0008DB020008DB0200083F
:10018000DB020008DB020008DB020008DB020008DB
:10019000DB020008DB020008DB020008DB020008CB
:1001A000DB020008DB020008DB020008DB020008BB
:1001B000DB020008DB020008DB020008DB020008AB
:1001C000DB020008DB020008000000000000000065
:1001D0000000000000000000DB020008000000003A
:1001E000000000000000000000000000000000000F
:1001F0000000000000000000DB020008DB02000835
:10020000DB020008DB02000800000000DB0200083F
:10021000DB020008DB020008DB020008DB0200084A
:10022000DB020008DB020008DB020008000000001F
:10023000DB020008DB02000800000000DB0200080F
:10024000DB020008DB020008DB020008DB0200081A
:10025000DB020008DB020008DB020008DB0200080A
:10026000DB020008DB020008DB020008DB020008FA
:10027000DB020008DB020008DB02000800000000CF
:10028000DB020008DB02000800000000DB020008BF
:1002900000000000DB020008DB020008DB020008AF
:1002A000DB020008DB020008DB020008DFF80CD0EC
:1002B00000F05CF800480047C18C0008C8420024E8
:1002C0000648804706480047FEE7FEE7FEE7FEE7F0
:1002D000FEE7FEE7FEE7FEE7FEE7FEE799700008AF
:1002E000AD020008D2B201E000F8012B491EFBD29A
:1002F00070470022F6E710B513460A460446194631
:10030000FFF7F0FF204610BD2DE9F05F0546002005
:1003100092469B4688460646814640241BE0284676
:1003200041464746224600F042F853465A46C01A14
:10033000914110D311461846224600F029F82D1A93
:1003400067EB01084F4622460120002100F020F80B
:1003500017EB00094E41201EA4F10104DFDC4846E2
:1003600031462A464346BDE8F09F0000064C074D43
:1003700006E0E06840F0010394E807009847103475
:10038000AC42F6D3FFF796FF0402010824020108ED
:10039000202A04DB203A00FA02F100207047914045
:1003A000C2F1200320FA03F3194390407047202A3A
:1003B00004DB203A21FA02F00021704721FA02F30F
:1003C000D040C2F12002914008431946704770B5F1
:1003D0008C1810F8015B15F0070301D110F8013BF0
:1003E0002A1106D110F8012B03E010F8016B01F877
:1003F000016B5B1EF9D12B0705D40023521E0DD4CF
:1004000001F8013BFAE710F8013BCB1A921C03E01C
:1004100013F8015B01F8015B521EF9D5A142D8D354
:10042000002070BDFEE770474FF4FA7004F040F909
:10043000FAE70000B0B5044600F0E2F805469C4833
:10044000611C007818BF044400F0DAF8401BA04299
:10045000FAD3B0BD2DE9FC4F5C4A0A244FF0000AE4
:100460004FF0000990425A4A08BF092402444FEA5B
:10047000B223092B38BF4FEAB224009400220E6841
:1004800036FA02F700F0A080012303FA02F716EA19
:10049000070B00F09380D1F804E003230EF0030C67
:1004A000ACF10105012D13D803FA09F58468CB6876
:1004B000AC4303FA09F36FEA050823438360CEF3E4
:1004C00000134468BC4393405700234343600BE050
:1004D00003FA09F3BCF1030F4F466FEA030803D197
:1004E0004F464FF0030C20E0C3688C6803EA080312
:1004F000BC402343C360BCF1020F16D10AF01C03B9
:100500000F2404FA03FC6FF0030404EA52050544C7
:100510002C6A24EA0C0C0C6904FA03F343EA0C037A
:100520002B62D1F804E00EF0030C04680CFA07F318
:1005300004EA0804234303601EF4403F3ED0854C88
:10054000254E236843F00203236023680F2403F041
:1005500002030193019D0AF00C0322F003059C4065
:10056000AF5927EA0404009F07FA03F32343AB5172
:100570004FF0B04633684D6843EA0B04EF0258BFB2
:1005800023EA0B043460134EAF02336843EA0B04D2
:1005900058BF23EA0B043460AF03D6F8803043EA37
:1005A0000B0458BF23EA0B04C6F88040ED03F36F39
:1005B00043EA0B0458BF23EA0B04F4670AF1040A68
:1005C00009F1020901325AE7BDE8FC8F0024025804
:1005D0000000FEA704000058080400580069084005
:1005E00018BF01207047002A08BF090481617047C5
:1005F000024800686FF31F30704700BF0010005CB6
:1006000005480068704700BF2948034900780A6818
:1006100010440860704700BFC422002480B5032046
:1006200000F0C4F801F006FE0E490F4B0A68096895
:1006300001F00F01C2F30322595C9A5C01F01F0123
:1006400002F01F02D0401B4A1060C84007490860F2
:100650000F2000F00DF808B1012080BD00F06CF80B
:10066000002080BD18440258009300080C000024AC
:1006700070B50F4E04463078B0B14FF47A71B1FBCB
:10068000F0F00C490968B1FBF0F003F0B7FB01256D
:100690000F2C0AD848B94FF0FF3021460022002520
:1006A00000F068F8746000E00125284670BD00BFC6
:1006B00000000024080000240278114943780B60F0
:1006C000D2B143684B60037B42EA0372C37A42EAC9
:1006D0000362837A42EAC342437B42EA8342837BDA
:1006E00042EA4342C37B42EA0342437A007A42EA47
:1006F000032242EA400001E0002048608860704721
:1007000098ED00E00B48BFF35F8F016821F4803162
:100710000160002101677047064940F00100086749
:10072000086840F480300860BFF34F8FBFF36F8FCD
:10073000704700BF24ED00E081B00648016841F039
:1007400002010160006800F002000090009801B012
:10075000704700BF54450258002808D400F01F011C
:100760000122400902FA01F1014A42F820107047C3
:1007700000E100E070B5134B4FF0FF351B68C3F389
:100780000223DC1E83F0070338BF002405FA04F6B9
:10079000B243042B28BF042305FA03F39943A14075
:1007A0001143BDE8704008F0D5B900BF05494FF6C8
:1007B000FF030A681A4060F30A22034810430860E6
:1007C000704700BF0CED00E00000FA0501688A697F
:1007D00042F000628A610122C0F80025002280F800
:1007E000F424486D024A104348650020704700BF5A
:1007F0000300001070470068416200207047B0B5E8
:100800000068436AB1B1846A013903EB14430024E0
:10081000E5B2A94207D900EB85050134D5F80451AA
:1008200003EB1543F4E700EB810043EA0241C0F813
:10083000041102E043EA024181620020B0BDD0F819
:10084000080506F0C1BF01EBC10200EB8202D0F83F
:100850000805D26C06F035BF01EBC10200EB820245
:10086000D0F80805D2F88C2206F07CBFD0F8080535
:1008700006F0ACBF01F00F02090602EBC20200EB6A
:10088000820303F13C0258BF03F51F720068114652
:1008900007F0BABF10B5044601F00F0004F0EFFCFA
:1008A0005DBF002281F87D2201F51F71012244BF46
:1008B00081F83D203C31087094F8BC04012804BF45
:1008C000022010BD04F052FC07F0EEFC04F06DBBFA
:1008D000B0B5044601F00F006268904201D90125CD
:1008E0001BE004F0CCFC5DBF002281F87D2201F505
:1008F0001F71012244BF81F83D203C310870002562
:100900008D7094F8BC04012801D1022505E004F0A3
:100910002DFC07F07DFE84F8BC542846B0BD10B510
:1009200004F006FA04BF022010BD04F01FFC0A0602
:1009300002D407F0A5FF03E001F00F0107F0C0FFAC
:1009400004F033BB01F00F0101EBC10100EB8100AA
:10095000D0F89C027047B0B5044601F00F0004F0D7
:100960008EFC5DBF002581F87D5201F51F710125C8
:1009700044BF81F83D503C31CA600B7108704A7821
:1009800002B10881022B01D10020487194F8BC0407
:10099000012804BF0220B0BD04F0E8FB07F0D6FB3D
:1009A00004F028BCB0B501F00F0404EBC40100EB67
:1009B00081050021C5F894320369C5F89C1285F8B9
:1009C0007D12C5F88C2285F87C4205F51F71012B3C
:1009D00008BFC5F89022DAB2006814B107F04CFEE7
:1009E00001E007F071FD0020B0BDB0B5044601F094
:1009F0000F054068854284BF0120B0BD080609D4B8
:100A000001EBC100002104EB800080F87D1200F5AD
:100A10001F7108E005EBC500012104EB800080F8A0
:100A20003D1000F13C0194F8BC2401200D70887049
:100A3000012A04BF0220B0BD84F8BC04206807F07E
:100A4000FFFD2DB9217C206804F2C44207F0B4FDFB
:100A500004F0D0BB70B501F00F04002604EBC40114
:100A600000EB8105294601F83C4F8B6101234B7057
:100A70000E620A610369012B08BF2A65DAB20068B9
:100A800014B107F0F9FD01E007F01EFD002070BD74
:100A90002DE9F04F89B005688246284607F043FFEC
:100AA00010B109B0BDE8F08F04F0DCF80028F8D0F0
:100AB000D5F80808C0F30D20CAF8FC0404F0D2F8F9
:100AC0000146DAF80000890703D5416901F0020107
:100AD000416105F50061049107F051FF0146DAF824
:100AE00000000595C9063FD5816921F0100181619B
:100AF0002C6A04F00F05C4F3434006281CD00228DA
:100B00002BD147F6F070044027D005EBC500220931
:100B10000AEB80050598D5F88C1207F034FFD5F85C
:100B20008C02D5F89C1200EB1410C5F88C0201EB76
:100B30001410C5F89C0210E00AF2C441059808227E
:100B400007F021FF05EBC500C4F30A120AEB800091
:100B5000D0F89C121144C0F89C12DAF800008169A8
:100B600041F010018161059D07F009FF00030DD4DC
:100B700004F078F84003049E00F1E18004F072F87C
:100B8000002800F1A681DAF80000BAE1DAF80000E6
:100B900007F0D4FE06460AF527744FF430684FF08C
:100BA000000B0AF2C4400890002EE1D0F00700F0DC
:100BB000B8805FFA8BF9DAF80000494607F0D7FEF3
:100BC0000746C0075CD005EB080001218160DAF818
:100BD000000008EB0001036C8A68DAF81050012D60
:100BE00024D115072FD4950647D412F0280F059D60
:100BF00046D1AC46DD4DAB4202D9120400F19880DB
:100C000054F8042C096965466FF3DF41511A2160DD
:100C1000B8F5306F2CD1DAF89422002A00F08D80DC
:100C2000DAF88C020844CAF88C0221E0CF4D05F5B1
:100C30008075AB4211D11004059D0AD4900617D5DA
:100C40002020886014E0C948059D834218D910040B
:100C500016D54FF40040886012E0B8F5306F059D5E
:100C600006D1DAF8941219B90021089A07F0A4FC09
:100C700050464946FFF7F0FD02E020208860059DC0
:100C8000380722D505EB08000821B84B8160DAF857
:100C9000001008EB01000A6C81689A4212D909041D
:100CA00002D54FF400418160504600F0B4FBDAF801
:100CB0001000012809D1DAF800000121089A07F094
:100CC0007BFC02E0504600F0A6FBF80603D505EBDE
:100CD000080010218160B80716D56869000604D5A0
:100CE0000499486840F48060486014F81D0C01289D
:100CF00006D1002004F81D0C4946504600F05FFA6A
:100D000005EB080002218160B80603D505EB080059
:100D100020218160B80404D505EB08004FF4005190
:100D20008160243408F1200876080BF1010B3BE7C1
:100D30004FF4004088606546A2E7012195E7DAF8A4
:100D4000000007F0F4FD07460AF2C44000220290BA
:100D500005F510600690002F3FF410AFF80700F083
:100D6000B580D1B2DAF800000792089107F0EDFDE6
:100D70000446C00727D0079B0122716B03F00F00C8
:100D800002FA00F021EA00007063069800EB4310BD
:100D90008260DAF81000012811D103EBC3000AEBDE
:100DA0008000D0E912121144C16443B9DAF854004A
:100DB00028B9DAF800000121029A07F0FDFB50463D
:100DC0000899FFF740FD2007079A04D506980821E7
:100DD00000EB42108160E00604D50698102100EB7C
:100DE00042108160600604D50698402100EB421055
:100DF0008160A00718D52846114607F061FD079AC3
:100E000002EBC2000AEB800010F83F1F012906D157
:100E1000002101705046089900F0CDF9079A069814
:100E2000022100EB4210816020064FD502EBC20088
:100E30000AEB800BD94659F8541FC84658F8080FDA
:100E4000814243D3DAF800400D1A5BF8481F03973C
:100E500057460BF104068D4288BF0D4604EB421144
:100E600001F5106A15E03D7C3168DBF80030009533
:100E7000151A20469D4288BF1D46ABB2089A07F05E
:100E800057FE306828443060D8F800002844C8F87D
:100E90000000D9F80020DAF81830E91C9BB2B3EB57
:100EA000910F28BF8242DED88242BA46059DDDE915
:100EB0000376079A0AD802F00F00012101FA00F028
:100EC000D4F8341821EA0000C4F834087F0801324D
:100ED00041E7706820F0010070609AF8F40401287E
:100EE00007D100208AF8F40400215046FFF782FC65
:100EF00002E0504600F079FA04F0EBF801F000410E
:100F0000416107F03CFD000502D4DAF800000AE078
:100F1000B068C00702D0504600F09CFA04F0D9F83F
:100F200001F40061416107F02AFD000117D504F0CA
:100F3000D0F801F0006141619AF8F41419B15046FB
:100F400000F088FA0BE001218AF8F414406D0121C9
:100F5000C0F38300CAF8F8045046FFF74BFC03F0D7
:100F600081FEC00404D4DAF8000055E00A30544F82
:100F7000D5F80408102120F00100C5F80408DAF8BB
:100F8000000007F09DFC05F51060DAF804104FF63C
:100F90007F32A9B182600139036823F40013036032
:100FA000C0F80822D0F8003223F40013C0F8003251
:100FB000D0F8003243F00063C0F800322030E8E798
:100FC000F06940F00110F061DAF8300040B1D6F875
:100FD000840040F00B00C6F8840006F1440006E0EF
:100FE000706942F22B010843706106F1100001683C
:100FF0000AF2C44241F00B010160306820F4FE6047
:1010000030609AF81010DAF8000007F0D5FA04F012
:1010100060F801F48051416107F0B1FC0146DAF853
:101020000000890419D507F0C9F8DAF8000007F0C4
:101030006BFCCAF80C00DAF8004001F0DBF89AF813
:101040000C200146204607F0FBFC504600F0B8F9A2
:1010500004F03FF801F40051416107F090FC0007F3
:1010600002D4DAF8000007E0504600F0C2F904F0BC
:1010700030F801F00801416107F081FC000606D458
:1010800003F0F0FDC00219D4DAF8000038E0059949
:10109000012440F2A325886920F080008861DAF8F5
:1010A00004008442ECD21AF80500012803D1E1B211
:1010B0005046FFF7DFFB24350134F0E705980AF1CD
:1010C00063040126012700F51265DAF8040087425F
:1010D00011D260782968B1F1FF3F08DC012806D100
:1010E00047F080002670C1B25046FFF7C3FB24349E
:1010F00020350137E9E703F0ECFF01F4801141618D
:10110000059C07F03CFC800202D4DAF8000030E0D5
:1011100004F532610AF52970DAF80420012301246C
:10112000944221D206780D68B5F1FF3F13DC012E01
:1011300011D1DAF8FC6405F4803506F00106B542F9
:1011400009D1059EB56945F08005B56100F8013CFF
:1011500075692D0603D5243020310134E0E7049968
:10116000486840F40070486003F0B3FF01F40011D8
:10117000416107F004FC400002D4DAF8000007E007
:101180005046FFF75CFB03F0A4FF01F08041416192
:1011900007F0F5FB40077FF584ACDAF800004468FF
:1011A000610704D55046FFF761FBDAF8000041689B
:1011B0002143416075E4D0F8080506F06BBBD0F818
:1011C000080506F076BB2DE9F04F8BB0002800F043
:1011D00087800446056890F8BD0428B9002084F88B
:1011E000BC04204600F092F8032084F8BD04E86BAC
:1011F000C00501D400202061206807F05FF904F1E8
:10120000040B04F1140E04F1240A20680A90D4E9B6
:101210000C509BE80E089EE8C0509AE80007CDE904
:101220000850CDE900B602A880E8805005A880E803
:1012300000070A9806F0D0FF00284ED12068002150
:10124000002507F0BBFB616801200022D3B2994260
:1012500010D903EBC30604EB860686F83C20A6F8FB
:10126000443086F83D007565C6E9125586F8405051
:101270000132EBE700200022D3B299420FD903EBF1
:10128000C30304EB830383F87C22C3F89402C3E90D
:10129000A20083F8800283F87D020132ECE704F1BA
:1012A000140E04F1240AA0680A902268D4E9033BD2
:1012B000D4E90C509EE8C0509AE80007CDE90850E8
:1012C000CDE900B602A880E8805005A880E80007B4
:1012D00010460A9A07F036F830B1022084F8BD04AF
:1012E00001200BB0BDE8F08F002084F83800012009
:1012F00084F8BD04606A012802D12046FFF766FA2F
:10130000206807F013F80020EBE7000070B5B4B0D8
:1013100004462FA81421FEF7ECFF01A8B4210430E5
:10132000FEF7E7FF20682349884241D14FF40010BF
:10133000249002250024CDE910440E954FF400605E
:101340000F900A20CDE90C5060200B9005200A90E8
:101350004FF48020019001A800F0BEFA08B1FFF719
:1013600063F800F0AFF8144EB06840F00100B060D0
:10137000B06800F0010000903294CDE930544FF491
:10138000C0502F9000982FA90C48FFF763F83068E1
:101390000021002240F000703060306800F00070E2
:1013A000009000984D20FFF7E5F94D20FFF7D4F9A4
:1013B00034B070BD000004403845025800000258A7
:1013C00010B50446C06828B1022801D0FFF72CF8F8
:1013D000012100E00021D4F8080506F0D5FAD4F880
:1013E0000805BDE8104006F088BAD0F8080506F0F8
:1013F000B4BAD0F8080506F0BABA10B503F098FCF4
:1014000004BF022010BD84F8381003F0AFFE07F0CF
:1014100006FB03F0CABDD0F8082500F2C44110460F
:1014200006F0BEBA10B503F083FC04BF022010BD65
:1014300003F065FF06D1A169012903D0816B41F456
:101440008031816307F016FA206806F063FF03F02D
:10145000ACBD000010B50446D0F8080506F0E2FA6D
:101460002068D0F8001E41F00101C0F8001E206A7B
:1014700020B10348016841F00601016010BD00BFC2
:1014800010ED00E0B0B5124D2A682968520705D466
:1014900001F00701081A18BF0120B0BD21F00701B3
:1014A000084303F05AFC044655F8080C800406D49F
:1014B000FFF7A6F803F0F4FBF6D90120B0BD002039
:1014C000B0BD00BF0248016841F080710160704703
:1014D0000C4802580248016841F48071016070476D
:1014E0000048025880B500F085FE0249024A03F028
:1014F000ECBC00BF2044025800930008B0B51D4961
:101500008B6A8A6ACC6A4D6BC2F305126AB104F029
:10151000010403F0FBFE0CD0012B0DD013B90B68B6
:101520009B060CD49FED161A13E00021C0E90011B0
:101530001DE09FED121A0CE09FED0F1A09E00B68F9
:10154000104CC3F3C10324FA03F301EE103AB8EED2
:10155000411A0B6B9FED0C3A03F0A2FE0A6B03F0ED
:1015600088FB0A6B03F0C6FD096B03F027FD816061
:10157000B0BD00BF004402580024744A20BCBE4BDA
:101580000024744C0090D00300000039B0B51C4911
:101590008B6A8A6ACC6ACD6BC2F30532B2B1C4F3EE
:1015A000001403F0B3FE15D0BBB90B689B0651BF06
:1015B0009FED161A0B68C3F3C103154C42BF24FA02
:1015C00003F301EE103AB8EE411A08E00021C0E939
:1015D000001112E09FED0C1A01E09FED0A1A8B6BCF
:1015E0009FED0C3A03F05CFE8A6B03F042FB8A6BC2
:1015F00003F080FD896B03F0E1FC8160B0BD00BFAA
:10160000004402580024744A20BCBE4B0024744C91
:101610000090D00300000039B0B51C498B6A8A6A7B
:10162000CC6A4D6CC2F30552B2B1C4F3002403F08E
:101630006DFE15D0BBB90B689B0651BF9FED161A06
:101640000B68C3F3C103154C42BF24FA03F301EE48
:10165000103AB8EE411A08E00021C0E9001112E08A
:101660009FED0C1A01E09FED0A1A0B6C9FED0C3AEE
:1016700003F016FE0A6C03F0FCFA0A6C03F03AFD64
:10168000096C03F09BFC8160B0BD00BF00440258B0
:101690000024744A20BCBE4B0024744C0090D0033C
:1016A00000000039F8B5B0F5002F00F05F80B0F50C
:1016B000007F21D0B0F5806F00F06780B0F5805FCB
:1016C00000F07080B0F5804F23D0B0F5004F31D0DE
:1016D000B0F5803F3ED0B0F5807F40F0CF807949B3
:1016E000086D00F00702042A00F2C8807748DFE89E
:1016F00002F065676EC676007249086DC0F382120B
:10170000042A00F2BB807148DFE802F0585A61B940
:1017100069006C49886DC0F30272062A00F2AE803F
:101720006A48DFE802F00499A0A8AEB2AC00FFF767
:10173000D9FEA4E06348016D01F04051B1F1005FB2
:1017400000F06A80B1F1805F68D0002940F0968097
:1017500000689BE05B48C16C0068C9035FD500016D
:1017600040F18C8001A8FFF711FF73E05548816DAF
:1017700001F44031B1F5003F57D0B1F5803F63D05F
:10178000002940F07B8000681BE04E49086DC0F3E3
:101790004222042A00F272804C48DFE802F00F1166
:1017A000187020004749086DC0F30232042A65D83A
:1017B0004648DFE802F003050C64140008682EE0D8
:1017C000086800015AD501A8FFF7E0FE05E00868A7
:1017D000800053D501A8FFF71FFF01984FE0C86CA8
:1017E0000B6810F04052086805D113F0040302D0D2
:1017F000C0F3C10024E0B2F1805F02D110F4807028
:101800004FD1086810F400301CBF47F64000C0F20A
:101810007D10B2F1005F52E000681EE000688001B8
:101820002CD501A8FFF76AFE23E0C16C03680268AB
:1018300011F040512FD113F004032CD0C2F3C1009A
:10184000244921FA00F01AE00068800016D501A8AA
:10185000FFF7E2FE039812E0086800010ED501A828
:10186000FFF794FE05E00868800007D501A8FFF7A0
:10187000D3FE029803E00868400714D4002004B0A7
:1018800080BD08681249C00502E0086880030E495F
:1018900001EAE070F3E7B1F1805F06D112F48072E3
:1018A00003D00B48EBE70868A2E7006810F40030AB
:1018B0001CBF47F64000C0F27D10B1F1005F18BFB9
:1018C0000020DCE70044025840787D010080BB0026
:1018D00000093D000090D0032DE9F0470446C07890
:1018E000A54F00071CD5A06E4FEA3051032908D838
:1018F000DFE801F002090C11F96941F40031F961E6
:1019000009E001260DE003F0FEFA01E003F03BFCE4
:10191000064630B9A06E396C21F440110843386492
:1019200000266078BA46C00701D1354620E0606DD8
:1019300004280BD83546DFE800F0030C0F12120024
:10194000F869354640F40030F86108E001250127C8
:101950000FE003F017FD01E003F08DFA05462F4676
:101960003DB9606D03F075FA21F0070103F0EBFA61
:101970003746607880071ED5A06D4FEAB010052865
:1019800007D8DFE800F003090C0F0F0F03F0DDF9B3
:1019900008E0012501260FE003F0F4FC01E003F06C
:1019A0006AFA05462E463DB9A06D03F052FA21F4BD
:1019B000E07103F0C8FA3E46607840071ED5E06D3E
:1019C0004FEA7020052807D8DFE800F003090C0F64
:1019D0000F0F03F0BAF908E0012501270FE003F02B
:1019E000D1FC01E003F047FA05462F463DB9E06D12
:1019F00003F02FFA21F4606103F0A5FA3746E0788E
:101A000080071DD5A06C4FEA3010032806D8DFE808
:101A100000F00B02080B03F098F905E00125012600
:101A20000FE003F070FA05462E4655B9A06CDAF8BF
:101A30003C100025524621F030010843CAF83C0012
:101A40003E466078C0061ED5206E4FEA303004282E
:101A500007D8DFE800F003090C0F0F0003F075F959
:101A600008E0012501270FE003F08CFC01E003F002
:101A700002FA05462F463DB9206E03F0EAF921F43B
:101A8000E04103F060FA3746607880061BD5606E4F
:101A90004FEA3040052807D8DFE800F00C03090CB6
:101AA0000C0C03F0C5F904E0012501260CE003F05D
:101AB0005BFC05462E463DB9606E03F0CAF921F481
:101AC000E02103F040FA3E46607840061ED5D4F887
:101AD000AC004FEA3070062808D8DFE800F00D04AB
:101AE0000A0D0D0D0D0003F0A3F904E001250127F7
:101AF0000DE003F039FC05462F4645B9D4F8AC009B
:101B000003F0D0F921F0E04103F035FA3746607870
:101B1000000616D5606F58B1B0F1005F05D0B0F186
:101B2000805F22D103F011F902E003F081F905464C
:101B30002E463DB9606F03F08CF921F0405103F05F
:101B400002FA3E46E078C00702D1B046574622E08E
:101B5000606C574603280BD8DFE800F0130210131F
:101B6000F86940F40030F8610BE001250126E9E74F
:101B700001254FF001080EE01044025803F0C3F9AC
:101B80000546A8463DB9606CF96B0025B04621F0CA
:101B900003010843F863A078400601D4474616E0E5
:101BA000D7F8F00340F48070C7F8F003FEF728FD83
:101BB0000646D7F8F003C00507D4FEF721FD801BC9
:101BC0006428F6D90325032701E02F4685B1207844
:101BD000C00748D0D4F880004FEAF000052832D87A
:101BE000DFE800F037033437373703F021F92FE00F
:101BF000DAF86010D4F8B0005546414011F4407F47
:101C00000BD0296E2A6E42F480322A6621F440718C
:101C10002A6E22F480322A662966B0F5807F40F071
:101C2000CA81FEF7EDFC064641F288390327DAF84F
:101C30006000800700F1BC81FEF7E2FC801B0325F9
:101C40004845F4D9C3E7012501260DE003F08CFBDC
:101C500005462E4645B9D4F8800003F065F921F019
:101C6000380103F0EDF93E462078800719D5E06F82
:101C7000052807D8DFE800F00C03090C0C0C03F072
:101C8000D7F804E0012501270CE003F06DFB0546C1
:101C90002F463DB9E06F03F047F921F0070103F04B
:101CA000CFF93746207840071BD5D4F8980005288F
:101CB00007D8DFE800F00C03090C0C0C03F0B8F8AF
:101CC00004E0012501260DE003F04EFB05462E46FB
:101CD00045B9D4F8980003F0E5F821F0070103F0C6
:101CE0004AF93E46207880061DD5D4F894004FEA84
:101CF0003070052807D8DFE800F00C03090C0C0C45
:101D000003F040FB04E0012501270DE003F03BFA5E
:101D100005462F4645B9D4F8940003F005F921F0A3
:101D2000E04103F08DF93746207840061DD5D4F800
:101D3000A0004FEAB020052807D8DFE800F00C0328
:101D4000090C0C0C03F01EFB04E0012501260DE03C
:101D500003F019FA05462E4645B9D4F8A00003F061
:101D6000A1F821F4E05103F006F93E462078000680
:101D70001DD5D4F8A4004FEA7030052807D8DFE855
:101D800000F00C03090C0C0C03F0FCFA04E0012534
:101D900001270DE003F0F7F905462F4645B9D4F8C1
:101DA000A40003F07FF821F4604103F0E4F8374623
:101DB0002068010714D5D4F88810B1F5805F07D1E9
:101DC00003F0E1F9002818BF01272068D4F8881033
:101DD000DAF84420534622F440521143CAF8441022
:101DE000C10614D5D4F89C10B1F5807F07D103F05B
:101DF000CAF9002818BF01272068D4F89C10DAF827
:101E00004820534622F440721143CAF84810000398
:101E100018D5D4F8A800B0F5003F09D0B0F5803F40
:101E200003D010BB03F0AEFA01E003F0ACF90546B5
:101E30002E4645B9D4F8A80003F034F821F4403117
:101E400003F099F83E46A07840071ED5D4F88C00E0
:101E5000B0F5401F0FD0B0F5001F09D0B0F5801FBE
:101E600040F0A38002F071FF05E001250126EAE7BA
:101E700003F07AFA05462F4645B9D4F88C0003F0F2
:101E800053F821F4401103F0DBF83746A078C0077F
:101E900001D13E4619E0E06CB0F5803F03D090B927
:101EA00002F053FF02E003F02EF805462E4665B916
:101EB000E06CDAF83C100025524621F480310843EA
:101EC000CAF83C00E5E7012501262068810005D518
:101ED00003F059F9002818BF0126206881031CD59A
:101EE000D4F884106FF0010202EB3122022A0AD3E7
:101EF0004FEA31223AB1012A06D1DAF81C2042F425
:101F00000032CAF81C200DB1012606E0DAF84420A0
:101F100022F440721143CAF84410C10207D5A16FE0
:101F2000DAF8402022F000421143CAF84010810242
:101F300007D5E16EDAF8402022F080721143CAF82A
:101F40004010010507D5216FDAF8482022F0006221
:101F50001143CAF8481041000CD5DAF8001021F4FA
:101F60000041CAF80010D4F8B410DAF80020114388
:101F7000CAF80010B0F1FF3F07DC216DDAF83C2011
:101F800022F040521143CAF83C10000207D5D4F8A1
:101F90009000DAF8441021F4400103F051F8002ECB
:101FA00018BF01263046BDE8F087012501276DE7FF
:101FB0005546D4F8B0002A68094900F4407322F469
:101FC0007C5201EA1011B3F5407F6FF31F3008BF58
:101FD0000A432A60296E084328660025DEE500BF13
:101FE000CFFFFF002DE9F843002800F0FB807F4D74
:101FF00004468846286800F00F0088420BD2286803
:1020000020F00F0040EA08002860286800F00F0068
:10201000404540F0E7802068BB4F410709D5216962
:10202000BA6903F063F804D9BA6922F07002114367
:10203000B961010709D56169FA6903F057F804D954
:10204000FA6922F070021143F961C1060AD5A1694B
:10205000FA6902F4E062914204D9FA6922F4E0627A
:102060001143F961810609D5E1693A6A03F03EF846
:1020700004D93A6A22F070021143396210F0020169
:102080000AD0E268BB6903F00F039A4204D9BB6926
:1020900023F00F031A43BA61C2073AD0D4E9010111
:1020A000BA6922F470621143B961012807D003288C
:1020B00009D002280BD1396889030CD492E0396821
:1020C000C90508D48EE03968890104D48AE03968EA
:1020D000490740F187803969A94621F00701084383
:1020E0003861FEF78DFA064641F288356068396935
:1020F00001F03801B1EBC00F07D0FEF781FA801B69
:10210000A842F3D90320BDE8F88320684D4600F0CB
:10211000020151B1E168BA6902F00F02914204D2A2
:10212000BA6922F00F021143B961296801F00F0169
:1021300041450AD9296821F00F0141EA08012960C7
:10214000296801F00F0141454CD1410709D52169AA
:10215000BA6902F0CBFF04D2BA6922F070021143CF
:10216000B961010709D56169FA6902F0BFFF04D2BC
:10217000FA6922F070021143F961C1060AD5A1691A
:10218000FA6902F4E062914204D2FA6922F4E06250
:102190001143F96180060AD5E069396A01F07001DE
:1021A000884204D2396A21F070010843386200F095
:1021B00041F8B9691C4A1D4BC1F30321515C01F080
:1021C0001F01C840B969186001F00F01515C01F0AE
:1021D0001F01C8401649086005480068BDE8F8437B
:1021E000FEF746BA0120BDE8F88300BF0020005288
:1021F0000400002480B500F01DF80A490A4B0A6863
:10220000096801F00F01C2F30322595C9A5C01F0E6
:102210001F0102F01F02D040044A1060C840044968
:10222000086080BD1844025800930008080000248C
:102230000C00002410B534490869C0F3C20003281B
:102240000FD0022804BF324810BD40B9086880068C
:10225000334858D50968C1F3C101C84010BD2B48A7
:1022600010BD8A6A886ACB6A4C6BC0F30510F0B166
:1022700003F00103C4F3CC0402F003026343022A17
:1022800000EE103AB8EE400A13D0AAB90A689206D6
:1022900051BF9FED221A0A68C2F3C102204B42BF10
:1022A00023FA02F201EE102AB8EE411A06E00020ED
:1022B00010BD9FED191A01E09FED161A0A6B9FEDF4
:1022C000193A6FF35F2202EE102AB8EE422A00EEAE
:1022D000032AB7EE000A32EE000A02EE100A086B7B
:1022E000C0F34620B8EE422A013081EE021A21EEF8
:1022F000000A01EE100AB8EE411A80EE010ABCEEA7
:10230000C00A10EE100A10BD0044025800093D003A
:1023100040787D010024744A20BCBE4B0024744CDC
:102320000090D00300000039F8B5002800F0C58007
:1023300004460078DA4EC0071FD12078800766D5A2
:10234000306910F03801B06A44D0182901D18007F3
:1023500040D03068E168002900F00C8120F01900BD
:10236000084302F083FC05463068400748D4FEF776
:1023700047F9401B0228F7D990E1306900F0380195
:10238000B06A102905D018290AD100F003000228EC
:1023900006D130688003D0D560680028CDD18CE0AC
:1023A0006068002800F04681B0F5A81F00F0598150
:1023B000B0F5A02F00F05D81B0F5803F00F05F81A7
:1023C000306820F480303060306820F4802002F0E3
:1023D00015FF57E1E0683168490701D500286CD046
:1023E000316821F01901084302F040FC05463068CD
:1023F000400705D4FEF704F902F0A3FCF7D9F8BDB5
:102400002069716821F0FE4141EA00607060207827
:10241000C00618D5306900F03801B06A082905D027
:10242000182971D100F0030001286DD13068C00572
:1024300002D5E069802840D1206AF16821F07C5102
:1024400041EA0060F0602078000738D420788006E8
:1024500048D4207840076AD4676A67B3306900F0CF
:102460003800182840F0CA80B16A306B012F24D0A0
:10247000A26A01F0030393421FD1E26AC1F305117E
:1024800091421AD10146226B6FF35F21013A9142CA
:1024900013D1626BC0F34621013A91420DD1A26B78
:1024A000C0F30641013A914207D1E16BC0F30660E7
:1024B0000139884201D10020F8BD0120F8BD706FBC
:1024C0006169002946D040F001007067FEF798F876
:1024D0000546706F8007B9D4FEF792F8401B0228BA
:1024E000F7D9DBE03068A169002969D040F4805059
:1024F00002F0BCFB054630688004AAD4FEF780F8E1
:10250000401B0228F7D9C9E03068E169002966D08C
:1025100040F0800002F0AAFB05463068C0053FF598
:102520008BAFFEF76DF802F00CFCF6D967E7D6F832
:10253000000440F48070C6F80004FEF761F8054618
:10254000D6F80004C00524D4FEF75AF8401B6428CE
:10255000F6D9A3E020F001007067FEF751F80546B8
:10256000706F80077FF572AFFEF74AF802F0E9FB63
:10257000F6D944E720F0010002F078FB0546306808
:1025800040077FF544AFFEF73BF802F0DAFBF6D9DF
:1025900035E7A068002800F08580852800F09C8041
:1025A000052800F0A180012800F0A480306F20F001
:1025B00001003067306F20F0040002F0FAFC9CE06C
:1025C00020F4805002F052FB0546306880047FF50D
:1025D00040AFFEF715F802F0B4FBF6D90FE720F094
:1025E000800002F043FB05463068C0057FF52BAF45
:1025F000FEF706F802F0A5FBF6D900E7306820F0F8
:10260000807002F033FB0546022F09D1306880014B
:1026100040F18480FDF7F4FF02F093FBF6D9EEE67B
:10262000306880017FF547AFFDF7EAFF02F089FBD4
:10263000F6D9E4E6306820F4803002F0DFFD306047
:10264000306820F4802002F011FB054630688003DA
:102650007FF573AEFDF7D4FF411B03206429F5D944
:10266000CDE6306840F480203060306840F480105F
:1026700004E0306840F4802002F0C0FD3060306833
:1026800040F4803002F0F2FA0546306880033FF5EE
:1026900054AEFDF7B5FF401B6428F6D90320F8BD02
:1026A00000440258306F20F0010002F082FC3067D5
:1026B000306F20F004003067FDF7A2FF054641F2BD
:1026C0008837306F80077FF5C7AEFDF799FF411B54
:1026D0000320B942F5D992E6306F40F0040030672C
:1026E000306F40F0800004E0306F40F0040002F0F2
:1026F00060FC3067306F40F001003067FDF780FF0D
:10270000054641F28837306F80073FF5A5AEFDF7EB
:1027100077FF411B0320B942F5D970E604F1280583
:10272000B06A40F2F33188432ECD0843591E40EA87
:102730000210B0626FF35F214FF4FE024FF47E404F
:1027400000EB452080B20844A16B02EB01414FF041
:10275000FE4201F4FE010844E16B02EB016101F06D
:10276000FE41084430634FF6F871F06A20F0010032
:10277000F062706B8843A16C40EAC1007063206C0A
:10278000F16A21F00C010843F062F06A616C20F0FC
:1027900002000843F062F06A40F48030F062F06AB0
:1027A00040F40030F062F06A40F48020F062F06A99
:1027B00040F00100F062306840F0807002F056FA9C
:1027C0000446306880013FF576AEFDF719FF011B26
:1027D00003200229F5D912E670B500684068030CA1
:1027E00000F03F05CB708D70C0F30424C0F3423677
:1027F0004C700E70CAB92409020A2D0900F00F06A8
:10280000C0F3035002F00F0244EA840445EA850550
:1028100000EB800002EB44024A7006EB45058D7028
:1028200003F00F0202EB4000C870002070BD70B5CD
:10283000006883684B6003696FF3DF338B60046863
:1028400004F07F058D70C4F38050C870C4F3062374
:102850004B70C4F305400870CAB91B09220A2D0940
:102860000009260C04F00F0402F00F0203EB8303AF
:1028700005EB850540EA800002EB43024A7004EB59
:1028800045048C7006F00F0202EB40000870002037
:1028900070BD000070B5B8B3044690F8250028B9A3
:1028A000002084F82400204600F038F8022084F844
:1028B0002500CA212068416202F0FFFC00BB94E8B9
:1028C0000F00154E85693540856125692943A56945
:1028D000294385692943816143EA0241016102F08C
:1028E000BDFA68B92068D4E9072361691A4385698C
:1028F000114325F0604585618269114381610020A3
:1029000002F0BEFA02D070BD012070BD012084F833
:102910002500002070BD00BFBFFF8FFB10B5AEB01B
:1029200004466846B4210430FDF7E3FC20680B49F7
:10293000884210D14FF480702C904FF480000090AA
:102940006846FEF7C9FF08B1FDF76EFD044801684F
:1029500041F4004101602EB010BD00BF004000589E
:10296000704402582DE9F04102F0FAF93ED084F8A3
:102970002500012084F8240032B16878E978AE7827
:10298000000240EA014714E06E78F00604D506F034
:10299000EF0000F10A066E70E878DFF8F480C047B7
:1029A00007463046C047000240EA0747A878C047BC
:1029B00006462068CA2141625321416220462D7893
:1029C00002F0C6FD48B947EA0600216820F0C000C1
:1029D00040EA4530486002F041FA02F051FA02D173
:1029E000012184F82510002184F82410BDE8F0812D
:1029F0002DE9F04102F0B4F947D084F82500CA214E
:102A0000164620684162012184F8241002F055FC2A
:102A100090BB2768B86900F040001EB198B900204B
:102A2000E87012E008B90020E8702878DFF86080CC
:102A3000C04706466878C04702F073FCE978304426
:102A400040EA815009E0E87880056A782978AB7817
:102A5000120242EA0141194408430E490840386015
:102A6000B86920F48020B861D5E903010843B96949
:102A70000843B86102F0F2F902F002FA02D1012132
:102A800084F82510002184F82410BDE8F08100BFEF
:102A90002D5500087F7F7F00B0B504460068C168EF
:102AA00021F0A001C160FDF7ABFD05462068C068BC
:102AB000800606D4FDF7A4FD02F06AFBF6D90320D8
:102AC000B0BD0020B0BD7047704770477047000030
:102AD0002DE9FF41044603200D4684F83000A06B29
:102AE00003280BD14FF08050616BAC4E08436063FC
:102AF000606B00B320688663012576E0002D3FD02F
:102B0000B5F5004FEED0B5F5804F4AD102F094F9FB
:102B1000800149D402A9204603F07CFB0028E3D1C0
:102B20009DF80E00400739D502F041FB0028DBD1AB
:102B30002068022171E04FF48030FEF7B3FDD8B178
:102B40003749D4E904C7B0FBF1F38846D4E9011250
:102B50009F4243D2B646A66DB6F5007F3DD0B6F58E
:102B6000807F24D12F4B67B37E00B0FBF6F646453D
:102B700088BFB0FBF3F730E002F037FA6063BBE7E1
:102B800002F05AF980010FD402A9204603F042FB5B
:102B90000028A9D19DF80E00C00737D14FF0806002
:102BA000A2E74FF000609FE74FF400609CE77FB121
:102BB0007E00B0FBF6F01C4EB042764688BF1F4642
:102BC0000CE000277646404588BFB0FBF3F705E0F0
:102BD000154EB04298BF00231F46764620682B460C
:102BE000CDE900C703F0E4FA0025206802F09EFA60
:102BF00028B1216801258E63616B08436063012061
:102C000084F83000284604B0BDE8F08102F0CFFA25
:102C100000287FF469AF2068002103F029F863E7FA
:102C200080F0FA0200E1F50540787D017047000070
:102C3000B0B5D0E91742836BA50F0D70C4F383655F
:102C40004D70C4F301658D70250CCD70250A0D7192
:102C50004C71140DCC80C2F303440C72C2F3C03427
:102C60004C72C2F380348C72C2F34034CC72C2F323
:102C700000340C7300244C73012B30D0002B40F037
:102C8000818040F6FC73012503EA8202436E42EA2A
:102C900093720A61426EC2F3C2630B75C2F30263A0
:102CA0004B75C2F342538B75C2F38243CB75C2F3AB
:102CB000C2330B764FF4007343650B690C7E01330E
:102CC00004F007040234A34083640C7A04F00F0478
:102CD00005FA04F4C464640A6343036512E002F075
:102CE0003F02B0F8663043EA02420A614FF4806363
:102CF0004FF400724265C2640A6903EB82220265E6
:102D00008264426EC2F380334B76C2F3C6138B7675
:102D100002F07F02CA76806EC20F0A77C0F341725A
:102D20004A77C0F30043C0F382628A77C0F38352CC
:102D3000CA77C0F3405281F82020002281F8212078
:102D400081F82230C0F3C03381F82330C0F38033E0
:102D500081F82430C0F3403381F82530C0F30033CC
:102D600081F82630C0F3812381F82730C0F3012396
:102D7000C0B281F82830400881F82900012081F88C
:102D80002A0009E00168744A8A630122416B41F01C
:102D90008051416380F830201046B0BDFF0FE01F26
:102DA000B0B500F138053CCD81E83C00826C0A6189
:102DB000C26C4A61026D406DC8618A610020B0BD7D
:102DC00010B504460068616C090403F012F820B1E4
:102DD000616B08436063002010BD02F042F8C0F34D
:102DE000432010BD2DE9F04397B0044690F8300021
:102DF000032801D101253CE00D46FDF701FC80468A
:102E000002F02FF88001544E20D42068402102F0B7
:102E10001CFFB8B902F0CBF9A0B901201690002030
:102E200015900220149060201390402012904FF0D3
:102E3000FF301190206811A903F068F8206803F0B2
:102E400000F8D0B10146606B606301E04FF40061AF
:102E5000206801258663626B1143616384F83050FA
:102E600002F064F928B1216801258E63606384F85B
:102E70003050284617B0BDE8F08301AFB146206856
:102E8000426B416B12F4957F14D1080409D50026DA
:102E9000202E04D002F073F8B8510436F8E7374416
:102EA0004E46FDF7ADFBA0EB08004FF000410130AE
:102EB000E5D1CDE7090714D4416B890713D4416BE1
:102EC000890612D4416BC90411D503F087F9386023
:102ED000FDF796FBA0EB080001303AD020680437DC
:102EE000F0E70821B4E70221B2E72021B0E79549D5
:102EF0008163DDE9011CDDE90336CFB2BA092A702E
:102F0000C7F340126A706FF0FF0202EA112747EA26
:102F1000116169809CFA8CF169602B72190A6972DF
:102F2000C3F30351A97202EA1341F2B21144A98119
:102F3000C6F38521A973C6F30121E9731109297428
:102F400006F00F0169744E469DF81710A97400250C
:102F500086E74FF000417BE7FF0FE01FF8B504461E
:102F60000068E56A416B090402D5290700F18780F2
:102F7000416BC90556D4416B490402D5290700F1BC
:102F8000B780426B416B12F03A0F00F09E808907C8
:102F900003D5616B41F002016163416B090703D501
:102FA000616B41F008016163416B890603D5616B78
:102FB00041F020016163416BC90603D5616B41F0AB
:102FC000100161635F498163C16B21F49D71C1632D
:102FD000C16821F04001C160C16A41F40051C16281
:102FE000C16841F08001C16002F040FF2168626B5E
:102FF00010436063C86820F08000C8604FF4006030
:103000008863280700F18180280637D5606BA8B354
:10301000C86B20F08050C86300200865012084F848
:10302000300077E04FF4807181634CF23A12C16B4B
:103030009143C163C16B21F08051C163C16821F02C
:103040004001C160290727D4290617D500268662CA
:10305000C662066515F0220F04D002F007FF08B122
:1030600001F07DFF012084F83000E66215F0300F9A
:1030700002D0204600F0C9FAA8071CD1F8BDA06A0A
:103080002028FBD3656A0026AF19202E18D001F046
:1030900076FF02F0DBF8F7E715F0220F04D002F01C
:1030A000E5FE08B101F05BFF2068264902F06EF9E9
:1030B000E062A80733D02046BDE8F84000F0A4BA8B
:1030C000A06A67622038A062F8BDC900D6D54FF06B
:1030D00080518163006D05F02001400729D420460E
:1030E0000029BDE8F84018BFFFF7F0BCFFF7ECBCC3
:1030F000206A2028C2D3E66900276D46F019202FE8
:1031000012D001F037FE0437F8E7012084F83000D0
:103110000020E0622046BDE8F840FFF787BD20466A
:10312000BDE8F84000F071BAE061206A2038206202
:10313000F8BD20460029BDE8F84018BFFFF7C5BC20
:10314000FFF7C1BC3A0F0018B0B586B048B30446CB
:1031500090F8300020B900202076204600F040F999
:10316000042084F83000204600F03AF8C8B901A9DC
:103170002046FFF737FEA0B9A26B9DF814009DF81A
:103180001510012A06D108430CBF4FF480704FF48C
:10319000007000E00020A065E1682046FFF798FC81
:1031A00010B1012006B0B0BDFDF72AFA054601F0C6
:1031B00064FF04280CD0FDF723FA401B0130F6D140
:1031C0004FF000406063012084F830000320E9E7FD
:1031D00000206063E062012184F83010E2E7000023
:1031E0002DE9F0418EB004464FF48030FEF75AFAD4
:1031F00068B3054676480021002200230027B5FB6E
:10320000F0F62068CDE9007602F0D2FF206802F0E7
:10321000DFFF70006F49B5FBF0F0B1FBF0F001305B
:10322000FDF708F90397206802F032FDF0B9206835
:1032300002F054FDB0F1004F0FD10020E063206890
:1032400002F026FD90B9E06B012808D018E00121BA
:1032500084F830104FF000600DE00120E06320683A
:10326000002102F0CFFC58B14FF08050012184F8CA
:103270003010626B1043606308460EB0BDE8F08109
:1032800000214FF6FE76554D0020039AB0B9B242A8
:1032900014D82068002102F0B5FC0028E6D120688F
:1032A000294602F0C2FC0028DED101F0DAFD0399C4
:1032B00001310391C0F38071C00FE6E703984FF628
:1032C000FF72904202D34FF08070CFE70020A163DD
:1032D000ADF80A00FDF794F90546206802F060FF9A
:1032E00080B1A06B032810D12068042102F05CFF9C
:1032F000000D206403A92046FFF79AFC88B34FF025
:10330000805033E04FF0806030E0206802F030FD04
:1033100060BB2068DFF8C0800021C047E0662068FD
:103320000421C047206720680821C04760672068E3
:103330000C21C047A067A06B0328D5D000210DF158
:103340000A0641F2873721BB2068314602F064FD4E
:1033500060B9FDF755F9401BB84235D8BDF80A10E1
:10336000F1E7616C2068090402F0EFFC00287FF4AB
:103370007DAF206801F0DAFE48B12168F64A8A6321
:10338000616B08430121606384F8301074E7002109
:1033900072E7A06B0328A7D061642068090402F0DB
:1033A000FDFC0028E2D120680021C047E0652068CC
:1033B0000421C047206620680821C0476066206855
:1033C0000C21C047A0668FE74FF00040CEE700BF5A
:1033D00000350C0010210100A9610008000010C197
:1033E0002DE9F043B5B0044630A81421FCF781FF65
:1033F00002A8B4210430FCF77CFF206829498842E8
:103400004DD14FF480304FF00008CDF85480029039
:1034100002A8FEF761FA08B1FDF706F822484FF05E
:103420000C0903260227214C016841F48031016018
:10343000016801F4803101910199C16841F00401F2
:10344000C160C16801F0040101910199C16841F0B6
:103450000801C160C06800F0080001900198CDF833
:10346000D090CDE9328631974FF4F850309030AD9E
:1034700020462946FCF7EEFF042030902946CDE98E
:103480003369CDE9317804F58060FCF7E3FF312042
:1034900000210022FDF76EF93120FDF75DF935B00E
:1034A000BDE8F0830070005234450258000802580D
:1034B0002DE9F04F87B0984617460D460446FDF7B4
:1034C0009FF86DB1824601F034FD0CD1002161639B
:1034D00008EB0700226D90420DD901F027FF05E0AF
:1034E00001F083FD02E0606B40F00050606301205A
:1034F00007B0BDE8F08F01F0DAFC4FF00209206858
:10350000A66BC162CDE9051190210391CDF8109011
:1035100001F0ACFD01A902F0F9FC01F095FD18BF26
:103520007F02B8F1020F05D33946C4F82C9002F09F
:10353000E6FB04E00121E162394602F0F3FB38B119
:103540002168854A8A63616B084301F088FDCFE7F3
:10355000DDF84090DDF808B02068416B11F4957FEC
:1035600021D1406BBBF1200F0ED310F400400BD0E3
:103570000026AF19202E04D001F001FD01F066FEF7
:10358000F7E7ABF1200B3D46FDF73AF8A0EB0A0058
:103590004845E1D3206870498163606B40F000408A
:1035A00001F0B5FCA4E701F098FC0ED311F4807192
:1035B0000BD0A16B032908D002F058FC014620680B
:1035C00019B1654A8263606BBEE7416B090709D494
:1035D000416B89070CD4416B89060FD45F4901F018
:1035E000D5FE85E75C498163606B40F00800ACE77D
:1035F00059498163606B40F00200A6E75649816338
:10360000606B40F02000A0E7704770472DE9F04F55
:1036100087B0984615460F460446FCF7F1FF6FB198
:10362000824601F086FC0CD10021616308EB0500A5
:10363000226D90420DD901F079FE05E001F0D5FC34
:1036400002E0606B40F000506063012007B0BDE80D
:10365000F08F032084F830002068A66BC1620691C9
:10366000CDE904119021039101F000FD01A902F0C0
:103670004DFC01F0E9FC18BF6D02B8F1020F03D355
:10368000202101F002FC04E01021E162294602F051
:103690002AFC38B12168304A8A63616B084301F023
:1036A000DEFCD3E7DDF84090DDF808B06D46206819
:1036B000416B11F48D7F1ED1406BBBF1200F0DD3F8
:1036C00010F480400AD00026B819202E03D001F053
:1036D00051FB0436F8E7ABF1200B0746FCF790FFEF
:1036E000A0EB0A004845E2D320681B498163606B68
:1036F00001F00DFCAAE701F0F0FB0ED311F480718C
:103700000BD0A16B032908D002F0B0FB0146206862
:1037100019B1114A8263606BC0E7416B090709D494
:10372000416B89070CD4416BC9060FD40B4901F0DA
:103730002DFE8BE708498163606B40F00800AEE71F
:1037400005498163606B40F00200A8E7024981638C
:10375000606B40F01000A2E7FF0FE01F3A0F001867
:10376000F8B538B3044600204749A0622068884273
:1037700008D0464A904205D0454A904202D0E268BD
:103780000F2A17D8E268E36B0125083205EB5313C3
:10379000D2085A4388420BD03D49884208D03B4B5F
:1037A000984218BF082A05D8884218BF984203D10A
:1037B000102A01D90120F8BD94F8811029B901F02F
:1037C00068FB204600F066F82068022184F881102A
:1037D00001F061FCD4F818C06168836803F4F81341
:1037E000BCF1806F12D139B1B1F5800F0ED1A56B4C
:1037F00035B14FF4800109E0A56BB5F1805F04D1CC
:10380000056845F48055056000E00021E56904F194
:10381000080762692B43A56A2B43E56B2B43E0CF76
:1038200033438360636B666A43EA0C033343A66BDE
:1038300033433B431A43236A1A43D4E912360A43FB
:1038400032432A431A43A36D1A43C26049B98268BE
:10385000012363F3CC2282600223826863F34A224D
:103860008260026D490222F00102026505D5616D98
:10387000C26822F000421143C1600020C4F88400F5
:10388000012184F88110F8BD00380040003C004060
:103890000030014010B5B4B004462FA81421FCF745
:1038A00028FD01A8B4210430FCF723FD2068184945
:1038B00088422AD14FF4005000241A94019001A8A4
:1038C000FEF70AF808B1FCF7AFFD1248016941F4B0
:1038D00000510161016901F40051009100990168F2
:1038E00041F010010160006800F010000090CDE987
:1038F000314405203390022030904FF4A0402F90A7
:1039000000982FA90448FCF7A5FD34B010BD00BFF6
:103910000034014040450258001002582DE9F84398
:103920000446D0E90050994617460E46B0F5800F80
:1039300002D1A068002856D094F8800001284FD00A
:10394000012084F88000FCF75BFE804601F09FFBBD
:1039500044D1002E54D0002F52D0042001F0EDFAB3
:10396000A4F86A70A4F868706666A4F86000E06560
:10397000C4E91C00A4F86200A1682068B1F5C02F5A
:1039800003D1016821F40061016001F015FC01D14F
:1039900001F09CFCE068102836D348F2080509F1D4
:1039A0000106B4F86A00002861D020684169294204
:1039B00006D0006B616E01C1616601F0EDF9F0E7C0
:1039C000FCF71EFE002EECD0A0EB08004845E8D323
:1039D00001F04BFA01F072F9BDE8F88301F059FAF1
:1039E0000220BDE8F883042084F881003146324685
:1039F0003B46CDF80090204600F00BF9BDE8F88377
:103A000001F0A5FABDE8F883072819D909F10106E4
:103A1000B4F86A0058B320684069C00708D1FCF7C1
:103A2000EFFD002EF4D0A0EB08004845F0D3CFE71F
:103A3000288E616E21F8020B616601F0ADF9E7E7AF
:103A400009F10105B4F86A0088B120684169C90725
:103A500008D1FCF7D5FD002DF4D0A0EB08004845B7
:103A6000F0D3B5E701F08EFA01F096F9EAE701F03C
:103A7000FCF901F0BEFA18BF0120BDE8F8832DE97A
:103A8000F04701F018FA49D001201D4617460E46AE
:103A900001F06BFA804601F0FAFA3DD1002E40D0D9
:103AA000002F3ED0032001F048FAA4F86270A4F879
:103AB0006070E665A4F868006066C4E91C00A4F8BC
:103AC0006A00A1682068B1F5C02F03D1016841F4F4
:103AD0000061016001F070FB01D101F0F7FBE068CB
:103AE000102822D36E1CB4F8620000287BD0206816
:103AF0004169890708D4FCF783FD002EF3D0A0EBC1
:103B00000800A842EFD37EE001F020FBB4F8620089
:103B10000138A4F86200E6E701F0BBF90220BDE835
:103B2000F08701F014FABDE8F087072825D901F0E5
:103B3000C3FAB4F86200002855D0206841698907AB
:103B400008D4FCF75DFD002EF3D0A0EB0800A842DE
:103B5000EFD358E0B4F86210022905D3E16B19B134
:103B600001F0F4FA504602E001F09AFA3846B4F84F
:103B700062100844A4F86200DBE701F09DFAB4F893
:103B8000620080B320684169890708D4FCF738FDDA
:103B9000002EF4D0A0EB0800A842F0D333E0B4F834
:103BA0006210042907D3E16B412904D301F0CEFA56
:103BB0004FF6FC7011E0B4F86210022905D3E16BF6
:103BC00019B101F06DFA504607E0E16D097880F80F
:103BD0002010E06D0130E0653846B4F8621008440A
:103BE000A4F86200CBE7204641462A4602F0D2FB09
:103BF00008B101F045FA01F038F901F0FAF918BFFF
:103C00000120BDE8F08701F030F901F057F8BDE878
:103C1000F0872DE9F84F01F04EF973D001209B4653
:103C200015460F4601F0A1F9804601F030FA5ED149
:103C3000002F6AD0002D68D0BBF1000F65D094F83A
:103C40008100042802D0052084F881000021C4F8F6
:103C50008410A4F86AB0A4F862B04FF6FF76D4E9F5
:103C600000024368B3435B4443606566A4F868B0F0
:103C7000E765C4E91C11A4F860B0B2F5800F0168D3
:103C800041F00101016001D101F020FBE068DDF8A5
:103C900028A010283DD348F208050AF101075E4626
:103CA00056EA0B0000F0998001F055FA18BF11F0A8
:103CB000020104D0E16D04C9026201F016F9416904
:103CC00066B129400AD0006BB4F86A100139A4F833
:103CD0006A10616E01C16166B4F86A60FCF790FC1D
:103CE000002FDDD0A0EB08005045D9D36FE061680C
:103CF000B1F5800F04D1042802D1A068002897D024
:103D000001F0C7F80220BDE8F88F01F020F9BDE806
:103D1000F88F0AF10105072828D95E4656EA0B00FC
:103D20005BD001F018FA18BF11F0020106D0E16D66
:103D300031F8022BA9F8202001F0D7F8406966B1CC
:103D400010F0010009D0B9F83000616E21F8020BC3
:103D500001F022F86166B4F86A60FCF751FC002DAE
:103D6000DCD0A0EB08005045D8D330E05F4657EADE
:103D70000B0032D001F0EFF918BF11F002010ED0A4
:103D8000E16D097880F82010B4F862000138A4F8D9
:103D90006200E16D20680131E165B4F862B041690B
:103DA0006FB111F001010AD090F83000616E087017
:103DB00000F0F2FF606E01306066B4F86A70FCF7E4
:103DC0001FFC002DD3D0A0EB08005045CFD301F04D
:103DD0004CF800F073FFBDE8F88F2046414652468C
:103DE00002F0D8FA08B101F04BF901F03EF801F009
:103DF00000F918BF0120BDE8F88F0000411E002027
:103E0000B0EB116F01D001207047044AF0235160DC
:103E100003490B70906007211160704710E000E0CB
:103E200023ED00E0F0B590F83C20012A01D10221F9
:103E300040E091E83C00204E25F47C5524F4705479
:103E4000334022F477222C43684D23431A430B69F5
:103E500023F476231A434B691A430B6B22F4742222
:103E600023F470231A438B6942EA0343026842F445
:103E70008064AC4202BF23F08053CE693343AC422E
:103E800014D1AE468D6A0D4FD1E9086C23F07C73D6
:103E900007EA05552B4326F000752B4343EA0C0334
:103EA000744502BF23F00053C96A0B43002180F818
:103EB0003C1053640846F0BDFF87F0FF0000F0FCA3
:103EC00070B590F83C300222012B2CD080F83D20B8
:103ED000464C026842F4806655689368A64202BF69
:103EE00025F470054E6835430E6825F0700535439E
:103EF0005560B2F1804F0BD0374DAA421CBF374DF1
:103F0000AA4205D0364DAA421CBF364DAA420CD15A
:103F100023F08003896819439160002280F83C20D7
:103F2000012180F83D10104670BD804DAA42EFD0AF
:103F30002D4DAA4218BFA242EAD0EEE710B50446C2
:103F400041B108290ED0042914BF04F1470004F13F
:103F5000450009E094F84400012812D1022084F8B9
:103F6000440012E004F146000078012809D1022043
:103F7000082908D0042914BF84F8470084F84500B4
:103F800003E0012010BD84F846002068042203F0FD
:103F90002BF900F022FF0BD00F4881421CBF0F48C5
:103FA000814205D00E4881421CBF0E48814208D193
:103FB00088680F4A01F04FF818BFB2F5803F09D169
:103FC00010BD5A488142F3D007488142F0D00748DB
:103FD0008142EDD001F0AEB900040040000800407D
:103FE000000C004000180040004001400004014067
:103FF00007000100FEB500684C49884217D10D4802
:10400000016841F010010160006800F010000090AC
:10401000012005900020CDE90300022002904FF41A
:1040200080600190009801A90348FCF713FA06B0DC
:1040300080BD00BF4045025800100258B0B501F0E5
:1040400086F904BF0220B0BD01F07AF9052948D8ED
:10405000DFE801F0030B131B23332068294603F02C
:10406000D3F8206850F8181F1EE02068294603F096
:104070000BF9206850F8181F26E02068294603F045
:104080003DF9206850F81C1F0EE02068294603F017
:1040900071F9206850F81C1F16E02068294603F0CB
:1040A00099F9206850F8541F41F008010160016837
:1040B00021F00401016029690FE02068294603F01E
:1040C000B3F9206850F8541F41F4006101600168A1
:1040D00021F48061016029690902026811430160CD
:1040E0000020002184F83C10B0BD58B110B501F09B
:1040F000BDF803D100F0DBFF00F006F801F04CF949
:1041000000F050BE0120704781B000680749884226
:1041100009D10748016841F001010160006800F021
:1041200001000090009801B0704700BF00000140FE
:1041300050450258FEE7F0B5520000233724002511
:10414000AA4208BFF0BD070F04EB1076B0F1204F74
:1041500038BF07F130064E5545F001060235000123
:104160008B55EDE770B52DED048B194E0C4631687B
:10417000896B814228D03CB300EE101A01EE104A40
:10418000B8EE408A00EE100AB8EE411AB8EE400AC6
:1041900030EE480A80EE019AFCF732FA054601201B
:1041A000FCF748F9FCF72CFA401BB0EE481A3168CE
:1041B00000EE100AA042B8EE400A09EE001ABCEE6A
:1041C000C10A81ED0E0AEAD3BDEC048B70BD00BFBD
:1041D000782200242DE9F04F03AF91B081460820EA
:1041E0008A461D4616466C460C2B08BF062047F82B
:1041F000200C5843072101EB4000934920F00700B1
:10420000B1F800B0ADEB000047F8280C85468F48A8
:10421000A7F1180100F10808404602F093FAA7F14F
:104220001401404647F8448C02F092FAA6F12000AF
:1042300047F81CBC47F8409C47F8344CC1B2B869F9
:1042400047F82C1C00286FD07F4857F8146C4FF0AB
:10425000000854464FF0000C47F8389C008800BA1C
:10426000020C57F8180C47F83C0C794800EB011089
:1042700047F8240C10465A46A84500F0CC808646E4
:1042800057F82C0C57F8241C0C2D01EB080300EBFD
:104290004001704800EB810108BF01EB080357F8AB
:1042A000280C28F001011B7800EB010B70464FF041
:1042B000000E04F1080147F8301CBEF1070F2ED89C
:1042C00059B2B1F1FF3F08DC1FFA8CF157F8202CEE
:1042D000514357F81C2C2BF811000CF1010C1FFA5C
:1042E0008CF1A9424FF0000128BF8C4601341FFA1F
:1042F00084F94E4540F29E80A9EB0A015B000EF165
:10430000010EA942D9D157F8381C57F83C3C544605
:10431000013147F8381C89B28B4202D88AE057F83D
:10432000304C08F10108A7E79BFA9BF047F8240CF2
:1043300057F814BC00264FF0000E47F8489CC748B9
:10434000008890FA80F857F8180C47F84C0C404851
:1043500000EB011047F8380C5046AE425BD057F8DE
:104360002C2C57F8381C0C2D314402EB4203394AEF
:1043700002EB830308BF99190C7857F8282C47F8EB
:10438000306C26F00101002302EB010900F1080165
:1043900047F83C1C2C490988072B34D861B21FFA16
:1043A0008EF20EF1010EB1F1FF3F57F8241CC8BF89
:1043B0004FEA184157F8206C724329F812101FFA7F
:1043C0008EF2AA424FF0000228BF964601301FFA33
:1043D00080FCE34557F81C2C2CD9ACEB0A020133C6
:1043E0006400AA42D8D1184857F81C2C018057F80D
:1043F000480C57F84C1C013047F8480C80B28142F9
:10440000504604D816E01048018057F83C0C57F885
:10441000306C0136A1E782B057F8200CCDE90005D9
:10442000524657F8283C57E9110102F0E1F857F8D5
:104430001C2C02B00448028057F834DCA7F10C04AD
:10444000A546BDE8F08F00BF70000024980100244D
:10445000F1FB00087DF700082DE9F84F8346581856
:104460000C46DDF828900B9F02EB0B014FEA590830
:1044700086B25D461FFA81FA3A78A2F12000C0B2F6
:104480005E2811D8A8B2504524BF5FFA8BF54C4482
:10449000A1B2B14208D2002000904B46A8B2FFF76B
:1044A00099FE45440137E7E7BDE8F88F2DE9F04F65
:1044B00087B0694C4FF48070684D694905F1080B6D
:1044C000A0810320A060584602F08AFB654E584642
:1044D0000521224633689847B268291D58469047FF
:1044E000DFF884A10021614B0022DAF8000081632B
:1044F00058460021B46AA047FCF782F805465C489C
:104500005C4E6427A0EB050900F044FD012858D05B
:104510000A20FBF78FFFFCF773F80446FCF770F8EE
:10452000A0EB0508601BB0F57A7F09D808FB07F0FF
:104530004FF47A71B0FBF1F0DAF800108863E3E72A
:10454000FCF75EF840F6B831884531D848440A2176
:1045500002ACB0FBF1F2204647A104F077FCDFF893
:10456000F880102001211023B8F80020CDE90004C4
:10457000A2F11E0080B2FFF76FFF3A483746D8F825
:104580000460846BFCF73CF8D8F800104844032220
:10459000009248434FF6FF724FF4FA610192F21E07
:1045A0003E466427B0FBF1F358460021A047ABE735
:1045B000401B40F6B9318842A6D302E00A20FBF73F
:1045C00039FF00F0E7FC0128F8D000204FF4967185
:1045D0000024FFF7C7FD23481F4E00210022856BF2
:1045E000D6E90030CDE900045846A8472448029097
:1045F000274C1023102522A0D0E90112CDE9031287
:10460000007B32888DF8140004200421009502AF4D
:104610000197A047FBF7ECFF02461EA1384604F0C5
:1046200015FC3288042016211023CDE90057A0473D
:104630000A481CA14268384604F008FC328804206D
:1046400028211023CDE90057A0476420C82107B0D6
:10465000BDE8F04FFFF786BDD80100249801002483
:104660007801002474000024782200243493000888
:1046700018FCFFFF000802582530336400000000DA
:1046800057654163742053747564696F00000000BE
:104690005944000853544D333248377878203078E5
:1046A000255800004C43442049443A3078255800AE
:1046B000B0B5DC4D0446082101222846FBF793FFE4
:1046C000601EFBF7B7FE284608210022FBF78BFF90
:1046D00040F2F310BDE8B040FBF7ACBE70B500F09F
:1046E00010FB17D041F218002844017999B19E4E71
:1046F0002046317803F084F9687A02280AD13178AB
:10470000204603F07DF9994801782046BDE87040C5
:1047100003F076B970BD00680028E8D0687A0028F8
:10472000E5D192480178204603F06AF9DFE700BF3F
:1047300010B50446D0F8D40200F064FB14D0407ADF
:1047400002280BD188480178204603F059F98748A0
:1047500001782046BDE8104003F052B949B2B1F1EA
:10476000FF3F01DC012800D110BD20460121BDE83A
:10477000104000F0D9B800BF10B50446D0F8D402FC
:1047800000F040FB17D0017ACA1E022A05D220464B
:104790000021BDE8104000F0C7B802290BD141F25A
:1047A0001D0141F21F020244415C204600F036FF29
:1047B000B0F1FF3F00DD10BD20460121E9E7000018
:1047C00070B500F09EFA33D041F210002E18287A0E
:1047D000012823D060BBD6E90101C6E9090163487D
:1047E0000178204603F00BF81F280AD130682C49C5
:1047F000884206D1717B012903D8B07B08B111280A
:1048000017D3717B20460522202301F0CFF9022027
:1048100068722046BDE87040FFF760BF41F21F009C
:10482000717B2A18204600F0F9FEB0F1FF3F2EDD23
:1048300070BD41F21F002A18204600F0EFFE297AD1
:10484000B0F1FF3F21DD481E0328F1D3EB6823B30D
:10485000D4F8D40200F0D6FAEAD041F218010022CE
:1048600001440E6A81F824200A68F61A0E620421B7
:1048700001723D489A4238BF134605F11002017893
:104880002046BDE8704003F0D6B80529C1D12046C6
:104890000121BDE8704000F047B820460021F8E74C
:1048A00055534243D0F8D41200EB8100D0F8C00237
:1048B00008B100210172704770B500F022FA1AD0D9
:1048C00005F5835100222A810A808A70D0F8C4023B
:1048D000016800208847254E2046317802F086FF87
:1048E00021480178204602F081FF00F099FBBDE8E5
:1048F000704002F0F9BF70BD70B500F002FA12D03E
:104900004FF48070288118480178204602F0C7FED5
:10491000164E2046317802F0C2FE00F081FBBDE861
:10492000704002F0E1BF70BDB0B500F0EAF918D0F8
:1049300041F230000D232A180A4810600020287226
:10494000117309480178204603F075F841F2100010
:104950001F232A18054801782046BDE8B04002F020
:10496000C3BFB0BD555342531000002411000024B2
:1049700070B586B02A48002605962A4C00220168A8
:1049800041F010010160016801F0100100910099EF
:10499000016841F004010160016801F00401009127
:1049A0000099016841F080010160016801F0800117
:1049B00000910099016841F001010160016801F076
:1049C000010100910099016841F00801016000684F
:1049D000082100F00800009000982046FBF703FE35
:1049E00020464FF4205101220125FBF7FCFD42F641
:1049F000080001900496CDE9025601AD20462946F3
:104A0000FBF728FD0220CDE9026029464FF4005053
:104A10000190A4F50060FBF71DFD06B070BD00BF5E
:104A20004045025800100258B0B586B0194800241D
:104A30004FF08041184DFF227F23CDE90244CDE99C
:104A40000044C0E90054C0E90232C0E90444C0E9AE
:104A50000641FDF71FFF08B1FBF7E6FC1220ADF899
:104A60000400CDE904448DF8064001A9012209485B
:104A7000FDF7BEFF08B1FBF7D7FC08480090694678
:104A800001220448FDF76EFF08B1FBF7CDFC06B02C
:104A9000B0BD00BF4C210024004000580306012295
:104AA00010B50B480A2100224FF48043094CC0E99D
:104AB0000042C0E90223C0E90421FEF745FB08B12A
:104AC000FBF7B2FC3220BDE81040FBF7B3BC00BFDF
:104AD0007421002400700052F8B5144C00204FF0EF
:104AE00000514FF0806207234FF4C0254FF4800639
:104AF0000F4F2062C4E90400C4E90900E0624FF0EE
:104B00008040C4E9062160632421C4E90076C4E939
:104B1000025304F13800FBF7ECFB2046FEF720FEC1
:104B200018B1BDE8F840FBF77FBCF8BDF0210024C8
:104B300000340140B0B598B00EA81C21FBF7D9FB9A
:104B400001A83421FBF7D5FB2448002440F2E731CB
:104B50000D22234BC0E90032C0E90241C0E9044400
:104B60008461FFF7C2FA08B1FBF75EFC1794CDE948
:104B700015441A4815A9FFF7A3F908B1FBF754FC2F
:104B80000820119000251495CDE91255CDE90F5557
:104B9000042260200E900EA91048FFF74FFA08B1CA
:104BA000FBF742FC01AC14212046FBF7A2FB4FF0BF
:104BB0000070CDE9095021460D950B9507954FF4EE
:104BC000005006900548FFF72DF908B1FBF72CFCC3
:104BD0000248FFF70FFA18B0B0BD00BF78220024DA
:104BE0000000014080B510481049012202F044FD48
:104BF00008B1FBF719FC0C480D4903F050F808B157
:104C0000FBF712FC08480B4902F0C8FF08B1FBF79C
:104C10000BFC054803F068F808B1FBF705FCBDE89C
:104C20008040FCF74FBC00BF64190024140000242E
:104C3000D80000243C010024FEE7FEE70148FBF712
:104C400027BF00BF401C00240D4606464FF40061FC
:104C500000222046FBF7C7BC8DF8EF003946012241
:104C600030465847DAF8000003F089BE3060FBF7A1
:104C7000C7BCC2F34622B8EE433A32EE002A81EEB8
:104C8000031A21EE021A02EE102AB8EE422A32EE80
:104C9000002A81EE022ABCEEC22A80ED002A70476B
:104CA000001BB0F57A7F704704464FF480500590A2
:104CB000002004904FF4807003907047D4F8840073
:104CC00040F48070C4F88400002084F88000012043
:104CD00084F8810003207047214602F039BCD0F8E7
:104CE000D42200EB8202D2F8B822002A7047204674
:104CF00002F0EBBB00F00F0000EB800004EB800043
:104D000070470446D0F8D40204EB8000D0F8C052BB
:104D1000002D7047D0F8C4028168384608474FF428
:104D200000610122FBF75FBC304639460122704723
:104D3000044690F8BC0401287047C0F8041800200D
:104D40007047411B032002297047DAF81C005146C6
:104D500040F40030CAF81C0070472860FBF750BCD4
:104D60000D4690F824100446022001297047204681
:104D700001F038BA01780091427841EA02210091AD
:104D8000827841EA02410091C07841EA00600090D7
:104D90002946206801F038BAB4F86A000138A4F84E
:104DA0006A007047012084F8480084F83E0084F8C7
:104DB0003F0084F8400084F8410084F8420084F801
:104DC000430084F8440084F8450084F8460084F8E1
:104DD000470084F83D00002010BD2168B1F1804FEC
:104DE000486C40F40040486470470020C4F8D40286
:104DF00020461047204602F08BBB05463046012175
:104E000002F091BB04EB8000D0F8C002002870478C
:104E1000D5F8D40205EB8000D0F8C402C16838464A
:104E200008471321002307F120044A46204628475B
:104E3000201D012100F0B8BA0020CDE902000021B8
:104E4000206801F0B1B93846294601228DF8136077
:104E50004047DAF84010002552467047204600F0DF
:104E60009BBB2068002101F09FB9204601F03CBAAD
:104E700008461146184704F12400002100F0F4BA56
:104E8000FF22216800284A627047E162294601F04A
:104E900017B8002084F880007047204636214A4623
:104EA00000232847DAF848100025524670470320AF
:104EB00084F830007047044690F88000012870475D
:104EC0003A4601238DF8EF9020470968C1F302119B
:104ED000515C01F01F01C84080BDC168B8F1020FEC
:104EE00021F04001C160416B7047B4F86220013A83
:104EF000A4F86220E165B4F862B070473A46012335
:104F00008DF8EF502047201D022100F04DBA60635C
:104F1000012084F830000020E062032070478DF803
:104F2000EF00394601227047DAF844100025524656
:104F3000704794F830000128704784F88100002001
:104F4000C4F8840070470843CAF840007047002046
:104F500084F88000012070473860FBF751BB616B1B
:104F6000084360632046FDF761BED4F8009084F8E2
:104F70008000FBF745BB0843CAF84800704720682B
:104F800001F02CB990F83000616E0870606E01304D
:104F90006066704730464FF40051FBF71FBB304648
:104FA000394601228DF8EF905847002084F8BC0460
:104FB00010BD3067306F20F080007047C1F306618C
:104FC00002EE101AB8EE422A32EE000A81EE000A12
:104FD000BCEEC00A10EE101A70474FF480504FF428
:104FE00080710590039100207047606B40F0006075
:104FF0007047012084F88100002084F88000D4F8F4
:105000008400002870470020C4F8D40220460847D6
:10501000204602F03DBA04468121304602F083BAB0
:1050200041F2100031781F232A1820467047D6F825
:10503000020002BACAF85420B6F80700000470470C
:105040000843CAF8440070472068012EC16841F047
:105050004001C160704702400020062A704760632B
:10506000012084F830000021E16270474FF0FF31E9
:1050700001914FEA4821029170472046FDF7A0BEFA
:10508000D4F8840040F02000C4F88400704794F8FD
:10509000810001287047016821F00101016070471B
:1050A000E06D30F8021BA9F82010E0657047002081
:1050B00084F83C00204670474FF6FC706E1C00F1EF
:1050C000020AC71C70473046394601228DF8EF505E
:1050D0005847DAF80000416970471C6844F00064E2
:1050E0001C601C6844F080441C60704702F0700231
:1050F00091427047C2F3064202EE102AB8EE422AED
:1051000032EE002A81EE022ABCEEC22A80ED012A8C
:10511000704704464FF480500590002004904FF4EF
:10512000807003900620CDE9011070474FF40071A4
:1051300000F08BBD94F89C0201380228704703BA36
:1051400028463946CAF8583000F050BAE16D04C913
:105150000262E16570472068BBF1000F416970474A
:105160003046394601228DF8EF805847012084F8F7
:10517000BC042068704704FA03F3D0F81C482343AA
:10518000C0F81C38704704F12400022100F06CB90B
:10519000401BB0F57A7F704704464FF4805005906D
:1051A000002004904FF48070039008207047616CD9
:1051B0002068090400F026BD41684FF6FF72914354
:1051C00039444160016841F0010101606168B1F555
:1051D000800F7047D6F8020002BACAF85420D6F8F9
:1051E000060070470D188DF803202046494601221D
:1051F00003F024BE002084F8BC04B0BD30603068E9
:1052000020F480107047B8626FF35F214FF47E4046
:1052100000EB42204FF0FE4280B208444FF4FE0102
:1052200001EB034101F4FE010844296902EB01612D
:1052300001F0FE41084470474FF4FA520968B1FB8F
:10524000F2F141F288325143C9437047010EF970BF
:1052500038700436010C000AB97078707047BAF8DB
:105260004C00DAF85820DAF800107047044690F83D
:105270003D000028704738460A2101F071BA09063E
:1052800000EBC00104EB810170470A5842F0006254
:105290000A500A5842F080420A5042F21072704797
:1052A0006FF35F2302EE103AB8EE422A00EE032AB3
:1052B00003EE102AB7EE000A7047532141622046E0
:1052C00000F046B90490CDE901017047016841F44E
:1052D0000071016070470262B042D1F800C08B6873
:1052E000046A456870470262B842026A46680C6800
:1052F0008B68456D70473A460123304620470121AF
:1053000084F8BC142068A16A01297047C5F3CC0554
:1053100003F003036C43022B00EE104AB8EE400A80
:105320007047000240EA0646A8784047606B40F0AC
:1053300000707047086840F001000860002010BD50
:105340000D4601204FEAB20184F83C007047044644
:1053500090F83C00012870473046394601228DF80C
:10536000EF804FF02D08584704F12400012100F090
:105370007BB88A68097B03EBC202002906EB0801AF
:1053800052687047201D002100F00EB88163012093
:1053900084F8300000207047022084F83D00211D71
:1053A000206801F0C7BE7047F8B55F4F0546B86A80
:1053B00000F00300032804BF0120F8BD38680C4644
:1053C00020F08060FFF7C8FD06463868000105D56B
:1053D000FBF716F9801B0228F7D941E095E80F008A
:1053E000BE6A26F47C36013946EA0030FFF70BFF2F
:1053F000B8636869F96A21F0C0010843F862A869D6
:10540000F96A21F020010843F8624FF6F871F86A52
:1054100020F01000F862F86B8843E969012C40EA3B
:10542000C100F863F86A40F01000F8624FF4001011
:1054300008BF4FF48010002C08BF4FF40020F96A19
:105440000843F862386840F08060FFF785FD044645
:105450003868000106D4FBF7D3F8001B0328F7D304
:105460000320F8BD0020F8BDF8B52F4F0546B86AF7
:1054700000F00300032804BF0120F8BD38680C4683
:1054800020F08050FFF768FD06463868800005D59B
:10549000FBF7B6F8801B0228F7D941E095E80F002A
:1054A000BE6A26F07C76013946EA0050FFF7ABFE73
:1054B00038646869F96A21F440610843F862A869B0
:1054C000F96A21F400710843F8624FF6F871F86A3E
:1054D00020F48070F862786C8843E969012C40EA16
:1054E000C1007864F86A40F48070F8624FF0807010
:1054F00008BF4FF40000002C08BF4FF48000F96A89
:105500000843F862386840F08050FFF725FD0446F4
:105510003868800006D4FBF773F8001B0328F7D324
:105520000320F8BD0020F8BD0044025809280146B8
:1055300098BF0921CAB20A23B2FBF3F202EB82033D
:10554000A1EB4303591A084440EA0210C0B2704765
:10555000F8B504460068C168490619D4C168002638
:10556000012741F08001C160FBF74AF80546216838
:10557000F843C96840EA9110C0070AD1FBF740F828
:10558000FFF706FEF3D9032684F825600027EEE72F
:105590000026F0B2F8BD0000B0B5134D044655F832
:1055A0000C0C20F0800045F80C0C2868800607D40D
:1055B0002046FDF771FA78B1032084F82500B0BDCC
:1055C000286820F0200028602046FDF765FA28B101
:1055D000032084F8250002E00020B0BD00202968E7
:1055E00041F020012960B0BD1840005810B5D0F836
:1055F000D41200EB8101D1F8C01251B141F268041C
:105600001A4409598A4206D900210522212300F0B3
:10561000CDFAFF2000E0002040B210BD2DE9FC478C
:105620000546D0F8D40205EB8000D0F8C042002C2B
:1056300000F0DA810F4641F21801164604EB010A28
:105640001178A1F11A02102A26D9AA2900F0CD80DA
:10565000032900F0D480122900F0DF802F2900F008
:10566000F3805A2900F0FE809E2900F00581A829C8
:1056700000F02281002921D1DAF80010002940F041
:1056800062819AF84A10022900F05081FFF742FB2C
:10569000002840F04B816CE1DFE802F0091910109E
:1056A0002C1010101035104F101075108B0032791F
:1056B000DFF8B413172A28BF1722D8E028460021A4
:1056C0000522202300F072FA022060728CE130790A
:1056D0009AF84A1000F00300012902D1022800F0D4
:1056E0003F810021012818BF032840F03E818AF83D
:1056F0004A103EE131790020E060002918BF012105
:105700008AF84A1071E1D0F8C40269460DF1060228
:10571000436838469847002840F060819AF84A006C
:10572000022800F05B8104F11000002100220C2A05
:1057300000F0228181540132F9E7D0F8C4020AF165
:1057400050060AF14C0831464246436838469847AD
:10575000002840F043819AF84A00022800F03E8178
:105760000821E1600020A08231680139E1740A0A51
:10577000A2740A0C090E21746274B8F8001009BAF8
:10578000090CE18231E1217A002940F098809AF9F0
:105790000410002940F1D7809AF84A10022900F03D
:1057A0001D81FFF7B7FA002840F01881FFF73FFC92
:1057B0002CE1217AE9B9DAF80010002900F0C38061
:1057C0009AF90410B1F1FF3F40F3BD80FFF7A2FA50
:1057D000002840F00381FFF71BFB002800F0238125
:1057E0002846002102222723FCE0217A002900F02C
:1057F000918028463946BDE8FC4700F085B9DAF8C3
:105800000000002800F09F8004F110000021002219
:10581000122A5DD081540132FAE7DAF8001000292B
:1058200000F091807178C90740F09280D0F8C402EE
:1058300007EBC7013279C06900EB810108790530B7
:10584000904238BF024612E07078800700F18880ED
:10585000DAE9152328463946FFF7C8FE002840F14B
:105860008880C1E0327A7F491B2A28BF1B2220464C
:1058700000F0B8F90020B8E0D0F8C4020AF15009ED
:105880000AF14C0849464246436838469847002882
:1058900040F0A4809AF84A00022800F09F80D6F8D1
:1058A0000A000021002200BAE060D3B2984278D901
:1058B000234401321974F8E7217A00293FD04FF4CC
:1058C0008050E06039462846BDE8FC4700F0D2B879
:1058D0000C20E0759AF84910702020749AF848005E
:1058E000884210D004EBC0014FF4825201308A5C30
:1058F00001F58251A2748988A183C1B2043918BF0D
:1059000001468AF848101220E06030791228B1D898
:10591000E060AFE7DAF80010A9B19AF90410B1F12C
:10592000FF3F10DDFFF7F6F9002865D0284600217B
:1059300002223A2300F03AF90520207254E09AF945
:105940000410002943D4284600210522202349E0E1
:10595000B07880284CD018B945492046062287E700
:1059600028460021052224233CE0022801D10221FF
:10597000BDE60020E06038E00820E07402202083CB
:105980000C20E06000980138E075010AA175010C57
:10599000000E20756175BDF8060000BA000C60832A
:1059A00068E7D9F80010002020830139E1750A0A60
:1059B000A2750A0C090E21756275B8F8001009BAB3
:1059C000090C6183D6F80A1009BAE1600DE09AF873
:1059D0004A10022902D0FFF79DF9A8B128460021FC
:1059E00002223A2300F0E2F8FF2040B2BDE8FC8733
:1059F0001E49204608223BE7FFF70AFAB0B12846C5
:105A000000210222272395E7FFF7E4FBFFF797FB2E
:105A10000028E9D4FFF723FC504381427FF493AF81
:105A2000022020724BE7FFF702FB01E0FFF7D2FBF9
:105A3000FFF785FB0028D7D4FFF711FC02FB00F32A
:105A400099427FF480AF0120207204F11002564881
:105A5000B3F5805F28BF4FF480530178284601F0EA
:105A600043FF07E7300000244B00002468000024B7
:105A7000620000242DE9F0410446D0F8D40204EB82
:105A80008000D0F8C072CFB341F23802D0F8C4021F
:105A900007F11008BE18D0F810C0B08DD6E90D235C
:105AA00003FB00F5B5F5805F28BF4FF48055B5FBCB
:105AB000F0F083B208464146E047B0F1FF3F17DD02
:105AC000104842462B460178204601F0B4FF30686A
:105AD000D6E90D12401B3060B08DB5FBF0F00144EB
