:020000040000FA
:1000000083B00F48016841F010010160016801F000
:10001000100102910299016841F00201016001683A
:1000200001F0020101910199016841F008010160AC
:10003000006800F008000090009803B0704700BF0F
:1000400040450258B0B586B06846182105F058FC06
:10005000184C1948082200214FF08043022549F826
:10006000040009EB0400C0E90D21C0E9012100F101
:100070000C02C0E90953C0E90B11C1630125172324
:10008000C0E9061101622AC200F01CFA08B105F0AD
:10009000C1FB4FF00110CDE90250694641F28832B0
:1000A000009509EB040001F04FF808B105F0B2FB30
:1000B00006B0B0BD2C200000005000522DE9F04DDC
:1000C000B4B004462FA8142105F01AFC01A8B421ED
:1000D000043005F015FC20683A4988426FD14FF092
:1000E000007000241394019001A802F003F908B1F4
:1000F00005F090FB34484FF0090B4FF0030A02263D
:100100004FF00408016841F400110160016801F436
:10011000001100910099016841F48041016001687B
:1001200001F4804100910099C16841F01001C16063
:10013000C16801F0100100910099C16841F002010D
:10014000C160C16801F0020100910099C16841F0ED
:100150000801C160C06800F0080000900098CDE977
:10016000314A1A4CCDF8CCB03096CDF8BC802FADCA
:10017000174F04F540607F442946B847002031906E
:100180002946CDE932ABCDE92F862046B84700207D
:1001900031902946CDE932AB4FF0000830964FF44C
:1001A00060502F9004F50060B8470A20339029462C
:1001B00030A880E8400540202F902046B84734B052
:1001C000BDE8F08D0050005234450258000402583A
:1001D0006B330000B0B500680F49884218BFB0BD4E
:1001E0000E480F4C016821F400110160016821F4F0
:1001F0008041016004F540600A4D04217D44A84718
:1002000020464421A84704F500604FF460512A4677
:10021000BDE8B040104700BF0050005234450258BE
:10022000000402588534000081B00648016841F09E
:1002300002010160006800F002000090009801B027
:10024000704700BF5445025805494FF6FF030A683E
:100250001A4060F30A22034810430860704700BF49
:100260000CED00E00000FA05F0B5114B4FF0FF3641
:100270001C68C4F30224E51E84F0070438BF00257F
:1002800006FA05F7BA43042C28BF042406FA04F43E
:10029000A14300F00F04A940043C11432344054A44
:1002A00009010C33B0F1FF3FC8BF83181970F0BDCE
:1002B0000CED00E000E400E0002808D400F01F018D
:1002C0000122400902FA01F1014A42F82010704768
:1002D00000E100E000280CD400F01F0101224009D9
:1002E00002FA01F1034A42F82010BFF34F8FBFF327
:1002F0006F8F704780E100E000F000F80648BFF320
:100300004F8F064A016801F4E06111430160BFF3B9
:100310004F8F00BFFDE700BF0CED00E00400FA05C1
:10032000411E0020B0EB116F01D001207047044A3C
:10033000F023516003490B709060072111607047F2
:1003400010E000E023ED00E00448BFF35F8F016898
:1003500021F48031016000210167704724ED00E045
:10036000064940F001000867086840F480300860E2
:10037000BFF34F8FBFF36F8F704700BF24ED00E0D6
:100380000278114943780B60D2B143684B60037B1C
:1003900042EA0372C37A42EA0362837A42EAC342C0
:1003A000437B42EA8342837B42EA4342C37B42EA85
:1003B0000342437A007A42EA032242EA400001E023
:1003C000002048608860704798ED00E002480068AF
:1003D000C0F30220704700BF0CED00E0F0B501F063
:1003E000070100F00F06114F0F4DCC1E3E4481F067
:1003F000070138BF0024B0F1FF3FC8BF461930786D
:100400004FF0FF360509E540042928BF042106FA0C
:1004100001F125EA0101116006FA04F1C94301EA7C
:1004200010101860F0BD00BF00E400E014ED00E023
:10043000002808D400F01F010122400902FA01F14E
:10044000014A42F82010704700E200E0002802D480
:100450004109024A2DE00020704700BF00E200E0A1
:10046000002808D400F01F010122400902FA01F11E
:10047000014A42F82010704780E200E0002802D4D0
:100480004109024A15E00020704700BF00E300E088
:10049000044904280A6822F0040208BF04320A60F2
:1004A000704700BF10E000E0AFF30080704703200A
:1004B000704700F01F0052F8211021FA00F000F000
:1004C00001007047F8B501F09BF82CB105460020FB
:1004D0006065216D11B1F8BD0120F8BD2046FFF720
:1004E000EDFD04F10C0320682F4E304F0ECB06EBD0
:1004F000024286683E4031431143626B11436FF004
:10050000FF0202EB03231943E36919438160216A67
:10051000C36823F4E0231943C160216BA36B43EA52
:1005200001410161E16B416141F28831A1650368DC
:10053000666823F4F85302EB06221A430260009126
:10054000204620212B46002200F036F80028C2D198
:100550002068636AA168A269013BC56825F0FF05B0
:100560002B43C360036823F0400319430160A16A71
:10057000D0F8083123F0A0431943E36A1943C0F8C7
:1005800008110168022A41F00101016003D181686C
:1005900041F002018160E068B0F1806F14BF022079
:1005A000012020650020F8BD0000FFFFF4F8E0F80E
:1005B00070478165002070472DE9F845DDF820A0DF
:1005C000984616460F4604460AF101052068006A5F
:1005D000384018BF0120B04214D0002DF6D005F0ED
:1005E000D1F8A0EB0800504502D8BAF1000FEDD1C8
:1005F0004FF400702065606D40F0010060650120DF
:10060000BDE8F8850020BDE8F88580B110B5044646
:100610000068016821F001010160816821F0020198
:1006200081602046FFF7D6FD0020206510BD012027
:1006300070477047B0B501680446086A0B68226DC0
:10064000450701D55D0316D4850701D59D031BD44D
:10065000020701D51A0326D4C20701D0DA0332D427
:10066000C0066FD5D8026DD5102048622046BDE87F
:10067000B04000F0A2B8282A50D0182A54D1206CDB
:10068000007881F850004DE0282A34D1A26C002A6D
:1006900056D010F47C5F53D091F85000216C087054
:1006A00000F0FBFFB0BD082048620868400205D595
:1006B000086820F410200860022020652046BDE86C
:1006C000B04000F061B801204862086820F4F810DA
:1006D0000860022060650A68520706D5E06C264A69
:1006E0007A4400F0B4FF68B3022020652046BDE8DC
:1006F000B04000F048B8022048620B68082A23F492
:10070000E0230B6020651ED0B2F5807F20D0182A30
:1007100018D12046BDE8B04000F032B891F8500042
:10072000216C087000F0B9FFA06C20B92068016846
:1007300021F4802101602046BDE8B04000F01EB8E1
:10074000A06C68B1B0BD2046BDE8B04000F019B85B
:10075000606D0028CAD12046BDE8B04000F012B854
:10076000022048620A6822F4E0220A6020652046DE
:10077000BDE8B04000F003B8A70000007047704724
:1007800070477047704770477047406C0021816424
:10079000016DB1F5807F07D101680A6A920607D41E
:1007A00002210165FFF7EEBF02210165FFF7EBBFF4
:1007B000724600F031FF9646704770472DE9FC41C4
:1007C00016460F4600F01CFF0546206D242808D071
:1007D00014281ED0022821D1E068B0F1806F05D125
:1007E0001CE0386840F00200032817D12046202181
:1007F00000222B4600964FF00008FFF7DDFE78B987
:1008000020463946C4F8548000F032F858B1BDE8AB
:10081000FC81386820F001000228E7D010206065D4
:100820000120BDE8FC81B86B30B13868022814D0D3
:1008300001280DD0A0B117E02046022101222B464D
:1008400000960226FFF7B8FE21684E62BDE8FC81E3
:10085000206D242804D0142005E0206D142801D137
:10086000042000E0242020650020BDE8FC8100BFBA
:100870002DE9F04102688368146824F04054146044
:100880002BB94B68146824F08004234313600B6871
:10089000032B0AD0022B11D102F5D07602F5C87CC9
:1008A00002F5C47502F5C07E10E002F5B07602F5DF
:1008B000A87C02F5A47502F5A07E07E002F590760B
:1008C00002F5887C02F5847502F5807ED1E9124735
:1008D0003C43CEF80040CC6A6CB18C6A3460DEF8E0
:1008E0000040D1E90B674B6B24F47C143443234361
:1008F0003B43CEF800302B684C6C23F01F0323439E
:100900002B608D6B25B10B6813B9CB6B013B136466
:10091000CF68CE69B7B1DEF8004036B3D5B34348EF
:1009200047EA050320403343D1E90445D1E908678C
:100930002B4318430B6C2043384330431843CEF805
:10094000000045E0002E47D0DEF80000002D48D022
:10095000364B3F33184046EA0503D1E908452B439F
:100960001843204301F1400442E0002D49D02F48B4
:1009700047EA05020D6C00F57C502040D1E90434B3
:100980002243104318432843CEF800008868CCF86F
:10099000000033E043F63F7324EA030846EA070405
:1009A000D1E90456D1E90873344344EA08042C43DE
:1009B00023433B43CEF80030C06AB0F1805F07D1DB
:1009C0004869082804D1DEF8000040F00060B6E76E
:1009D0008868CCF800000FE0082141650120BDE8DF
:1009E000F0814B6A20F47C5001F12004334318431A
:1009F00023681843CEF80000886990640020BDE8A1
:100A0000F081D1E9042324F03F043B4323431A43FC
:100A1000CEF80020C06AB0F1805FB7D148690828DD
:100A2000B4D1DEF8000040F00060ADE7C0C0FFF0D8
:100A30007CB50D4600F0E4FD0346206D022807D189
:100A4000286828B9A86B18B9E068B0F1806F03D1A5
:100A50001020606501207CBDA06D00902021002247
:100A600000262046FFF7A8FD0028F3D16665032184
:100A70002068416220462946FFF7FAFE0028E9D1A6
:100A8000082020652068016841F4403101600020A1
:100A90007CBD7CB516460D4600F0B2FD0346206DC8
:100AA000013801280FD800F0D9FD70B90FCD090227
:100AB00041EA0040216810431843C1F800020220B7
:100AC000206500207CBD1020606501207CBDF8B54C
:100AD00016460D4600F094FD0346206D022821D1F4
:100AE000E068B0F1806F1DD100F0B8FDE0B920687A
:100AF000016821F04051016095E84E00876827F0B9
:100B00008077394381602969194341F00C21C0F88D
:100B10000011C0F88011711E0164826404202065F8
:100B20000020F8BD102060650120F8BD2DE9FC41D2
:100B300016460F4600F064FD1FB380462568206D01
:100B4000042820D1286C0130A064A06C6064276464
:100B50000127286820F0405028602046042100F03A
:100B600097FD98B9206C007885F8500000F066FD7C
:100B7000F3D100F048FD48B920680027456225659B
:100B800004E0082000E01020012760653846BDE839
:100B9000FC812DE9FC4116460F4600F031FD256829
:100BA0008046A86CD5F8101167B3226D042A2BD1AA
:100BB0002A6C01230132A264A26C626427642A6851
:100BC00063F31D722A60E268B2F1806F04D0D5F839
:100BD000002112F4E06F1DD0A864012720460621F1
:100BE00000F056FD98B995F85000216C087000F09F
:100BF00025FDF3D100F007FD48B9206800274562C4
:100C0000256504E0082000E01020012760653846D3
:100C1000BDE8FC81C5F81011DFE7B9B1026D042A07
:100C200016D10268136C01338364836C43641368C8
:100C300023F04053136003235362182303650164B8
:100C4000106840F4E020106000207047082100E0A8
:100C5000102141650120704770B50268936CD2F88D
:100C6000104109B3056D042D20D1156C0126013505
:100C70008564856C4564156866F31D7515600325EC
:100C80005562282505650164116841F4E021116071
:100C9000C068B0F1806F04D0D2F8000110F4E06FAA
:100CA00008D00020936470BD082100E01021416548
:100CB000012070BD0020C2F8104170BDF8B5026877
:100CC0000446106C49B3236D042B28D10130A06475
:100CD000002340F60C47A06C6064106820F0405080
:100CE000106003205062182020652164E06C1F4DC5
:100CF0007D44C0E916531E4BC5697B448364036879
:100D000053F8106FBE431E60202D0BD0102D0ED057
:100D10009DB900F0AEFCAE1C0DE0082000E01020F4
:100D2000606519E000F0A5FC05F2022603E000F082
:100D3000A0FC05F58176002505E0234653F8545FB5
:100D400045F0040601251E60503200F09CFC30B1D5
:100D5000042060650220206501252846F8BD206832
:100D6000016841F480310160F7E700BFA500000091
:100D7000770000000168406C00228264006802680D
:100D800022F004020260CA6822F00102CA6001680F
:100D900041F400310160704710B5446C0020A0643C
:100DA000042060652068016821F00401016020468C
:100DB00000F082F958B12068016821F4E021016057
:100DC000022020652046BDE81040FFF7DCBC10BDC6
:100DD0002DE9F8450A4601680446086CD1F848A098
:100DE000D1F8108162B3236D042B2BD10130A064A4
:100DF000012340F20336A06C6064086863F31D7041
:100E00000860002303204862282020652264E06CEB
:100E1000264D7D44C0E91653254B056A7B44836407
:100E2000802D036853F8107F27EA06061E600CD059
:100E3000402D0FD0A5B900F017FC05F108070DE013
:100E4000082000E01020606519E000F00DFC05F6B8
:100E5000080703E000F008FC05F58167002505E0C0
:100E6000234653F8545F45F0040701251F605031B5
:100E700000F009FC38B104206065022020650125DE
:100E80002846BDE8F8852068E168B1F1806F026806
:100E900042F48032026002D000F0F0FB02D0C0F8D1
:100EA00048A0EDE7C0F81081EAE700BF83FFFFFF2D
:100EB00055FFFFFF2DE9F84516460F4600F0A0FB51
:100EC00005462068D0F84880D0F810A1206D04288D
:100ED0002BD1F868B0F5800F27D1204620210022C1
:100EE0002B460096FFF768FB08BB2068D4F80CC0BF
:100EF000D7E90023D7E9021EC0F88820C0F8803067
:100F00003A69C0F89020026822F04352114341EA46
:100F10000E01BCF1806F41F00051016002D000F081
:100F2000ADFB08D0C0F8488007E0102060650126BE
:100F30003046BDE8F885C0F810A1204608210122FE
:100F40002B46009608270126FFF736FB0028EFD135
:100F500020680026476202202065E9E7F8B50D46C3
:100F600000F04EFB03462068866CD0F81071206DAF
:100F7000042829D100F05BFB40BB2068D4F80CC0EA
:100F8000D5E90023D5E9021EC0F88820C0F88030DA
:100F90002A69C0F89020026822F04352114341EAC6
:100FA0000E0141F000510160092141624821216593
:100FB0000168BCF1806F41F41021016002D000F0A3
:100FC0005DFB05D0866405E0102060650120F8BD5A
:100FD000C0F810710020F8BDBCB50D4600F010FB44
:100FE0000346206D04281BD100F021FBD0B98820D6
:100FF000206528682168082801BF6A68C1F8302187
:1010000010224A6202BF0A6842F480120A600A682B
:1010100022F00802104340F0405008600020BCBDA0
:10102000102060650120BCBD70477047F8B500F026
:10103000E7FA0546206D10F00C0F17D02068016804
:1010400049070BD5016821F004010160E06C02F052
:1010500039FF18B106460420606500E000262068CC
:10106000016A890606D40220206512E0102060651E
:1010700001260EE0016801222B460227012641F0DD
:1010800002010160A06D009002212046FFF794FA52
:1010900008B13046F8BD2068A16D00222B4647629A
:1010A000009120462021FFF787FA0028E0D1022096
:1010B00020650026EDE700BF10B50446006D10F076
:1010C0000C0F10D02168086820F4F81008604FF465
:1010D000807020650868400709D4086A80060CD52E
:1010E00000F09AFA0EE010206065012010BDE06C5F
:1010F000054A7A4400F0ABFA20B102202065204670
:10110000FFF740FB002010BD95F6FFFF026D1207B0
:101110000CD4416000686FF0FF0202EB012102680D
:1011200022F4F852114301600020704710214165FC
:101130000120704700680068C0F304200130704748
:10114000406D7047006D70472DE9F04D90B000681C
:101150009E4F029003914FF0000AC01B18BF012060
:10116000019004AE9A48B3468046BAF1020F63D0AC
:101170000AEB4A00142106EBC005284604F0C0FB28
:101180000AF1010ABAF1020F0BD158F8040C4246D9
:10119000C0074FF4007004BF40F22220C0F20440A8
:1011A00001E00020424605F1100C05F10C0E05F19E
:1011B00008032E1D0027022F3BD052F82740E107DD
:1011C00005D084EA0001890701D4791C2960E10671
:1011D00005D584EA0001890601D4791C3160E10556
:1011E00005D584EA0001890501D4791C1960E10361
:1011F0000DD584EA0001490309D4791CA2034CBF30
:1012000041F0807141F48031CEF800104246E10196
:101210000DD584EA0001490109D4791CA2014CBF13
:1012200041F0807141F48031CCF800104246013722
:10123000C1E7664F5E4698E7DDF808E03868AEEB38
:101240000701C00702D14FF0000C05E038684FF0ED
:10125000010C20F001003860B1FA81F25D49039879
:101260000B68DB0701D18A4606E00B688A460CF161
:10127000020C23F001030B6001994FEA521B324626
:1012800001EB410406EBC4039D6808EB850555F8A6
:10129000046C26F4807645F8046C58F8045CED077D
:1012A0002FD152F834401646002C60D008EB84044D
:1012B00054F8045C25F0010544F8045C5C6844B112
:1012C00008EB8404414654F8045C25F0100544F80A
:1012D000045CDC684CB10125414625EA040458F859
:1012E000245025F4803548F824501B69002B3ED04B
:1012F0000124414624EA030358F8234024F0807473
:1013000033E058F8043C1646414623F0010348F800
:10131000043CBE452BD10A9B08EB830353F8044CD5
:1013200044F0020443F8044C0B9B43B108EB8303E5
:10133000414653F8044C44F0200443F8044C0D9B00
:101340004BB10124414624EA030358F8234044F4F6
:10135000802448F823400E9B4BB10124414624EAE7
:10136000030358F8234044F0806448F823400BEB13
:101370004B0256F8323006EBC202D0E900569D42CD
:10138000546813D1A64225462BD1D468C568A5421E
:1013900019D114690569A542354622D158F8042CA3
:1013A000414642F0010248F8042C4CE0A642354682
:1013B00017D095688668AE4203D0D568C668AE423D
:1013C0000AD125460DE035460BE000BF0050005223
:1013D00004B4005200A0005215690669AE422546C9
:1013E00031D108EB8303464653F8044C24F0010442
:1013F00043F8044C3DB106EB850353F8044C24F04C
:10140000100443F8044C936806EB830353F8044C30
:1014100024F4807443F8044CD36843B1012424EAD3
:10142000030356F8234024F4803446F8234012691D
:101430004AB10123414623EA020258F8223023F040
:10144000807348F822304FF44072BE45454608BFCD
:101450004FF48072836808EB830353F8044C24F440
:101460004074224443F8042C58F8042CC2F3074378
:101470004269541E9C4209D9604B03EB024255F865
:10148000043C23F47F031A4345F8042C55F8044C1C
:101490000268013AE40755F8223023F0030329D10A
:1014A0000324BE4508BF0124234345F82230426887
:1014B00062B105EB82023023BE4508BF102352F80B
:1014C000044C24F02004234342F8043CC368DA03AC
:1014D00028D4C3B34FF0A062BE45414608BF4FF0C9
:1014E000807201249C4308EB840358F8244024F0C4
:1014F000E06426E043F0010345F82230426842B13F
:1015000005EB8202012452F8043C64F3051342F80F
:10151000043CC268D30329D4B2B34FF080736FF098
:10152000E06427E04FF4A022BE45414608BF4FF4D7
:10153000803201249C4308EB840358F8244024F4AF
:10154000E02422431A600269D3032AD4002A41D03E
:101550004FF0E063BE4508BF4FF04073012424EA1A
:10156000020258F8224024F0E06427E04FF4803370
:101570006FF4E0240125414625EA020258F8225082
:101580002C40234348F822300269D30318D40AB30D
:101590000123032423EA020258F8223064F31A6379
:1015A00016E04FF4E023BE4508BF4FF4403301245A
:1015B00024EA020258F8224024F4E024234407E0FD
:1015C0000123032423EA020258F8223064F3124371
:1015D00048F822305FEACC7203D03A6842F0010248
:1015E0003A605FEA8C7005D5DAF8000040F001003F
:1015F000CAF80000002010B0BDE8F08D0000FFFF29
:10160000044604F0BFB8204602210122434600965A
:1016100002250127FEF7D0BF02204862086840F487
:1016200000300860086840F0020008607047A06D54
:101630000090202100222046FEF7BEBF206CA16C46
:101640000139A16401302064A06C00287047C26594
:101650000A6822F004020A6002F066BC20462021DB
:1016600000220096FEF7A8BF1D6840F60C46B54361
:1016700070471D6840F20336B5437047D0F800113B
:1016800011F4E06F70470126636C009602F0D6BB40
:10169000012243460096FEF78FBF206CA16C0130FB
:1016A0002064481EA06470472DE9F8455E4D286807
:1016B00000F00F00022809D82868032161F3030015
:1016C0002860286800F00F00032825D104F05AF89C
:1016D000564F0446386840F00100386038684007CB
:1016E00007D404F04FF8001B0228F7D90320BDE807
:1016F000F88578684F4940F0804078600020386174
:101700004B4849F800104C4849F800104B4859F82C
:10171000000004F035F810B10120BDE8F885AA46B4
:1017200004F030F8044641F288383E6904F02AF8A3
:10173000054616F0380F03D0281B4045F5D9D5E7EC
:1017400038683F49084038603868860304F01AF862
:101750000446002E03D5601B6428F5D9C6E7386817
:1017600020F0807038603868860104F00BF8054678
:10177000002E04D5291B03200229F4D952E0386831
:1017800020F0806038603868060103F0FBFF0446F3
:10179000002E04D5611B03200229F4D942E03868E9
:1017A00020F0805038603868800006D503F0EAFFEA
:1017B000011B03200229F6D934E022490020B86138
:1017C000F8613862B9622049F96220493963786367
:1017D000B963F86339647864396821F48011396039
:1017E000396821F48021396038664FF0FF30B866DF
:1017F000D7F8300140F48030C7F83001DAF8000043
:1018000010F00C0F0DD0DAF80000032161F3030093
:10181000CAF80000DAF8000000F00F0003287FF497
:101820007BAF0020BDE8F88500200052004402583C
:10183000100000000090D0030C0000000400000025
:1018400045EDF6FF000202020000FF0180020101E7
:10185000F8B5002800F0C58004460078DA4EC007CD
:101860001FD12078800766D5306910F03801B06A42
:1018700044D0182901D1800740D03068E1680029A0
:1018800000F00C8120F01900084300F018FD054617
:101890003068400748D403F075FF401B0228F7D991
:1018A00090E1306900F03801B06A102905D018299C
:1018B0000AD100F00300022806D130688003D0D599
:1018C00060680028CDD18CE06068002800F0468177
:1018D000B0F5A81F00F05981B0F5A02F00F05D8190
:1018E000B0F5803F00F05F81306820F480303060D8
:1018F000306820F4802000F0F7FC57E1E0683168A0
:10190000490701D500286CD0316821F0190108433E
:1019100000F0D5FC05463068400705D403F032FFDF
:1019200000F0D0FCF7D9F8BD2069716821F0FE41C4
:1019300041EA006070602078C00618D5306900F078
:101940003801B06A082905D0182971D100F00300C8
:1019500001286DD13068C00502D5E069802840D1EA
:10196000206AF16821F07C5141EA0060F060207843
:10197000000738D42078800648D4207840076AD4FD
:10198000676A67B3306900F03800182840F0CA80F1
:10199000B16A306B012F24D0A26A01F00303934295
:1019A0001FD1E26AC1F3051191421AD10146226B9F
:1019B0006FF35F21013A914213D1626BC0F346216C
:1019C000013A91420DD1A26BC0F30641013A914216
:1019D00007D1E16BC0F306600139884201D10020D4
:1019E000F8BD0120F8BD706F6169002946D040F054
:1019F0000100706703F0C6FE0546706F8007B9D41A
:101A000003F0C0FE401B0228F7D9DBE03068A16973
:101A1000002969D040F4805000F051FC0546306840
:101A20008004AAD403F0AEFE401B0228F7D9C9E017
:101A30003068E169002966D040F0800000F03FFC8A
:101A400005463068C0053FF58BAF03F09BFE00F004
:101A500039FCF6D967E7D6F8000440F48070C6F880
:101A6000000403F08FFE0546D6F80004C00524D418
:101A700003F088FE401B6428F6D9A3E020F00100A3
:101A8000706703F07FFE0546706F80077FF572AFC9
:101A900003F078FE00F016FCF6D944E720F00100D0
:101AA00000F00DFC0546306840077FF544AF03F0B9
:101AB00069FE00F007FCF6D935E7A068002800F0C1
:101AC0008580852800F09C80052800F0A1800128F1
:101AD00000F0A480306F20F001003067306F20F0FC
:101AE000040000F0F3FB9CE020F4805000F0E7FBE2
:101AF0000546306880047FF540AF03F043FE00F0F8
:101B0000E1FBF6D90FE720F0800000F0D8FB054696
:101B10003068C0057FF52BAF03F034FE00F0D2FB38
:101B2000F6D900E7306820F0807000F0C8FB054669
:101B3000022F09D13068800140F1848003F022FE39
:101B400000F0C0FBF6D9EEE6306880017FF547AFC4
:101B500003F018FE00F0B6FBF6D9E4E6306820F496
:101B6000803000F0C1FB3060306820F4802000F04D
:101B7000A6FB0546306880037FF573AE03F002FED6
:101B8000411B03206429F5D9CDE6306840F480205C
:101B90003060306840F4801004E0306840F4802009
:101BA00000F0A2FB3060306840F4803000F087FB2A
:101BB0000546306880033FF554AE03F0E3FD401B5B
:101BC0006428F6D90320F8BD00440258306F20F095
:101BD000010000F07BFB3067306F20F004003067BD
:101BE00003F0D0FD054641F28837306F80077FF55E
:101BF000C7AE03F0C7FD411B0320B942F5D992E6F9
:101C0000306F40F004003067306F40F0800004E037
:101C1000306F40F0040000F059FB3067306F40F047
:101C20000100306703F0AEFD054641F28837306FA2
:101C300080073FF5A5AE03F0A5FD411B0320B94287
:101C4000F5D970E604F12805B06A40F2F331884313
:101C50002ECD0843591E40EA0210B0626FF35F2197
:101C60004FF4FE024FF47E4000EB452080B2084462
:101C7000A16B02EB01414FF0FE4201F4FE0108446A
:101C8000E16B02EB016101F0FE41084430634FF665
:101C9000F871F06A20F00100F062706B8843A16C6B
:101CA00040EAC1007063206CF16A21F00C01084326
:101CB000F062F06A616C20F002000843F062F06AA2
:101CC00040F48030F062F06A40F40030F062F06A74
:101CD00040F48020F062F06A40F00100F062306869
:101CE00040F0807000F0EBFA0446306880013FF568
:101CF00076AE03F047FD011B03200229F5D912E659
:101D00002DE9F845002800F0FF80814D0446884603
:101D1000286800F00F0088420BD2286820F00F00DE
:101D200040EA08002860286800F00F00404540F0B5
:101D3000EB802068774F410709D52169BA6900F027
:101D4000CAFA04D9BA6922F070021143B9610107D5
:101D500009D56169FA6900F0BEFA04D9FA6922F07E
:101D600070021143F961C1060AD5A169FA6902F44A
:101D7000E062914204D9FA6922F4E0621143F96108
:101D8000810609D5E1693A6A00F0A5FA04D93A6AF0
:101D900022F070021143396210F002010AD0E268A9
:101DA000BB6903F00F039A4204D9BB6923F00F0308
:101DB0001A43BA61C2073AD0D4E90101BA6922F4E0
:101DC00070621143B961012807D0032809D00228A5
:101DD0000BD1396889030CD496E03968C90508D459
:101DE00092E03968890104D48EE03968490740F1EE
:101DF0008B803969AA4621F007010843386103F056
:101E0000C1FC064641F288356068396901F0380145
:101E1000B1EBC00F07D003F0B5FC801BA842F3D98B
:101E20000320BDE8F8852068554600F0020151B155
:101E3000E168BA6902F00F02914204D2BA6922F055
:101E40000F021143B961296801F00F0141450AD918
:101E5000296821F00F0141EA08012960296801F091
:101E60000F01414550D1410709D52169BA6900F0F8
:101E700032FA04D2BA6922F070021143B961010743
:101E800009D56169FA6900F026FA04D2FA6922F0EC
:101E900070021143F961C1060AD5A169FA6902F419
:101EA000E062914204D2FA6922F4E0621143F961DE
:101EB00080060AD5E069396A01F07001884204D2CF
:101EC000396A21F070010843386200F02DF8B969D1
:101ED000144A114B7A44C1F30321515C01F01F01F4
:101EE000C840B96949F8030001F00F01515C01F0E5
:101EF0001F01C840094949F80100094859F8000084
:101F0000BDE8F84503F03CBC0120BDE8F88500BF02
:101F100000200052004402580C0000001000000095
:101F200004000000763A000010B534490869C0F397
:101F3000C20003280FD0022804BF324810BD40B9A8
:101F400008688006334858D50968C1F3C101C84004
:101F500010BD2B4810BD8A6A886ACB6A4C6BC0F3EF
:101F60000510F0B103F00103C4F3CC0402F0030246
:101F70006343022A00EE103AB8EE400A13D0AAB921
:101F80000A68920651BF9FED221A0A68C2F3C10285
:101F9000204B42BF23FA02F201EE102AB8EE411A9A
:101FA00006E0002010BD9FED191A01E09FED161A02
:101FB0000A6B9FED193A6FF35F2202EE102AB8EE1A
:101FC000422A00EE032AB7EE000A32EE000A02EEC1
:101FD000100A086BC0F34620B8EE422A013081EEA9
:101FE000021A21EE000A01EE100AB8EE411A80EE44
:101FF000010ABCEEC00A10EE100A10BD00440258DF
:1020000000093D0000366E010024744A001BB74BE6
:102010000024744C0090D0030000003970B586B0E5
:102020000D46014614462148214EE9B1316800F5BC
:10203000006041F004013160316801F00401009159
:1020400003210491022102914FF4007101910021BA
:1020500005910391009901A901F044FA1548E401A2
:10206000305820F07E4019E0316841F001013160C4
:10207000316801F0010100910321049102210291D4
:102080004FF480710191002105910391009901A9FC
:1020900001F028FA0748305820F0FE7044EA0501A4
:1020A00008430449705006B070BD00BF00000258DC
:1020B00040450258D0FEFFFF0248016841F400216C
:1020C00001607047004402580248016821F4002171
:1020D000016070470044025880B5FFF725FF0C49A6
:1020E0000A680E4B09687B4401F00F01C2F303221A
:1020F000595C9A5C01F01F0102F01F02D040054AB2
:1021000049F80200C840044949F8010080BD00BFF9
:10211000184402580C000000100000006438000051
:1021200080B5FFF7D9FF03490968034A7A44C1F330
:102130000211D4E01C4402581E38000080B5FFF79D
:10214000CBFF03490968034A7A44C1F30221C6E080
:102150001C440258023800003F2101603A490A68D5
:1021600002F4A012B2F5802F02D14FF4A0220EE0AB
:102170000A6802F4A012B2F5A01F02D14FF4A8120F
:1021800005E00A68D20354BF00224FF48032426057
:102190000A6802F08002C261CA680B6803F001039A
:1021A000C360C2F3056202624A68C2F3066202615A
:1021B0000A6F02F08402042A01D105220BE00A6FA3
:1021C00002F08402842A01D1852204E00A6FD2073A
:1021D0000CBF0022012282604A6F02F001024261BC
:1021E0000A68C2F3003282610A68D2014FF002022B
:1021F00058BF012242628A6A02F0030282628A6A3E
:10220000C2F30512C2620A6B6FF35F2201320263EE
:102210000A6BC2F306620132C2630A6BC2F3462242
:10222000013242630A6BC2F3064201328263CA6A18
:1022300002F00C020264CA6AC2F340024264496BB3
:10224000C1F3CC0181647047004402583F22026010
:10225000114A52F8083C03F007034360136803F483
:1022600070638360136803F00F03C360136803F0A7
:1022700070030361536803F070034361536803F410
:10228000E0638361926802F07002C26103480068F3
:1022900000F00F00086070471844025800200052F8
:1022A00010B5054C2068400504D500F007F84FF440
:1022B0008060606010BD00BF6444025870473060A9
:1022C00003F060BA411B0320022970473067306F6A
:1022D00020F08000704702F0700291427047515C1C
:1022E00001F01F01C84080BD3060306820F48010CC
:1022F000704700002DE9F04D0446C078A54F000757
:102300001CD5A06E4FEA3051032908D8DFE801F050
:1023100002090C11F96941F40031F96109E0012663
:102320000DE001F0BFF801E001F06AF8064630B9AF
:10233000A06E396C21F4401108433864002660789F
:10234000BB46C00701D1354620E0606D04280BD89C
:102350003546DFE800F0030C0F121200F86935462D
:1023600040F40030F86108E0012501270FE001F09A
:1023700082F801E001F08CF805462F463DB9606D0A
:1023800001F081F821F0070101F09CF837466078F0
:1023900080071ED5A06D4FEAB010052807D8DFE8EA
:1023A00000F003090C0F0F0F01F004F808E00125FD
:1023B00001260FE001F05FF801E001F069F8054641
:1023C0002E463DB9A06D01F05EF821F4E07101F0F8
:1023D00079F83E46607840071ED5E06D4FEA7020E0
:1023E000052807D8DFE800F003090C0F0F0F00F0F5
:1023F000E1FF08E0012501270FE001F03CF801E0D2
:1024000001F046F805462F463DB9E06D01F03BF876
:1024100021F4606101F056F83746E07880071DD559
:10242000A06C4FEA3010032806D8DFE800F00B025A
:10243000080B00F0BFFF05E0012501260FE001F0C9
:1024400031F805462E4655B9A06CDBF83C10002546
:102450005A4621F030010843CBF83C003E466078F4
:10246000C0061ED5206E4FEA3030042807D8DFE8BA
:1024700000F003090C0F0F0000F09CFF08E001259D
:1024800001270FE000F0F7FF01E001F001F8054639
:102490002F463DB9206E00F0F6FF21F4E04101F037
:1024A00011F83746607880061BD5606E4FEA3040E1
:1024B000052807D8DFE800F00C03090C0C0C00F02D
:1024C000DEFF04E0012501260CE000F0CFFF054609
:1024D0002E463DB9606E00F0D6FF21F4E02100F0F9
:1024E000F1FF3E46607840061ED5D4F8AC004FEAB6
:1024F0003070062808D8DFE800F00D040A0D0D0D35
:102500000D0000F0BCFF04E0012501270DE000F004
:10251000ADFF05462F4645B9D4F8AC0000F0BDFF2D
:1025200021F0E04100F0D5FF37466078000616D56F
:10253000606F58B1B0F1005F05D0B0F1805F22D17B
:1025400000F038FF02E000F09AFF05462E463DB944
:10255000606F00F098FF21F0405100F0B3FF3E465D
:10256000E078C00702D1B0465F4622E0606C5F466B
:1025700003280BD8DFE800F013021013F86940F4C9
:102580000030F8610BE001250126E9E701254FF055
:1025900001080EE01044025800F084FF0546A846EA
:1025A0003DB9606CF96B0025B04621F0030108438A
:1025B000F863A078400601D4474616E0D7F8F00348
:1025C00040F48070C7F8F00303F0DCF80646D7F853
:1025D000F003C00507D403F0D5F8801B6428F6D9B2
:1025E0000325032701E02F4685B12078C00748D096
:1025F000D4F880004FEAF000052832D8DFE800F078
:1026000037033437373700F03AFF2FE0DBF860103C
:10261000D4F8B0005D46414011F4407F0BD0296EE4
:102620002A6E42F480322A6621F440712A6E22F426
:1026300080322A662966B0F5807F40F0CA8103F0B7
:10264000A1F8064641F2883A0327DBF860008007CC
:1026500000F1BC8103F096F8801B03255045F4D9A6
:10266000C3E7012501260DE000F000FF05462E46D8
:1026700045B9D4F8800000F020FF21F0380100F0C7
:102680002CFF3E462078800719D5E06F052807D833
:10269000DFE800F00C03090C0C0C00F0F0FE04E085
:1026A000012501270CE000F0E1FE05462F463DB96B
:1026B000E06F00F002FF21F0070100F00EFF374647
:1026C000207840071BD5D4F89800052807D8DFE804
:1026D00000F00C03090C0C0C00F0D1FE04E0012505
:1026E00001260DE000F0C2FE05462E4645B9D4F89D
:1026F000980000F0D2FE21F0070100F0EAFE3E460D
:10270000207880061DD5D4F894004FEA3070052853
:1027100007D8DFE800F00C03090C0C0C00F0ABFE4E
:1027200004E0012501270DE000F06AFE05462F4672
:1027300045B9D4F8940000F0C0FE21F0E04100F06B
:10274000CCFE3746207840061DD5D4F8A0004FEACD
:10275000B020052807D8DFE800F00C03090C0C0CAA
:1027600000F089FE04E0012501260DE000F048FE9E
:1027700005462E4645B9D4F8A00000F08EFE21F49F
:10278000E05100F0A6FE3E46207800061DD5D4F8A4
:10279000A4004FEA7030052807D8DFE800F00C03EA
:1027A000090C0C0C00F067FE04E0012501270DE088
:1027B00000F026FE05462F4645B9D4F8A40000F0E7
:1027C0006CFE21F4604100F084FE3746206801076A
:1027D00014D5D4F88810B1F5805F07D100F010FE51
:1027E000002818BF01272068D4F88810DBF844209F
:1027F0005B4622F440521143CBF84410C10614D575
:10280000D4F89C10B1F5807F07D100F0F9FD0028C5
:1028100018BF01272068D4F89C10DBF848205B46DD
:1028200022F440721143CBF84810000318D5D4F8B5
:10283000A800B0F5003F09D0B0F5803F03D010BB31
:1028400000F019FE01E000F0DBFD05462E4645B91B
:10285000D4F8A80000F021FE21F4403100F039FE48
:102860003E46A07840071ED5D4F88C00B0F5401F36
:102870000FD0B0F5001F09D0B0F5801F40F0A38045
:1028800000F098FD05E001250126EAE700F0EEFDE5
:1028900005462F4645B9D4F88C0000F00EFE21F411
:1028A000401100F01AFE3746A078C00701D13E461D
:1028B00019E0E06CB0F5803F03D090B900F07AFDEC
:1028C00002E000F0EFFD05462E4665B9E06CDBF84E
:1028D0003C1000255A4621F480310843CBF83C00D7
:1028E000E5E7012501262068810005D500F088FD77
:1028F000002818BF0126206881031CD5D4F8841055
:102900006FF0010202EB3122022A0AD34FEA312290
:102910003AB1012A06D1DBF81C2042F40032CBF890
:102920001C200DB1012606E0DBF8442022F44072A1
:102930001143CBF84410C10207D5A16FDBF840204A
:1029400022F000421143CBF84010810207D5E16E1E
:10295000DBF8402022F080721143CBF840100105D3
:1029600007D5216FDBF8482022F000621143CBF835
:10297000481041000CD5DBF8001021F40041CBF8E1
:102980000010D4F8B410DBF800201143CBF800108D
:10299000B0F1FF3F07DC216DDBF83C2022F0405214
:1029A0001143CBF83C10000207D5D4F89000DBF8B7
:1029B000441021F4400100F090FD002E18BF0126C4
:1029C0003046BDE8F08D012501276DE75D46D4F85E
:1029D000B0002A68094900F4407322F47C5201EAED
:1029E0001011B3F5407F6FF31F3008BF0A432A6010
:1029F000296E084328660025DEE500BFCFFFFF00F3
:102A0000F8B52F4F0546B86A00F00300032804BF4D
:102A10000120F8BD38680C4620F0806000F056FDBB
:102A200006463868000105D502F0ACFE801B02287E
:102A3000F7D941E095E80F00BE6A26F47C360139EB
:102A400046EA003000F0E1FCB8636869F96A21F0F9
:102A5000C0010843F862A869F96A21F0200108431F
:102A6000F8624FF6F871F86A20F01000F862F86B1F
:102A70008843E969012C40EAC100F863F86A40F034
:102A80001000F8624FF4001008BF4FF48010002CC3
:102A900008BF4FF40020F96A0843F862386840F034
:102AA000806000F013FD04463868000106D402F08F
:102AB00069FE001B0328F7D30320F8BD0020F8BDF2
:102AC00000440258F8B52F4F0546B86A00F00300DD
:102AD000032804BF0120F8BD38680C4620F0805060
:102AE00000F0F4FC06463868800005D502F04AFE86
:102AF000801B0228F7D941E095E80F00BE6A26F056
:102B00007C76013946EA005000F07FFC3864686941
:102B1000F96A21F440610843F862A869F96A21F46E
:102B200000710843F8624FF6F871F86A20F480707B
:102B3000F862786C8843E969012C40EAC100786446
:102B4000F86A40F48070F8624FF0807008BF4FF46C
:102B50000000002C08BF4FF48000F96A0843F862B7
:102B6000386840F0805000F0B1FC044638688000BE
:102B700006D402F007FE001B0328F7D30320F8BD9C
:102B80000020F8BD004402586FF0A05101605F4979
:102B90008A69C2F3055242620A6B6FF35F22013207
:102BA00082620A6BC2F30662013242630A6BC2F3AD
:102BB00046220132C2620A6BC2F30642013202634C
:102BC000CA69C2F381228263CA69C2F34022C26326
:102BD0008A69C2F3053242608A6A6FF35F2201326A
:102BE00082608A6AC2F30662013242618A6AC2F373
:102BF00046220132C2608A6AC2F306420132026191
:102C0000CA69C2F381128261CA69C2F34012C26109
:102C10004A6C02F03802C0F880204A6C02F00702C9
:102C2000C2678A6C02F00702C0F898204A6C02F46E
:102C30004052C0F888204A6C02F0E042C0F894206C
:102C40008A6C02F4E052C0F8A0208A6C02F4604260
:102C5000C0F8A4200A6C02F0070242650A6C02F474
:102C6000E07282650A6C02F46062C2650A6E02F468
:102C70004072C0F8B0204A6C02F44012C0F88C20B8
:102C8000CA6B02F48032C2644A6C02F44072C0F82B
:102C900084208A6C02F44032C0F8A8200A6C02F04A
:102CA000004282670A6C02F08072C2668A6C02F08F
:102CB000006202670A6C02F4401282660A6C02F437
:102CC000E04202660A6C02F4E02242668A6C02F07C
:102CD000E042C0F8AC200A6C02F0405242674A6CF5
:102CE00002F44002C0F89020CA6B02F00302426472
:102CF000CA6B02F030028264CA6B096801F40041B9
:102D0000C0F8B41002F040510165704710440258F9
:102D1000F8B5B0F5002F00F05F80B0F5007F21D04E
:102D2000B0F5806F00F06780B0F5805F00F07080D4
:102D3000B0F5804F23D0B0F5004F31D0B0F5803FD3
:102D40003ED0B0F5807F40F0CF807949086D00F02B
:102D50000702042A00F2C8807748DFE802F06567BE
:102D60006EC676007249086DC0F38212042A00F222
:102D7000BB807148DFE802F0585A61B969006C49BC
:102D8000886DC0F30272062A00F2AE806A48DFE85E
:102D900002F00499A0A8AEB2AC0000F0A7F9A4E03C
:102DA0006348016D01F04051B1F1005F00F06A80AD
:102DB000B1F1805F68D0002940F0968000689BE008
:102DC0005B48C16C0068C9035FD5000140F18C808D
:102DD00001A800F0FFF873E05548816D01F440311F
:102DE000B1F5003F57D0B1F5803F63D0002940F0E6
:102DF0007B8000681BE04E49086DC0F34222042A24
:102E000000F272804C48DFE802F00F1118702000C9
:102E10004749086DC0F30232042A65D84648DFE806
:102E200002F003050C64140008682EE00868000135
:102E30005AD501A800F0CEF805E00868800053D507
:102E400001A800F00DF901984FE0C86C0B6810F074
:102E50004052086805D113F0040302D0C0F3C1004A
:102E600024E0B2F1805F02D110F480704FD1086885
:102E700010F400301CBF43F20060C0F26E10B2F1DB
:102E8000005F52E000681EE0006880012CD501A8B8
:102E900000F058F823E0C16C0368026811F040515B
:102EA0002FD113F004032CD0C2F3C100244921FA1E
:102EB00000F01AE00068800016D501A800F0D0F8F4
:102EC000039812E0086800010ED501A800F082F80E
:102ED00005E00868800007D501A800F0C1F8029855
:102EE00003E00868400714D4002004B080BD0868DF
:102EF0001249C00502E0086880030E4901EAE0704B
:102F0000F3E7B1F1805F06D112F4807203D00B4871
:102F1000EBE70868A2E7006810F400301CBF43F23A
:102F20000060C0F26E10B1F1005F18BF0020DCE756
:102F30000044025800366E010080BB0000093D00CD
:102F40000090D003B0B51D498B6A8A6ACC6A4D6B7C
:102F5000C2F305126AB104F0010400F07CFA0CD04F
:102F6000012B0DD013B90B689B060CD49FED161ADC
:102F700013E00021C0E900111DE09FED121A0CE0E2
:102F80009FED0F1A09E00B68104CC3F3C10324FA3C
:102F900003F301EE103AB8EE411A0B6B9FED0C3AB9
:102FA00000F04CFA0A6B00F0EEF90A6B00F019FA27
:102FB000096B00F007FA8160B0BD00BF0044025801
:102FC0000024744A001BB74B0024744C0090D003BB
:102FD00000000039B0B51C498B6A8A6ACC6ACD6B97
:102FE000C2F30532B2B1C4F3001400F034FA15D0C4
:102FF000BBB90B689B0651BF9FED161A0B68C3F354
:10300000C103154C42BF24FA03F301EE103AB8EEA7
:10301000411A08E00021C0E9001112E09FED0C1AEE
:1030200001E09FED0A1A8B6B9FED0C3A00F006FA57
:103030008A6B00F0A8F98A6B00F0D3F9896B00F075
:10304000C1F98160B0BD00BF004402580024744A39
:10305000001BB74B0024744C0090D00300000039D3
:10306000B0B51C498B6A8A6ACC6A4D6CC2F30552B2
:10307000B2B1C4F3002400F0EEF915D0BBB90B686F
:103080009B0651BF9FED161A0B68C3F3C103154C85
:1030900042BF24FA03F301EE103AB8EE411A08E0F9
:1030A0000021C0E9001112E09FED0C1A01E09FED34
:1030B0000A1A0B6C9FED0C3A00F0C0F90A6C00F094
:1030C00062F90A6C00F08DF9096C00F07BF98160FF
:1030D000B0BD00BF004402580024744A001BB74B27
:1030E0000024744C0090D0030000003980B5FEF736
:1030F000F3FF02490968024A7A44D7E120440258A2
:103100005228000080B5FEF7E7FF02490968024A2D
:103110007A44CBE1184402583A28000080B5FEF703
:1031200003FF0C490A680E4B09687B4401F00F014C
:10313000C2F30322595C9A5C01F01F0102F01F02E6
:10314000D040054A20FA01F149F80200034A49F843
:10315000021080BD184402580C000000100000004E
:10316000202800000248016841F0200101607047FA
:10317000704402580448016921F02001016101688E
:1031800021F4007101607047604402580A480169E7
:1031900041F020010161016841F4007101600748BC
:1031A000016841F4802101604FF0B040016841F4B2
:1031B00080210160704700BF6044025880000058C1
:1031C00003490A6822F0400210430860704700BFBC
:1031D0001044025803490A6822F080021043086034
:1031E000704700BF1044025810B5044616480168E5
:1031F00041F002010160016821F00201016001F06B
:1032000067FC41F20303D4E90012984204D8B2F1FA
:10321000405F01D1A06802E042EA0100A16804F128
:103220000C0308430ECB0843084940EA02404860BB
:10323000086820F47C5040EA03200860086840F0E9
:103240006000086010BD00BF944402580084004034
:103250000248016841F0800101607047008400402D
:1032600007494A6892B202600A688B681B0C836047
:10327000C2F305224260896801F40041C1607047D1
:10328000008400402DE9F04D0446204E02F07AFA09
:103290008246671C04254FF0020B4FF001086FB106
:1032A00002F070FAA0EB0A00B4FA84F1A0424FF0E9
:1032B000000088BF01204909084300E00020316870
:1032C000C90702D00230C6F804803168890702D5E8
:1032D0000430C6F804B03168490501D52030756066
:1032E0003168C90502D540F008007560316889056C
:1032F00002D540F0100075603168090701D508213A
:1033000071600028CBD0BDE8F08D00BF088400407C
:10331000134881680268CB0701D0D3070CD18B0713
:1033200001D593070CD40B0701D513070CD44B0719
:1033300001D552070CD470470121C16000F012B8CA
:103340000221C16000F00FB80821C16000F00CB884
:103350000422C260382000EA511000F006B800BF15
:103360000084004070477047704770470448016808
:10337000890558BF70474FF40071416000F002B8F2
:10338000644402587047C2F34622B8EE433A32EE24
:10339000002A81EE031A21EE021A02EE102AB8EE7C
:1033A000422A32EE002A81EE022ABCEEC22A80EDC9
:1033B000002A7047DBF81C00594640F40030CBF877
:1033C0001C007047C1F3066102EE101AB8EE422AE3
:1033D00032EE000A81EE000ABCEEC00A10EE101AAE
:1033E0007047C2F3064202EE102AB8EE422A32EECD
:1033F000002A81EE022ABCEEC22A80ED012A704723
:1034000004F124000221FFF75DBBB8626FF35F2176
:103410004FF47E4000EB42204FF0FE4280B2084461
:103420004FF4FE0101EB034101F4FE010844296958
:1034300002EB016101F0FE41084470476FF35F2326
:1034400002EE103AB8EE422A00EE032A03EE102AEA
:10345000B7EE000A7047C5F3CC0503F003036C43D5
:10346000022B00EE104AB8EE400A704704F1240027
:103470000121FFF727BB201D0021FFF7C1BA201D46
:103480000121FFF7BDBADBF8401000255A4670470E
:1034900004F124000021FFF715BBDBF848100025DC
:1034A0005A467047201D0221FFF7AABAC1F3021144
:1034B000515C01F01F01C84080BDDBF844100025BD
:1034C0005A4670470843CBF840007047386002F016
:1034D00059B90843CBF8480070470843CBF844007B
:1034E000704700002DE9F04D85B0614A0A244FF085
:1034F000000B90425F4A08BF0924019002444FEA42
:10350000B223092B38BF4FEAB22400940291002263
:1035100000200E6836FA0BF700F0A680012303FAAC
:103520000BF716EA070E00F09A80D1F804C0039258
:103530000CF00308A8F10106012E16D8032202FAA6
:1035400000F6019A6FEA060A9568CC68B543844094
:103550002C439460CCF300145568BD4304FA0BF47B
:103560004FEA4B072C4354600CE003240746019AB2
:1035700084406FEA040AB8F1030F03D107464FF005
:10358000030821E0D468029904EA0A048D68BD406A
:103590002C43D460B8F1020F16D1039A0F2302F026
:1035A0001C04019A03FA04F56FF0030303EA5B06B7
:1035B0001644336AAB430D6905FA04F423433362BE
:1035C000D1F804C00CF00308146808FA07F304EA01
:1035D0000A04234313601CF4403FDDE902123ED08D
:1035E000264C274F236843F00203236023680F24EF
:1035F00003F002030493049D02F00C032BF0030577
:103600009C40EE5926EA0404009E06FA03F3234385
:10361000EB514FF0B0473B684D6843EA0E04EE02B1
:1036200058BF23EA0E043C60134FAE023B6843EAE6
:103630000E0458BF23EA0E043C60AE03D7F8803076
:1036400043EA0E0458BF23EA0E04C7F88040ED0396
:10365000FB6F43EA0E0458BF23EA0E04FC670432F2
:1036600002300BF1010B54E705B0BDE8F08D00BF4F
:10367000002402580000FEA70400005854450258D8
:10368000080400582DE9F84D364B0A224FF0000A85
:103690009842354B08BF092203444FEAB324092C52
:1036A00038BF4FEAB32200920026002331FA0AF70E
:1036B00055D0012202FA0AFC1CEA010E4AD006F09B
:1036C0000C070F2235464FEA9A0802FA07F6284AF5
:1036D00052F828B0009C0BEA060204FA07F7BA4237
:1036E0001AD1224CE26F22EA0E02E267D4F880205F
:1036F00022EA0E02C4F88020226822EA0E0222602A
:103700004FF0B044226822EA0E022260184C54F8AE
:103710002820B24344F82820032207680F242E46AD
:103720009A401743076005F01C0704FA07F76FF08B
:10373000030404EA5A040444256ABD432562C468AC
:103740009443C460446824EA0C044460846824EA16
:1037500002028260043602330AF1010AA6E7BDE8DC
:10376000F88D00BF002402580000FEA70400005896
:10377000080400580069084018BF01207047002A5B
:1037800008BF090481617047426902EA010391435D
:1037900041EA03418161704781B04FF48032009269
:1037A000009A0A430092009AC261C1610099C16106
:1037B000C1690091C069012121EA104001B0704740
:1037C00003490A68024208BF7047086000F002B867
:1037D0008800005870470000054A1143054A42F826
:1037E000201052F82000401A18BF0120704700BF77
:1037F0000001008000080248034951F820000349F5
:10380000401A18BF0120704780080248000100805C
:10381000024951F82000C00F704700BF000802485D
:10382000024A41F4807142F82010704700080248B3
:10383000090241EA00400149086070474009024816
:1038400002490A68C2EA0040086070474409024819
:1038500001480068000C70474409024802490A68A0
:1038600010430860704700BF0009024802490A6817
:1038700022EA000008607047000902480349C8684E
:103880000A6882430A60486000F002B800090248F2
:1038900070470000F8B5044601F074FF9CB105467E
:1038A000022020640020E0632068C16821F001014B
:1038B000C160C168C90708D001F064FF401B05283A
:1038C00037D82068F5E70120F8BDD4E9033504F1C5
:1038D0002407D4E901CE24492B43C360E8CF01EB90
:1038E0008541D4E905522A43E5692A43256A2A43DA
:1038F0001A4332433A4342EA0E0211430161BCF1DA
:10390000804F03D1016941F04041016100214161D3
:10391000626BB2F1FF3F04DC4169524241F4802105
:10392000416191B20162A26BB2F1FF3F05DD120469
:103930000AE001200322402113E0416941F4002103
:1039400041610021A1EB0242016A1143016201229F
:103950005FFA8CF181620021C4E91811A16641620D
:103960000020E1662264F8BD0000FCFFC8B10268D7
:1039700001461F23D06820F00100D0600020D060F5
:10398000106150619061D06110625062906210636A
:1039900050635360C866C1E9180088660864C8634C
:1039A00070470120704710B520B1C36B012B03D1C4
:1039B000022117E0012115E0036C012B0AD10368F5
:1039C0001C69640006D419635A631A6921B142F074
:1039D000004103E0012103E022F0004119610021D0
:1039E0000022C263084610BD20B1C36B012B03D176
:1039F00002211BE0012119E0036C012B08D10529EC
:103A000011D8DFE801F00307090B0D0F82640AE00B
:103A1000012109E0C26406E0026504E0426502E0BB
:103A2000826500E0C26500210022C263084670473B
:103A300010B598B10446C06B012804BF022010BD28
:103A4000206C01280CD106290AD8DFE801F0040D0A
:103A5000101316191C000020A06402E0012010BD04
:103A600001200021E16310BD0020E064F9E700209F
:103A70002065F6E700206065F3E70020A065F0E729
:103A80000020E065EDE704F14800182101F038FF5F
:103A90000020E6E72DE9F04D38B331B30022426152
:103AA000826102624262C2613A4DD1E904CED1E93B
:103AB000068BD1E90872D1E90A344EEA0C0646EACF
:103AC000080605EB8245D1E900A246EA0B063E4313
:103AD000334323431A432A430260BAF1804F07D18C
:103AE000026842F08042026004E00120BDE8F08DEF
:103AF0008A6C1AB1026842F0004202600B6B4A6C99
:103B0000254CB3F1FF3F04EB0252426004DC4268F3
:103B10005B4242F4802242609AB202614B6BB3F185
:103B2000FF3F01DD1B0406E0426842F400224260D0
:103B30000022A2EB034302691A430261D1E90E435A
:103B40000A6C45682A434260C3608460BAF1804FC2
:103B500006D05FFA8AF28261D1E9122102624162E3
:103B600044F0005101F07F41B1F1005F02BF816973
:103B700041F48031816143F0005101F07F41B1F1A6
:103B8000005F02BF816941F4003181610020BDE81E
:103B9000F08D00BF0000FCFF0000F0FFF0B5D8B1D1
:103BA000D1B1C36B012B1BD0036C012B16D10223A7
:103BB0000364046ECCB18C4215D0836E002526467A
:103BC00000277FB99D420DD27769013576697F1A4A
:103BD000B7FA87F77F09F4E7012337E00021C163D3
:103BE000022333E05FB101232CE0012352BB0268C2
:103BF00051628366C0E9181100234B6122E0456ED3
:103C0000954218BF002A07D16A694A615A1CC0E967
:103C100019126961002315E001260025F7070FD06E
:103C20009D420DD20135944202D064690126F5E728
:103C300054694C6101338366516100261446EDE7F7
:103C400006F00103012101640021C1631846F0BDA3
:103C5000F0B548B341B3C26B012A29D0026C012AE6
:103C600024D1022202644FF0010C046E14B3456E9D
:103C700005B3836EF3B18C4226D001270026FA07E4
:103C80001FD09E421DD2013662698A4202D0646909
:103C90000127F4E78D4201D125464466013B836646
:103CA00000274A696261EAE7012108E00021C16357
:103CB000022104E00121C0F840C00022C26308468E
:103CC000F0BD07F00101F6E78D420DD06E69A64206
:103CD00001D14C696C61496904686162591E816651
:103CE000616A01660021E6E703680021C0E9181156
:103CF00081665962DFE710B520B1C16B012903D19C
:103D0000022116E0012114E0016C002201294FF08C
:103D100000010BD102210164016E31B1436E23B168
:103D2000846E14B15961002100E001210123036474
:103D3000C263084610BD20B1C16B012903D1022125
:103D400016E0012114E0016C002201294FF000016E
:103D50000BD102210164016E31B1436E23B1816E3A
:103D600011B10021596100E0012101230364C26304
:103D700008467047F8B528B30546C06B012825D022
:103D80000120E863286C01281ED102242C640698C7
:103D90000024EC662E68F76827F00107F7600090B2
:103DA000284600F017F8D5E90001B1F1804FC2684C
:103DB00042F00102C2600AD1C168002441F480319E
:103DC000C16004E0012402E00020E86302242046F0
:103DD000F8BD00BFB0B50468656963F3100565619F
:103DE000154B03F5602365692B40049D43EA055399
:103DF000A3F5801363611F236360E261A16141F059
:103E0000005101F07F41B1F1005FA16A14BF21F4BC
:103E1000803141F48031A16242F0005101F07F41D4
:103E2000B1F1005FA16A14BF21F4003141F4003107
:103E3000A162006E6062B0BDFFFF01007CB5D8B327
:103E40000446C06B01283BD00120E063206C0128B0
:103E500034D10225256406980025E5662568EE68BC
:103E600026F00106EE6000902046FFF7B3FF2068C1
:103E7000216DC26842F00602C26019B1C16841F00A
:103E80001001C160616D19B1C16841F00801C160E4
:103E9000E16C19B1C16841F02001C160C16841F015
:103EA0000101C1606168B1F1804F03D1C16841F483
:103EB0008031C16000207CBD01207CBD0020E0631A
:103EC00002207CBDB0B5044601F05CFC54B305464D
:103ED000206C022812D12068C16821F03E01C16027
:103EE000C16821F00101C160C168C9070BD001F0B0
:103EF00049FC401B05280DD82068F5E70020E06349
:103F00008020E0660EE01F2141600020E063012177
:103F10002164B0BDE06E40F04000E0660020E06348
:103F2000032020640120B0BD68B1016C022908D1D2
:103F3000042101640068C16821F00101C160002012
:103F400070478021C166012070472DE9F84500289F
:103F50005DD00446006C022807D11646884639B168
:103F6000B8F1010F06D1102509E08020E0664EE08F
:103F7000022504E00425B8F1020F08BF082501F06E
:103F800001FC8246771C21680868284210D1086825
:103F9000C00718D1002FF6D001F0F4FBA0EB0A0007
:103FA000B04201D8002EEED1E06E40F040002AE091
:103FB000B8F1030F2ED0B8F1020F2DD0B8F1010FD8
:103FC0002FD1102029E0886801064FF0020158BF68
:103FD0000121E26E1143E166810503D5E16E41F0F6
:103FE0000401E166C10503D5E16E41F00801E16617
:103FF000410503D5E16E41F01001E166000503D5EE
:10400000E06E40F02000E0662046FFF75BFF0120F5
:10401000BDE8F8851C2000E0182048600020BDE8BD
:10402000F8850120B8F1000FF9D11E224A60002165
:10403000E1632064F2E778B101680A69CB68DB07C5
:1040400001D1802107E00B68DB0302D412F080422B
:1040500004D14FF48071C16601207047C86840F4F4
:104060008030C86000207047BCB504460020019035
:10407000514859F800504FF0A4400168206800F5FD
:10408000F862C2F38412D140C90700F0938001683E
:10409000C90729D0C168890726D5C16821F0020166
:1040A000C16081680A064FF0020258BF0122E36E28
:1040B0001A43E2668A0503D5E26E42F00402E26624
:1040C000CA0503D5E26E42F00802E2664A0503D54E
:1040D000E26E42F01002E266090503D5E16E41F09E
:1040E0002001E166012141600168C90609D5C16866
:1040F000890606D510214160E16C11B12046884740
:1041000020680168090709D5C168C90606D50821D4
:104110004160216D11B12046884720680168490738
:1041200009D5C168090706D504214160616D11B147
:104130002046884720680168890719D5C168490762
:1041400016D5C16821F03E01C160216C042905D15A
:10415000012020640020E063E16D28E0022141603D
:104160000020E06301202064A16C09B1204688474B
:10417000E06EF8B14FF41650B5FBF0F10420206466
:104180002068C26822F00102C260019A01320192E5
:104190008A4202D8C268D207F7D10021E163C06821
:1041A000C0074FF0030008BF01202064A16D09B1D2
:1041B00020468847BCBD00BF0C000000006C704763
:1041C000C06E7047704700BF0248016841F48071BB
:1041D00001607047004802580248016821F480716C
:1041E0000160704700480258C0B3D0E900211C4864
:1041F000036823F0E0031A4302601A48D0F88020D5
:1042000022F48032C0F88020C26F22F48032C2676C
:104210004FF0B042136823F480331360026822F435
:1042200080320260CA0303D5C26F42F48032C26793
:104230008A0305D5D0F8802042F48032C0F880206F
:10424000CA0705D04FF0B042136843F480331360BF
:10425000890703D5016841F480310160704700BFD0
:104260000048025804000058004889E000480258FD
:10427000004880E0004802580349044B0A681A408D
:1042800010430860704700BF28480258C0C000F0C3
:104290006FF03F0161EA000002490A6810400860BF
:1042A000704700BF2848025804480129026822F0DC
:1042B0000402026014BF20BF30BF704710ED00E061
:1042C0000D4A136823F00103184310601069012997
:1042D00020F0050010610948026842F00402026003
:1042E000BFF34F8FBFF36F8F14BF20BF30BF016884
:1042F00021F00401016070470048025810ED00E011
:104300000748016841F0050101600648016841F075
:1043100004010160BFF34F8FBFF36F8F30BF704751
:104320001048025810ED00E00248016841F0020117
:104330000160704710ED00E00248016821F00201C1
:104340000160704710ED00E0004819E010ED00E05A
:10435000004810E010ED00E005480168C90358BFAF
:104360007047016841F48031016000F003B800BF7C
:10437000880000587047016821F010010160704703
:10438000016841F01001016070470000B0B50F4DA9
:104390002A682968520705D401F00701081A18BFD6
:1043A0000120B0BD21F00701084300F0A2FA044645
:1043B00055F8080C800406D401F0E4F900F095FAF1
:1043C000F6D90120B0BD0020B0BD00BF0C48025896
:1043D0000248006800F00700704700BF0C48025810
:1043E000B0B50D4D296801F44041814201D1002052
:1043F000B0BD696921F440410843686101F0C2F928
:10440000044628688004F2D401F0BCF900F06DFA8B
:10441000F7D90120B0BD00BF044802580248006827
:1044200000F44040704700BF0448025803490A683E
:1044300022F44042104308600020704700480258B0
:104440000248006800F44040704700BF004802582E
:104450000F4A136823F00103184310601069012903
:1044600040F001001061106920F00400106109485B
:10447000026842F004020260BFF36F8FBFF34F8FF8
:1044800014BF20BF30BF016821F0040101607047F4
:104490000048025810ED00E010B5104C236823F0DE
:1044A000010318432060236912B104F1100010E0E9
:1044B00023F00100206101290948026842F004024A
:1044C0000260BFF34F8FBFF36F8F14BF20BF30BFA9
:1044D000036823F00401016010BD00BF00480258CA
:1044E00010ED00E020BF704708490A6818B142F09B
:1044F00004000860704742F0010008600448016849
:1045000041F00401016030BF704700BF10480258FD
:1045100010ED00E003490A6822F4006210430860CD
:10452000704700BF104802580248016841F400710A
:1045300001607047004802580248016821F4007188
:10454000016070470048025802490A681043086039
:10455000704700BF004802580049CDE100480258AA
:1045600070B5D0E900121E244FF440354FF4807628
:10457000806891FAA1F3B3FA83F304EA430405FADD
:1045800004F403F01F0506FA05F50D432C430D4D09
:104590002E6826EA0404102606EB4306083303F0CF
:1045A0001F0306F01E069A40B0400A431043204302
:1045B00028600548026822F0FC5242EAC1510160BD
:1045C00070BD00BF2848025890000058004993E190
:1045D0002848025801490968084070472448025891
:1045E00004490A6802430A604968084018BF01206C
:1045F000704700BF2048025819484168C90711D1C7
:104600004168890714D44168490717D441680907EC
:104610001AD442680168D2061CD441F0200101601E
:1046200000F025B8016841F00101016000F01AB8FE
:10463000016841F00201016000F015B8016841F025
:104640000401016000F010B8016841F00801016048
:1046500000F00BB841F01001016000F007B800BF96
:10466000204802587047704770477047704770473E
:10467000B0B5094D286840F0010000F03AF9044651
:104680002868C00306D401F07DF800F02EF9F7D9B0
:104690000120B0BD0020B0BD08480258B0B5094D9A
:1046A000286820F0010000F024F904462868C003BF
:1046B00006D501F067F800F018F9F7D90120B0BD70
:1046C0000020B0BD08480258B0B5094D286840F038
:1046D000007000F00EF904462868400106D401F08D
:1046E00051F800F002F9F7D90120B0BD0020B0BDAB
:1046F0000C480258B0B5094D286820F0007000F051
:10470000F8F804462868400106D501F03BF800F0AF
:10471000ECF8F7D90120B0BD0020B0BD0C4802581C
:104720000248016841F08071016070470C480258EE
:104730000248016821F08071016070470C480258FE
:1047400005490A6822F4007210430860086840F4C2
:1047500080700860704700BF0C480258024801682A
:1047600021F48071016070470C48025804480168C8
:1047700041F400510160016841F4805101607047CB
:10478000004802580448016821F480510160016822
:1047900021F4005101607047004802580248016846
:1047A00041F0100101607047084802580248016852
:1047B00021F010010160704708480258064800685F
:1047C00000F44000A0F50001B1FA81F14909B0F50B
:1047D000800F18BFC805704708480258064800688F
:1047E00000F44010A0F50011B1FA81F14909B0F5CB
:1047F000801F18BF480570470848025802480068E3
:10480000C0F34040704700BF04480258D0E900217F
:104810001B48036823F4C0231A4302601948D0F8E8
:10482000802022F48032C0F88020C26F22F48032CF
:10483000C2674FF0B042136823F4803313600268FC
:1048400022F480320260CA0303D5C26F42F4803280
:10485000C2678A0305D5D0F8802042F48032C0F8C0
:104860008020CA0705D04FF0B042136843F480336C
:104870001360890703D5016841F4803101607047F6
:1048800000480258040000580248016841F4803191
:1048900001607047004802580248016821F48031E5
:1048A0000160704700480258B0B50D4D0D4C2868A6
:1048B000C00608D52068C00305D5FFF75BFD20685A
:1048C00040F4803020602868C00308D52068C00309
:1048D00005D500F009F8206840F480302060B0BDB4
:1048E00000480258880000587047001BB0F57A7FD6
:1048F0007047286000F046BF0A6822EA000008609E
:104900007047000080B50320FBF79EFCFDF70CFB11
:1049100010490A68124B09687B4401F00F01C2F389
:104920000322595C9A5C01F01F0102F01F02D04083
:10493000094A49F80200C840084949F801000F2017
:1049400000F01EFF08B1012080BDFBF76DFC0020C8
:1049500080BD00BF184402580C0000001000000089
:104960003210000070B5114E044609EB0600406895
:10497000C0B14FF47A71B1FBF0F00D4959F8011054
:10498000B1FBF0F0FBF7CCFC01250F2C0BD850B994
:104990004FF0FF30214600220025FBF765FC49F867
:1049A000064000E00125284670BD00BF040000005D
:1049B0000C000000704700BF80B511481149124A31
:1049C000016000210160426040F675224160826012
:1049D00081600E4AC260C1600822026101610C4A16
:1049E000426141614FF49B7282618161094AC261F7
:1049F000C161094A0262016200F010F8002080BD26
:104A00007C4402583150E90123020002FF072000D4
:104A1000FFC3FFE8F330D740AAE6000C704700BFA1
:104A2000054A04484A4459F800105268114449F8AC
:104A3000001070478C30000004000000014859F855
:104A4000000070478C300000014859F800007047A2
:104A500004000000B0B50A4C09EB04014D68854222
:104A60000BD009EB0401486059F8040000F088FEFF
:104A700018B109EB04014D60B0BD0020B0BD00BF0E
:104A800004000000014848444068704704000000EA
:104A900070B50446074809EB000600F073FE0546B2
:104AA0007068611C18BF044400F06CFE401BA042FB
:104AB000FAD370BD0400000000488CE110E000E073
:104AC00000488DE110E000E00048704700000B0155
:104AD00001480068000C70470010005C0248006844
:104AE0006FF31F30704700BF0010005C0148006882
:104AF000704700BF00F8FF0801480068704700BF1A
:104B000004F8FF0801480068704700BF08F8FF0874
:104B100002490A6822F0700250E100BF003C0058D0
:104B200002490A6822F0020248E100BF003C005836
:104B300002490A6822F03F0240E100BF043C0058ED
:104B4000B0B50A4D286840F00100286000F01AFE58
:104B500004462868000706D400F014FE001B0B284A
:104B6000F7D30320B0BD0020B0BD00BF003C00580B
:104B7000004826E1003C0058034A136823EA00007D
:104B800008431060704700BF0404005800481DE14E
:104B900020040058004814E120040058024801682D
:104BA00041F47021016070472004005802480168F8
:104BB00021F47021016070472004005802490A68FE
:104BC00022F00202FAE000BF2004005841EA00107F
:104BD00002490A6822F0FF02F0E000BF28040058F2
:104BE00041EA001002490A6822F47F42E6E000BF71
:104BF000280400580048E9E00410005C0048E0E0A8
:104C00000410005C0048EBE00410005C0048E2E0A7
:104C10000410005C0248016841F004010160704723
:104C20000410005C0248016821F004010160704733
:104C30000410005C0248016841F080010160704787
:104C40000410005C0248016821F080010160704797
:104C50000410005C0248016841F4807101607047F3
:104C60000410005C0248016821F480710160704703
:104C70000410005C02490A6822F040729EE000BF06
:104C8000004000520248006800F04070704700BFCA
:104C900000400052B0B500F01F02012320F01F00B9
:104CA00003FA02F2094BC4589443C4504FF0B04485
:104CB000055995430551CD0202D5055915430551B6
:104CC000890202D5C1581143C150B0BD040000583B
:104CD00000F01F01012220F01F0002FA01F1024A38
:104CE0008358194381507047080000586FF00F0136
:104CF000012201EA500100F01F0002FA00F0014A0F
:104D0000885070478800005870B5CB030DD501243A
:104D100000F01F0304FA03F3BAB16FF00F04144D4F
:104D200004EA500466593343635189031FD50123B4
:104D300000F01F0103FA01F10E4B03EA500082B1AB
:104D40000B4A10444268114310E06FF00F0202EA70
:104D50005000074A84589C438450890307D5D9439F
:104D600000E0C943024A104442681140416070BDEE
:104D700080000058F0FFFF7FB0B500F01F03012452
:104D80009C400D4B002920F01F01CD5814BF2C432F
:104D900025EA0404CC50C40603F1080458BF1C1DC6
:104DA0001E25635805EA40000325854002FA00F0FD
:104DB000AB4318436050B0BD0C000058104308606E
:104DC0007047016821F0010101607047016841F0FE
:104DD000010101607047016821F002010160704724
:104DE000016841F0020101607047000010B51E48E3
:104DF0001E4A016841F470010160106800F00F0064
:104E0000022804D81068032161F3030010601848D9
:104E1000184C016841F00101016000210161036843
:104E200023400360136813F00C0F04D013680324AD
:104E300064F303031360104A8161C16101628262FD
:104E40000E4AC2620E4A026341638263C163026416
:104E50004164026822F4802202600166094843F23C
:104E6000D201016010BD00BF88ED00E000200052BB
:104E7000004402587FEDF6EA000202020000FF0142
:104E8000800201010040005210B53C480169C1F3A5
:104E9000C202032A04D83A49DFE802F00259090B9A
:104EA00001683A4AC1F3C10122FA01F14FE03949E0
:104EB0004DE0826A816AC36A446BC1F30511D1B1C6
:104EC00003F00103C4F3CC0402F003026343022A9B
:104ED00000EE103AB8EE400A0FD0012A10D0002A96
:104EE00002682A4BC2F3C10223FA02F201EE102A31
:104EF000B8EE411A06E0002129E09FED231A01E0F7
:104F00009FED201A026B9FED223A6FF35F2202EEB3
:104F1000102AB8EE422A00EE032AB7EE000A32EE5B
:104F2000000A02EE101A016BC1F34621B8EE422AC4
:104F3000013181EE021A21EE000A01EE101AB8EEDC
:104F4000411A80EE010ABCEEC00A10EE101A826906
:104F5000124B80697B4400F00F00C2F30322185CFF
:104F60009A5C00F01F00D1400B4A21FA00F049F88A
:104F7000021009EB0201486010BD00BF0044025856
:104F800000093D000024744A001BB74B0090D00379
:104F90000000003900366E010C000000F609000028
:104FA00080B5012000F00CF8012000F01FF800206F
:104FB00000F006F8002000F019F8002080BD00BFC6
:104FC000B0B594B06D4600F0A3FB00F080FB08BFC5
:104FD000012100F083FB66200290294602484844E4
:104FE000FBF7ECFB14B0B0BD2C200000B0B594B0C2
:104FF0006D4600F08DFB00F06AFB08BF012100F058
:105000006DFB99200290294602484844FBF7D6FBE5
:1050100014B0B0BD2C20000070B596B004462048F6
:10502000382159F8006002AD284600F069FC0020E4
:105030004FF04071CDE90600129041F28832002E07
:1050400008BF4FF0807110910D9009901590CDE937
:1050500013009F21032004911190002E08BF01200E
:10506000104E0590294609EB0600FBF7A7FB30B967
:1050700009EB06000DF1050100F06EFB18B14FF0D1
:10508000FF3016B070BD9DF806109DF805009DF824
:105090000720090241EA0040104420600020F0E7A8
:1050A000240000002C200000B0B50F4D044605215F
:1050B000224659F8050000F019F830B959F80500F2
:1050C000621C352100F012F810B14FF0FF30B0BD76
:1050D00059F80500A21C152100F008F8002818BF97
:1050E0004FF0FF30B0BD00BF24000000F0B595B018
:1050F00001AD0E46074638211446284600F000FC54
:1051000000200321069041F28832002F08BF0121C0
:10511000CDE9036105900A90089011900F4E4FF46D
:1051200000510991002F4FF0407108BF4FF080717E
:1051300000F0F3FA09EB06002946FBF73FFB10B13C
:105140004FF0FF3008E009EB0600214600F004FBB9
:10515000002818BF4FF0FF3015B0F0BD2C20000024
:10516000014859F8000001E024000000B0B594B0F7
:105170006D4600F0CDFA00F0AAFA08BF012100F058
:10518000ADFA06200290294608484844FBF716FB72
:1051900010B14FF0FF3007E06D4600F0ECFA9DF8DB
:1051A00000008007F9D5002014B0B0BD2C2000000D
:1051B000B0B596B02A4859F80040012C06D00DF140
:1051C000030220463521FFF791FF18B14FF0FF3061
:1051D00016B0B0BD9DF8030080073FD400F0C0FAC0
:1051E0000028F3D19DF80300382140F002008DF82B
:1051F00003008DF8570001AD284600F081FB002028
:105200000321069041F28832002C08BF0121CDE92C
:1052100004100A9008901190312103914FF400512D
:105220000991002C0F4C4FF0407108BF4FF0807176
:1052300000F073FA09EB04002946FBF7BFFA0028D7
:10524000C4D109EB04000DF1570141F28832FBF79C
:105250006DFC002818BF4FF0FF30B9E70020B7E71A
:10526000240000002C20000000207047B0B594B04E
:1052700004462248032559F800300020CDE90000FB
:105280000590002B08BF0125CDE9035009904FF48C
:10529000407507950B25002B08BFEB25029506915D
:1052A0000D904FF40055082108954FF44035CDE995
:1052B0000B50002B08BF042111911090CDE9120072
:1052C000FF210A910E4D4FF04071CDE90E1209EB0E
:1052D000050041F288326946FBF770FA10B14FF0D1
:1052E000FF3008E009EB0500214600F035FA002800
:1052F00018BF4FF0FF3014B0B0BD00BF2400000055
:105300002C20000070B594B006460F486D4600F0A2
:105310000DFA00F025FA00F0DAF908BF012100F0DB
:105320000CFA08BF4FF4807100F01CFA074806968B
:10533000202100F0E5F910B14FF0FF3002E000F05D
:1053400018FA002014B070BD240000002C200000CA
:1053500070B594B006460F486D4600F0E7F900F0CE
:10536000FFF900F0B4F908BF012100F0E6F908BF29
:105370004FF4807100F0F6F907480696D82100F046
:10538000BFF910B14FF0FF3002E000F0F2F9002059
:1053900014B070BD240000002C200000B0B594B003
:1053A00014486D462C2159F8004005F1180000F012
:1053B000A7FA00F0D5F900F08AF908BF0121CDE97C
:1053C0000310CDE9000011900B900790CDE9120079
:1053D0000E900948C721029148442946FBF7EEF98F
:1053E00010B14FF0FF3002E000F0C3F9002014B01C
:1053F000B0BD00BF240000002C2000002DE9F041CA
:1054000094B080462448002516460F46CDE90C5539
:10541000CDE90A5559F8004000F0A2F9032005959E
:10542000694641F28832002C08BF0120CDE903050E
:10543000CDE9005509954FF44070002C08BF4FF49A
:10544000807007904FF0020008BF322002900B9549
:10545000CDE91055CDE91255104D06974FF4005087
:1054600008904FF04070CDE90E0609EB0500FBF700
:10547000A5F938B909EB0500414641F28832FBF73E
:1054800055FB20B14FF0FF3014B0BDE8F08100F0C3
:1054900070F90020F8E700BF240000002C20000075
:1054A000F8B50646C8B214460D46C0F58070904265
:1054B00028BF104687B2304629463A46FFF79EFF7E
:1054C00058B9BC420CD0E41B3D443E442046B4F5E0
:1054D000807F28BF4FF48070ECE74FF0FF30F8BDBD
:1054E0000020F8BD2DE9F04196B03148282159F847
:1054F000005002AC04F1180000F002FA002603206C
:1055000007964FF44077DFF8AC80214641F28832AD
:10551000002D08BF01200590039606960B9609976B
:10552000012002900B20002D08BFEB2004900F9665
:105530000E964FF440300D904FF400500A90082022
:10554000002D08BF04201390CDE914661296CDE912
:105550000066FF200C904FF04070109009EB08009F
:10556000FBF72CF998B9022013960D96002D08BF71
:105570004FF480770997029041F2883208BF3220B9
:10558000049002A909EB0800FBF718F920B14FF0CD
:10559000FF3016B0BDE8F08100200090694609EBAD
:1055A0000800FBF719FD002818BF4FF0FF30F0E7A7
:1055B000240000002C20000080B504484844FBF77C
:1055C00035FD002818BF4FF0FF3080BD2C200000B3
:1055D00010B54FF4FA6010B100BF0138FBE7FFF7D8
:1055E000DFFC4FF4FA6010B100BF0138FBE70B4C51
:1055F00009EB04000430FFF70FFD20B909EB0400AC
:10560000FFF752FD10B14FF0FF3010BDFFF7D0FD96
:10561000002818BF4FF0FF3010BD00BF140000007D
:105620002DE9F041DFF8848009EB0804FFF7D0FF93
:10563000E16800250844E0600020FFF763FE00F009
:1056400085F8E1681A4E00F052F8E168194F0844F5
:10565000E06009EB0700B5F5805F02D045550135E4
:10566000F7E700214FF480520025FFF719FF09EBFF
:10567000080400F06BF8E16800F039F8E1680844CC
:10568000E060B5F5805F0ED009EB060009EB07017D
:10569000405D495D814204D009EB08008168013119
:1056A00081600135EDE7BDE8F08100BF1400000026
:1056B0002800000028100000BCB504460DF10705C5
:1056C00000F059F89DF80700C007F9D1BCBD0020D3
:1056D0000321059041F28832002C7047CDE9031078
:1056E0001390CDE911000E900B90079070474FF486
:1056F00080520844E060002109EB0600FFF7B6BDC8
:10570000029148444FF4005108912946FBF756B8DE
:1057100004464421284600F0F3B80C9007901490FA
:10572000CDE9120001200F91109070471C2159F80B
:10573000004005F1280000F0E3B8CDE90310CDE901
:10574000000009904FF44071002C7047E168084454
:10575000E0602046FFF7A8BC41F28832FBF719BA97
:10576000204603E507910B901390CDE911000E90B0
:1057700070472046A0E7204605212A46B6E40000EF
:105780000020704701207047B0B59CB009A848219F
:10579000043000F0B5F801A8202100F0B1F8022093
:1057A000FEF7F4FD002000901948016821F4404103
:1057B0000160016801F44041009100990168890489
:1057C000FCD501200C900024402512940D95022058
:1057D000099009A8FCF73CF818B1EFF3108072B6F5
:1057E000FEE74FF48060CDE906500895CDE9044509
:1057F000CDE9024402213F20019001A8FCF780FA84
:1058000018B1EFF3108072B6FEE71CB0B0BD00BF58
:1058100018480258EFF3108072B6FEE710B5044640
:10582000EFF3108072B600210F48012A49F80010EA
:1058300010D1FFF7DBFAFFF765F8FFF7A5FFFAF7DE
:10584000DFFB0A480A4949F800104844FAF7DDFE30
:10585000FAF7F8FBFFF7BCFE08B1012010BD0548C0
:1058600049F80040002010BD240000002C2000005A
:1058700000500052282000000020704780B5FFF73C
:105880008DFD002080BD00BF80B5044959F801108E
:10589000401AFFF737FD002080BD00BF2820000020
:1058A0000120704780B50B46044959F80110411A90
:1058B00010461A46FFF7F4FD002080BD28200000A6
:1058C000F8B50D460D4904460B4F164609EB070087
:1058D0002A4659F80110611AFFF7C8FC00208542DA
:1058E00008D009EB0702315C125C8A4201D1013019
:1058F000F5E705462819F8BD89200000282000009A
:105900004FF0000200B5134694469646203922BF58
:10591000A0E80C50A0E80C50B1F12001BFF4F7AFA3
:10592000090728BFA0E80C5048BF0CC05DF804EB85
:10593000890028BF40F8042B08BF704748BF20F8F3
:10594000022B11F0804F18BF00F8012B70470000A8
:105950000000010203040102030406070809000015
:105960000000000010000000010000000090D003C3
:045970000090D003D0
:020000040000FA
:10597400010153544D333248374230564254365F56
:10598400573235513634000000000000000000009A
:105994000000000000000000000000000000000003
:1059A40000000000000000000000000000000000F3
:1059B40000000000000000000000000000000000E3
:1059C40000000000000000000000000000000000D3
:1059D40000000000000000000000000000000000C3
:1059E40000000000000000000000000000000000B3
:1059F400000005000000009000008000001000007E
:105A040000000000FF000000E8030000B80B0000E5
:105A14000008000000000000FFFFFFFFFFFFFFFF82
:105A24000000000000000000000000000000000072
:105A34000000000000000000000000000000000062
:105A44000000000000000000000000000000000052
:105A54000000000000000000000000000000000042
:0400000500000000F7
:00000001FF
