:020000040800F2
:1000000078A400245D03000883530008A947000872
:1000100081530008D3070008FD6E000800000000AF
:10002000000000000000000000000000376A000827
:10003000390F0008000000009B5B0008396A0008C7
:1000400077030008770300087703000877030008A8
:100050007703000877030008770300087703000898
:10006000770300087703000877030008550A0008A3
:100070007703000877030008770300087703000878
:100080007703000877030008770300087703000868
:100090007703000877030008770300087703000858
:1000A0007703000877030008770300087703000848
:1000B0007703000877030008770300087703000838
:1000C0007703000877030008770300087703000828
:1000D0007703000877030008770300087703000818
:1000E0007703000877030008770300087703000808
:1000F00077030008770300087703000877030008F8
:1001000077030008770300087703000877030008E7
:1001100077030008770300087703000877030008D7
:1001200077030008770300087703000877030008C7
:1001300077030008000000000000000077030008BB
:1001400077030008770300087703000877030008A7
:100150007703000877030008770300087703000897
:100160007703000877030008770300087703000887
:100170007703000877030008490A0008770300089E
:100180007703000877030008770300087703000867
:100190007703000877030008770300087703000857
:1001A0007703000877030008770300087703000847
:1001B0007703000877030008770300087703000837
:1001C000770300087703000800000000000000002B
:1001D000000000000000000077030008000000009D
:1001E000000000000000000000000000000000000F
:1001F00000000000000000007703000877030008FB
:100200007703000877030008000000007703000868
:1002100077030008770300087703000877030008D6
:100220007703000877030008770300080000000048
:100230007703000877030008000000007703000838
:1002400077030008770300087703000877030008A6
:100250007703000877030008770300087703000896
:100260007703000877030008770300087703000886
:1002700077030008770300087703000800000000F8
:1002800077030008770300080000000077030008E8
:1002900000000000770300087703000877030008D8
:1002A00077030008770300087703000800F002F8DE
:1002B00000F044F80AA090E8000C82448344AAF1BC
:1002C0000107DA4501D100F039F8AFF2090EBAE8BA
:1002D0000F0013F0010F18BFFB1A43F0010318477A
:1002E000A8EE0000C8EE0000103A24BF78C878C11C
:1002F000FAD8520724BF30C830C144BF04680C602C
:10030000704700000023002400250026103A28BF73
:1003100078C1FBD8520728BF30C148BF0B60704777
:10032000642900F07780782900F0B08000207047C1
:100330001FB507F0B0FB1FBD10B510BD00F00FFAE0
:100340001146FFF7F5FF06F0B5FE00F02DFA03B4F5
:10035000FFF7F2FF03BC00F035FA000009488047C0
:1003600009480047FEE7FEE7FEE7FEE7FEE7FEE797
:10037000FEE7FEE7FEE7FEE704480549054A064BAF
:1003800070470000056B0008AD020008789E00244D
:1003900078A4002478A0002478A000240FB41CB511
:1003A000074B06AA7B4469460090059800F0BFF908
:1003B0000020694600F0CEF91CBC5DF814FB00007B
:1003C000AD03000070B5044685690068C10601D51B
:1003D000302600E02026C00707D070BDD4E90121F7
:1003E00030469047206A401C20626D1EF6D570BDD5
:1003F00070B5044685690078C00707D170BDD4E99F
:10040000012120209047206A401C20626D1EF6D5F5
:1004100070BD00002DE9F0410646002410687529E2
:10042000314616A510D0AFF30080002802DA404212
:1004300013A507E031688A0701D512A502E0490734
:1004400004D511A5012401E0AFF3008000210A22A8
:1004500006F1240709E0B0FBF2FCB0FBF2F302FB6B
:100460001C00303078541846491C0028F3D123462C
:100470002A463046BDE8F04100F0FAB8000000001E
:100480002D0000002B0000002000000070B5044685
:100490000D4621461068AFF300802188090502D57A
:1004A0000F4A7A4402E00E4A7A440E32002104F1E7
:1004B000240305E000F00F060009965D5E54491C18
:1004C0000028F7D120780023000704D5702D02D032
:1004D00009B1022311322046BDE8704000F0C8B8CF
:1004E0000A7600002DE9F05F894604464FF0000AC5
:1004F000DFF824B1FB44C0F820A02046E16888471B
:1005000000287DD0252806D0D4E901219047206A13
:10051000401C2062F1E700255F462046E1688847DD
:100520002028064607DB312E05D2B81910F8200C1A
:1005300008B10543F1E7A80701D525F00405C4F883
:100540001CA00027C4F818A02A2E09D0304607F0B6
:100550009BFA38B304EB8708303EC8F8186019E0FE
:1005600059F8041B204604EB87029161E168884733
:10057000012F064618D1E069002820DA25F0200571
:100580001DE0D8F8180000EB800006EB4000303882
:10059000C8F818002046E1688847064607F074FA54
:1005A0000028EED1012F0AD02E2E08D12046E16876
:1005B00088477F1C0646022F45F02005C4DBA06952
:1005C000002803DA404245F00105A061E80701D0A8
:1005D00025F01005A6B1A6F14100192802D8203651
:1005E00045F400654A463146204625604D46FFF7F2
:1005F00097FE60B1012807D0ED1D25F0070000E04F
:1006000007E000F1080978E705F1040975E73046CD
:100610007AE7206ABDE8F09FE07500004FF0000225
:1006200000B5134694469646203922BFA0E80C50E8
:10063000A0E80C50B1F12001BFF4F7AF090728BFC3
:10064000A0E80C5048BF0CC05DF804EB890028BF3F
:1006500040F8042B08BF704748BF20F8022B11F068
:10066000804F18BF00F8012B7047704770477047E4
:100670002DE9F0470D4699469246044600F12408BC
:100680000168880604D5E06921F01001216000E0CE
:100690000120A84201DD471B00E00027A1697A196B
:1006A00002EB0900081AA0612078C00602D4204697
:1006B000FFF788FE002608E0D4E901211AF80600B9
:1006C0009047206A401C761C20624E45F4DB20785F
:1006D000C0060AD52046FFF775FE06E0D4E90121E1
:1006E00030209047206A401C2062381EA7F1010785
:1006F000F4DC07E0D4E9012118F805009047206AEE
:10070000401C2062281EA5F10105F3DC2046FFF7FE
:100710006FFE2078000602D50220BDE8F087012098
:10072000FBE7000001694A1C02610878704700B5C8
:100730008FB0CDE901310021059105497944CDE91A
:10074000031011466846FFF7CDFE0FB000BD000054
:10075000E5FFFFFF0A6802F8010B0A607047754663
:1007600000F02CF8AE4605006946534620F007001D
:10077000854618B020B5FFF7FFFDBDE820404FF0DB
:1007800000064FF000074FF000084FF0000BAC469A
:10079000ACE8C009ACE8C009ACE8C009ACE8C009E5
:1007A00021F007018D46704710B50446AFF3008075
:1007B0002046BDE81040FFF7CABD00000048704762
:1007C0008800002401491820ABBEFEE72600020085
:1007D0007047FEE770B5744D0C46642128602846CA
:1007E000A9604221297100F09DF8A88947F6A276F8
:1007F000B04208D1E88947F27361884203D1BDE86D
:10080000704005F017B9602004F00FFEA889B042CF
:1008100009D1E88942F24361884204D82046BDE804
:10082000704006F06DBD422004F0FFFDA88947F638
:10083000A271884209D1E88947F22371884204D81D
:100840002046BDE8704007F025B8782004F0EDFDA3
:10085000E88945F24061884204D12046BDE87040F5
:1008600006F0ECBD0020E881287170BDBCB50546DE
:100870008DF807101446006801232979AA680092B0
:100880000DF10702013101F051FF2979AA682868AA
:10089000009201232246013101F0EAFE002818BF30
:1008A0000120BCBDBFB50B460179046880680125F5
:1008B000CDE9002502901A4620460223013101F0BD
:1008C00095FF002818BF012004B0B0BDE0B58DF839
:1008D0000610117803680DF106028DF807100179F2
:1008E000806800901846022301F020FF002818BFFE
:1008F00001208CBDBFB50B4601798DF80F20026831
:100900008068029001240DF10F05CDE900541046D6
:100910001A460223013101F0D1FF002818BF01203F
:1009200004B0B0BDF8B5044601208DF8020020796E
:10093000782811D11C4D0DF1020643F20A01284618
:100940003246FFF7AFFF721C284643F20B01FFF758
:10095000A9FF0020A0811DE00DF102052046FF2126
:100960002A46FFF7B3FF0F4F20461C212A46B847FF
:100970006E1C20461D213246B847BDF802000A21F0
:100980002A4600BA000CA0812046B84720460B2119
:100990003246B847BDF8020000BA000CE0810020E2
:1009A000F8BD00BF6D08000850060024806B816C04
:1009B000496D022906D0012180F83510C16C41F043
:1009C0004001C16400F0BDBA10B5846BA36BA06C8C
:1009D00001680A6802F4002253B1A36BA2B113F0BC
:1009E000010211D1C968E26B01EBC201002213E0E0
:1009F000C2B90868000317D4E06BD4E9102303EBF5
:100A000080000861A2630FE00A6812030CD4096930
:100A1000E26B01EBC201012200F03BFCA06B01384C
:100A2000A06301E0606CC860A06B216C88420AD1B1
:100A30002068C16841F00101C1600068800702D5EB
:100A4000012084F8350010BD014800F093BA00BFC2
:100A500064060024014800F0E3BE00BFB406002491
:100A600010B50168234A914223D0234A91421CBF0A
:100A7000224A91421DD0224A91421CBF214A9142F2
:100A800017D0214A91421CBF204A914211D0204ADE
:100A900091421CBF1F4A91420BD01F4A91421CBF7A
:100AA0001E4A914205D01E4A91421CBF1D4A9142E6
:100AB00014D16FF00F0218231EA452FA81F2B2FB78
:100AC000F3F303F00703E35CC36540F2FF3399439C
:100AD0005F2A88BF04318165084610BD124A9142E1
:100AE000E7D0124A9142E4D0114A9142E1D021F07C
:100AF000FF01F0E7100002402800024040000240E1
:100B0000580002407000024088000240A0000240ED
:100B1000B800024010040240280402404004024091
:100B2000580402407004024088040240B8040240A5
:100B3000A0040240000610160006101610B5016849
:100B40003A4A91420BD03A4A91421CBF394A9142EB
:100B500005D0394A91421CBF384A914214D16FF0F6
:100B60000702174B52FA81F11422B1FBF2F203F1A2
:100B7000800103EB820302F01F020124C0E9183157
:100B800004FA02F2826610BD2D4A9142E7D02E4A45
:100B90009142E4D02B4A9142E1D06FF00F0218232A
:100BA000084C52FA81F2A142B2FBF3F31A4688BF15
:100BB0000832AA34A14228BF1A46034BD7E700BF28
:100BC000005802580F0402400008024070B5017935
:100BD0004A1E072A1AD8144B0568CF4E03F1440465
:100BE000B5420BD0CD4EB5421CBFCD4EB54205D05F
:100BF000CC4EB5421CBFCC4EB54208D1012503EB0B
:100C00008101C0E91B1405FA02F2426770BDC74EAC
:100C1000B542F3D0C74EB542F0D0C54EB5421CBF69
:100C20000A4B03F14404E9E7FC58025808540258FF
:100C30001C54025830540258445402585854025814
:100C40006C5402588054025894540258FC080240D4
:100C5000B0B50468984DAC4223D0984DAC421CBF4F
:100C6000974DAC421DD0974DAC421CBF964DAC4247
:100C700017D0964DAC421CBF954DAC4211D0954D4E
:100C8000AC421CBF944DAC420BD0944DAC421CBF47
:100C9000934DAC4205D0934DAC421CBF924DAC423B
:100CA00008D16360806840281ABFA1601146A26025
:100CB000E160B0BD8D4DAC42F3D08E4DAC42F0D072
:100CC0008B4DAC42EDE700BFF0B5964604687A4A1A
:100CD000D0F858C094421CBF784FBC422AD0784FFD
:100CE000BC421CBF774FBC4224D0774FBC421CBFD4
:100CF000764FBC421ED0764FBC421CBF754FBC42E3
:100D000018D0754FBC421CBF744FBC4212D0744FF8
:100D1000BC421CBF734FBC420CD0734FBC421CBFC3
:100D2000724FBC4206D0724FBC421CBF714FBC42D6
:100D300040F08080C66ED0E919757D6016B1D0E9AB
:100D40001C566E60944229D05C4A94421CBF5C4A97
:100D5000944223D05B4A94421CBF5B4A94421DD00C
:100D60005A4A94421CBF5A4A944217D0594A944254
:100D70001CBF594A944211D0584A94421CBF584A49
:100D800094420BD0574A94421CBF574A944205D014
:100D9000564A94421CBF564A944217D18268C06D8D
:100DA0003F2500F01F0005FA00F0CCF8080020688D
:100DB00020F480202060402A636003D1C4F808E05A
:100DC000E160F0BDA160C4F80CE0F0BD584A944267
:100DD0001CBF494A944245D0484A94421CBF484AE5
:100DE00094423FD0474A94421CBF474A944239D06C
:100DF000464A94421CBF464A944233D0454A9442E4
:100E00001CBF454A94422DD0444A94421CBF444AD8
:100E1000944227D0434A94421CBF434A944221D073
:100E2000424A94421ED0434A94421BD0314A9442D3
:100E3000B4D0CAE7304FBC421CBF304FBC4211D0C7
:100E40002F4FBC421CBF2F4FBC420BD02E4FBC4279
:100E50001CBF2E4FBC4205D02D4FBC421CBF2D4F96
:100E6000BC4209D18268C06D012500F01F0005FA5F
:100E700000F0CCF804009EE7274FBC423FF45AAF85
:100E8000264FBC421CBF264FBC423FF453AF254FF8
:100E9000BC421CBF244FBC423FF44CAF234FBC426A
:100EA0003FF448AF224FBC423FF444AF214FBC4215
:100EB0003FF440AF89E700BF100002402800024025
:100EC000400002405800024070000240880002408A
:100ED000A0000240B8000240100402402804024072
:100EE000400402405804024070040240880402405A
:100EF000A0040240B8040240082C02481C2C0248FE
:100F0000302C0248442C0248582C02486C2C0248D1
:100F1000802C0248942C0248085402581C54025851
:100F20003054025844540258585402586C540258D1
:100F300094540258805402587047EFF3108072B6F0
:100F4000FEE7704710B501F003FB094CE168401A59
:100F5000C0087C2806D901F0FBFAE060A068206098
:100F6000012001E0A06801300121C4E9011010BD99
:100F7000E8000024B0B504460068056969070CD58F
:100F800004214161C04AE06C40F00200E064A06CC2
:100F9000026584F8351000F059FBA8070ED52168CA
:100FA000A06C02224A61E16C41F00101E164B649A2
:100FB0000165042184F8351000F048FBE80605D5EA
:100FC000206810214161204600F060F8280705D50F
:100FD000206808214161204600F05AF9E80708BF5F
:100FE000B0BD20680168890703D5C16821F01E01E2
:100FF000C160C16821F00101C16001214161204649
:10100000BDE8B040FFF79EBF88B1F8B5044690F840
:10101000350010B9204600F03BF8022084F8350076
:10102000A26932B14FF0000CC4F824C003E00120E3
:101030007047D4F824C094E8690013490768394020
:10104000016043EA0201626911432269314304F1FC
:1010500028061143226A2943114364CE41EA0C0158
:10106000114302682943314311430160102B01D120
:10107000E1698161C16841F01E01C1600020E06446
:10108000012184F83510F8BD07F0E0FF704700003B
:101090002DE9F04F85B0044600684849884240F089
:1010A000898047488A466E46474D4FF00D08002715
:1010B0004FF0020950F8041C41F0010140F8041CF3
:1010C00050F8041C01F0010104F0B6F941F01001E0
:1010D0000160016801F0100104F0AEF941F0010176
:1010E0000160016801F0010104F0A6F941F004017A
:1010F0000160016801F0040104F09EF941F008016B
:101100000160016801F0080104F096F941F0020164
:10111000016000682B4900F0020000908B460098A7
:10112000CDF81080CDE90277CDF8049073200090BF
:1011300001F540603146A847502004F02CF90AF12F
:101140008050A847C02004F026F90BF58060A8471E
:10115000082004F020F90BF50060A847802004F077
:101160001AF95846A847194D4FF480304B264FF4D2
:10117000807C4FF480634FF480414FF48052C5E986
:1011800008071348C5E90373C5E90521C5F81CC064
:1011900085E8C100284600F011FE08B1FFF7CDFE3A
:1011A0004E2000210022AC63A56401F0EFFC4E202C
:1011B00001F0DEFC05B0BDE8F08F00BF0000024882
:1011C0004045025800040258A1230008B406002438
:1011D00010000240F8B590F8345004460220012D6A
:1011E00050D084F8350000272568A06C2E6846F49E
:1011F00080462E602E6826F002062E602E6831434F
:101200002960214EA763C0E91367C4E91077012163
:101210001E4E84F83410C663E763B7EB134F04D156
:1012200005F1280100F092FF1CE0A16346646264AE
:10123000E363E16BB1F5803F06D3E16B4908E163FD
:10124000A16B4900A163F4E7A16B0239A163A16B13
:101250002164E16BE36B009302EB810305F128014C
:1012600000F020F828B14020E064012084F8350027
:1012700005E02068016841F00101016000200021C3
:1012800084F83410F8BD00BFAD090008C909000892
:1012900070471023002A08BF0C230068C1500020AB
:1012A000704700002DE9F04104468068802805D190
:1012B0004FF4807060650120BDE8F08194F834003F
:1012C000012802D10220BDE8F08104F089F840F045
:1012D0004081022084F835000825DDF818C04FF061
:1012E0003F0E4FF4802600206065C3482768804683
:1012F000874224D0C14887421CBFC14887421ED0C4
:10130000C04887421CBFC048874218D0BF488742A8
:101310001CBFBF48874212D0BE4887421CBFBE4890
:1013200087420CD0BD4887421CBFBD48874206D0CB
:10133000BC4887421CBFBC48874240F00D813868DA
:10134000304338603B61D4E9160303F01F030EFA03
:1013500003F3435120466346FFF77AFC2068454675
:1013600040453CD0A54988421CBFA549884236D09B
:10137000A44988421CBFA449884230D0A34988426E
:101380001CBFA34988422AD0A24988421CBFA24957
:10139000884224D0A14988421CBFA14988421ED05E
:1013A000A04988421CBFA049884218D09F49884262
:1013B0001CBF9F49884212D09E4988421CBF9E494B
:1013C00088420CD09D4988421CBF9D49884206D066
:1013D0009C4988421CBF9C49884240F0F38004F13C
:1013E00064030ECB4A6013B1D4E91C124A60A842D0
:1013F00024D0F44988421CBFF34988421ED0F349E7
:1014000088421CBFF249884218D0F24988421CBF6A
:10141000F149884212D0F14988421CBFF049884204
:101420000CD0F04988421CBFEF49884206D0EF49F2
:1014300088421CBFEE49884240F0A08001680B2220
:1014400062F344010160416941F080014161216C16
:1014500009B9A16C19B1016841F008010160A84205
:101460003CD0D84988421CBFD749884236D0D7499A
:1014700088421CBFD649884230D0D64988421CBF1A
:10148000D54988422AD0D54988421CBFD4498842D0
:1014900024D0D44988421CBFD34988421ED0D349A6
:1014A00088421CBFD249884218D0D24988421CBF0A
:1014B000D249884212D0D04988421CBFD0498842C4
:1014C0000CD0D04988421CBFCF49884206D0CF49B2
:1014D00088421CBFCE49884240F08180216E0A6854
:1014E000D20303D50A6842F480720A60E16E19B132
:1014F0000A6842F480720A60A84223D0B149884247
:101500001CBFB14988421DD0B04988421CBFB049B8
:10151000884217D0AF4988421CBFAF49884211D0DA
:10152000AE4988421CBFAE4988420BD0AD498842C3
:101530001CBFAD49884205D0AC4988421CBFAC49AC
:10154000884236D1016841F0010101600020BDE808
:10155000F0814FF40060ADE6A64887423FF4EFAE5D
:10156000A64887423FF4EBAEA34887423FF4E7AE7C
:101570004FF0010E042548F22006E0E69D4988421E
:101580003FF45CAF9C4988423FF458AF9B49884286
:101590003FF454AF0168052262F343010160216CFE
:1015A00019B9A16C00293FF45AAF016841F0040158
:1015B00054E790498842C5D08F498842C2D08F49AC
:1015C0008842BFE7934988423FF409AF9249884275
:1015D0003FF405AF914988423FF401AFDAE78D4906
:1015E00088423FF47BAF8C4988423FF477AF8B4908
:1015F00088423FF473AFA5E7100002402800024084
:101600004000024058000240700002408800024042
:10161000A0000240B800024010040240280402402A
:101620004004024058040240700402408804024012
:10163000A0040240B8040240085402581C54025846
:10164000305402584454025858540258B0B5002837
:101650005CD090F83510022956D10168584A914261
:1016600023D0584B99421CBF574B99421DD0574B22
:1016700099421CBF564B994217D0564B99421CBFFA
:10168000554B994211D0554B99421CBF544B99422E
:101690000BD0544B99421CBF534B994205D0534B2E
:1016A00099421CBF524B994233D1042380F8353004
:1016B000914223D0434881421CBF434881421DD000
:1016C000424881421CBF4248814217D04148814272
:1016D0001CBF4148814211D0404881421CBF404854
:1016E00081420BD03F4881421CBF3F48814205D018
:1016F0003E4881421CBF3E4881424DD1086820F0DF
:1017000001000860002102E08021416501210846B6
:10171000B0BD384B9942C8D0374B9942C5D0374BF2
:101720009942C2D00A6822F00E020A600A6822F0CA
:1017300001020A60324A91420BD0324A91421CBFE8
:10174000314A914205D0314A91421CBF304A914200
:101750002BD100F158041ECC1D6825F480751D6046
:1017600002F01F02012303FA02F24A60816E6160F7
:10177000C16E31B10A6822F480720A60D0E91C128D
:101780004A60002180F83410012280F83520026D73
:10179000002ABCD09047B5E716488142AED0164823
:1017A0008142ABD015488142A8E71A4A9142D0D075
:1017B000194A9142CDD0194A9142CAD0E1E700BFFF
:1017C0001000024028000240400002405800024041
:1017D0007000024088000240A0000240B8000240B1
:1017E0001004024028040240400402405804024011
:1017F0007004024088040240B8040240A004024081
:10180000085402581C540258305402584454025888
:10181000585402586C540258945402588054025838
:101820002DE9FC41044600200190D54FDFF80C055E
:10183000A66DD0F80080206835683168B8422AD09B
:10184000D04A90421CBFD04A904224D0CF4A904206
:101850001CBFCF4A90421ED0CE4A90421CBFCE4AF7
:10186000904218D0CD4A90421CBFCD4A904212D02F
:10187000CC4A90421CBFCC4A90420CD0CB4A9042FA
:101880001CBFCB4A904206D0CA4A90421CBFCA4AEB
:10189000904240F09381E16D082201F01F018A40DF
:1018A0002A4235D00423BC46B84224D0B54FB842B2
:1018B0001CBFB54FB8421ED0B44FB8421CBFB44F86
:1018C000B84218D0B34FB8421CBFB34FB84212D081
:1018D000B24FB8421CBFB24FB8420CD0B14FB84261
:1018E0001CBFB14FB84206D0B04FB8421CBFB04F7A
:1018F000B84240F0B08107681F42674608D00368CD
:1019000023F004030360B260626D42F0010262657D
:1019100001228A402A422ED0B84224D0994B9842C4
:101920001CBF994B98421ED0984B98421CBF984BB5
:10193000984218D0974B98421CBF974B984212D0B0
:10194000964B98421CBF964B98420CD0954B9842B0
:101950001CBF954B984206D0944B98421CBF944BA9
:10196000984240F0858143691B0604D5B260626DE0
:1019700042F00202626504228A402A422ED0B84216
:1019800024D0804B98421CBF7F4B98421ED07F4B87
:1019900098421CBF7E4B984218D07E4B98421CBF89
:1019A0007D4B984212D07D4B98421CBF7C4B984295
:1019B0000CD07C4B98421CBF7B4B984206D07B4B93
:1019C00098421CBF7A4B984240F0608103689B07A5
:1019D00004D5B260626D42F004026265102202FA20
:1019E00001F129423ED00822B84224D0D44B98427B
:1019F0001CBFD44B98421ED0D34B98421CBFD34B34
:101A0000984218D0D24B98421CBFD24B984212D069
:101A1000D14B98421CBFD14B98420CD0D04B98422E
:101A20001CBFD04B984206D0CF4B98421CBFCF4B27
:101A3000984240F039810368134213D0B1600268C4
:101A40000168520306D4C90506D4016821F00801D3
:101A5000016001E0080301D4216C00E0A16C09B130
:101A600020468847E06D00F01F01202000FA01F2B7
:101A70002A425BD020681023B84224D0B04DA8423F
:101A80001CBFB04DA8421ED0AF4DA8421CBFAF4DE9
:101A9000A84218D0AE4DA8421CBFAE4DA84212D0ED
:101AA000AD4DA8421CBFAD4DA8420CD0AC4DA842D4
:101AB0001CBFAC4DA84206D0AB4DA8421CBFAB4DDD
:101AC000A84240F0FE8005681D422FD0B26094F815
:101AD00035300268042B15D122F0160202604269EB
:101AE00022F080024261226C0AB9A26C1AB102682B
:101AF00022F0080202603F208840B06003F0B5FC8D
:101B0000216D37E00168520308D4C9050AD4016881
:101B100021F01001016003F0A8FC03E0080301D4E8
:101B2000616C00E0E16B09B120468847606D20B32D
:101B3000606DC0071DD04FF41650B8FBF0F10420C3
:101B400084F835002068026822F001020260019AE0
:101B5000013201928A4202D80268D207F7D103F01B
:101B600090FD0068C0074FF0030008BF012084F813
:101B70003500E16C09B120468847BDE8FC8100BF13
:101B8000100002402800024040000240580002407D
:101B90007000024088000240A0000240B8000240ED
:101BA000100402402804024040040240580402404D
:101BB0007004024088040240A00402406E4A904231
:101BC0001CBF6E4A904224D06D4A90421CBF6D4AA1
:101BD00090421ED06C4A90421CBF6C4A904218D072
:101BE0006B4A90421CBF6B4A904212D06A4A9042A4
:101BF0001CBF6A4A90420CD0694A90421CBF694A95
:101C0000904206D0684A90421CBF684A904240F019
:101C10008780E26D02F01F03042202FA03F50268D6
:101C20000D4201D0570759D402259D400D4201D0E5
:101C300097075DD4D94009079FD511079DD5016845
:101C400021F00E010160012000FA03F1716060656E
:101C500003F017FD8BE7464FB8423FF44CAE454FBB
:101C6000B8423FF448AE544FB84218BF082342E68A
:101C70003F4B98423FF477AE3E4B98423FF473AEF1
:101C80004D4B98423FF46FAE026874E6384B984271
:101C90003FF49CAE374B98423FF498AE464B984287
:101CA0003FF494AE026899E6314B98423FF4C3AEDC
:101CB000304B98423FF4BFAE3F4B984218BF0422CE
:101CC000B9E62B4DA8423FF4FEAE2A4DA8423FF4A0
:101CD000FAAE394DA84218BF0223F4E6110475602C
:101CE00012D4910614D4016821F0040101600FE0C0
:101CF000110475600ED4910610D4016821F00A0118
:101D0000016003F0B2FB09E0D00301D4A16C31E71C
:101D1000216C2FE7D00301D4616C2BE7E16B29E73D
:101D2000234A90423FF475AF224A90423FF471AF8C
:101D3000214988423FF4AFAD1FE700BF08000024EF
:101D4000280002404000024058000240700002405B
:101D500088000240A0000240B80002401004024087
:101D6000280402404004024058040240700402402B
:101D700088040240A004024094540258082C0248EF
:101D80001C2C0248302C0248442C0248582C024893
:101D90006C2C0248802C0248942C024808540258AB
:101DA0001C54025830540258445402585854025893
:101DB0006C54025880540258B80402402DE9F8438C
:101DC000044600F0C5FB002C00F096800546206814
:101DD000C54FB8422AD0C54988421CBFC449884271
:101DE00024D0C44988421CBFC34988421ED0C3497D
:101DF00088421CBFC249884218D0C24988421CBFD1
:101E0000C149884212D0C14988421CBFC04988429A
:101E10000CD0C04988421CBFBF49884206D0BF4988
:101E200088421CBFBE49884240F0E980022184F804
:101E3000351003F026FC016821F001010160016802
:101E4000C90706D000F084FB401B05284FD8206846
:101E5000F5E70168BC4AB946D4E90257D4E906C39C
:101E600001EA0208D4E90462D4E9081E45EA08053B
:101E70003D4335432A4342EA0C021A431143BEF163
:101E8000040F03D1D4E90B23114319436568A5F16D
:101E90002902062A0FD3A5F13F02042A0BD3A5F18C
:101EA0004702022A07D3A5F14F02042A03D325F0E3
:101EB0000302742A01D141F4801101604F46BEF142
:101EC000040F416921F0070141EA0E0130D1D4E944
:101ED0000A53294363B3BCF5005F10D0BCF1000F77
:101EE00019D1022D1AD0012D0FD0BDB120E0202034
:101EF0006065032084F835000120BDE8F883032DD8
:101F000016D8DFE805F00E0B0E02A3F1C072B2FA8C
:101F100082F2520904E0032D03D309D1C3F3006216
:101F200032B140206065012084F83500BDE8F883B7
:101F3000416103F0BDFC03F03AFC2068B8423BD09D
:101F40006A4988421CBF6A49884235D0694988423B
:101F50001CBFF64988422FD0F54988421CBFF5497D
:101F6000884229D0F44988421CBFF449884223D0D2
:101F7000F34988421CBFF34988421DD0F249884288
:101F80001CBFF249884217D0F14988421CBFF24970
:101F9000884211D0EF4988421CBFF04988420BD0DB
:101FA000EF4988421CBFEF49884205D0EE4988427C
:101FB0001CBFEE4988427ED12046FEF7BFFDA068D7
:101FC00004F16003802806BF002060606068C5B22D
:101FD0000ECB013807280D60536005D82046FEF768
:101FE000F5FD03F0EDFC03E00020C4E91B00606791
:101FF00000206065012184F83510BDE8F883DD49D3
:1020000088421CBF4749884223D0474988421CBFA9
:10201000464988421DD0464988421CBF45498842EE
:1020200017D0454988421CBF4449884211D04449D1
:1020300088421CBFC94988420BD0C94988421CBF8D
:10204000C849884205D0C84988421CBFC749884250
:102050003ED1022184F83510142204F1080503F062
:1020600010FB38490144B1FBF2F18900E1652ECD46
:1020700006686FF3101646EAD202A1F18006B6FA9E
:1020800086F67609B603402908BF102642EA060103
:10209000A26941EAD30141EAD50141EAD201E269EC
:1020A00041EAD201226A41EA1211016003F000FC08
:1020B00003F03EFB41E7AE4988423FF47DAFAD49B6
:1020C00088423FF479AFAC4988423FF475AF8FE75F
:1020D000A7498842BDD0A8498842BAD09D498842C4
:1020E0003FF4A4AE402003E7100002402800024065
:1020F0004000024058000240700002408800024048
:10210000A0000240B800024010040240280402402F
:102110004004024058040240700402408804024017
:10212000A0040240082C02481C2C0248302C024813
:10213000442C0248582C02486C2C0248802C02483F
:10214000942C0248F8ABFDA73F8010FEB0B50028E4
:1021500000F0B58003F0F3F904BF0220B0BD03F036
:10216000CEF940F0AA8003F02EF920686B4988422E
:1021700024D06B4A90421CBF6A4A90421ED06A4AE1
:1021800090421CBF694A904218D0694A90421CBFD5
:10219000684A904212D0684A90421CBF674A9042F7
:1021A0000CD0674A90421CBF664A904206D0664AED
:1021B00090421CBF654A904240F0838002680B2326
:1021C00063F344020260226C1AB1026842F0080212
:1021D000026088423BD0524A90421CBF514A904212
:1021E00035D0514A90421CBF504A90422FD0504A9D
:1021F00090421CBF4F4A904229D04F4A90421CBF88
:102200004E4A904223D04E4A90421CBF4D4A9042C3
:102210001DD04D4A90421CBF4C4A904217D04C4AA8
:1022200090421CBF4C4A904211D04A4A90421CBF77
:102230004A4A90420BD04A4A90421CBF494A9042B7
:1022400005D0494A90421CBF484A90425BD1226E59
:102250001368DB0303D5136843F480731360E26EE5
:102260001AB1136843F480731360884223D02C4959
:1022700088421CBF2B4988421DD02B4988421CBF75
:102280002A49884217D02A4988421CBF29498842D6
:1022900011D0294988421CBF284988420BD02849BF
:1022A00088421CBF2749884205D0274988421CBF65
:1022B000264988421ED103F0DABA03F032FB01202E
:1022C000B0BD234A90423FF479AF224A90423FF496
:1022D00075AF214A90423FF471AF0268052363F362
:1022E00043020260226C002A3FF473AF026842F09E
:1022F00004026DE716498842DDD016498842DAD0DB
:1023000015498842D7E71A4A9042A0D0194A90420C
:102310009DD0194A90429AD0CDE700BF10000240EC
:102320002800024040000240580002407000024075
:1023300088000240A0000240B800024010040240A1
:102340002804024040040240580402407004024045
:1023500088040240B8040240A00402400854025815
:102360001C540258305402584454025858540258CD
:102370006C5402589454025880540258B0B5044624
:1023800000F0E6F805460548611C007818BF0444D3
:1023900000F0DEF8401BA042FAD3B0BD00000024DC
:1023A0002DE9FC4F5C4A0A244FF0000A4FF0000967
:1023B00090425A4A08BF092402444FEAB223092B2B
:1023C00038BF4FEAB224009400220E6836FA02F7B2
:1023D00000F0A080012303FA02F716EA070B00F0D1
:1023E0009380D1F804E003230EF0030CACF1010557
:1023F000012D13D803FA09F58468CB68AC4303FABE
:1024000009F36FEA050823438360CEF300134468A1
:10241000BC4393405700234343600BE003FA09F3A6
:10242000BCF1030F4F466FEA030803D14F464FF04C
:10243000030C20E0C3688C6803EA0803BC40234314
:10244000C360BCF1020F16D10AF01C030F2404FA7A
:1024500003FC6FF0030404EA520505442C6A24EAE5
:102460000C0C0C6904FA03F343EA0C032B62D1F859
:1024700004E00EF0030C04680CFA07F304EA080405
:10248000234303601EF4403F3ED0264C264E236873
:1024900043F00203236023680F2403F00203019337
:1024A000019D0AF00C0322F003059C40AF5927EA76
:1024B0000404009F07FA03F32343AB514FF0B046E7
:1024C00033684D6843EA0B04EF0258BF23EA0B045C
:1024D0003460134EAF02336843EA0B0458BF23EA5B
:1024E0000B043460AF03D6F8803043EA0B0458BFC6
:1024F00023EA0B04C6F88040ED03F36F43EA0B04B4
:1025000058BF23EA0B04F4670AF1040A09F102092F
:1025100001325AE7BDE8FC8F002402580000FEA7F4
:102520000400005854450258080400580069084047
:1025300018BF01207047002A08BF09048161704755
:10254000024800686FF31F30704700BF0010005C46
:1025500001480068704700BF749E002490F8412035
:10256000202A03D190F84020012A01D1022111E054
:10257000242280F841200268136823F001031360CD
:10258000136823F48053136013681943734602F0F1
:1025900032FF9E460846704790F84120202A03D11A
:1025A00090F84020012A01D1022110E0242280F875
:1025B00041200268136823F001031360136823F4B9
:1025C000706343EA0121734602F015FF9E460846F8
:1025D0007047000000B3B0B5044690F8410018B948
:1025E00003F0DCF900F0DAF9242084F84100D4E9A2
:1025F0000003D4E9021223F07063012A056825F074
:10260000010505600361836823F40043836005D1FD
:1026100041F40041816009E001207047022A41F441
:102620000441816002D14FF40061416041680F4A6A
:1026300004F1100511434160C16821F40041C160FB
:102640002ECD114341EA0321C160216A2943016073
:10265000016841F00101016000206064202184F8DC
:102660004110206384F84200B0BD00BF008000022A
:102670002DE9F84302F003FF02D103F0A0F802D1E4
:10268000022703F06FB903F0B4F803F014F900283F
:10269000F7D1222003F059F88748B1F5807F02D3A3
:1026A00003F005F801E003F011F8414602F052F999
:1026B000089F0025FF26608D48B3204639464A46CC
:1026C00002F090F940BB02F085FFF4D10028F2D06F
:1026D0002046802100223B4603F015F8E0B903F0C4
:1026E000D1F821BF268500952046414627BFFF220D
:1026F0004FF08073608D20853FBF0095C2B22046A9
:10270000414638BF4FF0007302F024F9D3E720466A
:10271000394603F018F908B10127B2E720682021F3
:1027200000279D4B03F022F8ABE700BF2DE9F843EB
:1027300002F0A5FE02D103F042F802D1022703F015
:1027400011B903F056F803F0B6F80028F7D12120AC
:1027500002F0FBFF2448B1F5807F02D302F0A7FF0F
:1027600001E002F0B3FF414602F0F4F8089F0025B3
:10277000FF26608D48B3204639464A4602F08FF95D
:1027800040BB02F04DFFF4D10028F2D0204680215A
:1027900000223B4602F0B7FFE0B903F073F821BF17
:1027A000268500952046414627BFFF224FF08073C3
:1027B000608D20853FBF0095C2B22046414638BF9C
:1027C0004FF0007302F0C6F8D3E72046394603F015
:1027D000BAF808B10127B2E72068202100276E4B24
:1027E00002F0C4FFABE700BF002000802DE9FE4FE0
:1027F00002F045FE0CD1DDF830B0BBF1000F09D07E
:10280000DDF83480B8F1000F04D002F0D8FF07D112
:10281000022502E002F0E9FF01252846BDE8FE8F0F
:1028200002F0EFFF03F047F80028F6D1222003F072
:10283000CEF802F047F810B184F84050ECE7618D13
:102840001D48B1F5807F02D302F031FF01E002F0B4
:102850003DFF514602F07EF80027FF262046042166
:102860000022434602F04FFF0028D5D102F0B2FE0D
:1028700012D188B1204680210022434602F043FF56
:102880000028C9D102F0FEFF02D303F03EF801E0B8
:1028900002F0FCFF02F05EF8608D0028DED12046D9
:1028A000414603F050F80028B6D1206820210025C9
:1028B000394B02F066FFB0E7002400802DE9FE4F9F
:1028C00002F0DDFD0CD1DDF830B0BBF1000F09D016
:1028D000DDF83480B8F1000F04D002F070FF07D1AA
:1028E000022502E002F081FF01252846BDE8FE8FA7
:1028F00002F087FF02F0DFFF0028F6D1212003F06D
:1029000066F802F001F810B184F84050ECE702F0EC
:10291000B9FF08D3FF2020855146FF224FF0807376
:102920000020009007E0608D00214FF000732085AB
:1029300000915146C2B202F024FE0027FF26204635
:1029400041464A4602F0ABF80028CDD102F068FEBD
:1029500012D188B1204680210022434602F0D3FEE6
:102960000028C1D102F08EFF02D302F0CEFF01E0B9
:1029700002F08CFF01F0EEFF608D0028DFD12046D1
:10298000414602F0E0FF0028AED12068202100255A
:10299000014B02F0F6FEA8E700E800FEB0B5B4B0C7
:1029A00004462FA81421FDF739FE01A8B4210430F4
:1029B000FDF734FE20681749884229D108200024F9
:1029C0002394019001A800F037F908B1FEF7B5FA99
:1029D000114D286840F002002860286800F00200CD
:1029E0000090CDE9314404203390122030904FF410
:1029F00040702F9000982FA90848FFF7D1FCA868D5
:102A000040F40010A860A86800F40010009000983E
:102A100034B0B0BD00540040404502580004025894
:102A20002948034900780A6810440860704700BFCD
:102A3000749E002480B5032000F0C4F800F090FDDF
:102A40000E490F4B0A68096801F00F01C2F3032217
:102A5000595C9A5C01F01F0102F01F02D0401B4A32
:102A60001060C840074908600F2000F00DF808B159
:102A7000012080BD00F06CF8002080BD1844025891
:102A8000E97A00080C00002470B50F4E0446307837
:102A9000B0B14FF47A71B1FBF0F00C490968B1FBA9
:102AA000F0F001F0E5FC01250F2C0AD848B94FF0F1
:102AB000FF3021460022002500F068F8746000E035
:102AC0000125284670BD00BF000000240800002436
:102AD0000278114943780B60D2B143684B60037BA5
:102AE00042EA0372C37A42EA0362837A42EAC34249
:102AF000437B42EA8342837B42EA4342C37B42EA0E
:102B00000342437A007A42EA032242EA400001E0AB
:102B1000002048608860704798ED00E00B48BFF3E4
:102B20005F8F016821F480310160002101677047E7
:102B3000064940F001000867086840F480300860EA
:102B4000BFF34F8FBFF36F8F704700BF24ED00E0DE
:102B500081B00648016841F002010160006800F0A0
:102B600002000090009801B0704700BF5445025821
:102B7000002808D400F01F010122400902FA01F1E7
:102B8000014A42F82010704700E100E070B5134B95
:102B90004FF0FF351B68C3F30223DC1E83F00703ED
:102BA00038BF002405FA04F6B243042B28BF0423DF
:102BB00005FA03F39943A1401143BDE8704004F0C6
:102BC0009FB900BF05494FF6FF030A681A4060F33A
:102BD0000A22034810430860704700BF0CED00E074
:102BE0000000FA05B0B50F4D2A682968520705D4D0
:102BF00001F00701081A18BF0120B0BD21F007013C
:102C0000084302F039FC044655F8080C800406D449
:102C1000FFF79EFC02F0EBFBF6D90120B0BD0020CF
:102C2000B0BD00BF0C4802580248016841F48071F1
:102C300001607047004802582DE9F0470446C0780B
:102C4000A54F00071CD5A06E4FEA3051032908D8C4
:102C5000DFE801F002090C11F96941F40031F96172
:102C600009E001260DE002F09DFC01E002F09AFD72
:102C7000064630B9A06E396C21F44011084338641F
:102C800000266078BA46C00701D1354620E0606D65
:102C900004280BD83546DFE800F0030C0F121200B1
:102CA000F869354640F40030F86108E00125012755
:102CB0000FE002F081FE01E002F03CFC05462F46E9
:102CC0003DB9606D02F028FC21F0070102F098FC8C
:102CD0003746607880071ED5A06D4FEAB0100528F2
:102CE00007D8DFE800F003090C0F0F0F02F0B5FB67
:102CF00008E0012501260FE002F05EFE01E002F08F
:102D000019FC05462E463DB9A06D02F005FC21F4E4
:102D1000E07102F075FC3E46607840071ED5E06D1C
:102D20004FEA7020052807D8DFE800F003090C0FF0
:102D30000F0F02F092FB08E0012501270FE002F0DF
:102D40003BFE01E002F0F6FB05462F463DB9E06D83
:102D500002F0E2FB21F4606102F052FC3746E078B9
:102D600080071DD5A06C4FEA3010032806D8DFE895
:102D700000F00B02080B02F070FB05E001250126B4
:102D80000FE002F00FFC05462E4655B9A06CDAF8AC
:102D90003C100025524621F030010843CAF83C009F
:102DA0003E466078C0061ED5206E4FEA30300428BB
:102DB00007D8DFE800F003090C0F0F0002F04DFB0D
:102DC00008E0012501270FE002F0F6FD01E002F026
:102DD000B1FB05462F463DB9206E02F09DFB21F464
:102DE000E04102F00DFC3746607880061BD5606E2E
:102DF0004FEA3040052807D8DFE800F00C03090C43
:102E00000C0C02F078FB04E0012501260CE002F036
:102E1000BBFD05462E463DB9606E02F07DFB21F4F8
:102E2000E02102F0EDFB3E46607840061ED5D4F866
:102E3000AC004FEA3070062808D8DFE800F00D0437
:102E40000A0D0D0D0D0002F056FB04E001250127CF
:102E50000DE002F099FD05462F4645B9D4F8AC00C7
:102E600002F080FB21F0E04102F0EFFB3746607892
:102E7000000616D5606F58B1B0F1005F05D0B0F113
:102E8000805F22D102F0E9FA02E002F034FB05464D
:102E90002E463DB9606F02F03FFB21F0405102F039
:102EA000AFFB3E46E078C00702D1B046574622E06D
:102EB000606C574603280BD8DFE800F013021013AC
:102EC000F86940F40030F8610BE001250126E9E7DC
:102ED00001254FF001080EE01044025802F062FB99
:102EE0000546A8463DB9606CF96B0025B04621F057
:102EF00003010843F863A078400601D4474616E072
:102F0000D7F8F00340F48070C7F8F003FFF720FB18
:102F10000646D7F8F003C00507D4FFF719FB801B5E
:102F20006428F6D90325032701E02F4685B12078D0
:102F3000C00748D0D4F880004FEAF000052832D806
:102F4000DFE800F037033437373702F0D4FA2FE0E8
:102F5000DAF86010D4F8B0005546414011F4407FD3
:102F60000BD0296E2A6E42F480322A6621F4407119
:102F70002A6E22F480322A662966B0F5807F40F0FE
:102F8000CA81FFF7E5FA064641F288390327DAF8E5
:102F90006000800700F1BC81FFF7DAFA801B03258F
:102FA0004845F4D9C3E7012501260DE002F0ECFC09
:102FB00005462E4645B9D4F8800002F006FB21F004
:102FC000380102F06CFB3E462078800719D5E06F8F
:102FD000052807D8DFE800F00C03090C0C0C02F000
:102FE0008AFA04E0012501270CE002F0CDFC054639
:102FF0002F463DB9E06F02F0E8FA21F0070102F038
:103000004EFB3746207840071BD5D4F8980005289A
:1030100007D8DFE800F00C03090C0C0C02F06BFA87
:1030200004E0012501260DE002F0AEFC05462E4627
:1030300045B9D4F8980002F095FA21F0070102F0A2
:1030400004FB3E46207880061DD5D4F894004FEA54
:103050003070052807D8DFE800F00C03090C0C0CD1
:1030600002F0AAFC04E0012501270DE002F09AFB22
:1030700005462F4645B9D4F8940002F0A6FA21F08F
:10308000E04102F00CFB3746207840061DD5D4F80D
:10309000A0004FEAB020052807D8DFE800F00C03B5
:1030A000090C0C0C02F088FC04E0012501260DE05F
:1030B00002F078FB05462E4645B9D4F8A00002F090
:1030C00051FA21F4E05102F0C0FA3E4620780006A1
:1030D0001DD5D4F8A4004FEA7030052807D8DFE8E2
:1030E00000F00C03090C0C0C02F066FC04E0012556
:1030F00001270DE002F056FB05462F4645B9D4F8EE
:10310000A40002F02FFA21F4604102F09EFA374643
:103110002068010714D5D4F88810B1F5805F07D175
:1031200002F040FB002818BF01272068D4F888105F
:10313000DAF84420534622F440521143CAF84410AE
:10314000C10614D5D4F89C10B1F5807F07D102F0E8
:1031500029FB002818BF01272068D4F89C10DAF852
:103160004820534622F440721143CAF84810000325
:1031700018D5D4F8A800B0F5003F09D0B0F5803FCD
:1031800003D010BB02F018FC01E002F00BFB054677
:103190002E4645B9D4F8A80002F0E4F921F44031F4
:1031A00002F053FA3E46A07840071ED5D4F88C00B2
:1031B000B0F5401F0FD0B0F5001F09D0B0F5801F4B
:1031C00040F0A38002F049F905E001250126EAE775
:1031D00002F0DAFB05462F4645B9D4F88C0002F020
:1031E000F4F921F4401102F05AFA3746A078C007EA
:1031F00001D13E4619E0E06CB0F5803F03D090B9B4
:1032000002F02BF902E002F0CDF905462E4665B931
:10321000E06CDAF83C100025524621F48031084376
:10322000CAF83C00E5E7012501262068810005D5A4
:1032300002F0B8FA002818BF0126206881031CD5C7
:10324000D4F884106FF0010202EB3122022A0AD373
:103250004FEA31223AB1012A06D1DAF81C2042F4B1
:103260000032CAF81C200DB1012606E0DAF844202D
:1032700022F440721143CAF84410C10207D5A16F6D
:10328000DAF8402022F000421143CAF840108102CF
:1032900007D5E16EDAF8402022F080721143CAF8B7
:1032A0004010010507D5216FDAF8482022F00062AE
:1032B0001143CAF8481041000CD5DAF8001021F487
:1032C0000041CAF80010D4F8B410DAF80020114315
:1032D000CAF80010B0F1FF3F07DC216DDAF83C209E
:1032E00022F040521143CAF83C10000207D5D4F82E
:1032F0009000DAF8441021F4400102F0D0F9002ED9
:1033000018BF01263046BDE8F087012501276DE78B
:103310005546D4F8B0002A68094900F4407322F4F5
:103320007C5201EA1011B3F5407F6FF31F3008BFE4
:103330000A432A60296E084328660025DEE500BF9F
:10334000CFFFFF002DE9F843002800F0FB807F4D00
:1033500004468846286800F00F0088420BD228688F
:1033600020F00F0040EA08002860286800F00F00F5
:10337000404540F0E7802068AE4F410709D52169FC
:10338000BA6902F0D1F904D9BA6922F07002114386
:10339000B961010709D56169FA6902F0C5F904D973
:1033A000FA6922F070021143F961C1060AD5A169D8
:1033B000FA6902F4E062914204D9FA6922F4E06207
:1033C0001143F961810609D5E1693A6A02F0ACF965
:1033D00004D93A6A22F070021143396210F00201F6
:1033E0000AD0E268BB6903F00F039A4204D9BB69B3
:1033F00023F00F031A43BA61C2073AD0D4E901019E
:10340000BA6922F470621143B961012807D0032818
:1034100009D002280BD1396889030CD492E03968AD
:10342000C90508D48EE03968890104D48AE0396876
:10343000490740F187803969A94621F0070108430F
:103440003861FFF785F8064641F2883560683969CA
:1034500001F03801B1EBC00F07D0FFF779F8801BFE
:10346000A842F3D90320BDE8F88320684D4600F058
:10347000020151B1E168BA6902F00F02914204D22F
:10348000BA6922F00F021143B961296801F00F01F6
:1034900041450AD9296821F00F0141EA0801296054
:1034A000296801F00F0141454CD1410709D5216937
:1034B000BA6902F039F904D2BA6922F070021143F4
:1034C000B961010709D56169FA6902F02DF904D2E1
:1034D000FA6922F070021143F961C1060AD5A169A7
:1034E000FA6902F4E062914204D2FA6922F4E062DD
:1034F0001143F96180060AD5E069396A01F070016B
:10350000884204D2396A21F070010843386200F021
:1035100027F8B9690E4A0F4BC1F30321515C01F042
:103520001F01C840B969186001F00F01515C01F03A
:103530001F01C8400849086008480068BDE8F84312
:10354000FFF7A2BA0120BDE8F88300BF00200052B7
:10355000E97A0008080000240C000024040000247C
:1035600010B534490869C0F3C20003280FD00228FF
:1035700004BF324810BD40B908688006334858D5AA
:103580000968C1F3C101C84010BD2B4810BD8A6A4B
:10359000886ACB6A4C6BC0F30510F0B103F00103ED
:1035A000C4F3CC0402F003026343022A00EE103A93
:1035B000B8EE400A13D0AAB90A68920651BF9FED2F
:1035C000221A0A68C2F3C102204B42BF23FA02F258
:1035D00001EE102AB8EE411A06E0002010BD9FED62
:1035E000191A01E09FED161A0A6B9FED193A6FF355
:1035F0005F2202EE102AB8EE422A00EE032AB7EE4E
:10360000000A32EE000A02EE100A086BC0F34620F0
:10361000B8EE422A013081EE021A21EE000A01EED4
:10362000100AB8EE411A80EE010ABCEEC00A10EE94
:10363000100A10BD0044025800093D0040787D0189
:103640000024744A20BCBE4B0024744C0090D0036C
:103650000000003970B586B00D4601461446214879
:10366000214EE9B1316800F5006041F0040131609C
:10367000316801F0040100910321049102210291BB
:103680004FF400710191002105910391009901A966
:10369000FEF786FE1548E401305820F07E4019E020
:1036A000316841F001013160316801F001010091A0
:1036B00003210491022102914FF4807101910021B4
:1036C00005910391009901A9FEF76AFE0748305859
:1036D00020F0FE7044EA050108430449705006B02A
:1036E00070BD00BF0000025840450258D0FEFFFFE9
:1036F000F8B5002800F0C58004460078DA4EC0070F
:103700001FD12078800766D5306910F03801B06A83
:1037100044D0182901D1800740D03068E1680029E1
:1037200000F00C8120F01900084301F049FE054625
:103730003068400748D4FEF70BFF401B0228F7D93A
:1037400090E1306900F03801B06A102905D01829DD
:103750000AD100F00300022806D130688003D0D5DA
:1037600060680028CDD18CE06068002800F04681B8
:10377000B0F5A81F00F05981B0F5A02F00F05D81D1
:10378000B0F5803F00F05F81306820F48030306019
:10379000306820F4802002F04CF857E1E06831688E
:1037A000490701D500286CD0316821F01901084380
:1037B00001F006FE05463068400705D4FEF7C8FE56
:1037C00001F047FEF7D9F8BD2069716821F0FE418C
:1037D00041EA006070602078C00618D5306900F0BA
:1037E0003801B06A082905D0182971D100F003000A
:1037F00001286DD13068C00502D5E069802840D12C
:10380000206AF16821F07C5141EA0060F060207884
:10381000000738D42078800648D4207840076AD43E
:10382000676A67B3306900F03800182840F0CA8032
:10383000B16A306B012F24D0A26A01F003039342D6
:103840001FD1E26AC1F3051191421AD10146226BE0
:103850006FF35F21013A914213D1626BC0F34621AD
:10386000013A91420DD1A26BC0F30641013A914257
:1038700007D1E16BC0F306600139884201D1002015
:10388000F8BD0120F8BD706F6169002946D040F095
:1038900001007067FEF75CFE0546706F8007B9D4C3
:1038A000FEF756FE401B0228F7D9DBE03068A1691D
:1038B000002969D040F4805001F082FD054630684F
:1038C0008004AAD4FEF744FE401B0228F7D9C9E0C1
:1038D0003068E169002966D040F0800001F070FD99
:1038E00005463068C0053FF58BAFFEF731FE01F0AD
:1038F000B0FDF6D967E7D6F8000440F48070C6F84A
:103900000004FEF725FE0546D6F80004C00524D4C1
:10391000FEF71EFE401B6428F6D9A3E020F001004C
:103920007067FEF715FE0546706F80077FF572AF72
:10393000FEF70EFE01F08DFDF6D944E720F0010000
:1039400001F03EFD0546306840077FF544AFFEF7C5
:10395000FFFD01F07EFDF6D935E7A068002800F0F4
:103960008580852800F09C80052800F0A180012832
:1039700000F0A480306F20F001003067306F20F03D
:10398000040001F079FE9CE020F4805001F018FD65
:103990000546306880047FF540AFFEF7D9FD01F0A1
:1039A00058FDF6D90FE720F0800001F009FD05462B
:1039B0003068C0057FF52BAFFEF7CAFD01F049FD69
:1039C000F6D900E7306820F0807001F0F9FC054678
:1039D000022F09D13068800140F18480FEF7B8FDE4
:1039E00001F037FDF6D9EEE6306880017FF547AF8C
:1039F000FEF7AEFD01F02DFDF6D9E4E6306820F4C7
:103A0000803001F016FF3060306820F4802001F033
:103A1000D7FC0546306880037FF573AEFEF798FD4E
:103A2000411B03206429F5D9CDE6306840F480209D
:103A30003060306840F4801004E0306840F480204A
:103A400001F0F7FE3060306840F4803001F0B8FCDF
:103A50000546306880033FF554AEFEF779FD401B04
:103A60006428F6D90320F8BD00440258306F20F0D6
:103A7000010001F001FE3067306F20F00400306774
:103A8000FEF766FD054641F28837306F80077FF507
:103A9000C7AEFEF75DFD411B0320B942F5D992E6A2
:103AA000306F40F004003067306F40F0800004E079
:103AB000306F40F0040001F0DFFD3067306F40F000
:103AC00001003067FEF744FD054641F28837306F4C
:103AD00080073FF5A5AEFEF73BFD411B0320B94231
:103AE000F5D970E604F12805B06A40F2F331884355
:103AF0002ECD0843591E40EA0210B0626FF35F21D9
:103B00004FF4FE024FF47E4000EB452080B20844A3
:103B1000A16B02EB01414FF0FE4201F4FE010844AB
:103B2000E16B02EB016101F0FE41084430634FF6A6
:103B3000F871F06A20F00100F062706B8843A16CAC
:103B400040EAC1007063206CF16A21F00C01084367
:103B5000F062F06A616C20F002000843F062F06AE3
:103B600040F48030F062F06A40F40030F062F06AB5
:103B700040F48020F062F06A40F00100F0623068AA
:103B800040F0807001F01CFC0446306880013FF575
:103B900076AEFEF7DDFC011B03200229F5D912E603
:103BA00070B5B8B3044690F8250028B9002084F811
:103BB0002400204600F038F8022084F82500CA21AD
:103BC0002068416201F080FE00BB94E80F00154EB2
:103BD00085693540856125692943A569294385693A
:103BE0002943816143EA0241016101F09AFC68B90D
:103BF0002068D4E9072361691A438569114325F0D8
:103C000060458561826911438161002001F09CFC5F
:103C100002D070BD012070BD012084F82500002075
:103C200070BD00BFBFFF8FFB10B5AEB00446684645
:103C3000B4210430FCF7F2FC20680B49884210D113
:103C40004FF480702C904FF4800000906846FEF78F
:103C5000F3FF08B1FDF771F90448016841F4004130
:103C600001602EB010BD00BF0040005870440258E3
:103C70002DE9F04101F008FC3ED084F82500012038
:103C800084F8240032B16878E978AE78000240EA1E
:103C9000014714E06E78F00604D506F0EF0000F15D
:103CA0000A066E70E878DFF8F480C04707463046B1
:103CB000C047000240EA0747A878C0470646206888
:103CC000CA2141625321416220462D7802F03AF820
:103CD00048B947EA0600216820F0C00040EA4530B4
:103CE000486001F01EFC01F02FFC02D1012184F894
:103CF0002510002184F82410BDE8F0812DE9F04161
:103D000001F0C2FB47D084F82500CA21164620687E
:103D10004162012184F8241001F0D6FD90BB276890
:103D2000B86900F040001EB198B90020E87012E0B8
:103D300008B90020E8702878DFF86080C0470646A0
:103D40006878C04701F0F4FDE978304440EA8150DA
:103D500009E0E87880056A782978AB78120242EAAF
:103D60000141194408430E4908403860B86920F4FD
:103D70008020B861D5E903010843B9690843B861F7
:103D800001F0CFFB01F0E0FB02D1012184F8251006
:103D9000002184F82410BDE8F08100BF215D0008F7
:103DA0007F7F7F00B0B504460068C16821F0A001A4
:103DB000C160FEF7CDFB05462068C068800606D4CA
:103DC000FEF7C6FB01F0FFFCF6D90320B0BD0020D2
:103DD000B0BD0000F8B538B3044600204749A062E2
:103DE0002068884208D0464A904205D0454A904211
:103DF00002D0E2680F2A17D8E268E36B0125083287
:103E000005EB5313D2085A4388420BD03D498842F0
:103E100008D03B4B984218BF082A05D8884218BFE3
:103E2000984203D1102A01D90120F8BD94F88110DD
:103E300029B901F08EFB204600F066F820680221C7
:103E400084F8811001F04EFCD4F818C061688368D2
:103E500003F4F813BCF1806F12D139B1B1F5800FC2
:103E60000ED1A56B35B14FF4800109E0A56BB5F11A
:103E7000805F04D1056845F48055056000E00021AD
:103E8000E56904F1080762692B43A56A2B43E56BDA
:103E90002B43E0CF33438360636B666A43EA0C03D2
:103EA0003343A66B33433B431A43236A1A43D4E993
:103EB00012360A4332432A431A43A36D1A43C2609F
:103EC00049B98268012363F3CC22826002238268AD
:103ED00063F34A228260026D490222F00102026508
:103EE00005D5616DC26822F000421143C160002017
:103EF000C4F88400012184F88110F8BD0038004026
:103F0000003C00400030014010B5B4B004462FA87A
:103F10001421FCF783FB01A8B4210430FCF77EFBDD
:103F20002068184988422AD14FF4005000241A947E
:103F3000019001A8FEF780FE08B1FCF7FEFF1248D1
:103F4000016941F400510161016901F400510091DE
:103F50000099016841F010010160006800F0100054
:103F60000090CDE9314405203390022030904FF489
:103F7000A0402F9000982FA90448FEF711FA34B002
:103F800010BD00BF003401404045025800100258E7
:103F90002DE9F8430446D0E90050994617460E46ED
:103FA000B0F5800F02D1A068002856D094F88000A8
:103FB00001284FD0012084F88000FEF7C9FA80461E
:103FC00001F08CFB44D1002E54D0002F52D004209D
:103FD00001F010FBA4F86A70A4F868706666A4F893
:103FE0006000E065C4E91C00A4F86200A1682068D4
:103FF000B1F5C02F03D1016821F40061016001F027
:10400000E6FB01D101F065FCE068102836D348F2E8
:10401000080509F10106B4F86A00002861D020689B
:104020004169294206D0006B616E01C1616601F0F1
:1040300032FAF0E7FEF78CFA002EECD0A0EB080085
:104040004845E8D301F070FA01F0E1F9BDE8F883E2
:1040500001F07FFA0220BDE8F883042084F8810093
:10406000314632463B46CDF80090204600F00BF931
:10407000BDE8F88301F0CCFABDE8F883072819D928
:1040800009F10106B4F86A0058B320684069C00716
:1040900008D1FEF75DFA002EF4D0A0EB08004845E9
:1040A000F0D3CFE7288E616E21F8020B616601F034
:1040B000F2F9E7E709F10105B4F86A0088B1206870
:1040C0004169C90708D1FEF743FA002DF4D0A0EBEF
:1040D00008004845F0D3B5E701F0BBFA01F0DBF981
:1040E000EAE701F021FA01F0D0FA18BF0120BDE89B
:1040F000F8832DE9F04701F03AFA49D001201D4636
:1041000017460E4601F09BFA804601F0E7FA3DD1D2
:10411000002E40D0002F3ED0032001F06BFAA4F80F
:104120006270A4F86070E665A4F868006066C4E98F
:104130001C00A4F86A00A1682068B1F5C02F03D163
:10414000016841F40061016001F041FB01D101F01F
:10415000C0FBE068102822D36E1CB4F8620000286F
:104160007BD020684169890708D4FEF7F1F9002E59
:10417000F3D0A0EB0800A842EFD37EE001F0E0FA14
:10418000B4F862000138A4F86200E6E701F0E1F952
:104190000220BDE8F08701F03BFABDE8F087072870
:1041A00025D901F0B4FAB4F86200002855D020688F
:1041B0004169890708D4FEF7CBF9002EF3D0A0EBB4
:1041C0000800A842EFD358E0B4F86210022905D3E2
:1041D000E16B19B101F0B4FA504602E001F087FA40
:1041E0003846B4F862100844A4F86200DBE701F036
:1041F0008EFAB4F8620080B320684169890708D458
:10420000FEF7A6F9002EF4D0A0EB0800A842F0D3E8
:1042100033E0B4F86210042907D3E16B412904D3D9
:1042200001F08EFA4FF6FC7011E0B4F8621002292A
:1042300005D3E16B19B101F05AFA504607E0E16D80
:10424000097880F82010E06D0130E0653846B4F858
:1042500062100844A4F86200CBE7204641462A4693
:1042600001F014FE08B101F02AFA01F05DF901F045
:104270000CFA18BF0120BDE8F08701F055F901F0F4
:10428000C6F8BDE8F0872DE9F84F01F070F973D05A
:1042900001209B4615460F4601F0D1F9804601F0FA
:1042A0001DFA5ED1002F6AD0002D68D0BBF1000F3F
:1042B00065D094F88100042802D0052084F881009C
:1042C0000021C4F88410A4F86AB0A4F862B04FF6D4
:1042D000FF76D4E900024368B3435B4443606566FC
:1042E000A4F868B0E765C4E91C11A4F860B0B2F5A1
:1042F000800F016841F00101016001D101F0E9FA8C
:10430000E068DDF828A010283DD348F208050AF13E
:1043100001075E4656EA0B0000F0998001F021FA91
:1043200018BF11F0020104D0E16D04C9026201F06E
:104330002BF9416966B129400AD0006BB4F86A10C4
:104340000139A4F86A10616E01C16166B4F86A604F
:10435000FEF7FEF8002FDDD0A0EB08005045D9D3C2
:104360006FE06168B1F5800F04D1042802D1A06824
:10437000002897D001F0EDF80220BDE8F88F01F099
:1043800047F9BDE8F88F0AF10105072828D95E46EC
:1043900056EA0B005BD001F0E4F918BF11F00201FE
:1043A00006D0E16D31F8022BA9F8202001F0ECF8DD
:1043B000406966B110F0010009D0B9F83000616EB3
:1043C00021F8020B01F067F86166B4F86A60FEF745
:1043D000BFF8002DDCD0A0EB08005045D8D330E06A
:1043E0005F4657EA0B0032D001F0BBF918BF11F05D
:1043F00002010ED0E16D097880F82010B4F8620057
:104400000138A4F86200E16D20680131E165B4F87B
:1044100062B041696FB111F001010AD090F830002B
:10442000616E087001F037F8606E01306066B4F8B4
:104430006A70FEF78DF8002DD3D0A0EB0800504530
:10444000CFD301F071F800F0E2FFBDE8F88F20460D
:104450004146524601F01AFD08B101F030F901F071
:1044600063F801F012F918BF0120BDE8F88F0000D1
:10447000411E0020B0EB116F01D001207047044AAB
:10448000F023516003490B70906007211160704761
:1044900010E000E023ED00E0F0B590F83C20012AA8
:1044A00001D1022140E091E83C00204E25F47C55EA
:1044B00024F47054334022F477222C43684D234374
:1044C0001A430B6923F476231A434B691A430B6B87
:1044D00022F4742223F470231A438B6942EA0343C3
:1044E000026842F48064AC4202BF23F08053CE697C
:1044F0003343AC4214D1AE468D6A0D4FD1E9086CFE
:1045000023F07C7307EA05552B4326F000752B43F7
:1045100043EA0C03744502BF23F00053C96A0B43FE
:10452000002180F83C1053640846F0BDFF87F0FF7F
:104530000000F0FC70B590F83C300222012B2CD02A
:1045400080F83D20464C026842F4806655689368C6
:10455000A64202BF25F470054E6835430E6825F06B
:10456000700535435560B2F1804F0BD0374DAA42EC
:104570001CBF374DAA4205D0364DAA421CBF364D4E
:10458000AA420CD123F0800389681943916000226C
:1045900080F83C20012180F83D10104670BD804D10
:1045A000AA42EFD02D4DAA4218BFA242EAD0EEE7B0
:1045B00010B5044641B108290ED0042914BF04F1F6
:1045C000470004F1450009E094F84400012812D1A5
:1045D000022084F8440012E004F14600007801282B
:1045E00009D10220082908D0042914BF84F8470003
:1045F00084F8450003E0012010BD84F846002068DF
:10460000042202F027FB00F067FF0BD00F48814225
:104610001CBF0F48814205D00E4881421CBF0E4886
:10462000814208D188680F4A01F03DF818BFB2F501
:10463000803F09D110BD5A488142F3D007488142DA
:10464000F0D007488142EDD001F077B90004004076
:1046500000080040000C00400018004000400140ED
:104660000004014007000100FEB500684C49884283
:1046700017D10D48016841F010010160006800F099
:1046800010000090012005900020CDE903000220D9
:1046900002904FF480600190009801A90348FDF753
:1046A0007FFE06B080BD00BF404502580010025892
:1046B000B0B501F052F904BF0220B0BD01F046F9D7
:1046C000052948D8DFE801F0030B131B23332068CA
:1046D000294602F0CFFA206850F8181F1EE0206823
:1046E000294602F007FB206850F8181F26E02068D2
:1046F000294602F039FB206850F81C1F0EE02068A4
:10470000294602F06DFB206850F81C1F16E0206857
:10471000294602F095FB206850F8541F41F008012B
:104720000160016821F00401016029690FE020683F
:10473000294602F0AFFB206850F8541F41F4006195
:104740000160016821F48061016029690902026841
:10475000114301600020002184F83C10B0BD58B125
:1047600010B501F09CF803D100F0C8FF00F006F886
:1047700001F042F900F095BE0120704781B0006859
:104780000749884209D10748016841F001010160E9
:10479000006800F001000090009801B0704700BF71
:1047A0000000014050450258FEE700688169890712
:1047B00001D5002181628169C90703D1816941F076
:1047C00001018161704700002DE9F047044600684F
:1047D0008A4600278169C90601D4002146E0904637
:1047E0000AF101064FF0200900251021C1618169FD
:1047F00001F02001294334D10025002EF7D0FDF728
:10480000A7FEA0EB08012068514503D80025BAF1A6
:10481000000FECD1436894F8421082695B0409D41C
:1048200012F4004218BF202904D001F0B2F8FDF7BD
:104830008FFE80460025206881698906D7D4FDF760
:1048400087FEA0EB08001A28F5D3606C012540F024
:104850002000606484F8419084F8407084F84270CD
:10486000E9E70DB92021C161012104278269D3053F
:1048700005D54FF48071C16147F00107012153054F
:1048800005D4920509D469B90020BDE8F0874FF43A
:1048900080610837C161910504D547F002074FF4E4
:1048A0000071C1612046FFF780FF20686D4A4168B2
:1048B00011404160606C384300F078FE0120BDE893
:1048C000F08700BF2DE9FC410446214815460090C1
:1048D0001E46DAB2002300F054FE01F00FF810B1CA
:1048E0000120BDE8FC81012E03D000F092FF0028DA
:1048F000F6D101F03AF84021009700F041F8002885
:1049000018BF0120BDE8FC812DE9FC410446104898
:10491000154600901E46DAB24FF0807300F031FE6B
:1049200000F0ECFF10B10120BDE8FC81012E03D0A6
:1049300000F06FFF0028F6D101F017F880210097F2
:1049400000F01EF8002818BF0120BDE8FC8100BF60
:104950000020008070B500686FF39F21049D074E12
:104960001943446841EA0241294324EA555421F09D
:10497000004134402143416070BD00BF009C00FCF9
:104980002DE9F8431D4616460F468146DDF8208086
:104990005C1CD9F8000080693840C01BB0FA80F078
:1049A0004009B0421AD1002CF3D0FDF7D1FDA0EBA5
:1049B0000800A84201D8002DEBD1D9F8440040F0FE
:1049C0002000C9F84400202089F84100002089F81F
:1049D000400089F842000120BDE8F8830020BDE8CE
:1049E000F883000070B515460E46044620688069BD
:1049F00040071CD400F041FF88BB2068816989060C
:104A000010D4FDF7A5FD401BB04201D8002EEDD11A
:104A1000606C40F02000606400F0F6FD202084F817
:104A200041001CE08169490703D5218D09B10020AF
:104A300070BD81690022C9064FF0000102D5102225
:104A4000C261042262642022C261064D43682B4089
:104A5000436084F8412084F8401084F8421001201B
:104A600070BD00BF00E800FE70B515460E46044656
:104A700020688069800610D400F0FFFE58B9FDF769
:104A800067FD401BB04201D8002EF1D1606C40F0B0
:104A9000200000F08BFD012070BD002070BDF8B536
:104AA00015460E4604464F1C20688069800712D4C4
:104AB00000F0E3FE68B9002FF6D0FDF749FD401B7A
:104AC000B04201D8002EEFD1606C40F0200000F021
:104AD0006DFD0120F8BD0020F8BD000070B52DED82
:104AE000048B194E0C463168896B814228D03CB347
:104AF00000EE101A01EE104AB8EE408A00EE100ADD
:104B0000B8EE411AB8EE400A30EE480A80EE019A3B
:104B1000FDF71EFD05460120FDF730FCFDF718FDF1
:104B2000401BB0EE481A316800EE100AA042B8EE01
:104B3000400A09EE001ABCEEC10A81ED0E0AEAD362
:104B4000BDEC048B70BD00BF280800242DE9F04F98
:104B500003AF91B0814608208A461D4616466C4632
:104B60000C2B08BF062047F8200C5843072101EB07
:104B70004000934920F00700B1F800B0ADEB000011
:104B800047F8280C85468F48A7F1180100F108085E
:104B9000404601F053FBA7F11401404647F8448C0E
:104BA00001F052FBA6F1200047F81CBC47F8409CDE
:104BB00047F8344CC1B2B86947F82C1C00286FD0B4
:104BC0007F4857F8146C4FF0000854464FF0000C23
:104BD00047F8389C008800BA020C57F8180C47F8C0
:104BE0003C0C794800EB011047F8240C10465A465B
:104BF000A84500F0CC80864657F82C0C57F8241CAA
:104C00000C2D01EB080300EB4001704800EB810123
:104C100008BF01EB080357F8280C28F001011B78A6
:104C200000EB010B70464FF0000E04F1080147F84D
:104C3000301CBEF1070F2ED859B2B1F1FF3F08DC8E
:104C40001FFA8CF157F8202C514357F81C2C2BF8E5
:104C500011000CF1010C1FFA8CF1A9424FF0000178
:104C600028BF8C4601341FFA84F94E4540F29E80DD
:104C7000A9EB0A015B000EF1010EA942D9D157F848
:104C8000381C57F83C3C5446013147F8381C89B26F
:104C90008B4202D88AE057F8304C08F10108A7E7A8
:104CA0009BFA9BF047F8240C57F814BC00264FF0F1
:104CB000000E47F8489CC748008890FA80F857F8DB
:104CC000180C47F84C0C404800EB011047F8380C22
:104CD0005046AE425BD057F82C2C57F8381C0C2DA0
:104CE000314402EB4203394A02EB830308BF9919AE
:104CF0000C7857F8282C47F8306C26F00101002377
:104D000002EB010900F1080147F83C1C2C49098815
:104D1000072B34D861B21FFA8EF20EF1010EB1F1F9
:104D2000FF3F57F8241CC8BF4FEA184157F8206CC2
:104D3000724329F812101FFA8EF2AA424FF00002B5
:104D400028BF964601301FFA80FCE34557F81C2C1B
:104D50002CD9ACEB0A0201336400AA42D8D118481E
:104D600057F81C2C018057F8480C57F84C1C0130A0
:104D700047F8480C80B28142504604D816E01048EB
:104D8000018057F83C0C57F8306C0136A1E782B02F
:104D900057F8200CCDE90005524657F8283C57E952
:104DA000110101F0A1F957F81C2C02B0044802804F
:104DB00057F834DCA7F10C04A546BDE8F08F00BF1E
:104DC00014000024F800002442E40008CEDF0008AC
:104DD0002DE9F84F834658180C46DDF828900B9FB4
:104DE00002EB0B014FEA590886B25D461FFA81FAC1
:104DF0003A78A2F12000C0B25E2811D8A8B250457E
:104E000024BF5FFA8BF54C44A1B2B14208D2002016
:104E100000904B46A8B2FFF799FE45440137E7E7FB
:104E2000BDE8F88F2DE9F04F87B0694C4FF48070E2
:104E3000684D694905F1080BA0810320A060584620
:104E400001F04AFC654E58460521224633689847D2
:104E5000B268291D58469047DFF884A10021614BB4
:104E60000022DAF80000816358460021B46AA047A6
:104E7000FDF76EFB05465C485C4E6427A0EB050918
:104E800000F0EFFB012858D00A20FDF777FAFDF774
:104E90005FFB0446FDF75CFBA0EB0508601BB0F56B
:104EA0007A7F09D808FB07F04FF47A71B0FBF1F074
:104EB000DAF800108863E3E7FDF74AFB40F6B83103
:104EC000884531D848440A2102ACB0FBF1F22046B3
:104ED00047A1FBF763FADFF8F880102001211023C7
:104EE000B8F80020CDE90004A2F11E0080B2FFF75F
:104EF0006FFF3A483746D8F80460846BFDF728FB0B
:104F0000D8F8001048440322009248434FF6FF723D
:104F10004FF4FA610192F21E3E466427B0FBF1F3B2
:104F200058460021A047ABE7401B40F6B931884204
:104F3000A6D302E00A20FDF721FA00F092FB012837
:104F4000F8D000204FF496710024FFF7C7FD2348E6
:104F50001F4E00210022856BD6E90030CDE9000408
:104F60005846A84724480290274C1023102522A019
:104F7000D0E90112CDE90312007B32888DF81400CC
:104F800004200421009502AF0197A047FDF7D8FA4D
:104F900002461EA13846FBF701FA3288042016218A
:104FA0001023CDE90057A0470A481CA142683846A3
:104FB000FBF7F4F93288042028211023CDE90057AB
:104FC000A0476420C82107B0BDE8F04FFFF786BDB9
:104FD00040010024F800002464000024180000248C
:104FE00028080024857B000818FCFFFF00080258F1
:104FF000253033640000000057654163742053740A
:105000007564696F00000000D14D000853544D33A2
:105010003248377878203078255800004C434420B7
:1050200049443A307825580070B50A4E0C4605467A
:10503000082101223046FDF77EFA681EFDF79EF931
:10504000304608210022FDF776FA601EBDE8704068
:10505000FDF794B90010025810B50C4C0020202127
:105060000B4AC4E90210C4E90020C4E90400A061AD
:1050700004F120001421FBF7D1FA2046FBF7C4FF0E
:1050800018B1BDE81040FBF758BF10BD64060024FE
:1050900000000248E0B50A480022016841F0010121
:1050A00001600068002100F00100019001980B20D0
:1050B000FDF76CFD0B20BDE88C40FDF759BD00BF2E
:1050C000384502582DE9F04186B03348002705974E
:1050D0000022016841F010010160016801F0100137
:1050E00000F055F941F004010160016801F004018C
:1050F00000F04DF941F080010160016801F080018C
:1051000000F045F941F001010160016801F0010181
:1051100000F03DF941F008010160016801F008016B
:1051200000F035F941F0020101600068082100F04B
:10513000020000900098194800F5805580462846E6
:10514000FDF7F9F928464FF4205101220126FDF719
:10515000F2F942F6080001900497CDE9026701AE2A
:105160000F4C28463146A0474FF40050019031467D
:105170000225CDE9027508F50060A0474FF4807064
:1051800001903146CDE90477CDE902574046A0476A
:1051900006B0BDE8F08100BF40450258000002584B
:1051A000A123000810B5124C01200021114A124B16
:1051B000C4E9021004F110001421C4E90032FBF725
:1051C0002DFA2046FDF706FA08B1FBF7B6FE0848AF
:1051D0000021FDF7C3F908B1FBF7AFFE0448002139
:1051E000FDF7DAF918B1BDE81040FBF7A6BE10BD17
:1051F0002C070024FFCCB02000540040B0B586B08E
:10520000194800244FF08041184DFF227F23CDE93B
:105210000244CDE90044C0E90054C0E90232C0E9CB
:105220000444C0E90641FEF7BBFC08B1FBF785FE6C
:105230001220ADF80400CDE904448DF8064001A920
:1052400001220948FEF75AFD08B1FBF776FE08482F
:105250000090694601220448FEF70AFD08B1FBF7F9
:105260006CFE06B0B0BD00BF7807002400400058B7
:1052700003060122F8B5144C00204FF000514FF006
:10528000806207234FF4C0254FF480060F4F206241
:10529000C4E90400C4E90900E0624FF08040C4E9B9
:1052A000062160632421C4E90076C4E9025304F1B5
:1052B0003800FBF7B3F92046FEF78CFD18B1BDE8C6
:1052C000F840FBF73ABEF8BDA007002400340140C7
:1052D000B0B598B00EA81C21FBF7A0F901A83421A5
:1052E000FBF79CF92448002440F2E7310D22234BC0
:1052F000C0E90032C0E90241C0E904448461FFF71B
:105300002EFA08B1FBF719FE1794CDE915441A4897
:1053100015A9FFF70FF908B1FBF70FFE0820119050
:1053200000251495CDE91255CDE90F5504226020D2
:105330000E900EA91048FFF7BBF908B1FBF7FDFD71
:1053400001AC14212046FBF769F94FF00070CDE95C
:10535000095021460D950B9507954FF40050069086
:105360000548FFF799F808B1FBF7E7FD0248FFF79A
:105370007BF918B0B0BD00BF280800240000014030
:10538000FEE7FEE705204FF4FA71FFF74DBE0091EE
:1053900000990168704700903146CDE90378CDE966
:1053A000019770470D4606464FF4006100222046E3
:1053B000FDF7C1B88DF8EF00394601223046584755
:1053C0003060FDF7C5B8022084F835000020606524
:1053D0002068056825F0010505602046FBF774BCD0
:1053E000012084F8340094F8350001287047001B30
:1053F000B0F57A7F70471160116841F001011160CA
:105400002022002180F8401080F841207047D4F815
:10541000840040F48070C4F88400002084F8800088
:10542000012084F881000320704728712846FBF78B
:1054300079BAFF2001213047009100990168704737
:105440004FF400610122FDF776B83046394601225B
:105450007047411B032002297047DAF81C005146AF
:1054600040F40030CAF81C007047002084F8340073
:10547000012084F8350070472860FDF769B80446BC
:1054800090F84100202870470D4690F824100446FB
:10549000022001297047B4F86A000138A4F86A00B4
:1054A0007047012084F8480084F83E0084F83F00EB
:1054B00084F8400084F8410084F8420084F84300F6
:1054C00084F8440084F8450084F8460084F84700D6
:1054D00084F83D00002010BD2168B1F1804F486C78
:1054E00040F40040486470471321002307F1200472
:1054F0004A4620462847201D012100F04FBB0120CD
:1055000084F8340094F8350001287047384629465D
:1055100001228DF813604047DAF84010002552460A
:105520007047204600F032BC204600F059BC0846C7
:105530001146184704F12400002100F08FBB0446F7
:1055400090F8340001287047FF22216800284A6241
:105550007047002084F880007047204636214A4674
:1055600000232847DAF848100025524670470446C1
:1055700090F88000012870473A4601238DF8EF909B
:1055800020472046FFF7E6B9B4F86220013AA4F8B4
:105590006220E165B4F862B070473A4601238DF8A5
:1055A000EF502047201D022100F0F8BA606420204F
:1055B00084F84100002084F8400084F842007047DD
:1055C0008DF8EF00394601227047DAF844100025C3
:1055D000524670472068616A406A0870608D0138E1
:1055E0006085606A01306062208D411E2185608D7A
:1055F0000904704784F881000020C4F884007047D3
:105600000843CAF840007047002084F84000704703
:10561000002084F88000012070473860FCF798BFB4
:10562000616A206811F8012B8262608D0138608503
:105630006162208D411E2185608D09047047D4F878
:10564000009084F88000FCF783BF0843CAF8480044
:10565000704790F83000616E0870606E01306066CF
:10566000704730464FF40051FCF760BF3046394672
:1056700001228DF8EF9058473067306F20F080009E
:105680007047002184F834107047012084F88100AD
:10569000002084F88000D4F8840000287047084374
:1056A000CAF84400704702400020062A7047FF21D4
:1056B000218500902046FF224FF080737047D4F878
:1056C000840040F02000C4F884007047618D4FF0E2
:1056D0000073218500902046CAB2704794F881007B
:1056E00001287047016821F0010101607047E06DF9
:1056F00030F8021BA9F82010E0657047002084F8FC
:105700003C0020467047CDF80090FFF739B94FF6BE
:10571000FC706E1C00F1020AC71C70473046394607
:1057200001228DF8EF50584702F070029142704705
:10573000E16D012201F01F0102FA01F141607047A1
:10574000E16D04C90262E165704784F841001020F0
:1057500084F8420000206064668560636562618D44
:1057600070472068BBF1000F41697047C161426812
:105770001A40426084F8411084F8407084F8427006
:105780007047C16142681A40426084F8411084F851
:10579000405084F8425070473046394601228DF817
:1057A000EF80584704F12400022100F057BAE16D60
:1057B0003F2201F01F0102FA01F18160704794F865
:1057C000400001287047401BB0F57A7F7047416860
:1057D0004FF6FF72914339444160016841F0010185
:1057E00001606168B1F5800F70474FF4007060642C
:1057F000704701271E461546884684F84070FCF71E
:10580000A7BE01251F4616468A4684F84050FCF77D
:105810009FBE2068290A3A46816220464146FFF72A
:105820003EB90D188DF8032020464946012202F0AA
:1058300013B93060306820F480107047B8626FF39D
:105840005F214FF47E4000EB42204FF0FE4280B2D9
:1058500008444FF4FE0101EB034101F4FE0108444A
:10586000296902EB016101F0FE41084470470168BB
:1058700041F0010101600020B0BD204631462A46BA
:10588000FEF7A2BF608DB0F5807F7047608D5146F6
:105890004FF0007320850097C2B22046704704463F
:1058A00090F83D000028704738460A2100F0D4BC2B
:1058B0002046FBF7D5B88146009020464FF40041C2
:1058C00001221923FFF75CB853214162204600F002
:1058D00039BA016841F40071016070470262B04258
:1058E000D1F800C08B68046A456870470262B8420C
:1058F000026A46680C688B68456D7047DDE9088769
:10590000204641463A46FFF7CAB82685009720460A
:105910005146FF224FF0807370473A4601233046CC
:105920002047002084F834004FF400606065704721
:10593000000240EA0646A8784047086840F00100A7
:105940000860002010BD4A46FFF78EB80D460120C2
:105950004FEAB20184F83C007047044690F83C00DE
:10596000012870473846BDE8F8832068E9B2002274
:1059700043468162204670473046394601228DF801
:10598000EF804FF02D08584704F12400012100F06A
:1059900065B9416841F4804141607047002084F856
:1059A0004000204670478A68097B03EBC202002949
:1059B00006EB080152687047201D002100F0EEB888
:1059C00004F16C02002307CA03604A60704784F840
:1059D00041000E99002532463B46402084F84200A3
:1059E0006564C4F824B06563A4F82A808846CDE9CC
:1059F0000019514620467047022084F83D00211DC1
:105A0000206801F0CDB80000E0B5014659480DF11D
:105A10000702FAF72BFF9DF807008CBDE0B503469F
:105A20008DF8071053480DF107021946FAF74EFF9B
:105A30008CBD00BF1CB500F075F80446C8B92848F5
:105A400000F09AF80446A0B904208DF807000DF183
:105A500007010C2000F07AF808B1012409E0214880
:105A600000F08AF8044620B91F4800F085F8044683
:105A700008B120461CBD00208DF806000DF106017E
:105A8000112000F033F80028E7D19DF806000DF151
:105A9000060100F0800001308DF80600112000F0B2
:105AA00055F80028D9D100208DF805000DF1050129
:105AB0006B2000F01BF801240028DAD19DF80500C6
:105AC0000DF1050164F39F108DF805006B2000F0C7
:105AD0003DF80028CDD16420FCF750FC0024C8E735
