:020000040800F2
:1000000070430024C1020008BB450008213A0008E3
:10001000B94500083D040008D78200080000000030
:10002000000000000000000000000000556700080C
:100030003F04000800000000C35100085767000893
:10004000DB020008DB020008DB020008DB0200081C
:10005000DB020008DB020008DB020008DB0200080C
:10006000DB020008DB020008DB020008DB020008FC
:10007000DB020008DB020008DB020008DB020008EC
:10008000DB020008DB020008DB020008DB020008DC
:10009000DB020008DB020008DB020008DB020008CC
:1000A000DB020008DB020008DB020008DB020008BC
:1000B000DB020008DB020008DB020008DB020008AC
:1000C000DB020008DB020008DB020008DB0200089C
:1000D000DB020008DB020008DB020008DB0200088C
:1000E000DB020008DB020008DB020008DB0200087C
:1000F000DB020008DB020008DB020008DB0200086C
:10010000DB020008DB020008DB020008DB0200085B
:10011000DB020008DB020008DB020008DB0200084B
:10012000DB020008DB020008DB020008DB0200083B
:10013000DB0200080000000000000000DB020008F5
:10014000DB020008DB020008DB020008DB0200081B
:10015000DB020008DB020008DB020008DB0200080B
:10016000DB020008DB020008DB020008DB020008FB
:10017000DB020008454B0008DB020008DB02000838
:10018000DB020008DB020008DB020008DB020008DB
:10019000DB020008DB020008DB020008DB020008CB
:1001A000DB020008DB020008DB020008DB020008BB
:1001B000DB020008DB020008DB020008DB020008AB
:1001C000DB020008DB020008000000000000000065
:1001D0000000000000000000DB020008000000003A
:1001E000000000000000000000000000000000000F
:1001F0000000000000000000DB020008DB02000835
:10020000DB020008DB02000800000000DB0200083F
:10021000DB020008DB020008DB020008DB0200084A
:10022000DB020008DB020008DB020008000000001F
:10023000DB020008DB02000800000000DB0200080F
:10024000DB020008DB020008DB020008DB0200081A
:10025000DB020008DB020008DB020008DB0200080A
:10026000DB020008DB020008DB020008DB020008FA
:10027000DB020008DB020008DB02000800000000CF
:10028000DB020008DB02000800000000DB020008BF
:1002900000000000DB020008DB020008DB020008AF
:1002A000DB020008DB020008DB020008DFF80CD0EC
:1002B00000F068F800480047FD88000870430024FB
:1002C0000648804706480047FEE7FEE7FEE7FEE7F0
:1002D000FEE7FEE7FEE7FEE7FEE7FEE71D68000833
:1002E000AD020008D2B201E000F8012B491EFBD29A
:1002F00070470022F6E710B513460A460446194631
:10030000FFF7F0FF204610BD2DE9F05F0546002005
:1003100092469B4688460646814640241BE0284676
:1003200041464746224600F04EF853465A46C01A08
:10033000914110D311461846224600F035F82D1A87
:1003400067EB01084F4622460120002100F02CF8FF
:1003500017EB00094E41201EA4F10104DFDC4846E2
:1003600031462A464346BDE8F09F420005D0C0F31F
:10037000C7525242914201DC0020704700EBC1504D
:1003800070470000064C074D06E0E06840F00103AE
:1003900094E8070098471034AC42F6D3FFF78AFF81
:1003A00050FF000870FF0008202A04DB203A00FA02
:1003B00002F1002070479140C2F1200320FA03F3BC
:1003C000194390407047202A04DB203A21FA02F0BA
:1003D0000021704721FA02F3D040C2F1200291407F
:1003E00008431946704770B58C1810F8015B15F07A
:1003F000070301D110F8013B2A1106D110F8012B97
:1004000003E010F8016B01F8016B5B1EF9D12B07BB
:1004100005D40023521E0DD401F8013BFAE710F871
:10042000013BCB1A921C03E013F8015B01F8015B5E
:10043000521EF9D5A142D8D3002070BDFEE7704707
:10044000EFF3108072B6FEE7B0B5044600F0E2F8B4
:1004500005469C48611C007818BF044400F0DAF897
:10046000401BA042FAD3B0BD2DE9FC4F5C4A0A24E0
:100470004FF0000A4FF0000990425A4A08BF092481
:1004800002444FEAB223092B38BF4FEAB22400944A
:1004900000220E6836FA02F700F0A080012303FA6A
:1004A00002F716EA070B00F09380D1F804E003236B
:1004B0000EF0030CACF10105012D13D803FA09F578
:1004C0008468CB68AC4303FA09F36FEA0508234359
:1004D0008360CEF300134468BC439340570023432A
:1004E00043600BE003FA09F3BCF1030F4F466FEAD8
:1004F000030803D14F464FF0030C20E0C3688C681B
:1005000003EA0803BC402343C360BCF1020F16D1C9
:100510000AF01C030F2404FA03FC6FF0030404EA3E
:10052000520505442C6A24EA0C0C0C6904FA03F306
:1005300043EA0C032B62D1F804E00EF0030C0468CC
:100540000CFA07F304EA0804234303601EF4403F57
:100550003ED0854C254E236843F002032360236878
:100560000F2403F002030193019D0AF00C0322F013
:1005700003059C40AF5927EA0404009F07FA03F3E0
:100580002343AB514FF0B04633684D6843EA0B0448
:10059000EF0258BF23EA0B043460134EAF023368F6
:1005A00043EA0B0458BF23EA0B043460AF03D6F8C8
:1005B000803043EA0B0458BF23EA0B04C6F880409E
:1005C000ED03F36F43EA0B0458BF23EA0B04F4670F
:1005D0000AF1040A09F1020901325AE7BDE8FC8F69
:1005E000002402580000FEA7040000580804005828
:1005F0000069084018BF01207047002A08BF09049D
:1006000081617047024800686FF31F30704700BF78
:100610000010005C05480068704700BF2948034986
:1006200000780A6810440860704700BF68230024FF
:1006300080B5032000F0C4F802F07EF80E490F4B9D
:100640000A68096801F00F01C2F30322595C9A5C41
:1006500001F01F0102F01F02D0401B4A1060C84089
:1006600007490860002000F00DF808B1012080BDA6
:1006700000F06CF8002080BD184402582890000853
:100680001000002470B50F4E04463078B0B14FF41E
:100690007A71B1FBF0F00C490968B1FBF0F003F09E
:1006A00023F801250F2C0AD848B94FF0FF30214616
:1006B0000022002500F068F8746000E0012528465B
:1006C00070BD00BF040000240C0000240278114912
:1006D00043780B60D2B143684B60037B42EA0372FC
:1006E000C37A42EA0362837A42EAC342437B42EA24
:1006F0008342837B42EA4342C37B42EA0342437A1A
:10070000007A42EA032242EA400001E00020486009
:100710008860704798ED00E00B48BFF35F8F016879
:1007200021F480310160002101677047064940F0E3
:1007300001000867086840F480300860BFF34F8FFD
:10074000BFF36F8F704700BF24ED00E081B0064813
:10075000016841F002010160006800F002000090B1
:10076000009801B0704700BF54450258002808D4D3
:1007700000F01F010122400902FA01F1014A42F88A
:100780002010704700E100E070B5134B4FF0FF35CB
:100790001B68C3F30223DC1E83F0070338BF002469
:1007A00005FA04F6B243042B28BF042305FA03F329
:1007B0009943A1401143BDE8704007F0EBBF00BF73
:1007C00005494FF6FF030A681A4060F30A220348FE
:1007D00010430860704700BF0CED00E00000FA0510
:1007E0002DE9F04F8FB000689B4F019002914FF0C0
:1007F00000080DF10C0BC01BB94618BF012000907A
:1008000096488246B8F1020F62D008EB48001421E6
:100810000BEBC0052846FFF76CFD08F10108B8F1A5
:10082000020F0BD15AF8040C5246C0074FF4007067
:1008300004BF40F22220C0F2044001E000205246F2
:1008400005F1100C05F10C0E05F108032E1D002713
:10085000022F3BD052F82740E10705D084EA00017F
:10086000890701D4791C2960E10605D584EA0001D5
:10087000890601D4791C3160E10505D584EA0001BF
:10088000890501D4791C1960E1030DD584EA0001C2
:10089000490309D4791CA2034CBF41F0807141F493
:1008A0008031CEF800105246E1010DD584EA0001F6
:1008B000490109D4791CA2014CBF41F0807141F477
:1008C0008031CCF8001052460137C1E74F4699E716
:1008D000DDF804E03868AEEB0701C00702D14FF045
:1008E000000C05E038684FF0010C20F00100386082
:1008F000B1FA81F25A4902980B68DB0701D18846A8
:1009000006E00B6888460CF1020C23F001030B6033
:100910000099520901EB41040BEBC4039D680AEBFB
:10092000850555F8046C26F4807645F8046C5AF871
:10093000045CED072DD15BF83440002C5ED00AEB4F
:10094000840454F8045C25F0010544F8045C5C68F8
:1009500044B10AEB8404514654F8045C25F01005B8
:1009600044F8045CDC684CB10125514625EA0404D6
:100970005AF8245025F480354AF824501B69EBB30B
:100980000124514624EA03035AF8234024F08074DA
:1009900032E05AF8043C514623F001034AF8043C83
:1009A000BE452BD1099B0AEB830353F8044C44F05A
:1009B000020443F8044C0A9B43B10AEB83035146FB
:1009C00053F8044C44F0200443F8044C0C9B4BB106
:1009D0000124514624EA03035AF8234044F48024B6
:1009E0004AF823400D9B4BB10124514624EA0303EE
:1009F0005AF8234044F080644AF8234002EB420254
:100A0000D0E900565BF832300BEBC2029D425468CD
:100A100013D1A64225462AD1D468C568A54219D16A
:100A200014690569A542354621D15AF8042C51466E
:100A300042F001024AF8042C4BE0A642354616D09B
:100A400095688668AE4203D0D568C668AE4209D1C3
:100A500025460CE035460AE00050005204B400522E
:100A600000A0005215690669AE42254631D10AEB55
:100A70008303564653F8044C24F0010443F8044C15
:100A80003DB106EB850353F8044C24F0100443F801
:100A9000044C936806EB830353F8044C24F48074ED
:100AA00043F8044CD36843B1012424EA030356F805
:100AB000234024F4803446F8234012694AB10123CC
:100AC000514623EA02025AF8223023F080734AF892
:100AD00022304FF44072BE45554608BF4FF4807235
:100AE00083680AEB830353F8044C24F440742244D3
:100AF00043F8042C5AF8042CC2F307434269541EED
:100B00009C4209D9EC4B03EB024255F8043C23F418
:100B10007F031A4345F8042C55F8044C0268013A47
:100B2000E40755F8223023F0030329D10324BE45FE
:100B300008BF0124234345F82230426862B105EB27
:100B400082023023BE4508BF102352F8044C24F023
:100B50002004234342F8043CC368DA0328D4C3B317
:100B60004FF0A062BE45514608BF4FF0807201248D
:100B70009C430AEB84035AF8244024F0E06426E006
:100B800043F0010345F82230426842B105EB82028E
:100B9000012452F8043C64F3051342F8043CC26893
:100BA000D30329D4B2B34FF080736FF0E06427E031
:100BB0004FF4A022BE45514608BF4FF480320124B5
:100BC0009C430AEB84035AF8244024F4E024224393
:100BD0001A600269D3032AD4002A41D04FF0E0639F
:100BE000BE4508BF4FF04073012424EA02025AF8C0
:100BF000224024F0E06427E04FF480336FF4E024D7
:100C00000125514625EA02025AF822502C4023437E
:100C10004AF822300269D30318D40AB3012303240B
:100C200023EA02025AF8223064F31A6316E04FF402
:100C3000E023BE4508BF4FF44033012424EA0202FA
:100C40005AF8224024F4E024234407E0012303243B
:100C500023EA02025AF8223064F312434AF822309F
:100C60005FEACC7203D03A6842F001023A605FEA70
:100C70008C7005D5D8F8000040F00100C8F80000DD
:100C800000200FB0BDE8F08F2DE9F84316460F465F
:100C900003F0F5FF05462068D0F84880D0F81091A1
:100CA000206D04280BD1F868B0F5800F07D12046DD
:100CB0002021002204F06DFA28B1BDE8F88304F089
:100CC000E1F8BDE8F8832068D4F80CC0D7E9002328
:100CD000D7E9021EC0F88820C0F880303A69C0F811
:100CE0009020026822F04352114341EA0E01BCF108
:100CF000806F41F00051016002D004F044F802D04E
:100D0000C0F8488001E0C0F8109120460821012277
:100D10002B460096082603F0EBFE0028CDD1206874
:100D20004662022020650020BDE8F8832DE9FC41E1
:100D300016460F4603F0A3FF0546206D242808D071
:100D4000142817D002281AD1E068B0F1806F05D1BD
:100D500015E0386840F00200032810D12046202119
:100D600000222B4600964FF0000803F0C1FE50B160
:100D7000BDE8FC81386820F001000228EED004F0C4
:100D800081F8BDE8FC8120463946C4F8548003F060
:100D900015FC0028ECD1B86B30B1386802280ED0B1
:100DA000012807D070B111E003F005FF21684E6201
:100DB000BDE8FC81206D242804D0142005E0206DBE
:100DC000142801D1042000E0242020650020BDE883
:100DD000FC810000F8B503F052FF2CB1054600205D
:100DE0006065216D11B1F8BD0120F8BD204600F00D
:100DF00067F804F10C06D4E9000C2F4F2F494CCEB4
:100E000007EB0343876839401143626B1943114371
:100E10006FF0FF0202EB062302EB0C221943E36999
:100E200019438160216AC36823F4E0231943C16038
:100E3000216BA36B43EA01410161E16B416141F226
:100E40008831A165036823F4F8531A4302600091C6
:100E5000204620212B46002203F04AFE0028C2D162
:100E60002068636AA168A269013BC56825F0FF0597
:100E70002B43C360036823F0400319430160A16A58
:100E8000D0F8083123F0A0431943E36A1943C0F8AE
:100E900008110168022A41F00101016003D1816853
:100EA00041F002018160E068B0F1806F14BF022060
:100EB000012020650020F8BD0000FFFFF4F8E0F8F5
:100EC0002DE9F04FB5B0044630A81421FFF711FA10
:100ED00002A8B4210430FFF70CFA20683849884290
:100EE0006BD14FF000704FF00008CDF850800290A9
:100EF00002A800F073FF08B1FFF7A2FA31484FF0E3
:100F0000090A4FF0030902264FF0040B2E4C2F4F15
:100F1000016841F400110160016801F400110191C0
:100F20000199016841F480410160016801F4804148
:100F300001910199C16841F01001C160C16801F0DF
:100F4000100101910199C16841F00201C160C168BD
:100F500001F0020101910199C16841F00801C160ED
:100F6000C06800F0080001900198CDF8D0A0CDE94C
:100F700032893196CDF8C0B030AD04F540602946D5
:100F8000B84732A82946CDE930B680E800072046A8
:100F9000B84731A8294680E840074FF460503090A8
:100FA00004F50060B8470A203490294631A880E84B
:100FB0004003402030902046B84735B0BDE8F08F60
:100FC00000500052344502580004025869040008D9
:100FD0002DE9FC411646884603F051FE2768054678
:100FE000B8F1000FB86CD7F810112AD0226D042A7E
:100FF00029D13A6C01230132A264A26C6264C4F864
:1010000040803A6863F31D723A60E268B2F1806F23
:1010100004D0D7F8002112F4E06F19D0B86420464C
:101020000621012204F0B5F848B997F85000216C68
:10103000087004F022F8F2D103F0BDFD58B1BDE80C
:10104000FC81082000E0102060650120BDE8FC81E3
:10105000C7F81011E3E704F06FB82DE9FC4116461C
:10106000884603F00CFEB8F1000F21D00546276832
:10107000206D04281ED1386C0130A064A06C60641F
:10108000C4F84080386820F0405038602046042181
:10109000012204F07EF848B9206C007887F85000EF
:1010A00003F0EBFFF2D103F086FD40B1BDE8FC8117
:1010B000082000E0102060650120BDE8FC8104F0FC
:1010C0003BB8000001688A6942F000628A6101222F
:1010D000C0F80025002280F8F424486D024A10432D
:1010E00048650020704700BF03000010704700688B
:1010F000416200207047B0B50068436AB1B1846AAC
:10110000013903EB14430024E5B2A94207D900EBEF
:1011100085050134D5F8045103EB1543F4E700EBE2
:10112000810043EA0241C0F8041102E043EA0241AF
:1011300081620020B0BDD0F8080505F007BF01EBC3
:10114000C10200EB8202D0F80805D26C05F07BBE2C
:1011500001EBC10200EB8202D0F80805D2F88C2224
:1011600005F0C2BED0F8080505F0F2BE01F00F028E
:10117000090602EBC20200EB820303F13C0258BFF6
:1011800003F51F720068114606F000BF10B5044653
:1011900001F00F0003F091FF5DBF002281F87D2276
:1011A00001F51F71012244BF81F83D203C310870D8
:1011B00094F8BC04012804BF022010BD03F0F9FE1E
:1011C00006F034FC03F055BEB0B5044601F00F0044
:1011D0006268904201D901251BE003F06EFF5DBFFC
:1011E000002281F87D2201F51F71012244BF81F8A0
:1011F0003D203C31087000258D7094F8BC04012816
:1012000001D1022505E003F0D4FE06F0C3FD84F809
:10121000BC542846B0BD10B503F019FD04BF022030
:1012200010BD03F0C6FE0A0602D406F0EBFE03E092
:1012300001F00F0106F006FF03F01BBE01F00F01E5
:1012400001EBC10100EB8100D0F89C027047B0B502
:10125000044601F00F0003F030FF5DBF002581F868
:101260007D5201F51F71012544BF81F83D503C318D
:10127000CA600B7108704A7802B10881022B01D153
:101280000020487194F8BC04012804BF0220B0BDBE
:1012900003F08FFE06F01CFB03F0CDBEB0B501F0ED
:1012A0000F0404EBC40100EB81050021C5F8943262
:1012B0000369C5F89C1285F87D12C5F88C2285F863
:1012C0007C4205F51F71012B08BFC5F89022DAB2E8
:1012D000006814B106F092FD01E006F0B7FC0020B2
:1012E000B0BDB0B5044601F00F054068854284BF2B
:1012F0000120B0BD080609D401EBC100002104EBB8
:10130000800080F87D1200F51F7108E005EBC50034
:10131000012104EB800080F83D1000F13C0194F8BD
:10132000BC2401200D708870012A04BF0220B0BDCA
:1013300084F8BC04206806F045FD2DB9217C2068A6
:1013400004F2C44206F0FAFC03F075BE70B501F079
:101350000F04002604EBC40100EB8105294601F8C7
:101360003C4F8B6101234B700E620A610369012BB4
:1013700008BF2A65DAB2006814B106F03FFD01E04B
:1013800006F064FC002070BD2DE9F04F89B00568BF
:101390008246284606F089FE10B109B0BDE8F08FFC
:1013A00003F0FEFB0028F8D0D5F80808C0F30D20A4
:1013B000CAF8FC0403F0F4FB0146DAF800008907E0
:1013C00003D5416901F00201416105F50061049115
:1013D00006F097FE0146DAF800000595C9063FD5EC
:1013E000816921F0100181612C6A04F00F05C4F3BA
:1013F000434006281CD002282BD147F6F070044049
:1014000027D005EBC50022090AEB80050598D5F821
:101410008C1206F07AFED5F88C02D5F89C1200EBFF
:101420001410C5F88C0201EB1410C5F89C0210E0F2
:101430000AF2C4410598082206F067FE05EBC500D4
:10144000C4F30A120AEB8000D0F89C121144C0F8D1
:101450009C12DAF80000816941F010018161059D5C
:1014600006F04FFE00030DD403F09AFB4003049EE8
:1014700000F1E18003F094FB002800F1A681DAF886
:101480000000BAE1DAF8000006F01AFE06460AF596
:1014900027744FF430684FF0000B0AF2C4400890F4
:1014A000002EE1D0F00700F0B8805FFA8BF9DAF88F
:1014B0000000494606F01DFE0746C0075CD005EB5C
:1014C000080001218160DAF8000008EB0001036CDC
:1014D0008A68DAF81050012D24D115072FD495060B
:1014E00047D412F0280F059D46D1AC46DD4DAB42E6
:1014F00002D9120400F1988054F8042C0969654659
:101500006FF3DF41511A2160B8F5306F2CD1DAF852
:101510009422002A00F08D80DAF88C020844CAF880
:101520008C0221E0CF4D05F58075AB4211D110043E
:10153000059D0AD4900617D52020886014E0C9487C
:10154000059D834218D9100416D54FF400408860D9
:1015500012E0B8F5306F059D06D1DAF8941219B98A
:101560000021089A06F0EAFB50464946FFF7F0FDD5
:1015700002E020208860059D380722D505EB080091
:101580000821B84B8160DAF8001008EB01000A6C02
:1015900081689A4212D9090402D54FF40041816052
:1015A000504600F0B4FBDAF81000012809D1DAF84F
:1015B00000000121089A06F0C1FB02E0504600F04D
:1015C000A6FBF80603D505EB080010218160B807DB
:1015D00016D56869000604D50499486840F480600F
:1015E000486014F81D0C012806D1002004F81D0CD9
:1015F0004946504600F05FFA05EB08000221816081
:10160000B80603D505EB080020218160B80404D595
:1016100005EB08004FF400518160243408F12008E4
:1016200076080BF1010B3BE74FF4004088606546FC
:10163000A2E7012195E7DAF8000006F03AFD074637
:101640000AF2C4400022029005F510600690002FB7
:101650003FF410AFF80700F0B580D1B2DAF800001F
:101660000792089106F033FD0446C00727D0079B78
:101670000122716B03F00F0002FA00F021EA000072
:101680007063069800EB43108260DAF810000128BE
:1016900011D103EBC3000AEB8000D0E91212114410
:1016A000C16443B9DAF8540028B9DAF8000001211E
:1016B000029A06F043FB50460899FFF740FD2007C9
:1016C000079A04D50698082100EB42108160E006D5
:1016D00004D50698102100EB42108160600604D505
:1016E0000698402100EB42108160A00718D52846DB
:1016F000114606F0A7FC079A02EBC2000AEB800035
:1017000010F83F1F012906D10021017050460899A9
:1017100000F0CDF9079A0698022100EB4210816093
:1017200020064FD502EBC2000AEB800BD94659F8D0
:10173000541FC84658F8080F814243D3DAF80040D6
:101740000D1A5BF8481F039757460BF104068D42AC
:1017500088BF0D4604EB421101F5106A15E03D7C8F
:101760003168DBF800300095151A20469D4288BF8D
:101770001D46ABB2089A06F09DFD306828443060E3
:10178000D8F800002844C8F80000D9F80020DAF89A
:101790001830E91C9BB2B3EB910F28BF8242DED810
:1017A0008242BA46059DDDE90376079A0AD802F01F
:1017B0000F00012101FA00F0D4F8341821EA0000EA
:1017C000C4F834087F08013241E7706820F0010056
:1017D00070609AF8F404012807D100208AF8F40414
:1017E00000215046FFF782FC02E0504600F079FAF3
:1017F00003F0A8FB01F00041416106F082FC000506
:1018000002D4DAF800000AE0B068C00702D05046FF
:1018100000F09CFA03F096FB01F40061416106F0D0
:1018200070FC000117D503F08DFB01F000614161F0
:101830009AF8F41419B1504600F088FA0BE001212F
:101840008AF8F414406D0121C0F38300CAF8F8044B
:101850005046FFF74BFC03F0A3F9C00404D4DAF8B8
:10186000000055E00A30544FD5F80408102120F04C
:101870000100C5F80408DAF8000006F0E3FB05F5FE
:101880001060DAF804104FF67F32A9B18260013996
:10189000036823F400130360C0F80822D0F8003274
:1018A00023F40013C0F80032D0F8003243F0006394
:1018B000C0F800322030E8E7F06940F00110F06134
:1018C000DAF8300040B1D6F8840040F00B00C6F8DA
:1018D000840006F1440006E0706942F22B010843DF
:1018E000706106F1100001680AF2C44241F00B0178
:1018F0000160306820F4FE6030609AF81010DAF869
:10190000000006F01BFA03F01DFB01F48051416159
:1019100006F0F7FB0146DAF80000890419D506F055
:101920000FF8DAF8000006F0B1FBCAF80C00DAF89C
:10193000004000F0E1FE9AF80C200146204606F037
:1019400041FC504600F0B8F903F0FCFA01F40051F4
:10195000416106F0D6FB000702D4DAF8000007E088
:10196000504600F0C2F903F0EDFA01F008014161C0
:1019700006F0C7FB000606D403F012F9C00219D422
:10198000DAF8000038E00599012440F2A3258869BF
:1019900020F080008861DAF804008442ECD21AF862
:1019A0000500012803D1E1B25046FFF7DFFB2435E3
:1019B0000134F0E705980AF163040126012700F5D8
:1019C0001265DAF80400874211D260782968B1F113
:1019D000FF3F08DC012806D147F080002670C1B225
:1019E0005046FFF7C3FB243420350137E9E703F005
:1019F000A9FA01F480114161059C06F082FB800286
:101A000002D4DAF8000030E004F532610AF52970FA
:101A1000DAF8042001230124944221D206780D68CB
:101A2000B5F1FF3F13DC012E11D1DAF8FC6405F4A7
:101A3000803506F00106B54209D1059EB56945F02D
:101A40008005B56100F8013C75692D0603D5243089
:101A500020310134E0E70499486840F400704860A0
:101A600003F070FA01F40011416106F04AFB4000F6
:101A700002D4DAF8000007E05046FFF75CFB03F001
:101A800061FA01F08041416106F03BFB40077FF5C0
:101A900084ACDAF800004468610704D55046FFF7CB
:101AA00061FBDAF8000041682143416075E4D0F839
:101AB000080505F0B1BAD0F8080505F0BCBA2DE963
:101AC000F04F8BB0002800F087800446056890F83E
:101AD000BD0428B9002084F8BC04204600F092F828
:101AE000032084F8BD04E86BC00501D40020206108
:101AF000206806F0A5F804F1040B04F1140E04F1BB
:101B0000240A20680A90D4E90C509BE80E089EE84D
:101B1000C0509AE80007CDE90850CDE900B602A808
:101B200080E8805005A880E800070A9805F016FFB5
:101B300000284ED120680021002506F001FB6168D5
:101B400001200022D3B2994210D903EBC30604EB63
:101B5000860686F83C20A6F8443086F83D00756578
:101B6000C6E9125586F840500132EBE7002000220A
:101B7000D3B299420FD903EBC30304EB830383F879
:101B80007C22C3F89402C3E9A20083F8800283F8A0
:101B90007D020132ECE704F1140E04F1240AA0687E
:101BA0000A902268D4E9033BD4E90C509EE8C05067
:101BB0009AE80007CDE90850CDE900B602A880E810
:101BC000805005A880E8000710460A9A05F07CFFBF
:101BD00030B1022084F8BD0401200BB0BDE8F08FC5
:101BE000002084F83800012084F8BD04606A0128D0
:101BF00002D12046FFF766FA206805F059FF002061
:101C0000EBE7000070B5B4B004462FA81421FEF72E
:101C100070FB01A8B4210430FEF76BFB2068234958
:101C2000884241D14FF40010249002250024CDE9D0
:101C300010440E954FF400600F900A20CDE90C502F
:101C400060200B9005200A904FF48020019001A89D
:101C500000F0C4F808B1FEF7F3FB00F0AFF8144E43
:101C6000B06840F00100B060B06800F00100009082
:101C70003294CDE930544FF4C0502F9000982FA9E2
:101C80000C48FEF7F1FB30680121002240F00070A3
:101C90003060306800F00070009000984D20FEF732
:101CA00073FD4D20FEF762FD34B070BD00000440AE
:101CB000384502580000025810B50446C06828B1E3
:101CC000022801D0FEF7BCFB012100E00021D4F87E
:101CD000080505F01BFAD4F80805BDE8104005F02A
:101CE000CEB9D0F8080505F0FAB9D0F8080505F026
:101CF00000BA10B502F0ABFF04BF022010BD84F89B
:101D0000381003F056F906F04CFA03F0B2B8D0F8E8
:101D1000082500F2C441104605F004BA10B502F0DF
:101D200096FF04BF022010BD03F0FFF906D1A169A0
:101D3000012903D0816B41F48031816306F05CF9A5
:101D4000206805F0A9FE03F094B8000010B5044621
:101D5000D0F8080505F028FA2068D0F8001E41F0F8
:101D60000101C0F8001E206A20B10348016841F05B
:101D70000601016010BD00BF10ED00E0B0B5124DCE
:101D80002A682968520705D401F00701081A18BF0C
:101D90000120B0BD21F00701084302F06DFF0446A9
:101DA00055F8080C800406D4FEF734FC02F0FFFE60
:101DB000F6D90120B0BD0020B0BD00BF02480168C7
:101DC00041F08071016070470C4802580248016878
:101DD00041F4807101607047004802582DE9F047D6
:101DE0000446C078A54F00071CD5A06E4FEA3051BD
:101DF000032908D8DFE801F002090C11F96941F460
:101E00000031F96109E001260DE002F0ECFF01E08C
:101E100003F0DCF8064630B9A06E396C21F44011AD
:101E20000843386400266078BA46C00701D13546B9
:101E300020E0606D04280BD83546DFE800F0030C85
:101E40000F121200F869354640F40030F86108E0DE
:101E5000012501270FE003F0A9F901E002F08EFF50
:101E600005462F463DB9606D02F073FF21F0070172
:101E700002F0CDFF3746607880071ED5A06D4FEA8F
:101E8000B010052807D8DFE800F003090C0F0F0F8A
:101E900002F0EAFE08E0012501260FE003F086F9D2
:101EA00001E002F06BFF05462E463DB9A06D02F041
:101EB00050FF21F4E07102F0AAFF3E46607840072F
:101EC0001ED5E06D4FEA7020052807D8DFE800F046
:101ED00003090C0F0F0F02F0C7FE08E001250127D0
:101EE0000FE003F063F901E002F048FF05462F46DA
:101EF0003DB9E06D02F02DFF21F4606102F087FF33
:101F00003746E07880071DD5A06C4FEA30100328D3
:101F100006D8DFE800F00B02080B02F0A5FE05E092
:101F2000012501260FE002F05EFF05462E4655B959
:101F3000A06CDAF83C100025524621F0300108432D
:101F4000CAF83C003E466078C0061ED5206E4FEAB7
:101F50003030042807D8DFE800F003090C0F0F0029
:101F600002F082FE08E0012501270FE003F01EF9D0
:101F700001E002F003FF05462F463DB9206E02F056
:101F8000E8FE21F4E04102F042FF37466078800627
:101F90001BD5606E4FEA3040052807D8DFE800F017
:101FA0000C03090C0C0C02F0C4FE04E00125012610
:101FB0000CE003F0E9F805462E463DB9606E02F0EC
:101FC000C8FE21F4E02102F022FF3E466078400680
:101FD0001ED5D4F8AC004FEA3070062808D8DFE8E8
:101FE00000F00D040A0D0D0D0D0002F0A2FE04E03C
:101FF000012501270DE003F0C7F805462F4645B936
:10200000D4F8AC0002F0D2FE21F0E04102F011FF62
:1020100037466078000616D5606F58B1B0F1005FA2
:1020200005D0B0F1805F22D102F01EFE02E002F086
:1020300080FE05462E463DB9606F02F08AFE21F013
:10204000405102F0E4FE3E46E078C00702D1B046BF
:10205000574622E0606C574603280BD8DFE800F0B3
:1020600013021013F86940F40030F8610BE0012509
:102070000126E9E701254FF001080EE0104402585F
:1020800002F0B1FE0546A8463DB9606CF96B00252B
:10209000B04621F003010843F863A078400601D45C
:1020A000474616E0D7F8F00340F48070C7F8F00315
:1020B000FEF7B0FA0646D7F8F003C00507D4FEF7DE
:1020C000A9FA801B6428F6D90325032701E02F46CF
:1020D00085B12078C00748D0D4F880004FEAF000DE
:1020E000052832D8DFE800F037033437373702F0FD
:1020F00020FE2FE0DAF86010D4F8B00055464140D9
:1021000011F4407F0BD0296E2A6E42F480322A6689
:1021100021F440712A6E22F480322A662966B0F5D5
:10212000807F40F0CA81FEF775FA064641F2883991
:102130000327DAF86000800700F1BC81FEF76AFA35
:10214000801B03254845F4D9C3E7012501260DE08E
:1021500003F01AF805462E4645B9D4F8800002F07F
:102160004BFE21F0380102F0B8FE3E462078800791
:1021700019D5E06F052807D8DFE800F00C03090C3B
:102180000C0C02F0D6FD04E0012501270CE002F062
:10219000FBFF05462F463DB9E06F02F02DFE21F012
:1021A000070102F09AFE3746207840071BD5D4F885
:1021B0009800052807D8DFE800F00C03090C0C0C88
:1021C00002F0B7FD04E0012501260DE002F0DCFF7E
:1021D00005462E4645B9D4F8980002F0E7FD21F0F7
:1021E000070102F026FE3E46207880061DD5D4F871
:1021F00094004FEA3070052807D8DFE800F00C03A0
:10220000090C0C0C02F0D2FF04E0012501270DE0BF
:1022100002F0DCFE05462F4645B9D4F8940002F0E2
:10222000EBFD21F0E04102F058FE374620784006F1
:102230001DD5D4F8A0004FEAB020052807D8DFE864
:1022400000F00C03090C0C0C02F0B0FF04E00125B7
:1022500001260DE002F0BAFE05462E4645B9D4F837
:10226000A00002F0A3FD21F4E05102F0E2FD3E46A1
:10227000207800061DD5D4F8A4004FEA7030052858
:1022800007D8DFE800F00C03090C0C0C02F08EFFFD
:1022900004E0012501270DE002F098FE05462F46D7
:1022A00045B9D4F8A40002F081FD21F4604102F0A8
:1022B000C0FD37462068010714D5D4F88810B1F561
:1022C000805F07D102F082FE002818BF0127206836
:1022D000D4F88810DAF84420534622F440521143CF
:1022E000CAF84410C10614D5D4F89C10B1F5807F0B
:1022F00007D102F06BFE002818BF01272068D4F830
:102300009C10DAF84820534622F440721143CAF870
:102310004810000318D5D4F8A800B0F5003F09D044
:10232000B0F5803F03D010BB02F040FF01E002F0A7
:102330004DFE05462E4645B9D4F8A80002F036FDFC
:1023400021F4403102F075FD3E46A07840071ED5CD
:10235000D4F88C00B0F5401F0FD0B0F5001F09D0A5
:10236000B0F5801F40F0A38002F07EFC05E001255F
:102370000126EAE702F008FF05462F4645B9D4F8E2
:102380008C0002F039FD21F4401102F0A6FD374621
:10239000A078C00701D13E4619E0E06CB0F5803F5F
:1023A00003D090B902F060FC02E002F01CFD05468B
:1023B0002E4665B9E06CDAF83C100025524621F44F
:1023C00080310843CAF83C00E5E701250126206872
:1023D000810005D502F0FAFD002818BF012620680B
:1023E00081031CD5D4F884106FF0010202EB312276
:1023F000022A0AD34FEA31223AB1012A06D1DAF889
:102400001C2042F40032CAF81C200DB1012606E05F
:10241000DAF8442022F440721143CAF84410C10291
:1024200007D5A16FDAF8402022F000421143CAF824
:102430004010810207D5E16EDAF8402022F0807268
:102440001143CAF84010010507D5216FDAF848207A
:1024500022F000621143CAF8481041000CD5DAF8A6
:10246000001021F40041CAF80010D4F8B410DAF8D2
:1024700000201143CAF80010B0F1FF3F07DC216DC6
:10248000DAF83C2022F040521143CAF83C10000216
:1024900007D5D4F89000DAF8441021F4400102F096
:1024A0001CFD002E18BF01263046BDE8F08701252F
:1024B00001276DE75546D4F8B0002A68094900F4B1
:1024C000407322F47C5201EA1011B3F5407F6FF3A0
:1024D0001F3008BF0A432A60296E0843286600257A
:1024E000DEE500BFCFFFFF002DE9F843002800F034
:1024F000FB807F4D04468846286800F00F00884224
:102500000BD2286820F00F0040EA080028602868F5
:1025100000F00F00404540F0E7802068BB4F4107C6
:1025200009D52169BA6902F01AFD04D9BA6922F005
:1025300070021143B961010709D56169FA6902F0B6
:102540000EFD04D9FA6922F070021143F961C10647
:102550000AD5A169FA6902F4E062914204D9FA69E4
:1025600022F4E0621143F961810609D5E1693A6A12
:1025700002F0F5FC04D93A6A22F070021143396284
:1025800010F002010AD0E268BB6903F00F039A421F
:1025900004D9BB6923F00F031A43BA61C2073AD0CA
:1025A000D4E90101BA6922F470621143B9610128CA
:1025B00007D0032809D002280BD1396889030CD42D
:1025C00092E03968C90508D48EE03968890104D4DD
:1025D0008AE03968490740F187803969A94621F0C6
:1025E000070108433861FEF715F8064641F28835C1
:1025F0006068396901F03801B1EBC00F07D0FEF710
:1026000009F8801BA842F3D90320BDE8F8832068AD
:102610004D4600F0020151B1E168BA6902F00F02C3
:10262000914204D2BA6922F00F021143B9612968BC
:1026300001F00F0141450AD9296821F00F0141EA53
:1026400008012960296801F00F0141454CD141077B
:1026500009D52169BA6902F082FC04D2BA6922F074
:1026600070021143B961010709D56169FA6902F085
:1026700076FC04D2FA6922F070021143F961C106B6
:102680000AD5A169FA6902F4E062914204D2FA69BA
:1026900022F4E0621143F96180060AD5E069396AE3
:1026A00001F07001884204D2396A21F070010843B8
:1026B000386200F041F8B9691C4A1D4BC1F303218F
:1026C000515C01F01F01C840B969186001F00F01A9
:1026D000515C01F01F01C8401649086005480068B8
:1026E000BDE8F843FDF7CEBF0120BDE8F88300BF89
:1026F000002000520800002480B500F01DF80A49AF
:102700000A4B0A68096801F00F01C2F30322595C01
:102710009A5C01F01F0102F01F02D040044A1060D1
:10272000C8400449086080BD184402582890000839
:102730000C0000241000002410B534490869C0F3CF
:10274000C20003280FD0022804BF324810BD40B990
:1027500008688006334858D50968C1F3C101C840EC
:1027600010BD2B4810BD8A6A886ACB6A4C6BC0F3D7
:102770000510F0B103F00103C4F3CC0402F003022E
:102780006343022A00EE103AB8EE400A13D0AAB909
:102790000A68920651BF9FED221A0A68C2F3C1026D
:1027A000204B42BF23FA02F201EE102AB8EE411A82
:1027B00006E0002010BD9FED191A01E09FED161AEA
:1027C0000A6B9FED193A6FF35F2202EE102AB8EE02
:1027D000422A00EE032AB7EE000A32EE000A02EEA9
:1027E000100A086BC0F34620B8EE422A013081EE91
:1027F000021A21EE000A01EE100AB8EE411A80EE2C
:10280000010ABCEEC00A10EE100A10BD00440258C6
:1028100000093D0040787D010024744A20BCBE4B75
:102820000024744C0090D00300000039F8B5002853
:1028300000F0C58004460078DA4EC0071FD120782A
:10284000800766D5306910F03801B06A44D0182985
:1028500001D1800740D03068E168002900F00C8188
:1028600020F01900084302F09FF905463068400740
:1028700048D4FDF7CFFE401B0228F7D990E130691C
:1028800000F03801B06A102905D018290AD100F0EB
:102890000300022806D130688003D0D56068002884
:1028A000CDD18CE06068002800F04681B0F5A81F0B
:1028B00000F05981B0F5A02F00F05D81B0F5803FA8
:1028C00000F05F81306820F480303060306820F4A0
:1028D000802002F0B4FB57E1E0683168490701D578
:1028E00000286CD0316821F01901084302F05CF92E
:1028F00005463068400705D4FDF78CFE02F0B0F9BC
:10290000F7D9F8BD2069716821F0FE4141EA006005
:1029100070602078C00618D5306900F03801B06AC0
:10292000082905D0182971D100F0030001286DD1C4
:102930003068C00502D5E069802840D1206AF1687E
:1029400021F07C5141EA0060F0602078000738D423
:102950002078800648D4207840076AD4676A67B335
:10296000306900F03800182840F0CA80B16A306B36
:10297000012F24D0A26A01F0030393421FD1E26A1F
:10298000C1F3051191421AD10146226B6FF35F2109
:10299000013A914213D1626BC0F34621013A914250
:1029A0000DD1A26BC0F30641013A914207D1E16B10
:1029B000C0F306600139884201D10020F8BD012032
:1029C000F8BD706F6169002946D040F00100706762
:1029D000FDF720FE0546706F8007B9D4FDF71AFE9B
:1029E000401B0228F7D9DBE03068A169002969D0D3
:1029F00040F4805002F0D8F8054630688004AAD42C
:102A0000FDF708FE401B0228F7D9C9E03068E169EC
:102A1000002966D040F0800002F0C6F80546306814
:102A2000C0053FF58BAFFDF7F5FD02F019F9F6D9BA
:102A300067E7D6F8000440F48070C6F80004FDF79C
:102A4000E9FD0546D6F80004C00524D4FDF7E2FDF3
:102A5000401B6428F6D9A3E020F001007067FDF761
:102A6000D9FD0546706F80077FF572AFFDF7D2FD87
:102A700002F0F6F8F6D944E720F0010002F094F8ED
:102A80000546306840077FF544AFFDF7C3FD02F00F
:102A9000E7F8F6D935E7A068002800F0858085289A
:102AA00000F09C80052800F0A180012800F0A4809F
:102AB000306F20F001003067306F20F0040002F02A
:102AC000DCF99CE020F4805002F06EF80546306896
:102AD00080047FF540AFFDF79DFD02F0C1F8F6D907
:102AE0000FE720F0800002F05FF805463068C0056F
:102AF0007FF52BAFFDF78EFD02F0B2F8F6D900E7B7
:102B0000306820F0807002F04FF80546022F09D19E
:102B10003068800140F18480FDF77CFD02F0A0F870
:102B2000F6D9EEE6306880017FF547AFFDF772FD1C
:102B300002F096F8F6D9E4E6306820F4803002F02E
:102B40007EFA3060306820F4802002F02DF80546CF
:102B5000306880037FF573AEFDF75CFD411B0320F9
:102B60006429F5D9CDE6306840F4802030603068C3
:102B700040F4801004E0306840F4802002F05FFAF6
:102B80003060306840F4803002F00EF8054630685E
:102B900080033FF554AEFDF73DFD401B6428F6D998
:102BA0000320F8BD00440258306F20F0010002F00D
:102BB00064F93067306F20F004003067FDF72AFDBC
:102BC000054641F28837306F80077FF5C7AEFDF7C5
:102BD00021FD411B0320B942F5D992E6306F40F048
:102BE00004003067306F40F0800004E0306F40F048
:102BF000040002F042F93067306F40F001003067A6
:102C0000FDF708FD054641F28837306F80073FF534
:102C1000A5AEFDF7FFFC411B0320B942F5D970E6D4
:102C200004F12805B06A40F2F33188432ECD084301
:102C3000591E40EA0210B0626FF35F214FF4FE02AA
:102C40004FF47E4000EB452080B20844A16B02EBBC
:102C500001414FF0FE4201F4FE010844E16B02EB3A
:102C6000016101F0FE41084430634FF6F871F06AEB
:102C700020F00100F062706B8843A16C40EAC10053
:102C80007063206CF16A21F00C010843F062F06A75
:102C9000616C20F002000843F062F06A40F480307A
:102CA000F062F06A40F40030F062F06A40F4802094
:102CB000F062F06A40F00100F062306840F080702D
:102CC00001F072FF0446306880013FF576AEFDF7F3
:102CD000A1FC011B03200229F5D912E670B500689A
:102CE0004068030C00F03F05CB708D70C0F30424E6
:102CF000C0F342364C700E70CAB92409020A2D097D
:102D000000F00F06C0F3035002F00F0244EA8404FF
:102D100045EA850500EB800002EB44024A7006EBB1
:102D200045058D7003F00F0202EB4000C8700020D3
:102D300070BD70B5006883684B6003696FF3DF3363
:102D40008B60046804F07F058D70C4F38050C870F8
:102D5000C4F306234B70C4F305400870CAB91B09BD
:102D6000220A2D090009260C04F00F0402F00F02BC
:102D700003EB830305EB850540EA800002EB430289
:102D80004A7004EB45048C7006F00F0202EB400021
:102D90000870002070BD000070B5B8B3044690F80C
:102DA000250028B9002084F82400204600F038F8D7
:102DB000022084F82500CA212068416202F08EF9C1
:102DC00000BB94E80F00154E856935408561256983
:102DD0002943A569294385692943816143EA024161
:102DE000016101F0BBFF68B92068D4E9072361697C
:102DF0001A438569114325F0604585618269114355
:102E00008161002001F0C4FF02D070BD012070BDBF
:102E1000012084F82500002070BD00BFBFFF8FFB9C
:102E200010B5AEB004466846B4210430FDF761FA2F
:102E300020680B49884210D14FF480702C904FF4D9
:102E4000800000906846FEF7C9FF08B1FDF7F8FA68
:102E50000448016841F4004101602EB010BD00BF7C
:102E600000400058704402582DE9F04101F00AFF7B
:102E70003ED084F82500012084F8240032B168781F
:102E8000E978AE78000240EA014714E06E78F00677
:102E900004D506F0EF0000F10A066E70E878DFF85E
:102EA000F480C04707463046C047000240EA074763
:102EB000A878C04706462068CA2141625321416272
:102EC00020462D7802F052FA48B947EA06002168F8
:102ED00020F0C00040EA4530486001F03FFF01F0BB
:102EE00057FF02D1012184F82510002184F8241015
:102EF000BDE8F0812DE9F04101F0C4FE47D084F82F
:102F00002500CA21164620684162012184F8241058
:102F100002F0E4F890BB2768B86900F040001EB1E9
:102F200098B90020E87012E008B90020E87028780D
:102F3000DFF86080C04706466878C04702F002F9B3
:102F4000E978304440EA815009E0E87880056A7801
:102F50002978AB78120242EA0141194408430E492C
:102F600008403860B86920F48020B861D5E90301D1
:102F70000843B9690843B86101F0F0FE01F008FFA9
:102F800002D1012184F82510002184F82410BDE825
:102F9000F08100BF495300087F7F7F00B0B5044631
:102FA0000068C16821F0A001C160FDF733FB054650
:102FB0002068C068800606D4FDF72CFB02F00BF8F1
:102FC000F6D90320B0BD0020B0BD0000F8B538B37D
:102FD000044600204749A0622068884208D0464A3B
:102FE000904205D0854A904202D0E2680F2A17D855
:102FF000E268E36B0125083205EB5313D2085A430C
:1030000088420BD07D49884208D03B4B984218BF7C
:10301000082A05D8884218BF984203D1102A01D93E
:103020000120F8BD94F8811029B901F0B6FE2046C0
:1030300000F064F82068022184F8811001F060FF3C
:10304000D4F818C06168836803F4F813BCF1806F8A
:1030500012D139B1B1F5800F0ED1A56B35B14FF456
:10306000800109E0A56BB5F1805F04D1056845F4E6
:103070008055056000E00021E56904F108076269F8
:103080002B43A56A2B43E56B2B43E0CF334383608F
:10309000636B666A43EA0C033343A66B33433B43DB
:1030A0001A43236A1A43D4E912360A4332432A43A5
:1030B0001A43A36D1A43C26049B98268012363F3BE
:1030C000CC2282600223826863F34A228260026D0E
:1030D000490222F00102026505D5616DC26822F045
:1030E00000421143C1600020C4F88400012184F82B
:1030F0008110F8BD00380040003C004070B5B4B00D
:1031000004462FA81421FDF7F4F801A8B821FDF713
:10311000F0F82068384988423DD03849884268D163
:103120004FF4805000251995019001A8FEF756FE36
:1031300008B1FDF785F93248324C0226016941F4A5
:1031400080510161016901F4805100910099016889
:1031500041F008010160016801F008010091009947
:10316000016841F002010160006800F00200009077
:103170000098CDE9315530960520339080202F906E
:103180002FA904F50060FDF76FF918203295CDE9FD
:1031900030652F9027E04FF4005000241A940190DE
:1031A00001A8FEF71BFE08B1FDF74AF914480169B2
:1031B00041F400510161016901F40051009100994D
:1031C000016841F010010160006800F010000090FB
:1031D000CDE93144022030904FF4A0402F90009868
:1031E000084800F54064052033902FA92046FDF7DC
:1031F0003BF934B070BD00BF0034014000300140E5
:1032000040450258000402582DE9F8430446D0E92D
:103210000050994617460E46B0F5800F02D1A068BF
:10322000002856D094F8800001284FD0012084F85F
:103230008000FDF7EFF9804601F05EFE44D1002EDC
:1032400054D0002F52D0042001F0DBFDA4F86A70A6
:10325000A4F868706666A4F86000E065C4E91C0024
:10326000A4F86200A1682068B1F5C02F03D10168FD
:1032700021F40061016001F0B2FE01D101F033FFE1
:10328000E068102836D348F2080509F10106B4F8C1
:103290006A00002861D020684169294206D0006B8D
:1032A000616E01C1616601F0F4FCF0E7FDF7B2F96F
:1032B000002EECD0A0EB08004845E8D301F051FD0A
:1032C00001F081FCBDE8F88301F067FD0220BDE854
:1032D000F883042084F88100314632463B46CDF81D
:1032E0000090204600F00BF9BDE8F88301F093FD53
:1032F000BDE8F883072819D909F10106B4F86A0076
:1033000058B320684069C00708D1FDF783F9002E43
:10331000F4D0A0EB08004845F0D3CFE7288E616ECB
:1033200021F8020B616601F0B4FCE7E709F1010541
:10333000B4F86A0088B120684169C90708D1FDF76F
:1033400069F9002DF4D0A0EB08004845F0D3B5E7AB
:1033500001F073FD01F09DFCEAE701F002FD01F0D0
:1033600095FD18BF0120BDE8F8832DE9F04701F075
:1033700022FD49D001201D4617460E4601F053FD9F
:10338000804601F0B9FD3DD1002E40D0002F3ED047
:10339000032001F036FDA4F86270A4F86070E665C1
:1033A000A4F868006066C4E91C00A4F86A00A1687B
:1033B0002068B1F5C02F03D1016841F400610160BC
:1033C00001F00DFE01D101F08EFEE068102822D33D
:1033D0006E1CB4F8620000287BD020684169890720
:1033E00008D4FDF717F9002EF3D0A0EB0800A8428F
:1033F000EFD37EE001F0C3FDB4F862000138A4F819
:103400006200E6E701F0C9FC0220BDE8F08701F0A8
:1034100002FDBDE8F087072825D901F082FDB4F848
:103420006200002855D020684169890708D4FDF75B
:10343000F1F8002EF3D0A0EB0800A842EFD358E03B
:10344000B4F86210022905D3E16B19B101F097FDC0
:10345000504602E001F059FD3846B4F862100844C5
:10346000A4F86200DBE701F05CFDB4F8620080B311
:1034700020684169890708D4FDF7CCF8002EF4D004
:10348000A0EB0800A842F0D333E0B4F8621004299E
:1034900007D3E16B412904D301F071FD4FF6FC70B5
:1034A00011E0B4F86210022905D3E16B19B101F003
:1034B0002CFD504607E0E16D097880F82010E06DA2
:1034C0000130E0653846B4F862100844A4F86200A0
:1034D000CBE7204641462A4602F0F2FA08B101F055
:1034E00004FD01F03EFC01F0D1FC18BF0120BDE855
:1034F000F08701F036FC01F066FBBDE8F0872DE9AE
:10350000F84F01F058FC73D001209B4615460F463A
:1035100001F089FC804601F0EFFC5ED1002F6AD0FB
:10352000002D68D0BBF1000F65D094F8810004280D
:1035300002D0052084F881000021C4F88410A4F88A
:103540006AB0A4F862B04FF6FF76D4E9000243688F
:10355000B3435B4443606566A4F868B0E765C4E9BB
:103560001C11A4F860B0B2F5800F016841F00101B0
:10357000016001D101F0B7FDE068DDF828A0102856
:103580003DD348F208050AF101075E4656EA0B00F2
:1035900000F0998001F0F8FC18BF11F0020104D08E
:1035A000E16D04C9026201F010FC416966B1294075
:1035B0000AD0006BB4F86A100139A4F86A10616E81
:1035C00001C16166B4F86A60FDF724F8002FDDD010
:1035D000A0EB08005045D9D36FE06168B1F5800FCA
:1035E00004D1042802D1A068002897D001F0D5FBAF
:1035F0000220BDE8F88F01F00EFCBDE8F88F0AF15B
:103600000105072828D95E4656EA0B005BD001F079
:10361000BBFC18BF11F0020106D0E16D31F8022B9E
:10362000A9F8202001F0D1FB406966B110F001003B
:1036300009D0B9F83000616E21F8020B01F029FBC6
:103640006166B4F86A60FCF7E5FF002DDCD0A0EB02
:1036500008005045D8D330E05F4657EA0B0032D01F
:1036600001F092FC18BF11F002010ED0E16D097853
:1036700080F82010B4F862000138A4F86200E16D0F
:1036800020680131E165B4F862B041696FB111F0B1
:1036900001010AD090F83000616E087001F0F9FA6B
:1036A000606E01306066B4F86A70FCF7B3FF002DFD
:1036B000D3D0A0EB08005045CFD301F052FB01F06E
:1036C00082FABDE8F88F20464146524602F0F8F9EA
:1036D00008B101F00AFC01F044FB01F0D7FB18BF70
:1036E0000120BDE8F88F0000411E0020B0EB116FF3
:1036F00001D001207047044AF023516003490B7048
:10370000906007211160704710E000E023ED00E0B9
:10371000F0B590F83C20012A01D1022140E091E867
:103720003C00204E25F47C5524F47054334022F4A0
:1037300077222C43684D23431A430B6923F47623E5
:103740001A434B691A430B6B22F4742223F470233F
:103750001A438B6942EA0343026842F48064AC4234
:1037600002BF23F08053CE693343AC4214D1AE463E
:103770008D6A0D4FD1E9086C23F07C7307EA05557B
:103780002B4326F000752B4343EA0C03744502BF1C
:1037900023F00053C96A0B43002180F83C105364A6
:1037A0000846F0BDFF87F0FF0000F0FC70B590F810
:1037B0003C300222012B2CD080F83D20464C026880
:1037C00042F4806655689368A64202BF25F47005EE
:1037D0004E6835430E6825F0700535435560B2F1EB
:1037E000804F0BD0374DAA421CBF374DAA4205D09F
:1037F000364DAA421CBF364DAA420CD123F080039D
:10380000896819439160002280F83C20012180F8EA
:103810003D10104670BD804DAA42EFD02D4DAA42FA
:1038200018BFA242EAD0EEE710B5044641B108291C
:103830000ED0042914BF04F1470004F1450009E04B
:1038400094F84400012812D1022084F8440012E0C8
:1038500004F146000078012809D10220082908D087
:10386000042914BF84F8470084F8450003E00120D0
:1038700010BD84F846002068042203F077F801F0B8
:1038800029FA0BD00F4881421CBF0F48814205D056
:103890000E4881421CBF0E48814208D188680F4AF9
:1038A00001F01FFB18BFB2F5803F09D110BD5A4887
:1038B0008142F3D007488142F0D007488142EDD0E1
:1038C00001F045BC0004004000080040000C00402E
:1038D00000180040004001400004014007000100C2
:1038E000FEB500684C49884217D10D48016841F087
:1038F00010010160006800F01000009001200590A8
:103900000020CDE90300022002904FF48060019076
:10391000009801A90348FCF7A7FD06B080BD00BFD1
:103920004045025800100258B0B501F01DFC04BF1C
:103930000220B0BD01F011FC052948D8DFE801F0F4
:10394000030B131B23332068294603F01FF820685C
:1039500050F8181F1EE02068294603F057F8206829
:1039600050F8181F26E02068294603F089F82068DF
:1039700050F81C1F0EE02068294603F0BDF82068AF
:1039800050F81C1F16E02068294603F0E5F820686F
:1039900050F8541F41F008010160016821F0040152
:1039A000016029690FE02068294603F0FFF82068CC
:1039B00050F8541F41F400610160016821F48061F6
:1039C0000160296909020268114301600020002199
:1039D00084F83C10B0BD58B110B501F05EFB03D1C6
:1039E00001F09AFA00F006F801F0E4FB01F057B993
:1039F0000120704781B000680749884209D1074813
:103A0000016841F001010160006800F001000090D0
:103A1000009801B0704700BF0000014050450258B7
:103A2000FEE7F0B55200002337240025AA4208BF64
:103A3000F0BD070F04EB1076B0F1204F38BF07F14F
:103A400030064E5545F00106023500018B55EDE775
:103A500070B52DED048B194E0C463168896B81428F
:103A600028D03CB300EE101A01EE104AB8EE408A9E
:103A700000EE100AB8EE411AB8EE400A30EE480ADD
:103A800080EE019AFCF7C6FD05460120FCF7DCFC40
:103A9000FCF7C0FD401BB0EE481A316800EE100A7A
:103AA000A042B8EE400A09EE001ABCEEC10A81ED50
:103AB0000E0AEAD3BDEC048B70BD00BF1C230024AA
:103AC0002DE9F04F03AF91B0814608208A461D468C
:103AD00016466C460C2B08BF062047F8200C5843AE
:103AE000072101EB4000934920F00700B1F800B036
:103AF000ADEB000047F8280C85468F48A7F1180168
:103B000000F10808404602F0B3F9A7F1140140465D
:103B100047F8448C02F0B2F9A6F1200047F81CBC2B
:103B200047F8409C47F8344CC1B2B86947F82C1CA0
:103B300000286FD07F4857F8146C4FF000085446A7
:103B40004FF0000C47F8389C008800BA020C57F878
:103B5000180C47F83C0C794800EB011047F8240C8E
:103B600010465A46A84500F0CC80864657F82C0CE3
:103B700057F8241C0C2D01EB080300EB40017048A2
:103B800000EB810108BF01EB080357F8280C28F06F
:103B900001011B7800EB010B70464FF0000E04F1A1
:103BA000080147F8301CBEF1070F2ED859B2B1F109
:103BB000FF3F08DC1FFA8CF157F8202C514357F8CF
:103BC0001C2C2BF811000CF1010C1FFA8CF1A942EE
:103BD0004FF0000128BF8C4601341FFA84F94E458E
:103BE00040F29E80A9EB0A015B000EF1010EA94292
:103BF000D9D157F8381C57F83C3C5446013147F8A6
:103C0000381C89B28B4202D88AE057F8304C08F150
:103C10000108A7E79BFA9BF047F8240C57F814BC5F
:103C200000264FF0000E47F8489CC748008890FADD
:103C300080F857F8180C47F84C0C404800EB01107E
:103C400047F8380C5046AE425BD057F82C2C57F84A
:103C5000381C0C2D314402EB4203394A02EB83033A
:103C600008BF99190C7857F8282C47F8306C26F0C3
:103C70000101002302EB010900F1080147F83C1C97
:103C80002C490988072B34D861B21FFA8EF20EF145
:103C9000010EB1F1FF3F57F8241CC8BF4FEA18418D
:103CA00057F8206C724329F812101FFA8EF2AA42BC
:103CB0004FF0000228BF964601301FFA80FCE34512
:103CC00057F81C2C2CD9ACEB0A0201336400AA4231
:103CD000D8D1184857F81C2C018057F8480C57F8D1
:103CE0004C1C013047F8480C80B28142504604D841
:103CF00016E01048018057F83C0C57F8306C01363C
:103D0000A1E782B057F8200CCDE90005524657F8DC
:103D1000283C57E9110102F001F857F81C2C02B0B9
:103D20000448028057F834DCA7F10C04A546BDE82E
:103D3000F08F00BF74000024A00100243DF90008AA
:103D4000C9F400082DE9F84F834658180C46DDF8F1
:103D500028900B9F02EB0B014FEA590886B25D4693
:103D60001FFA81FA3A78A2F12000C0B25E2811D879
:103D7000A8B2504524BF5FFA8BF54C44A1B2B142C2
:103D800008D2002000904B46A8B2FFF799FE4544A8
:103D90000137E7E7BDE8F88F2DE9F04F87B0694CB0
:103DA0004FF48070684D694905F1080BA08103202C
:103DB000A060584602F0AAFA654E584605212246F0
:103DC00033689847B268291D58469047DFF884A1A8
:103DD0000021614B0022DAF800008163584600217F
:103DE000B46AA047FCF716FC05465C485C4E6427A5
:103DF000A0EB050901F029F8012858D00A20FCF7AA
:103E000023FBFCF707FC0446FCF704FCA0EB0508C9
:103E1000601BB0F57A7F09D808FB07F04FF47A7180
:103E2000B0FBF1F0DAF800108863E3E7FCF7F2FB8F
:103E300040F6B831884531D848440A2102ACB0FB7D
:103E4000F1F2204647A104F037FEDFF8F880102099
:103E500001211023B8F80020CDE90004A2F11E00D2
:103E600080B2FFF76FFF3A483746D8F80460846B9A
:103E7000FCF7D0FBD8F800104844032200924843D6
:103E80004FF6FF724FF4FA610192F21E3E4664272C
:103E9000B0FBF1F358460021A047ABE7401B40F6CA
:103EA000B9318842A6D302E00A20FCF7CDFA00F02F
:103EB000CCFF0128F8D000204FF496710024FFF7C2
:103EC000C7FD23481F4E00210022856BD6E9003034
:103ED000CDE900045846A84724480290274C1023F7
:103EE000102522A0D0E90112CDE90312007B32880F
:103EF0008DF8140004200421009502AF0197A0471B
:103F0000FCF780FB02461EA1384604F0D5FD32883E
:103F1000042016211023CDE90057A0470A481CA110
:103F20004268384604F0C8FD328804202821102356
:103F3000CDE90057A0476420C82107B0BDE8F04F85
:103F4000FFF786BDF4010024A00100247C010024B9
:103F5000780000241C2300248090000818FCFFFF38
:103F600000080258253033640000000057654163A3
:103F7000742053747564696F00000000453D0008AB
:103F800053544D3332483778782030782558000024
:103F90004C43442049443A307825580070B500F02D
:103FA00032FE17D041F218002844017999B19E4E93
:103FB0002046317803F0E6F8687A02280AD1317891
:103FC000204603F0DFF8994801782046BDE87040AC
:103FD00003F0D8B870BD00680028E8D0687A0028DF
:103FE000E5D192480178204603F0CCF8DFE700BF26
:103FF00010B50446D0F8D40200F081FE14D0407A07
:1040000002280BD188480178204603F0BBF8874886
:1040100001782046BDE8104003F0B4B849B2B1F1D0
:10402000FF3F01DC012800D110BD20460121BDE881
:10403000104000F0D9B800BF10B50446D0F8D40243
:1040400000F05DFE17D0017ACA1E022A05D2204672
:104050000021BDE8104000F0C7B802290BD141F2A1
:104060001D0141F21F020244415C204601F0E4F9C7
:10407000B0F1FF3F00DD10BD20460121E9E700005F
:1040800070B500F0C0FD33D041F210002E18287A30
:10409000012823D060BBD6E90101C6E909016348C4
:1040A0000178204602F06DFF1F280AD130682C49A4
:1040B000884206D1717B012903D8B07B08B1112851
:1040C00017D3717B20460522202301F07DFC0220BE
:1040D00068722046BDE87040FFF760BF41F21F00E4
:1040E000717B2A18204601F0A7F9B0F1FF3F2EDDC1
:1040F00070BD41F21F002A18204601F09DF9297A6F
:10410000B0F1FF3F21DD481E0328F1D3EB6823B354
:10411000D4F8D40200F0F3FDEAD041F218010022F5
:1041200001440E6A81F824200A68F61A0E620421FE
:1041300001723D489A4238BF134605F110020178DA
:104140002046BDE8704003F038B80529C1D12046AB
:104150000121BDE8704000F047B820460021F8E793
:1041600055534243D0F8D41200EB8100D0F8C0027E
:1041700008B100210172704770B500F044FD1AD0FB
:1041800005F5835100222A810A808A70D0F8C40282
:10419000016800208847254E2046317802F0E8FE6D
:1041A00021480178204602F0E3FE00F086FEBDE8DB
:1041B000704002F05BBF70BD70B500F024FD12D0FE
:1041C0004FF48070288118480178204602F029FEBB
:1041D000164E2046317802F024FE00F06EFEBDE857
:1041E000704002F043BF70BDB0B500F00CFD18D0B8
:1041F00041F230000D232A180A481060002028726E
:10420000117309480178204602F0D7FF41F21000EF
:104210001F232A18054801782046BDE8B04002F067
:1042200025BFB0BD5553425314000024150000248F
:104230002DE9F04F87B036484FF00008CDF81880D0
:10424000354F0022016841F010010160016801F062
:10425000100100F07DFC41F004010160016801F0F3
:10426000040100F075FC41F080010160016801F07B
:10427000800100F06DFC41F002010160016801F075
:10428000020100F065FC41F008010160016801F0E5
:10429000080100F05DFC41F00101016000680821A7
:1042A00000F00100019001981A4800F5006683466D
:1042B0003046B84730464FF4205101224FF00109F3
:1042C000B8470BF58065402100224FF0400A284690
:1042D000B84742F608000290CDF81480CDE9039863
:1042E00002AF0E4C30463946A0470220CDE903808C
:1042F00039464FF4005002905846A04728463946A8
:10430000CDE90488CDE902A9A04707B0BDE8F08F48
:104310004045025800080258FB05000869040008DF
:10432000B0B586B068461821FBF7E3FF16480822AF
:104330004FF08043002102250124C0E90A31C0E981
:104340000C121722114BC0E90815C0E90E11C0E983
:104350000034C0E90211C0E90425C0E90614FCF7E5
:1043600039FD08B1FCF76CF84FF00110CDE90240BF
:10437000694641F2883200940348FCF731FA08B1EB
:10438000FCF75EF806B0B0BD7C1C00240050005263
:10439000B0B586B0194800244FF08041184DFF2277
:1043A0007F23CDE90244CDE90044C0E90054C0E9CF
:1043B0000232C0E90444C0E90641FEF7EDFC08B151
:1043C000FCF73EF81220ADF80400CDE904448DF866
:1043D000064001A901220948FEF78CFD08B1FCF74F
:1043E0002FF808480090694601220448FEF73CFD7A
:1043F00008B1FCF725F806B0B0BD00BFE4210024E9
:10440000004000580306012270B5114C002007231C
:104410004FF080514FF080624FF480050D4EC4E99B
:104420000203C4E90400C4E90800C4E90A0000F07A
:1044300093FBC4E9006504F13800FBF75AFF2046FE
:10444000FEF7C4FD18B1BDE87040FBF7F9BF70BDC1
:104450000C22002400300140F8B5124C00204FF02F
:1044600000514FF0806207234FF4C0254FF48006BF
:104470000D4F2062C4E90400C4E90900E06200F0C5
:104480006BFBC4E90076C4E9025304F13800FBF782
:1044900030FF2046FEF79AFD18B1BDE8F840FBF763
:1044A000CFBFF8BD9422002400340140B0B598B0CD
:1044B0000EA81C21FBF71DFF01A83421FBF719FFF3
:1044C0002448002440F2E7310D22234BC0E900329A
:1044D000C0E90241C0E904448461FFF77CFA08B1F5
:1044E000FBF7AEFF1794CDE915441A4815A9FFF75D
:1044F0005DF908B1FBF7A4FF082011900025149581
:10450000CDE91255CDE90F55042260200E900EA979
:104510001048FFF709FA08B1FBF792FF01AC14212C
:104520002046FBF7E6FE4FF00070CDE9095021462A
:104530000D950B9507954FF4005006900548FFF731
:10454000E7F808B1FBF77CFF0248FFF7C9F918B09C
:10455000B0BD00BF1C2300240000014080B503F063
:104560003DFF00F00BF910481049012202F046FC13
:1045700008B1FBF765FF0C480D4902F052FF08B186
:10458000FBF75EFF08480B4902F0CAFE08B1FBF7D3
:1045900057FF054802F06AFF08B1FBF751FFBDE87D
:1045A0008040FDF70BBC00BFA019002418000024B8
:1045B000DC00002440010024FEE7FEE72DE9F04185
:1045C00002688368146824F0405414602BB94B6867
:1045D000146824F08004234313600B68032B0AD073
:1045E000022B11D102F5D07602F5C87C02F5C47514
:1045F00002F5C07E10E002F5B07602F5A87C02F567
:10460000A47502F5A07E07E002F5907602F5887C9D
:1046100002F5847502F5807ED1E912473C43CEF85D
:104620000040CC6A6CB18C6A3460DEF80040D1E99D
:104630000B674B6B24F47C14344323433B43CEF889
:1046400000302B684C6C23F01F0323432B608D6BD1
:1046500025B10B6813B9CB6B013B1364CF68CE69EE
:10466000B7B1DEF8004036B3D5B3434847EA050397
:1046700020403343D1E90445D1E908672B4318436F
:104680000B6C2043384330431843CEF8000045E01C
:10469000002E47D0DEF80000002D48D0364B3F33C7
:1046A000184046EA0503D1E908452B431843204347
:1046B00001F1400442E0002D49D02F4847EA0502AD
:1046C0000D6C00F57C502040D1E9043422431043A6
:1046D00018432843CEF800008868CCF8000033E087
:1046E00043F63F7324EA030846EA0704D1E9045677
:1046F000D1E90873344344EA08042C4323433B4381
:10470000CEF80030C06AB0F1805F07D14869082850
:1047100004D1DEF8000040F00060B6E78868CCF80D
:1047200000000FE0082141650120BDE8F0814B6ADF
:1047300020F47C5001F120043343184323681843CC
:10474000CEF80000886990640020BDE8F081D1E9CE
:10475000042324F03F043B4323431A43CEF80020B4
:10476000C06AB0F1805FB7D148690828B4D1DEF8DB
:10477000000040F00060ADE7C0C0FFF080B505204C
:10478000FBF762FE00F058F90520FBF75DFE0948D3
:10479000043000F0CDF818B9064800F0ADF810B1BB
:1047A0004FF0FF3080BD00F053F8002818BF4FF0E5
:1047B000FF3080BDE00100242DE9F04194B0804637
:1047C000B848002516460F46CDE90C55CDE90A55E7
:1047D000047800F0D6FC03200595694641F2883242
:1047E000002C08BF0120CDE90305CDE9005509954E
:1047F0004FF44070002C08BF4FF4807007904FF0CA
:10480000020008BF322002900B950697CDE91055A3
:10481000CDE912554FF4005008904FF04070CDE9AB
:104820000E06A148FCF782FA30B99F48414641F292
:104830008832FCF712FC20B14FF0FF3014B0BDE815
:10484000F08100F011FB002818BF4FF0FF30F5E7B2
:10485000B0B596B093480478012C06D00DF1030250
:104860002046352103F014FF18B14FF0FF3016B089
:10487000B0BD9DF8030080073CD400F082FC002806
:10488000F3D19DF80300382140F002008DF80300B9
:104890008DF8570001AD2846FBF72BFD00200321C2
:1048A000069041F28832002C08BF0121CDE90410A6
:1048B0000A9008901190312103914FF40051099111
:1048C000002C4FF0407108BF4FF0807100F0AAFB40
:1048D00075482946FCF72AFA0028C6D172480DF11E
:1048E000570141F28832FCF7B8FB002818BF4FF09F
:1048F000FF30BCE70020BAE7B0B56A4D0446052199
:104900002246287803F0C4FE28B92878621C352195
:1049100003F0BEFE10B14FF0FF30B0BD2878A21CEE
:10492000152103F0B5FE002818BF4FF0FF30B0BDD1
:1049300070B596B004465B483821067802AD28462B
:10494000FBF7D7FC00204FF04071CDE90600129034
:1049500041F28832002E08BF4FF0807110910D9007
:1049600009901590CDE913009F2103200491119027
:10497000002E08BF0120059029464B48FCF7D6F9C8
:1049800028B949480DF1050100F0CFF918B14FF0F1
:10499000FF3016B070BD9DF806109DF805009DF81B
:1049A0000720090241EA0040104420600020F0E79F
:1049B000B0B594B004463B48032503780020CDE908
:1049C00000000590002B08BF0125CDE90350099098
:1049D0004FF4407507950B25002B08BFEB2502957A
:1049E00006910D904FF40055082108954FF440357D
:1049F000CDE90B50002B08BF042111911090CDE997
:104A000012002948FF210A914FF04071CDE90E12A2
:104A100041F288326946FCF789F910B14FF0FF3056
:104A200007E02148214600F080F9002818BF4FF028
:104A3000FF3014B0B0BD00BF80B5012003F072FE9E
:104A4000012003F05BFE002003F06CFE002003F069
:104A500055FE002080BD000070B594B00646114898
:104A60006D4600F070F900F08CFB00F092F808BF82
:104A7000012100F051FB08BF4FF4807100F077F97D
:104A800009480696202100F011FB10B14FF0FF30CD
:104A900005E000F0E9F9002818BF4FF0FF3014B02E
:104AA00070BD00BFF00100247C1C0024F8B5064650
:104AB000C8B214460D46C0F58070904228BF10461B
:104AC00087B2304629463A46FFF776FE58B9BC42CF
:104AD0000CD0E41B3D443E442046B4F5807F28BF03
:104AE0004FF48070ECE74FF0FF30F8BD0020F8BDC8
:104AF0002DE9F843DDF82090984616460F46044607
:104B000009F101052068006A384018BF0120B04251
:104B100014D0002DF6D0FBF77DFDA0EB0800484532
:104B200002D8B9F1000FEDD14FF400702065606D2F
:104B300040F0010060650120BDE8F8830020BDE879
:104B4000F88300000148FCF71FBC00BFD81C0024FC
:104B500001910199016870474FF08040C4E9062136
:104B6000606324217047214602F0B4B80D46064622
:104B70004FF4006100222046FBF73FBD8DF8EF00A7
:104B80003946012230465847402100222846FBF78B
:104B900034BD00200321059041F28832002C70477B
:104BA000DAF8000003F0ADBA3060FBF733BD001B4C
:104BB000B0F57A7F70472046022101222B460096ED
:104BC0000226FFF795BFD4F8840040F48070C4F843
:104BD0008400002084F88000012084F881000320F4
:104BE0007047D0F8D42200EB8202D2F8B822002A13
:104BF0007047204602F02BB800F00F0000EB800059
:104C000004EB800070470446D0F8D40204EB800027
:104C1000D0F8C052002D7047D0F8C40281683846E1
:104C200008474FF400610122FBF7E7BC30463946E4
:104C30000122704740210122FBF7DFBCCDE90310C0
:104C40001390CDE911000E900B9007907047044629
:104C500090F8BC0401287047C0F804180020704781
:104C6000411B032002297047DAF81C00514640F42A
:104C70000030CAF81C0070472860FBF7CBBC044624
:104C8000FBF7C8BC0D4690F8241004460220012909
:104C90007047B4F86A000138A4F86A007047012030
:104CA00084F8480084F83E0084F83F0084F840000F
:104CB00084F8410084F8420084F8430084F84400FA
:104CC00084F8450084F8460084F8470084F83D00E5
:104CD000002010BD2168B1F1804F486C40F40040C5
:104CE000486470470020C4F8D4022046104720468C
:104CF00001F0D0BF05463046012101F0D6BF04EBDC
:104D00008000D0F8C00200287047D5F8D40205EB27
:104D10008000D0F8C402C168384608471321002338
:104D200007F120044A462046284741F28832FCF722
:104D30004FB9201D012100F045BA3846294601220D
:104D40008DF8136040471C21047805F12800FBF71B
:104D5000D0BADAF84010002552467047204600F0DD
:104D600029BB204600F056BE084611461847079159
:104D70000B901390CDE911000E90704704F12400C0
:104D8000002100F07FBAD0F8001111F4E06F7047F5
:104D9000FF22216800284A627047002084F88000C2
:104DA0007047204636214A4600232847DAF8481043
:104DB000002552467047044690F88000012870474D
:104DC0003A4601238DF8EF902047B4F86220013A6B
:104DD000A4F86220E165B4F862B070473A46012356
:104DE0008DF8EF502047201D022100F0EBB98DF81F
:104DF000EF00394601227047DAF844100025524688
:104E0000704784F881000020C4F88400704708438C
:104E1000CAF840007047002084F8800001207047E5
:104E20003860FBF7F7BBD4F8009084F88000FBF7FC
:104E3000F1BB0843CAF84800704790F83000616E33
:104E40000870606E01306066704730464FF4005164
:104E5000FBF7CEBB3046394601228DF8EF9058471C
:104E60004FF47A73FEF781BA20460021012203F045
:104E7000C5BB002084F8BC0410BD3067306F20F043
:104E8000800070471020606501207047012084F881
:104E90008100002084F88000D4F884000028704746
:104EA0000020C4F8D40220460847204601F0B2BED4
:104EB00004468121304601F0F8BE41F210003178FD
:104EC0001F232A1820467047D6F8020002BACAF8F3
:104ED0005420B6F80700000470470843CAF844009D
:104EE000704702400020062A7047D4F8840040F042
:104EF0002000C4F88400704794F8810001287047AE
:104F0000016821F0010101607047E06D30F8021B7B
:104F1000A9F82010E0657047002084F83C00204686
:104F200070474FF6FC706E1C00F1020AC71C7047F8
:104F30003046394601228DF8EF5058474FF47A73C6
:104F4000FEF762B9DAF80000416970471C6844F066
:104F500000641C601C6844F080441C60704702F0D0
:104F600070029142704794F89C0201380228704701
:104F700003BA28463946CAF8583000F045BAE16D00
:104F800004C90262E16570472068BBF1000F416906
:104F900070473046394601228DF8EF8058474FF46C
:104FA0007A733046FEF7E1B9044644212846FBF700
:104FB000A0B9012084F8BC042068704704FA03F308
:104FC000D0F81C482343C0F81C38704704F1240073
:104FD000022100F057B9401BB0F57A7F7047416855
:104FE0004FF6FF72914339444160016841F001017D
:104FF00001606168B1F5800F7047D6F8020002BA0F
:10500000CAF85420D6F8060070470D188DF8032012
:1050100020464946012203F047BD40210022204698
:10502000FBF7EBBA0C9007901490CDE91200012029
:105030000F9110907047002084F8BC04B0BD306020
:10504000306820F480107047B8626FF35F214FF42E
:105050007E4000EB42204FF0FE4280B208444FF405
:10506000FE0101EB034101F4FE010844296902EB52
:10507000016101F0FE4108447047206CA16C0139C8
:10508000A16401302064A06C00287047BAF84C007D
:10509000DAF85820DAF800107047044690F83D001E
:1050A0000028704738460A2100F0F0BE02914FF404
:1050B000005108912946FBF739BE090600EBC001F3
:1050C00004EB810170470A5842F000620A500A5806
:1050D00042F080420A5042F21072704753214162FE
:1050E000204600F043B9016841F400710160704747
:1050F0000262B042D1F800C08B68046A456870470C
:105100000262B842026A46680C688B68456D704757
:105110003A46012330462047CDE90310CDE900008F
:1051200009904FF44071002C7047012184F8BC14A1
:105130002068A16A01297047206846620020266520
:10514000BDE8FC81000240EA0646A87840470868AE
:1051500040F001000860002010BD0D4601204FEA1C
:10516000B20184F83C007047044690F83C000128E6
:1051700070473046394601228DF8EF804FF02D08F8
:105180005847204603F0E2BA04F12400012100F060
:1051900079B82B460096FFF7ABBC8A68097B03EB16
:1051A000C202002906EB080152687047201D002149
:1051B00000F008B8022084F83D00211D206801F0AD
:1051C0007BBB7047F8B55F4F0546B86A00F0030037
:1051D000032804BF0120F8BD38680C4620F0806029
:1051E000FFF71EFE06463868000105D5FBF712FAE8
:1051F000801B0228F7D941E095E80F00BE6A26F42B
:105200007C36013946EA0030FFF71EFFB863686953
:10521000F96A21F0C0010843F862A869F96A21F02F
:1052200020010843F8624FF6F871F86A20F0100088
:10523000F862F86B8843E969012C40EAC100F86321
:10524000F86A40F01000F8624FF4001008BF4FF405
:105250008010002C08BF4FF40020F96A0843F86260
:10526000386840F08060FFF7DBFD044638680001D5
:1052700006D4FBF7CFF9001B0328F7D30320F8BDB2
:105280000020F8BDF8B52F4F0546B86A00F00300BE
:10529000032804BF0120F8BD38680C4620F0805078
:1052A000FFF7BEFD06463868800005D5FBF7B2F96A
:1052B000801B0228F7D941E095E80F00BE6A26F06E
:1052C0007C76013946EA0050FFF7BEFE3864686913
:1052D000F96A21F440610843F862A869F96A21F487
:1052E00000710843F8624FF6F871F86A20F4807094
:1052F000F862786C8843E969012C40EAC10078645F
:10530000F86A40F48070F8624FF0807008BF4FF484
:105310000000002C08BF4FF48000F96A0843F862CF
:10532000386840F08050FFF77BFD04463868800005
:1053300006D4FBF76FF9001B0328F7D30320F8BD51
:105340000020F8BD004402580928014698BF0921F1
:10535000CAB20A23B2FBF3F202EB8203A1EB4303CE
:10536000591A084440EA0210C0B27047F8B5044622
:105370000068C168490619D4C1680026012741F0B8
:105380008001C160FBF746F905462168F843C9680A
:1053900040EA9110C0070AD1FBF73CF9FFF71BFE6A
:1053A000F3D9032684F825600027EEE70026F0B243
:1053B000F8BD0000B0B5134D044655F80C0C20F0B4
:1053C000800045F80C0C2868800607D42046FDF7BD
:1053D000E5FD78B1032084F82500B0BD286820F0F1
:1053E000200028602046FDF7D9FD28B1032084F86D
:1053F000250002E00020B0BD0020296841F0200116
:105400002960B0BD1840005810B5D0F8D41200EB98
:105410008101D1F8C01251B141F268041A4409590E
:105420008A4206D900210522212300F0CDFAFF206F
:1054300000E0002040B210BD2DE9FC470546D0F841
:10544000D40205EB8000D0F8C042002C00F0DA81D5
:105450000F4641F21801164604EB010A1178A1F13A
:105460001A02102A26D9AA2900F0CD80032900F0BB
:10547000D480122900F0DF802F2900F0F3805A2910
:1054800000F0FE809E2900F00581A82900F022810D
:10549000002921D1DAF80010002940F062819AF841
:1054A0004A10022900F05081FFF7B6FB002840F0B7
:1054B0004B816CE1DFE802F0091910102C1010107C
:1054C0001035104F101075108B003279DFF8B413BF
:1054D000172A28BF1722D8E02846002105222023BA
:1054E00000F072FA022060728CE130799AF84A106A
:1054F00000F00300012902D1022800F03F810021C1
:10550000012818BF032840F03E818AF84A103EE186
:1055100031790020E060002918BF01218AF84A1083
:1055200071E1D0F8C40269460DF1060243683846BD
:105530009847002840F060819AF84A00022800F05D
:105540005B8104F11000002100220C2A00F022816E
:1055500081540132F9E7D0F8C4020AF150060AF189
:105560004C0831464246436838469847002840F088
:1055700043819AF84A00022800F03E810821E16048
:105580000020A08231680139E1740A0AA2740A0C71
:10559000090E21746274B8F8001009BA090CE1828E
:1055A00031E1217A002940F098809AF9041000290D
:1055B00040F1D7809AF84A10022900F01D81FFF7C8
:1055C0002BFB002840F01881FFF77EFC2CE1217AAC
:1055D000E9B9DAF80010002900F0C3809AF9041044
:1055E000B1F1FF3F40F3BD80FFF716FB002840F00C
:1055F0000381FFF78AFB002800F023812846002161
:1056000002222723FCE0217A002900F0918028461D
:105610003946BDE8FC4700F085B9DAF800000028FB
:1056200000F09F8004F1100000210022122A5DD0BA
:1056300081540132FAE7DAF80010002900F0918075
:105640007178C90740F09280D0F8C40207EBC70117
:105650003279C06900EB810108790530904238BF8A
:10566000024612E07078800700F18880DAE915239D
:1056700028463946FFF7C8FE002840F18880C1E07F
:10568000327A7F491B2A28BF1B22204600F0B8F936
:105690000020B8E0D0F8C4020AF150090AF14C0821
:1056A00049464246436838469847002840F0A4805F
:1056B0009AF84A00022800F09F80D6F80A000021DC
:1056C000002200BAE060D3B2984278D92344013274
:1056D0001974F8E7217A00293FD04FF48050E06038
:1056E00039462846BDE8FC4700F0D2B80C20E075EA
:1056F0009AF84910702020749AF84800884210D017
:1057000004EBC0014FF4825201308A5C01F58251F2
:10571000A2748988A183C1B2043918BF01468AF8EE
:1057200048101220E06030791228B1D8E060AFE76D
:10573000DAF80010A9B19AF90410B1F1FF3F10DDB9
:10574000FFF76AFA002865D02846002102223A2392
:1057500000F03AF90520207254E09AF9041000296B
:1057600043D4284600210522202349E0B078802830
:105770004CD018B945492046062287E72846002123
:10578000052224233CE0022801D10221BDE60020AD
:10579000E06038E00820E074022020830C20E06004
:1057A00000980138E075010AA175010C000E207502
:1057B0006175BDF8060000BA000C608368E7D9F88F
:1057C0000010002020830139E1750A0AA2750A0C35
:1057D000090E21756275B8F8001009BA090C6183C9
:1057E000D6F80A1009BAE1600DE09AF84A100229C9
:1057F00002D0FFF711FAA8B12846002102223A236D
:1058000000F0E2F8FF2040B2BDE8FC871E492046C8
:1058100008223BE7FFF779FAB0B1284600210222BF
:10582000272395E7FFF7E9FBFFF7A2FB0028E9D460
:10583000FFF72CFC504381427FF493AF022020728B
:105840004BE7FFF741FB01E0FFF7D7FBFFF790FBCA
:105850000028D7D4FFF71AFC02FB00F399427FF42B
:1058600080AF0120207204F110025648B3F5805F2A
:1058700028BF4FF480530178284601F0F7FB07E773
:10588000340000244F0000246C0000246600002433
:105890002DE9F0410446D0F8D40204EB8000D0F8A2
:1058A000C072CFB341F23802D0F8C40207F1100839
:1058B000BE18D0F810C0B08DD6E90D2303FB00F55B
:1058C000B5F5805F28BF4FF48055B5FBF0F083B28B
:1058D00008464146E047B0F1FF3F17DD1048424619
:1058E0002B460178204601F068FC3068D6E90D129D
:1058F000401B3060B08DB5FBF0F00144101AC6E9D2
:105900000D1001D103203872002006E0204600214E
:105910000422112300F058F8FF2040B2BDE8F081C6
:10592000140000242DE9F0410446D0F8D40204EB21
:105930008002D2F8C002D8B341F23803D2F8C422B0
:1059400000F11008C618084641465569B38DD6E9DE
:105950000D275F43B7F5805F28BF4FF48057B7FB33
:10596000F3F39BB2A847B0F1FF3F1BDD3068D6E9E7
:105970000D12C01B3060B08DB7FBF0F3CD18D11AFB
:10598000C6E90D5116D001FB00F30E484246B3F5AF
:10599000805F28BF4FF480530178204601F066FBFA
:1059A00000250CE0204600210422032300F00CF81F
:1059B000FF2504E0204600210025FEF715FC68B213
:1059C000BDE8F0811500002470B5D0F8D41200EBCA
:1059D0008100D0F8C00290B141F261014FF48256CB
:1059E000445C00EBC405AA55621CD4B2043C18BF49
:1059F0001446445405F5825000214171037170BD75
:105A000038B1C2600F3001391AB18B5C8354013A4E
:105A1000FAE7704710B5016840F26F344A698B6944
:105A200043F008038B618B6943F010038B610B68B3
:105A300023F001030B600B69A3430B618B6823F414
:105A400040438B6090F88130042B0BD0930609D52E
:105A5000D0F8843043F08003C0F884308B6943F081
:105A600020038B6190F88130032B0BD0530609D5AE
:105A7000D0F8843043F00403C0F884308B6943F0DD
:105A800040038B61930509D5D0F8843043F00103BE
:105A9000C0F884308B6943F400738B61D20509D55B
:105AA000D0F8842042F00802C0F884208A6942F4C9
:105AB00080728A610021A0F86210A0F86A1010BDFF
:105AC000F8B514460D460646571C30684069000775
:105AD00008D4FAF79FFD002FF7D0401BA042F4D363
